{"abi":[{"type":"constructor","inputs":[],"stateMutability":"nonpayable"},{"type":"function","name":"balanceOf","inputs":[{"name":"user","type":"address","internalType":"address"}],"outputs":[{"name":"","type":"uint256","internalType":"uint256"}],"stateMutability":"view"},{"type":"function","name":"balances","inputs":[{"name":"","type":"address","internalType":"address"}],"outputs":[{"name":"","type":"uint256","internalType":"uint256"}],"stateMutability":"view"},{"type":"function","name":"deposit","inputs":[{"name":"amount","type":"uint256","internalType":"uint256"},{"name":"to","type":"address","internalType":"address"}],"outputs":[],"stateMutability":"nonpayable"},{"type":"function","name":"distributeToProver","inputs":[{"name":"prover","type":"address","internalType":"address"},{"name":"proofRequester","type":"address[]","internalType":"address[]"},{"name":"amounts","type":"uint256[]","internalType":"uint256[]"}],"outputs":[],"stateMutability":"nonpayable"},{"type":"function","name":"distributeToProverSingle","inputs":[{"name":"prover","type":"address","internalType":"address"},{"name":"proofRequester","type":"address","internalType":"address"},{"name":"amount","type":"uint256","internalType":"uint256"}],"outputs":[],"stateMutability":"nonpayable"},{"type":"function","name":"distributeToProvers","inputs":[{"name":"prover","type":"address[]","internalType":"address[]"},{"name":"proofRequester","type":"address[][]","internalType":"address[][]"},{"name":"amounts","type":"uint256[][]","internalType":"uint256[][]"}],"outputs":[],"stateMutability":"nonpayable"},{"type":"function","name":"distributor","inputs":[],"outputs":[{"name":"","type":"address","internalType":"address"}],"stateMutability":"view"},{"type":"function","name":"getToken","inputs":[],"outputs":[{"name":"","type":"address","internalType":"contract IERC20"}],"stateMutability":"view"},{"type":"function","name":"initialize","inputs":[{"name":"_pauserRegistry","type":"address","internalType":"contract IPauserRegistry"},{"name":"initialOwner","type":"address","internalType":"address"},{"name":"token","type":"address","internalType":"contract IERC20"},{"name":"_distributor","type":"address","internalType":"address"},{"name":"_pauser","type":"address","internalType":"address"},{"name":"_whitelist","type":"address","internalType":"contract IWhitelist"}],"outputs":[],"stateMutability":"nonpayable"},{"type":"function","name":"owner","inputs":[],"outputs":[{"name":"","type":"address","internalType":"address"}],"stateMutability":"view"},{"type":"function","name":"pause","inputs":[{"name":"newPausedStatus","type":"uint256","internalType":"uint256"}],"outputs":[],"stateMutability":"nonpayable"},{"type":"function","name":"pause","inputs":[{"name":"target","type":"address","internalType":"address"}],"outputs":[],"stateMutability":"nonpayable"},{"type":"function","name":"pauseAll","inputs":[],"outputs":[],"stateMutability":"nonpayable"},{"type":"function","name":"paused","inputs":[{"name":"index","type":"uint8","internalType":"uint8"}],"outputs":[{"name":"","type":"bool","internalType":"bool"}],"stateMutability":"view"},{"type":"function","name":"paused","inputs":[],"outputs":[{"name":"","type":"uint256","internalType":"uint256"}],"stateMutability":"view"},{"type":"function","name":"pauser","inputs":[],"outputs":[{"name":"","type":"address","internalType":"address"}],"stateMutability":"view"},{"type":"function","name":"pauserRegistry","inputs":[],"outputs":[{"name":"","type":"address","internalType":"contract IPauserRegistry"}],"stateMutability":"view"},{"type":"function","name":"renounceOwnership","inputs":[],"outputs":[],"stateMutability":"nonpayable"},{"type":"function","name":"setPauserRegistry","inputs":[{"name":"newPauserRegistry","type":"address","internalType":"contract IPauserRegistry"}],"outputs":[],"stateMutability":"nonpayable"},{"type":"function","name":"transferOwnership","inputs":[{"name":"newOwner","type":"address","internalType":"address"}],"outputs":[],"stateMutability":"nonpayable"},{"type":"function","name":"unpause","inputs":[{"name":"target","type":"address","internalType":"address"}],"outputs":[],"stateMutability":"nonpayable"},{"type":"function","name":"unpause","inputs":[{"name":"newPausedStatus","type":"uint256","internalType":"uint256"}],"outputs":[],"stateMutability":"nonpayable"},{"type":"function","name":"whitelist","inputs":[],"outputs":[{"name":"","type":"address","internalType":"contract IWhitelist"}],"stateMutability":"view"},{"type":"function","name":"withdraw","inputs":[{"name":"amount","type":"uint256","internalType":"uint256"},{"name":"to","type":"address","internalType":"address"}],"outputs":[],"stateMutability":"nonpayable"},{"type":"event","name":"BalanceUpdated","inputs":[{"name":"user","type":"address","indexed":true,"internalType":"address"},{"name":"balance","type":"uint256","indexed":false,"internalType":"uint256"}],"anonymous":false},{"type":"event","name":"Deposit","inputs":[{"name":"user","type":"address","indexed":true,"internalType":"address"},{"name":"amount","type":"uint256","indexed":false,"internalType":"uint256"}],"anonymous":false},{"type":"event","name":"Initialized","inputs":[{"name":"version","type":"uint8","indexed":false,"internalType":"uint8"}],"anonymous":false},{"type":"event","name":"OwnershipTransferred","inputs":[{"name":"previousOwner","type":"address","indexed":true,"internalType":"address"},{"name":"newOwner","type":"address","indexed":true,"internalType":"address"}],"anonymous":false},{"type":"event","name":"Paused","inputs":[{"name":"account","type":"address","indexed":true,"internalType":"address"},{"name":"newPausedStatus","type":"uint256","indexed":false,"internalType":"uint256"}],"anonymous":false},{"type":"event","name":"PauserRegistrySet","inputs":[{"name":"pauserRegistry","type":"address","indexed":false,"internalType":"contract IPauserRegistry"},{"name":"newPauserRegistry","type":"address","indexed":false,"internalType":"contract IPauserRegistry"}],"anonymous":false},{"type":"event","name":"ReserveUpdated","inputs":[{"name":"user","type":"address","indexed":true,"internalType":"address"},{"name":"balance","type":"uint256","indexed":false,"internalType":"uint256"}],"anonymous":false},{"type":"event","name":"Unpaused","inputs":[{"name":"account","type":"address","indexed":true,"internalType":"address"},{"name":"newPausedStatus","type":"uint256","indexed":false,"internalType":"uint256"}],"anonymous":false},{"type":"event","name":"Withdraw","inputs":[{"name":"user","type":"address","indexed":true,"internalType":"address"},{"name":"amount","type":"uint256","indexed":false,"internalType":"uint256"},{"name":"to","type":"address","indexed":false,"internalType":"address"}],"anonymous":false},{"type":"event","name":"WithdrawInitiated","inputs":[{"name":"user","type":"address","indexed":true,"internalType":"address"},{"name":"amount","type":"uint256","indexed":false,"internalType":"uint256"},{"name":"to","type":"address","indexed":false,"internalType":"address"}],"anonymous":false}],"bytecode":{"object":"0x608060405234801561001057600080fd5b50611eaa806100206000396000f3fe608060405234801561001057600080fd5b50600436106101575760003560e01c806370a08231116100c35780639fd0506d1161007c5780639fd0506d146102f9578063bfe109281461030c578063c7cc7b751461031f578063cc2a9a5b14610332578063f2fde38b14610345578063fabc1cbc1461035857600080fd5b806370a082311461027e578063715018a6146102a757806376a67a51146102af578063886f1195146102c25780638da5cb5b146102d557806393e59dc1146102e657600080fd5b806345e37f581161011557806345e37f581461020257806357b001f914610215578063595c6a67146102285780635ac86ab7146102305780635c975abb146102635780636e553f651461026b57600080fd5b8062f714ce1461015c57806310d67a2f14610171578063136439dd1461018457806321df0da71461019757806327e235e3146101c1578063357734fa146101ef575b600080fd5b61016f61016a3660046118e7565b61036b565b005b61016f61017f366004611917565b610549565b61016f610192366004611934565b6105fc565b6097546001600160a01b03165b6040516001600160a01b0390911681526020015b60405180910390f35b6101e16101cf366004611917565b609b6020526000908152604090205481565b6040519081526020016101b8565b61016f6101fd366004611999565b61073b565b61016f610210366004611a33565b610ad4565b61016f610223366004611917565b610b49565b61016f610bc4565b61025361023e366004611a74565b606654600160ff9092169190911b9081161490565b60405190151581526020016101b8565b6066546101e1565b61016f6102793660046118e7565b610c8b565b6101e161028c366004611917565b6001600160a01b03166000908152609b602052604090205490565b61016f610e0c565b61016f6102bd366004611917565b610e20565b6065546101a4906001600160a01b031681565b6033546001600160a01b03166101a4565b609a546101a4906001600160a01b031681565b6099546101a4906001600160a01b031681565b6098546101a4906001600160a01b031681565b61016f61032d366004611a97565b610e9e565b61016f610340366004611b1a565b611010565b61016f610353366004611917565b61117c565b61016f610366366004611934565b6111f2565b606654156103c05760405162461bcd60e51b815260206004820152601c60248201527f5061757361626c653a20636f6e7472616374206973207061757365640000000060448201526064015b60405180910390fd5b6098546001600160a01b031633146103ea5760405162461bcd60e51b81526004016103b790611b9c565b6001600160a01b0381166000908152609c602052604090205460ff16156104535760405162461bcd60e51b815260206004820152601f60248201527f4f6e6c792066726f6d20756e7061757365642063616e2077697468647261770060448201526064016103b7565b6001600160a01b0381166000908152609b60205260409020548211156104a95760405162461bcd60e51b815260206004820152600b60248201526a42616c616e6365206c6f7760a81b60448201526064016103b7565b6104b3828261134e565b604080518381526001600160a01b03831660208201819052917f56c54ba9bd38d8fd62012e42c7ee564519b09763c426d331b3661b537ead19b291015b60405180910390a26001600160a01b0381166000818152609b60209081526040918290205491519182527f8ad64a0ac7700dd8425ab0499f107cb6e2cd1581d803c5b8c1c79dcb8190b1af910160405180910390a25050565b606560009054906101000a90046001600160a01b03166001600160a01b031663eab66d7a6040518163ffffffff1660e01b8152600401602060405180830381865afa15801561059c573d6000803e3d6000fd5b505050506040513d601f19601f820116820180604052508101906105c09190611be0565b6001600160a01b0316336001600160a01b0316146105f05760405162461bcd60e51b81526004016103b790611bfd565b6105f981611394565b50565b60655460405163237dfb4760e11b81523360048201526001600160a01b03909116906346fbf68e90602401602060405180830381865afa158015610644573d6000803e3d6000fd5b505050506040513d601f19601f820116820180604052508101906106689190611c47565b6106845760405162461bcd60e51b81526004016103b790611c69565b606654818116146106fd5760405162461bcd60e51b815260206004820152603860248201527f5061757361626c652e70617573653a20696e76616c696420617474656d70742060448201527f746f20756e70617573652066756e6374696f6e616c697479000000000000000060648201526084016103b7565b606681905560405181815233907fab40a374bc51de372200a8bc981af8c9ecdc08dfdaef0bb6e09f88f3c616ef3d906020015b60405180910390a250565b8483146107a35760405162461bcd60e51b815260206004820152603060248201527f5661756c743a2070726f76657220616e642070726f6f6652657175657374657260448201526f040d8cadccee8d040dad2e6dac2e8c6d60831b60648201526084016103b7565b8481146108045760405162461bcd60e51b815260206004820152602960248201527f5661756c743a2070726f76657220616e6420616d6f756e7473206c656e677468604482015268040dad2e6dac2e8c6d60bb1b60648201526084016103b7565b60005b85811015610acb5782828281811061082157610821611cb1565b90506020028101906108339190611cc7565b905085858381811061084757610847611cb1565b90506020028101906108599190611cc7565b9050146108785760405162461bcd60e51b81526004016103b790611d11565b6000805b86868481811061088e5761088e611cb1565b90506020028101906108a09190611cc7565b9050811015610a87578484848181106108bb576108bb611cb1565b90506020028101906108cd9190611cc7565b828181106108dd576108dd611cb1565b90506020020135609b60008989878181106108fa576108fa611cb1565b905060200281019061090c9190611cc7565b8581811061091c5761091c611cb1565b90506020020160208101906109319190611917565b6001600160a01b03166001600160a01b031681526020019081526020016000205410156109705760405162461bcd60e51b81526004016103b790611d62565b84848481811061098257610982611cb1565b90506020028101906109949190611cc7565b828181106109a4576109a4611cb1565b90506020020135609b60008989878181106109c1576109c1611cb1565b90506020028101906109d39190611cc7565b858181106109e3576109e3611cb1565b90506020020160208101906109f89190611917565b6001600160a01b03166001600160a01b031681526020019081526020016000206000828254610a279190611daf565b909155508590508484818110610a3f57610a3f611cb1565b9050602002810190610a519190611cc7565b82818110610a6157610a61611cb1565b9050602002013582610a739190611dc6565b915080610a7f81611dde565b91505061087c565b50610ab881898985818110610a9e57610a9e611cb1565b9050602002016020810190610ab39190611917565b61134e565b5080610ac381611dde565b915050610807565b50505050505050565b6001600160a01b0382166000908152609b6020526040902054811115610b0c5760405162461bcd60e51b81526004016103b790611d62565b6001600160a01b0382166000908152609b602052604081208054839290610b34908490611daf565b90915550610b449050818461134e565b505050565b6099546001600160a01b03163314610ba35760405162461bcd60e51b815260206004820152601f60248201527f5661756c743a2063616c6c6572206973206e6f7420746865207061757365720060448201526064016103b7565b6001600160a01b03166000908152609c60205260409020805460ff19169055565b60655460405163237dfb4760e11b81523360048201526001600160a01b03909116906346fbf68e90602401602060405180830381865afa158015610c0c573d6000803e3d6000fd5b505050506040513d601f19601f82011682018060405250810190610c309190611c47565b610c4c5760405162461bcd60e51b81526004016103b790611c69565b600019606681905560405190815233907fab40a374bc51de372200a8bc981af8c9ecdc08dfdaef0bb6e09f88f3c616ef3d9060200160405180910390a2565b60665415610cdb5760405162461bcd60e51b815260206004820152601c60248201527f5061757361626c653a20636f6e7472616374206973207061757365640000000060448201526064016103b7565b609a54604051631f36ca9d60e11b81526001600160a01b03838116600483015290911690633e6d953a90602401602060405180830381865afa158015610d25573d6000803e3d6000fd5b505050506040513d601f19601f82011682018060405250810190610d499190611c47565b610d955760405162461bcd60e51b815260206004820152601c60248201527f4f6e6c792077686974656c69737465642063616e206465706f7369740000000060448201526064016103b7565b609754610dad906001600160a01b031633308561148b565b6001600160a01b0381166000908152609b602052604081208054849290610dd5908490611dc6565b909155505060405182815233907fe1fffcc4923d04b559f4d29a8bfc6cda04eb5b0d3c460751c2402c5c5cc9109c906020016104f0565b610e146114eb565b610e1e6000611545565b565b6099546001600160a01b03163314610e7a5760405162461bcd60e51b815260206004820152601f60248201527f5661756c743a2063616c6c6572206973206e6f7420746865207061757365720060448201526064016103b7565b6001600160a01b03166000908152609c60205260409020805460ff19166001179055565b828114610ebd5760405162461bcd60e51b81526004016103b790611d11565b6000805b84811015610ffd57838382818110610edb57610edb611cb1565b90506020020135609b6000888885818110610ef857610ef8611cb1565b9050602002016020810190610f0d9190611917565b6001600160a01b03166001600160a01b03168152602001908152602001600020541015610f4c5760405162461bcd60e51b81526004016103b790611d62565b838382818110610f5e57610f5e611cb1565b90506020020135609b6000888885818110610f7b57610f7b611cb1565b9050602002016020810190610f909190611917565b6001600160a01b03166001600160a01b031681526020019081526020016000206000828254610fbf9190611daf565b909155508490508382818110610fd757610fd7611cb1565b9050602002013582610fe99190611dc6565b915080610ff581611dde565b915050610ec1565b50611008818761134e565b505050505050565b600054610100900460ff16158080156110305750600054600160ff909116105b8061104a5750303b15801561104a575060005460ff166001145b6110ad5760405162461bcd60e51b815260206004820152602e60248201527f496e697469616c697a61626c653a20636f6e747261637420697320616c72656160448201526d191e481a5b9a5d1a585b1a5e995960921b60648201526084016103b7565b6000805460ff1916600117905580156110d0576000805461ff0019166101001790555b6110db876000611597565b6110e486611545565b609780546001600160a01b038088166001600160a01b0319928316179092556098805487841690831617905560998054868416908316179055609a8054928516929091169190911790558015610acb576000805461ff0019169055604051600181527f7f26b83ff96e1f2b6a682f133852f6798a09c465da95921460cefb38474024989060200160405180910390a150505050505050565b6111846114eb565b6001600160a01b0381166111e95760405162461bcd60e51b815260206004820152602660248201527f4f776e61626c653a206e6577206f776e657220697320746865207a65726f206160448201526564647265737360d01b60648201526084016103b7565b6105f981611545565b606560009054906101000a90046001600160a01b03166001600160a01b031663eab66d7a6040518163ffffffff1660e01b8152600401602060405180830381865afa158015611245573d6000803e3d6000fd5b505050506040513d601f19601f820116820180604052508101906112699190611be0565b6001600160a01b0316336001600160a01b0316146112995760405162461bcd60e51b81526004016103b790611bfd565b6066541981196066541916146113175760405162461bcd60e51b815260206004820152603860248201527f5061757361626c652e756e70617573653a20696e76616c696420617474656d7060448201527f7420746f2070617573652066756e6374696f6e616c697479000000000000000060648201526084016103b7565b606681905560405181815233907f3582d1828e26bf56bd801502bc021ac0bc8afb57c826e4986b45593c8fad389c90602001610730565b6098546001600160a01b031633146113785760405162461bcd60e51b81526004016103b790611b9c565b609754611390906001600160a01b031630838561148b565b5050565b6001600160a01b0381166114225760405162461bcd60e51b815260206004820152604960248201527f5061757361626c652e5f73657450617573657252656769737472793a206e657760448201527f50617573657252656769737472792063616e6e6f7420626520746865207a65726064820152686f206164647265737360b81b608482015260a4016103b7565b606554604080516001600160a01b03928316815291831660208301527f6e9fcd539896fca60e8b0f01dd580233e48a6b0f7df013b89ba7f565869acdb6910160405180910390a1606580546001600160a01b0319166001600160a01b0392909216919091179055565b604080516001600160a01b0385811660248301528416604482015260648082018490528251808303909101815260849091019091526020810180516001600160e01b03166323b872dd60e01b1790526114e590859061167d565b50505050565b6033546001600160a01b03163314610e1e5760405162461bcd60e51b815260206004820181905260248201527f4f776e61626c653a2063616c6c6572206973206e6f7420746865206f776e657260448201526064016103b7565b603380546001600160a01b038381166001600160a01b0319831681179093556040519116919082907f8be0079c531659141344cd1fd0a4f28419497f9722a3daafe3b4186f6b6457e090600090a35050565b6065546001600160a01b03161580156115b857506001600160a01b03821615155b61163a5760405162461bcd60e51b815260206004820152604760248201527f5061757361626c652e5f696e697469616c697a655061757365723a205f696e6960448201527f7469616c697a6550617573657228292063616e206f6e6c792062652063616c6c6064820152666564206f6e636560c81b608482015260a4016103b7565b606681905560405181815233907fab40a374bc51de372200a8bc981af8c9ecdc08dfdaef0bb6e09f88f3c616ef3d9060200160405180910390a261139082611394565b60006116d2826040518060400160405280602081526020017f5361666545524332303a206c6f772d6c6576656c2063616c6c206661696c6564815250856001600160a01b031661174f9092919063ffffffff16565b805190915015610b4457808060200190518101906116f09190611c47565b610b445760405162461bcd60e51b815260206004820152602a60248201527f5361666545524332303a204552433230206f7065726174696f6e20646964206e6044820152691bdd081cdd58d8d9595960b21b60648201526084016103b7565b606061175e8484600085611768565b90505b9392505050565b6060824710156117c95760405162461bcd60e51b815260206004820152602660248201527f416464726573733a20696e73756666696369656e742062616c616e636520666f6044820152651c8818d85b1b60d21b60648201526084016103b7565b6001600160a01b0385163b6118205760405162461bcd60e51b815260206004820152601d60248201527f416464726573733a2063616c6c20746f206e6f6e2d636f6e747261637400000060448201526064016103b7565b600080866001600160a01b0316858760405161183c9190611e25565b60006040518083038185875af1925050503d8060008114611879576040519150601f19603f3d011682016040523d82523d6000602084013e61187e565b606091505b509150915061188e828286611899565b979650505050505050565b606083156118a8575081611761565b8251156118b85782518084602001fd5b8160405162461bcd60e51b81526004016103b79190611e41565b6001600160a01b03811681146105f957600080fd5b600080604083850312156118fa57600080fd5b82359150602083013561190c816118d2565b809150509250929050565b60006020828403121561192957600080fd5b8135611761816118d2565b60006020828403121561194657600080fd5b5035919050565b60008083601f84011261195f57600080fd5b50813567ffffffffffffffff81111561197757600080fd5b6020830191508360208260051b850101111561199257600080fd5b9250929050565b600080600080600080606087890312156119b257600080fd5b863567ffffffffffffffff808211156119ca57600080fd5b6119d68a838b0161194d565b909850965060208901359150808211156119ef57600080fd5b6119fb8a838b0161194d565b90965094506040890135915080821115611a1457600080fd5b50611a2189828a0161194d565b979a9699509497509295939492505050565b600080600060608486031215611a4857600080fd5b8335611a53816118d2565b92506020840135611a63816118d2565b929592945050506040919091013590565b600060208284031215611a8657600080fd5b813560ff8116811461176157600080fd5b600080600080600060608688031215611aaf57600080fd5b8535611aba816118d2565b9450602086013567ffffffffffffffff80821115611ad757600080fd5b611ae389838a0161194d565b90965094506040880135915080821115611afc57600080fd5b50611b098882890161194d565b969995985093965092949392505050565b60008060008060008060c08789031215611b3357600080fd5b8635611b3e816118d2565b95506020870135611b4e816118d2565b94506040870135611b5e816118d2565b93506060870135611b6e816118d2565b92506080870135611b7e816118d2565b915060a0870135611b8e816118d2565b809150509295509295509295565b60208082526024908201527f5661756c743a2063616c6c6572206973206e6f742074686520646973747269626040820152633aba37b960e11b606082015260800190565b600060208284031215611bf257600080fd5b8151611761816118d2565b6020808252602a908201527f6d73672e73656e646572206973206e6f74207065726d697373696f6e6564206160408201526939903ab73830bab9b2b960b11b606082015260800190565b600060208284031215611c5957600080fd5b8151801515811461176157600080fd5b60208082526028908201527f6d73672e73656e646572206973206e6f74207065726d697373696f6e6564206160408201526739903830bab9b2b960c11b606082015260800190565b634e487b7160e01b600052603260045260246000fd5b6000808335601e19843603018112611cde57600080fd5b83018035915067ffffffffffffffff821115611cf957600080fd5b6020019150600581901b360382131561199257600080fd5b60208082526031908201527f5661756c743a2070726f6f6652657175657374657220616e6420616d6f756e746040820152700e640d8cadccee8d040dad2e6dac2e8c6d607b1b606082015260800190565b6020808252601b908201527f5661756c743a20696e73756666696369656e742062616c616e63650000000000604082015260600190565b634e487b7160e01b600052601160045260246000fd5b600082821015611dc157611dc1611d99565b500390565b60008219821115611dd957611dd9611d99565b500190565b6000600019821415611df257611df2611d99565b5060010190565b60005b83811015611e14578181015183820152602001611dfc565b838111156114e55750506000910152565b60008251611e37818460208701611df9565b9190910192915050565b6020815260008251806020840152611e60816040850160208701611df9565b601f01601f1916919091016040019291505056fea26469706673582212203cf0ff3bd4d946827d687f065f8b6e40f11896711bfddb323932bf64f5fbeabb64736f6c634300080c0033","linkReferences":{}},"methodIdentifiers":{"balanceOf(address)":"70a08231","balances(address)":"27e235e3","deposit(uint256,address)":"6e553f65","distributeToProver(address,address[],uint256[])":"c7cc7b75","distributeToProverSingle(address,address,uint256)":"45e37f58","distributeToProvers(address[],address[][],uint256[][])":"357734fa","distributor()":"bfe10928","getToken()":"21df0da7","initialize(address,address,address,address,address,address)":"cc2a9a5b","owner()":"8da5cb5b","pause(address)":"76a67a51","pause(uint256)":"136439dd","pauseAll()":"595c6a67","paused()":"5c975abb","paused(uint8)":"5ac86ab7","pauser()":"9fd0506d","pauserRegistry()":"886f1195","renounceOwnership()":"715018a6","setPauserRegistry(address)":"10d67a2f","transferOwnership(address)":"f2fde38b","unpause(address)":"57b001f9","unpause(uint256)":"fabc1cbc","whitelist()":"93e59dc1","withdraw(uint256,address)":"00f714ce"},"id":164}