{"abi":[{"type":"constructor","inputs":[{"name":"_avsDirectory","type":"address","internalType":"contract IAVSDirectory"},{"name":"_rewardsCoordinator","type":"address","internalType":"contract IRewardsCoordinator"},{"name":"_registryCoordinator","type":"address","internalType":"contract IRegistryCoordinator"},{"name":"_stakeRegistry","type":"address","internalType":"contract IStakeRegistry"},{"name":"_disputeManager","type":"address","internalType":"contract IDisputeManager"},{"name":"_vault","type":"address","internalType":"contract IVault"}],"stateMutability":"nonpayable"},{"type":"function","name":"avsDirectory","inputs":[],"outputs":[{"name":"","type":"address","internalType":"address"}],"stateMutability":"view"},{"type":"function","name":"createAVSRewardsSubmission","inputs":[{"name":"rewardsSubmissions","type":"tuple[]","internalType":"struct IRewardsCoordinator.RewardsSubmission[]","components":[{"name":"strategiesAndMultipliers","type":"tuple[]","internalType":"struct IRewardsCoordinator.StrategyAndMultiplier[]","components":[{"name":"strategy","type":"address","internalType":"contract IStrategy"},{"name":"multiplier","type":"uint96","internalType":"uint96"}]},{"name":"token","type":"address","internalType":"contract IERC20"},{"name":"amount","type":"uint256","internalType":"uint256"},{"name":"startTimestamp","type":"uint32","internalType":"uint32"},{"name":"duration","type":"uint32","internalType":"uint32"}]}],"outputs":[],"stateMutability":"nonpayable"},{"type":"function","name":"deregisterOperatorFromAVS","inputs":[{"name":"operator","type":"address","internalType":"address"}],"outputs":[],"stateMutability":"nonpayable"},{"type":"function","name":"disputeManager","inputs":[],"outputs":[{"name":"","type":"address","internalType":"contract IDisputeManager"}],"stateMutability":"view"},{"type":"function","name":"getOperatorRestakedStrategies","inputs":[{"name":"operator","type":"address","internalType":"address"}],"outputs":[{"name":"","type":"address[]","internalType":"address[]"}],"stateMutability":"view"},{"type":"function","name":"getRestakeableStrategies","inputs":[],"outputs":[{"name":"","type":"address[]","internalType":"address[]"}],"stateMutability":"view"},{"type":"function","name":"initialize","inputs":[{"name":"initialOwner","type":"address","internalType":"address"},{"name":"rewardsInitiator","type":"address","internalType":"address"}],"outputs":[],"stateMutability":"nonpayable"},{"type":"function","name":"isActiveOperator","inputs":[{"name":"operator","type":"address","internalType":"address"}],"outputs":[],"stateMutability":"view"},{"type":"function","name":"owner","inputs":[],"outputs":[{"name":"","type":"address","internalType":"address"}],"stateMutability":"view"},{"type":"function","name":"registerOperatorToAVS","inputs":[{"name":"operator","type":"address","internalType":"address"},{"name":"operatorSignature","type":"tuple","internalType":"struct ISignatureUtils.SignatureWithSaltAndExpiry","components":[{"name":"signature","type":"bytes","internalType":"bytes"},{"name":"salt","type":"bytes32","internalType":"bytes32"},{"name":"expiry","type":"uint256","internalType":"uint256"}]}],"outputs":[],"stateMutability":"nonpayable"},{"type":"function","name":"renounceOwnership","inputs":[],"outputs":[],"stateMutability":"nonpayable"},{"type":"function","name":"rewardsInitiator","inputs":[],"outputs":[{"name":"","type":"address","internalType":"address"}],"stateMutability":"view"},{"type":"function","name":"setRewardsInitiator","inputs":[{"name":"newRewardsInitiator","type":"address","internalType":"address"}],"outputs":[],"stateMutability":"nonpayable"},{"type":"function","name":"transferOwnership","inputs":[{"name":"newOwner","type":"address","internalType":"address"}],"outputs":[],"stateMutability":"nonpayable"},{"type":"function","name":"updateAVSMetadataURI","inputs":[{"name":"_metadataURI","type":"string","internalType":"string"}],"outputs":[],"stateMutability":"nonpayable"},{"type":"function","name":"vault","inputs":[],"outputs":[{"name":"","type":"address","internalType":"contract IVault"}],"stateMutability":"view"},{"type":"event","name":"Initialized","inputs":[{"name":"version","type":"uint8","indexed":false,"internalType":"uint8"}],"anonymous":false},{"type":"event","name":"OwnershipTransferred","inputs":[{"name":"previousOwner","type":"address","indexed":true,"internalType":"address"},{"name":"newOwner","type":"address","indexed":true,"internalType":"address"}],"anonymous":false},{"type":"event","name":"RewardsInitiatorUpdated","inputs":[{"name":"prevRewardsInitiator","type":"address","indexed":false,"internalType":"address"},{"name":"newRewardsInitiator","type":"address","indexed":false,"internalType":"address"}],"anonymous":false}],"bytecode":{"object":"0x6101406040523480156200001257600080fd5b5060405162001f4938038062001f49833981016040819052620000359162000160565b6001600160a01b0380871660805280861660a05280851660c052831660e052858585856200006262000085565b5050506001600160a01b039283166101205250166101005250620001f492505050565b600054610100900460ff1615620000f25760405162461bcd60e51b815260206004820152602760248201527f496e697469616c697a61626c653a20636f6e747261637420697320696e697469604482015266616c697a696e6760c81b606482015260840160405180910390fd5b60005460ff908116101562000145576000805460ff191660ff9081179091556040519081527f7f26b83ff96e1f2b6a682f133852f6798a09c465da95921460cefb38474024989060200160405180910390a15b565b6001600160a01b03811681146200015d57600080fd5b50565b60008060008060008060c087890312156200017a57600080fd5b8651620001878162000147565b60208801519096506200019a8162000147565b6040880151909550620001ad8162000147565b6060880151909450620001c08162000147565b6080880151909350620001d38162000147565b60a0880151909250620001e68162000147565b809150509295509295509295565b60805160a05160c05160e0516101005161012051611c95620002b460003960006102130152600061023a01526000818161047c015281816105d80152818161066f01528181610b4001528181610cc40152610d630152600081816102a701528181610336015281816103b60152818161089c0152818161096801528181610a7e0152610c1f015260008181611004015281816110c001526111ac015260008181610169015281816108f0015281816109c40152610a430152611c956000f3fe608060405234801561001057600080fd5b50600436106101005760003560e01c8063a364f4da11610097578063f544c3a611610066578063f544c3a61461020e578063fbfa77cf14610235578063fc299dee1461025c578063fce36c7d1461026f57600080fd5b8063a364f4da146101cd578063a98fb355146101e0578063e481af9d146101f3578063f2fde38b146101fb57600080fd5b80636b3aa72e116100d35780636b3aa72e14610167578063715018a6146101a15780638da5cb5b146101a95780639926ee7d146101ba57600080fd5b80633367cca51461010557806333cfb7b7146101185780633bc28c8c14610141578063485cc95514610154575b600080fd5b610116610113366004611517565b50565b005b61012b610126366004611517565b610282565b604051610138919061153b565b60405180910390f35b61011661014f366004611517565b610752565b610116610162366004611588565b610763565b7f00000000000000000000000000000000000000000000000000000000000000005b6040516001600160a01b039091168152602001610138565b61011661087d565b6033546001600160a01b0316610189565b6101166101c8366004611676565b610891565b6101166101db366004611517565b61095d565b6101166101ee366004611721565b610a24565b61012b610a78565b610116610209366004611517565b610e42565b6101897f000000000000000000000000000000000000000000000000000000000000000081565b6101897f000000000000000000000000000000000000000000000000000000000000000081565b606554610189906001600160a01b031681565b61011661027d366004611772565b610eb8565b6040516309aa152760e11b81526001600160a01b0382811660048301526060916000917f000000000000000000000000000000000000000000000000000000000000000016906313542a4e90602401602060405180830381865afa1580156102ee573d6000803e3d6000fd5b505050506040513d601f19601f8201168201806040525081019061031291906117e7565b60405163871ef04960e01b8152600481018290529091506000906001600160a01b037f0000000000000000000000000000000000000000000000000000000000000000169063871ef04990602401602060405180830381865afa15801561037d573d6000803e3d6000fd5b505050506040513d601f19601f820116820180604052508101906103a19190611800565b90506001600160c01b038116158061043b57507f00000000000000000000000000000000000000000000000000000000000000006001600160a01b0316639aa1653d6040518163ffffffff1660e01b8152600401602060405180830381865afa158015610412573d6000803e3d6000fd5b505050506040513d601f19601f820116820180604052508101906104369190611829565b60ff16155b1561045757505060408051600081526020810190915292915050565b600061046b826001600160c01b03166111e3565b90506000805b8251811015610541577f00000000000000000000000000000000000000000000000000000000000000006001600160a01b0316633ca5a5f58483815181106104bb576104bb61184c565b01602001516040516001600160e01b031960e084901b16815260f89190911c6004820152602401602060405180830381865afa1580156104ff573d6000803e3d6000fd5b505050506040513d601f19601f8201168201806040525081019061052391906117e7565b61052d9083611878565b91508061053981611890565b915050610471565b5060008167ffffffffffffffff81111561055d5761055d6115c1565b604051908082528060200260200182016040528015610586578160200160208202803683370190505b5090506000805b84518110156107455760008582815181106105aa576105aa61184c565b0160200151604051633ca5a5f560e01b815260f89190911c6004820181905291506000906001600160a01b037f00000000000000000000000000000000000000000000000000000000000000001690633ca5a5f590602401602060405180830381865afa15801561061f573d6000803e3d6000fd5b505050506040513d601f19601f8201168201806040525081019061064391906117e7565b905060005b8181101561072f576040516356e4026d60e11b815260ff84166004820152602481018290527f00000000000000000000000000000000000000000000000000000000000000006001600160a01b03169063adc804da906044016040805180830381865afa1580156106bd573d6000803e3d6000fd5b505050506040513d601f19601f820116820180604052508101906106e191906118c5565b600001518686815181106106f7576106f761184c565b6001600160a01b03909216602092830291909101909101528461071981611890565b955050808061072790611890565b915050610648565b505050808061073d90611890565b91505061058d565b5090979650505050505050565b61075a6112a6565b61011381611300565b600054610100900460ff16158080156107835750600054600160ff909116105b8061079d5750303b15801561079d575060005460ff166001145b6108055760405162461bcd60e51b815260206004820152602e60248201527f496e697469616c697a61626c653a20636f6e747261637420697320616c72656160448201526d191e481a5b9a5d1a585b1a5e995960921b60648201526084015b60405180910390fd5b6000805460ff191660011790558015610828576000805461ff0019166101001790555b6108328383611369565b8015610878576000805461ff0019169055604051600181527f7f26b83ff96e1f2b6a682f133852f6798a09c465da95921460cefb38474024989060200160405180910390a15b505050565b6108856112a6565b61088f60006113ea565b565b336001600160a01b037f000000000000000000000000000000000000000000000000000000000000000016146108d95760405162461bcd60e51b81526004016107fc90611924565b604051639926ee7d60e01b81526001600160a01b037f00000000000000000000000000000000000000000000000000000000000000001690639926ee7d9061092790859085906004016119e9565b600060405180830381600087803b15801561094157600080fd5b505af1158015610955573d6000803e3d6000fd5b505050505050565b336001600160a01b037f000000000000000000000000000000000000000000000000000000000000000016146109a55760405162461bcd60e51b81526004016107fc90611924565b6040516351b27a6d60e11b81526001600160a01b0382811660048301527f0000000000000000000000000000000000000000000000000000000000000000169063a364f4da906024015b600060405180830381600087803b158015610a0957600080fd5b505af1158015610a1d573d6000803e3d6000fd5b5050505050565b610a2c6112a6565b60405163a98fb35560e01b81526001600160a01b037f0000000000000000000000000000000000000000000000000000000000000000169063a98fb355906109ef908490600401611a34565b606060007f00000000000000000000000000000000000000000000000000000000000000006001600160a01b0316639aa1653d6040518163ffffffff1660e01b8152600401602060405180830381865afa158015610ada573d6000803e3d6000fd5b505050506040513d601f19601f82011682018060405250810190610afe9190611829565b60ff16905080610b1c57505060408051600081526020810190915290565b6000805b82811015610bd157604051633ca5a5f560e01b815260ff821660048201527f00000000000000000000000000000000000000000000000000000000000000006001600160a01b031690633ca5a5f590602401602060405180830381865afa158015610b8f573d6000803e3d6000fd5b505050506040513d601f19601f82011682018060405250810190610bb391906117e7565b610bbd9083611878565b915080610bc981611890565b915050610b20565b5060008167ffffffffffffffff811115610bed57610bed6115c1565b604051908082528060200260200182016040528015610c16578160200160208202803683370190505b5090506000805b7f00000000000000000000000000000000000000000000000000000000000000006001600160a01b0316639aa1653d6040518163ffffffff1660e01b8152600401602060405180830381865afa158015610c7b573d6000803e3d6000fd5b505050506040513d601f19601f82011682018060405250810190610c9f9190611829565b60ff16811015610e3857604051633ca5a5f560e01b815260ff821660048201526000907f00000000000000000000000000000000000000000000000000000000000000006001600160a01b031690633ca5a5f590602401602060405180830381865afa158015610d13573d6000803e3d6000fd5b505050506040513d601f19601f82011682018060405250810190610d3791906117e7565b905060005b81811015610e23576040516356e4026d60e11b815260ff84166004820152602481018290527f00000000000000000000000000000000000000000000000000000000000000006001600160a01b03169063adc804da906044016040805180830381865afa158015610db1573d6000803e3d6000fd5b505050506040513d601f19601f82011682018060405250810190610dd591906118c5565b60000151858581518110610deb57610deb61184c565b6001600160a01b039092166020928302919091019091015283610e0d81611890565b9450508080610e1b90611890565b915050610d3c565b50508080610e3090611890565b915050610c1d565b5090949350505050565b610e4a6112a6565b6001600160a01b038116610eaf5760405162461bcd60e51b815260206004820152602660248201527f4f776e61626c653a206e6577206f776e657220697320746865207a65726f206160448201526564647265737360d01b60648201526084016107fc565b610113816113ea565b610ec061143c565b60005b8181101561119457828282818110610edd57610edd61184c565b9050602002810190610eef9190611a47565b610f00906040810190602001611517565b6001600160a01b03166323b872dd3330868686818110610f2257610f2261184c565b9050602002810190610f349190611a47565b604080516001600160e01b031960e087901b1681526001600160a01b039485166004820152939092166024840152013560448201526064016020604051808303816000875af1158015610f8b573d6000803e3d6000fd5b505050506040513d601f19601f82011682018060405250810190610faf9190611a77565b506000838383818110610fc457610fc461184c565b9050602002810190610fd69190611a47565b610fe7906040810190602001611517565b604051636eb1769f60e11b81523060048201526001600160a01b037f000000000000000000000000000000000000000000000000000000000000000081166024830152919091169063dd62ed3e90604401602060405180830381865afa158015611055573d6000803e3d6000fd5b505050506040513d601f19601f8201168201806040525081019061107991906117e7565b905083838381811061108d5761108d61184c565b905060200281019061109f9190611a47565b6110b0906040810190602001611517565b6001600160a01b031663095ea7b37f0000000000000000000000000000000000000000000000000000000000000000838787878181106110f2576110f261184c565b90506020028101906111049190611a47565b604001356111129190611878565b6040516001600160e01b031960e085901b1681526001600160a01b03909216600483015260248201526044016020604051808303816000875af115801561115d573d6000803e3d6000fd5b505050506040513d601f19601f820116820180604052508101906111819190611a77565b50508061118d90611890565b9050610ec3565b5060405163fce36c7d60e01b81526001600160a01b037f0000000000000000000000000000000000000000000000000000000000000000169063fce36c7d906109279085908590600401611b18565b60606000806111f1846114d1565b61ffff1667ffffffffffffffff81111561120d5761120d6115c1565b6040519080825280601f01601f191660200182016040528015611237576020820181803683370190505b5090506000805b82518210801561124f575061010081105b15610e38576001811b935085841615611296578060f81b8383815181106112785761127861184c565b60200101906001600160f81b031916908160001a9053508160010191505b61129f81611890565b905061123e565b6033546001600160a01b0316331461088f5760405162461bcd60e51b815260206004820181905260248201527f4f776e61626c653a2063616c6c6572206973206e6f7420746865206f776e657260448201526064016107fc565b606554604080516001600160a01b03928316815291831660208301527fe11cddf1816a43318ca175bbc52cd0185436e9cbead7c83acc54a73e461717e3910160405180910390a1606580546001600160a01b0319166001600160a01b0392909216919091179055565b600054610100900460ff166113d45760405162461bcd60e51b815260206004820152602b60248201527f496e697469616c697a61626c653a20636f6e7472616374206973206e6f74206960448201526a6e697469616c697a696e6760a81b60648201526084016107fc565b6113dd826113ea565b6113e681611300565b5050565b603380546001600160a01b038381166001600160a01b0319831681179093556040519116919082907f8be0079c531659141344cd1fd0a4f28419497f9722a3daafe3b4186f6b6457e090600090a35050565b6065546001600160a01b0316331461088f5760405162461bcd60e51b815260206004820152604c60248201527f536572766963654d616e61676572426173652e6f6e6c7952657761726473496e60448201527f69746961746f723a2063616c6c6572206973206e6f742074686520726577617260648201526b32399034b734ba34b0ba37b960a11b608482015260a4016107fc565b6000805b82156114fc576114e6600184611c26565b90921691806114f481611c3d565b9150506114d5565b92915050565b6001600160a01b038116811461011357600080fd5b60006020828403121561152957600080fd5b813561153481611502565b9392505050565b6020808252825182820181905260009190848201906040850190845b8181101561157c5783516001600160a01b031683529284019291840191600101611557565b50909695505050505050565b6000806040838503121561159b57600080fd5b82356115a681611502565b915060208301356115b681611502565b809150509250929050565b634e487b7160e01b600052604160045260246000fd5b6040516060810167ffffffffffffffff811182821017156115fa576115fa6115c1565b60405290565b600067ffffffffffffffff8084111561161b5761161b6115c1565b604051601f8501601f19908116603f01168101908282118183101715611643576116436115c1565b8160405280935085815286868601111561165c57600080fd5b858560208301376000602087830101525050509392505050565b6000806040838503121561168957600080fd5b823561169481611502565b9150602083013567ffffffffffffffff808211156116b157600080fd5b90840190606082870312156116c557600080fd5b6116cd6115d7565b8235828111156116dc57600080fd5b83019150601f820187136116ef57600080fd5b6116fe87833560208501611600565b815260208301356020820152604083013560408201528093505050509250929050565b60006020828403121561173357600080fd5b813567ffffffffffffffff81111561174a57600080fd5b8201601f8101841361175b57600080fd5b61176a84823560208401611600565b949350505050565b6000806020838503121561178557600080fd5b823567ffffffffffffffff8082111561179d57600080fd5b818501915085601f8301126117b157600080fd5b8135818111156117c057600080fd5b8660208260051b85010111156117d557600080fd5b60209290920196919550909350505050565b6000602082840312156117f957600080fd5b5051919050565b60006020828403121561181257600080fd5b81516001600160c01b038116811461153457600080fd5b60006020828403121561183b57600080fd5b815160ff8116811461153457600080fd5b634e487b7160e01b600052603260045260246000fd5b634e487b7160e01b600052601160045260246000fd5b6000821982111561188b5761188b611862565b500190565b60006000198214156118a4576118a4611862565b5060010190565b6bffffffffffffffffffffffff8116811461011357600080fd5b6000604082840312156118d757600080fd5b6040516040810181811067ffffffffffffffff821117156118fa576118fa6115c1565b604052825161190881611502565b81526020830151611918816118ab565b60208201529392505050565b60208082526052908201527f536572766963654d616e61676572426173652e6f6e6c7952656769737472794360408201527f6f6f7264696e61746f723a2063616c6c6572206973206e6f742074686520726560608201527133b4b9ba393c9031b7b7b93234b730ba37b960711b608082015260a00190565b6000815180845260005b818110156119c2576020818501810151868301820152016119a6565b818111156119d4576000602083870101525b50601f01601f19169290920160200192915050565b60018060a01b0383168152604060208201526000825160606040840152611a1360a084018261199c565b90506020840151606084015260408401516080840152809150509392505050565b602081526000611534602083018461199c565b60008235609e19833603018112611a5d57600080fd5b9190910192915050565b8035611a7281611502565b919050565b600060208284031215611a8957600080fd5b8151801515811461153457600080fd5b8183526000602080850194508260005b85811015611af9578135611abc81611502565b6001600160a01b0316875281830135611ad4816118ab565b6bffffffffffffffffffffffff16878401526040968701969190910190600101611aa9565b509495945050505050565b803563ffffffff81168114611a7257600080fd5b60208082528181018390526000906040808401600586901b8501820187855b88811015611c1857878303603f190184528135368b9003609e19018112611b5d57600080fd5b8a0160a0813536839003601e19018112611b7657600080fd5b8201803567ffffffffffffffff811115611b8f57600080fd5b8060061b3603841315611ba157600080fd5b828752611bb3838801828c8501611a99565b92505050611bc2888301611a67565b6001600160a01b03168886015281870135878601526060611be4818401611b04565b63ffffffff16908601526080611bfb838201611b04565b63ffffffff16950194909452509285019290850190600101611b37565b509098975050505050505050565b600082821015611c3857611c38611862565b500390565b600061ffff80831681811415611c5557611c55611862565b600101939250505056fea2646970667358221220a3e4bdb7347d30561b63f81be04a9ded8fc4ac5aa82e5454c414b4707e32da5664736f6c634300080c0033","linkReferences":{}},"methodIdentifiers":{"avsDirectory()":"6b3aa72e","createAVSRewardsSubmission(((address,uint96)[],address,uint256,uint32,uint32)[])":"fce36c7d","deregisterOperatorFromAVS(address)":"a364f4da","disputeManager()":"f544c3a6","getOperatorRestakedStrategies(address)":"33cfb7b7","getRestakeableStrategies()":"e481af9d","initialize(address,address)":"485cc955","isActiveOperator(address)":"3367cca5","owner()":"8da5cb5b","registerOperatorToAVS(address,(bytes,bytes32,uint256))":"9926ee7d","renounceOwnership()":"715018a6","rewardsInitiator()":"fc299dee","setRewardsInitiator(address)":"3bc28c8c","transferOwnership(address)":"f2fde38b","updateAVSMetadataURI(string)":"a98fb355","vault()":"fbfa77cf"},"id":163}