{"abi":[{"type":"constructor","inputs":[{"name":"_serviceManager","type":"address","internalType":"contract IServiceManager"},{"name":"_stakeRegistry","type":"address","internalType":"contract IStakeRegistry"},{"name":"_blsApkRegistry","type":"address","internalType":"contract IBLSApkRegistry"},{"name":"_indexRegistry","type":"address","internalType":"contract IIndexRegistry"}],"stateMutability":"nonpayable"},{"type":"function","name":"OPERATOR_CHURN_APPROVAL_TYPEHASH","inputs":[],"outputs":[{"name":"","type":"bytes32","internalType":"bytes32"}],"stateMutability":"view"},{"type":"function","name":"PUBKEY_REGISTRATION_TYPEHASH","inputs":[],"outputs":[{"name":"","type":"bytes32","internalType":"bytes32"}],"stateMutability":"view"},{"type":"function","name":"availableTillBlock","inputs":[{"name":"operator","type":"address","internalType":"address"}],"outputs":[{"name":"","type":"uint256","internalType":"uint256"}],"stateMutability":"view"},{"type":"function","name":"blsApkRegistry","inputs":[],"outputs":[{"name":"","type":"address","internalType":"contract IBLSApkRegistry"}],"stateMutability":"view"},{"type":"function","name":"calculateOperatorChurnApprovalDigestHash","inputs":[{"name":"registeringOperator","type":"address","internalType":"address"},{"name":"registeringOperatorId","type":"bytes32","internalType":"bytes32"},{"name":"operatorKickParams","type":"tuple[]","internalType":"struct IRegistryCoordinator.OperatorKickParam[]","components":[{"name":"quorumNumber","type":"uint8","internalType":"uint8"},{"name":"operator","type":"address","internalType":"address"}]},{"name":"salt","type":"bytes32","internalType":"bytes32"},{"name":"expiry","type":"uint256","internalType":"uint256"}],"outputs":[{"name":"","type":"bytes32","internalType":"bytes32"}],"stateMutability":"view"},{"type":"function","name":"churnApprover","inputs":[],"outputs":[{"name":"","type":"address","internalType":"address"}],"stateMutability":"view"},{"type":"function","name":"commitToExit","inputs":[{"name":"newRegisteredTillBlock","type":"uint256","internalType":"uint256"}],"outputs":[],"stateMutability":"nonpayable"},{"type":"function","name":"createQuorum","inputs":[{"name":"operatorSetParams","type":"tuple","internalType":"struct IRegistryCoordinator.OperatorSetParam","components":[{"name":"maxOperatorCount","type":"uint32","internalType":"uint32"},{"name":"kickBIPsOfOperatorStake","type":"uint16","internalType":"uint16"},{"name":"kickBIPsOfTotalStake","type":"uint16","internalType":"uint16"}]},{"name":"minimumStake","type":"uint96","internalType":"uint96"},{"name":"strategyParams","type":"tuple[]","internalType":"struct IStakeRegistry.StrategyParams[]","components":[{"name":"strategy","type":"address","internalType":"contract IStrategy"},{"name":"multiplier","type":"uint96","internalType":"uint96"}]}],"outputs":[],"stateMutability":"nonpayable"},{"type":"function","name":"deregisterOperator","inputs":[{"name":"quorumNumbers","type":"bytes","internalType":"bytes"}],"outputs":[],"stateMutability":"nonpayable"},{"type":"function","name":"ejectOperator","inputs":[{"name":"operator","type":"address","internalType":"address"},{"name":"quorumNumbers","type":"bytes","internalType":"bytes"}],"outputs":[],"stateMutability":"nonpayable"},{"type":"function","name":"ejector","inputs":[],"outputs":[{"name":"","type":"address","internalType":"address"}],"stateMutability":"view"},{"type":"function","name":"getCurrentQuorumBitmap","inputs":[{"name":"operatorId","type":"bytes32","internalType":"bytes32"}],"outputs":[{"name":"","type":"uint192","internalType":"uint192"}],"stateMutability":"view"},{"type":"function","name":"getOperator","inputs":[{"name":"operator","type":"address","internalType":"address"}],"outputs":[{"name":"","type":"tuple","internalType":"struct IRegistryCoordinator.OperatorInfo","components":[{"name":"operatorId","type":"bytes32","internalType":"bytes32"},{"name":"status","type":"uint8","internalType":"enum IRegistryCoordinator.OperatorStatus"}]}],"stateMutability":"view"},{"type":"function","name":"getOperatorFromId","inputs":[{"name":"operatorId","type":"bytes32","internalType":"bytes32"}],"outputs":[{"name":"","type":"address","internalType":"address"}],"stateMutability":"view"},{"type":"function","name":"getOperatorId","inputs":[{"name":"operator","type":"address","internalType":"address"}],"outputs":[{"name":"","type":"bytes32","internalType":"bytes32"}],"stateMutability":"view"},{"type":"function","name":"getOperatorSetParams","inputs":[{"name":"quorumNumber","type":"uint8","internalType":"uint8"}],"outputs":[{"name":"","type":"tuple","internalType":"struct IRegistryCoordinator.OperatorSetParam","components":[{"name":"maxOperatorCount","type":"uint32","internalType":"uint32"},{"name":"kickBIPsOfOperatorStake","type":"uint16","internalType":"uint16"},{"name":"kickBIPsOfTotalStake","type":"uint16","internalType":"uint16"}]}],"stateMutability":"view"},{"type":"function","name":"getOperatorStatus","inputs":[{"name":"operator","type":"address","internalType":"address"}],"outputs":[{"name":"","type":"uint8","internalType":"enum IRegistryCoordinator.OperatorStatus"}],"stateMutability":"view"},{"type":"function","name":"getQuorumBitmapAtBlockNumberByIndex","inputs":[{"name":"operatorId","type":"bytes32","internalType":"bytes32"},{"name":"blockNumber","type":"uint32","internalType":"uint32"},{"name":"index","type":"uint256","internalType":"uint256"}],"outputs":[{"name":"","type":"uint192","internalType":"uint192"}],"stateMutability":"view"},{"type":"function","name":"getQuorumBitmapHistoryLength","inputs":[{"name":"operatorId","type":"bytes32","internalType":"bytes32"}],"outputs":[{"name":"","type":"uint256","internalType":"uint256"}],"stateMutability":"view"},{"type":"function","name":"getQuorumBitmapIndicesAtBlockNumber","inputs":[{"name":"blockNumber","type":"uint32","internalType":"uint32"},{"name":"operatorIds","type":"bytes32[]","internalType":"bytes32[]"}],"outputs":[{"name":"","type":"uint32[]","internalType":"uint32[]"}],"stateMutability":"view"},{"type":"function","name":"getQuorumBitmapUpdateByIndex","inputs":[{"name":"operatorId","type":"bytes32","internalType":"bytes32"},{"name":"index","type":"uint256","internalType":"uint256"}],"outputs":[{"name":"","type":"tuple","internalType":"struct IRegistryCoordinator.QuorumBitmapUpdate","components":[{"name":"updateBlockNumber","type":"uint32","internalType":"uint32"},{"name":"nextUpdateBlockNumber","type":"uint32","internalType":"uint32"},{"name":"quorumBitmap","type":"uint192","internalType":"uint192"}]}],"stateMutability":"view"},{"type":"function","name":"indexRegistry","inputs":[],"outputs":[{"name":"","type":"address","internalType":"contract IIndexRegistry"}],"stateMutability":"view"},{"type":"function","name":"initialize","inputs":[{"name":"_initialOwner","type":"address","internalType":"address"},{"name":"_churnApprover","type":"address","internalType":"address"},{"name":"_ejector","type":"address","internalType":"address"},{"name":"_pauserRegistry","type":"address","internalType":"contract IPauserRegistry"},{"name":"_initialPausedStatus","type":"uint256","internalType":"uint256"},{"name":"_operatorSetParams","type":"tuple[]","internalType":"struct IRegistryCoordinator.OperatorSetParam[]","components":[{"name":"maxOperatorCount","type":"uint32","internalType":"uint32"},{"name":"kickBIPsOfOperatorStake","type":"uint16","internalType":"uint16"},{"name":"kickBIPsOfTotalStake","type":"uint16","internalType":"uint16"}]},{"name":"_minimumStakes","type":"uint96[]","internalType":"uint96[]"},{"name":"_strategyParams","type":"tuple[][]","internalType":"struct IStakeRegistry.StrategyParams[][]","components":[{"name":"strategy","type":"address","internalType":"contract IStrategy"},{"name":"multiplier","type":"uint96","internalType":"uint96"}]},{"name":"_whitelist","type":"address","internalType":"contract IWhitelist"}],"outputs":[],"stateMutability":"nonpayable"},{"type":"function","name":"isChurnApproverSaltUsed","inputs":[{"name":"","type":"bytes32","internalType":"bytes32"}],"outputs":[{"name":"","type":"bool","internalType":"bool"}],"stateMutability":"view"},{"type":"function","name":"numRegistries","inputs":[],"outputs":[{"name":"","type":"uint256","internalType":"uint256"}],"stateMutability":"view"},{"type":"function","name":"owner","inputs":[],"outputs":[{"name":"","type":"address","internalType":"address"}],"stateMutability":"view"},{"type":"function","name":"pause","inputs":[{"name":"newPausedStatus","type":"uint256","internalType":"uint256"}],"outputs":[],"stateMutability":"nonpayable"},{"type":"function","name":"pauseAll","inputs":[],"outputs":[],"stateMutability":"nonpayable"},{"type":"function","name":"paused","inputs":[{"name":"index","type":"uint8","internalType":"uint8"}],"outputs":[{"name":"","type":"bool","internalType":"bool"}],"stateMutability":"view"},{"type":"function","name":"paused","inputs":[],"outputs":[{"name":"","type":"uint256","internalType":"uint256"}],"stateMutability":"view"},{"type":"function","name":"pauserRegistry","inputs":[],"outputs":[{"name":"","type":"address","internalType":"contract IPauserRegistry"}],"stateMutability":"view"},{"type":"function","name":"pubkeyRegistrationMessageHash","inputs":[{"name":"operator","type":"address","internalType":"address"}],"outputs":[{"name":"","type":"tuple","internalType":"struct BN254.G1Point","components":[{"name":"X","type":"uint256","internalType":"uint256"},{"name":"Y","type":"uint256","internalType":"uint256"}]}],"stateMutability":"view"},{"type":"function","name":"quorumCount","inputs":[],"outputs":[{"name":"","type":"uint8","internalType":"uint8"}],"stateMutability":"view"},{"type":"function","name":"quorumUpdateBlockNumber","inputs":[{"name":"","type":"uint8","internalType":"uint8"}],"outputs":[{"name":"","type":"uint256","internalType":"uint256"}],"stateMutability":"view"},{"type":"function","name":"registerOperator","inputs":[{"name":"quorumNumbers","type":"bytes","internalType":"bytes"},{"name":"socket","type":"string","internalType":"string"},{"name":"params","type":"tuple","internalType":"struct IBLSApkRegistry.PubkeyRegistrationParams","components":[{"name":"pubkeyRegistrationSignature","type":"tuple","internalType":"struct BN254.G1Point","components":[{"name":"X","type":"uint256","internalType":"uint256"},{"name":"Y","type":"uint256","internalType":"uint256"}]},{"name":"pubkeyG1","type":"tuple","internalType":"struct BN254.G1Point","components":[{"name":"X","type":"uint256","internalType":"uint256"},{"name":"Y","type":"uint256","internalType":"uint256"}]},{"name":"pubkeyG2","type":"tuple","internalType":"struct BN254.G2Point","components":[{"name":"X","type":"uint256[2]","internalType":"uint256[2]"},{"name":"Y","type":"uint256[2]","internalType":"uint256[2]"}]}]},{"name":"operatorSignature","type":"tuple","internalType":"struct ISignatureUtils.SignatureWithSaltAndExpiry","components":[{"name":"signature","type":"bytes","internalType":"bytes"},{"name":"salt","type":"bytes32","internalType":"bytes32"},{"name":"expiry","type":"uint256","internalType":"uint256"}]}],"outputs":[],"stateMutability":"nonpayable"},{"type":"function","name":"registerOperatorWithChurn","inputs":[{"name":"quorumNumbers","type":"bytes","internalType":"bytes"},{"name":"socket","type":"string","internalType":"string"},{"name":"params","type":"tuple","internalType":"struct IBLSApkRegistry.PubkeyRegistrationParams","components":[{"name":"pubkeyRegistrationSignature","type":"tuple","internalType":"struct BN254.G1Point","components":[{"name":"X","type":"uint256","internalType":"uint256"},{"name":"Y","type":"uint256","internalType":"uint256"}]},{"name":"pubkeyG1","type":"tuple","internalType":"struct BN254.G1Point","components":[{"name":"X","type":"uint256","internalType":"uint256"},{"name":"Y","type":"uint256","internalType":"uint256"}]},{"name":"pubkeyG2","type":"tuple","internalType":"struct BN254.G2Point","components":[{"name":"X","type":"uint256[2]","internalType":"uint256[2]"},{"name":"Y","type":"uint256[2]","internalType":"uint256[2]"}]}]},{"name":"operatorKickParams","type":"tuple[]","internalType":"struct IRegistryCoordinator.OperatorKickParam[]","components":[{"name":"quorumNumber","type":"uint8","internalType":"uint8"},{"name":"operator","type":"address","internalType":"address"}]},{"name":"churnApproverSignature","type":"tuple","internalType":"struct ISignatureUtils.SignatureWithSaltAndExpiry","components":[{"name":"signature","type":"bytes","internalType":"bytes"},{"name":"salt","type":"bytes32","internalType":"bytes32"},{"name":"expiry","type":"uint256","internalType":"uint256"}]},{"name":"operatorSignature","type":"tuple","internalType":"struct ISignatureUtils.SignatureWithSaltAndExpiry","components":[{"name":"signature","type":"bytes","internalType":"bytes"},{"name":"salt","type":"bytes32","internalType":"bytes32"},{"name":"expiry","type":"uint256","internalType":"uint256"}]}],"outputs":[],"stateMutability":"nonpayable"},{"type":"function","name":"registeredTillBlock","inputs":[{"name":"","type":"address","internalType":"address"}],"outputs":[{"name":"","type":"uint256","internalType":"uint256"}],"stateMutability":"view"},{"type":"function","name":"registries","inputs":[{"name":"","type":"uint256","internalType":"uint256"}],"outputs":[{"name":"","type":"address","internalType":"address"}],"stateMutability":"view"},{"type":"function","name":"renounceOwnership","inputs":[],"outputs":[],"stateMutability":"nonpayable"},{"type":"function","name":"serviceManager","inputs":[],"outputs":[{"name":"","type":"address","internalType":"contract IServiceManager"}],"stateMutability":"view"},{"type":"function","name":"setChurnApprover","inputs":[{"name":"_churnApprover","type":"address","internalType":"address"}],"outputs":[],"stateMutability":"nonpayable"},{"type":"function","name":"setEjector","inputs":[{"name":"_ejector","type":"address","internalType":"address"}],"outputs":[],"stateMutability":"nonpayable"},{"type":"function","name":"setOperatorSetParams","inputs":[{"name":"quorumNumber","type":"uint8","internalType":"uint8"},{"name":"operatorSetParams","type":"tuple","internalType":"struct IRegistryCoordinator.OperatorSetParam","components":[{"name":"maxOperatorCount","type":"uint32","internalType":"uint32"},{"name":"kickBIPsOfOperatorStake","type":"uint16","internalType":"uint16"},{"name":"kickBIPsOfTotalStake","type":"uint16","internalType":"uint16"}]}],"outputs":[],"stateMutability":"nonpayable"},{"type":"function","name":"setPauserRegistry","inputs":[{"name":"newPauserRegistry","type":"address","internalType":"contract IPauserRegistry"}],"outputs":[],"stateMutability":"nonpayable"},{"type":"function","name":"stakeRegistry","inputs":[],"outputs":[{"name":"","type":"address","internalType":"contract IStakeRegistry"}],"stateMutability":"view"},{"type":"function","name":"transferOwnership","inputs":[{"name":"newOwner","type":"address","internalType":"address"}],"outputs":[],"stateMutability":"nonpayable"},{"type":"function","name":"unpause","inputs":[{"name":"newPausedStatus","type":"uint256","internalType":"uint256"}],"outputs":[],"stateMutability":"nonpayable"},{"type":"function","name":"updateOperators","inputs":[{"name":"operators","type":"address[]","internalType":"address[]"}],"outputs":[],"stateMutability":"nonpayable"},{"type":"function","name":"updateOperatorsForQuorum","inputs":[{"name":"operatorsPerQuorum","type":"address[][]","internalType":"address[][]"},{"name":"quorumNumbers","type":"bytes","internalType":"bytes"}],"outputs":[],"stateMutability":"nonpayable"},{"type":"function","name":"updateSocket","inputs":[{"name":"socket","type":"string","internalType":"string"}],"outputs":[],"stateMutability":"nonpayable"},{"type":"function","name":"whitelist","inputs":[],"outputs":[{"name":"","type":"address","internalType":"contract IWhitelist"}],"stateMutability":"view"},{"type":"event","name":"ChurnApproverUpdated","inputs":[{"name":"prevChurnApprover","type":"address","indexed":false,"internalType":"address"},{"name":"newChurnApprover","type":"address","indexed":false,"internalType":"address"}],"anonymous":false},{"type":"event","name":"EjectorUpdated","inputs":[{"name":"prevEjector","type":"address","indexed":false,"internalType":"address"},{"name":"newEjector","type":"address","indexed":false,"internalType":"address"}],"anonymous":false},{"type":"event","name":"Initialized","inputs":[{"name":"version","type":"uint8","indexed":false,"internalType":"uint8"}],"anonymous":false},{"type":"event","name":"OperatorDeregistered","inputs":[{"name":"operator","type":"address","indexed":true,"internalType":"address"},{"name":"operatorId","type":"bytes32","indexed":true,"internalType":"bytes32"}],"anonymous":false},{"type":"event","name":"OperatorRegistered","inputs":[{"name":"operator","type":"address","indexed":true,"internalType":"address"},{"name":"operatorId","type":"bytes32","indexed":true,"internalType":"bytes32"}],"anonymous":false},{"type":"event","name":"OperatorSetParamsUpdated","inputs":[{"name":"quorumNumber","type":"uint8","indexed":true,"internalType":"uint8"},{"name":"operatorSetParams","type":"tuple","indexed":false,"internalType":"struct IRegistryCoordinator.OperatorSetParam","components":[{"name":"maxOperatorCount","type":"uint32","internalType":"uint32"},{"name":"kickBIPsOfOperatorStake","type":"uint16","internalType":"uint16"},{"name":"kickBIPsOfTotalStake","type":"uint16","internalType":"uint16"}]}],"anonymous":false},{"type":"event","name":"OperatorSocketUpdate","inputs":[{"name":"operatorId","type":"bytes32","indexed":true,"internalType":"bytes32"},{"name":"socket","type":"string","indexed":false,"internalType":"string"}],"anonymous":false},{"type":"event","name":"OwnershipTransferred","inputs":[{"name":"previousOwner","type":"address","indexed":true,"internalType":"address"},{"name":"newOwner","type":"address","indexed":true,"internalType":"address"}],"anonymous":false},{"type":"event","name":"Paused","inputs":[{"name":"account","type":"address","indexed":true,"internalType":"address"},{"name":"newPausedStatus","type":"uint256","indexed":false,"internalType":"uint256"}],"anonymous":false},{"type":"event","name":"PauserRegistrySet","inputs":[{"name":"pauserRegistry","type":"address","indexed":false,"internalType":"contract IPauserRegistry"},{"name":"newPauserRegistry","type":"address","indexed":false,"internalType":"contract IPauserRegistry"}],"anonymous":false},{"type":"event","name":"QuorumBlockNumberUpdated","inputs":[{"name":"quorumNumber","type":"uint8","indexed":true,"internalType":"uint8"},{"name":"blocknumber","type":"uint256","indexed":false,"internalType":"uint256"}],"anonymous":false},{"type":"event","name":"Unpaused","inputs":[{"name":"account","type":"address","indexed":true,"internalType":"address"},{"name":"newPausedStatus","type":"uint256","indexed":false,"internalType":"uint256"}],"anonymous":false}],"bytecode":{"object":"0x6101c06040523480156200001257600080fd5b50604051620062b4380380620062b4833981016040819052620000359162000254565b604080518082018252601681527f4156535265676973747279436f6f7264696e61746f720000000000000000000060208083019182528351808501909452600684526576302e302e3160d01b908401528151902060e08190527f6bda7e3f385e48841048390444cced5cc795af87758af67622e5f4f0882c4a996101008190524660a05287938793879387939192917f8b73c3c69bb8fe3d512ecc4cf759cc79239f7b179b0ffacaa9a75d522b39400f620001358184846040805160208101859052908101839052606081018290524660808201523060a082015260009060c0016040516020818303038152906040528051906020012090509392505050565b6080523060c05261012052505050506001600160a01b039384166101405291831661018052821661016052166101a0526200016f62000179565b50505050620002bc565b600054610100900460ff1615620001e65760405162461bcd60e51b815260206004820152602760248201527f496e697469616c697a61626c653a20636f6e747261637420697320696e697469604482015266616c697a696e6760c81b606482015260840160405180910390fd5b60005460ff908116101562000239576000805460ff191660ff9081179091556040519081527f7f26b83ff96e1f2b6a682f133852f6798a09c465da95921460cefb38474024989060200160405180910390a15b565b6001600160a01b03811681146200025157600080fd5b50565b600080600080608085870312156200026b57600080fd5b845162000278816200023b565b60208601519094506200028b816200023b565b60408601519093506200029e816200023b565b6060860151909250620002b1816200023b565b939692955090935050565b60805160a05160c05160e05161010051610120516101405161016051610180516101a051615ef0620003c4600039600081816106c6015281816111800152818161228a01528181612f78015281816136ff0152613d7e0152600081816105d801528181612215015281816126eb01528181612ef801528181613656015281816138920152613cfd01526000818161059e01528181610f3b0152818161225301528181612e7a01528181613060015281816130d6015281816135d60152613dfa0152600081816104e201528181612dd0015261351f01526000613f1101526000613f6001526000613f3b01526000613e9401526000613ebe01526000613ee80152615ef06000f3fe608060405234801561001057600080fd5b50600436106102f05760003560e01c8063683048351161019d578063a50857bf116100e9578063d72d8dd6116100a2578063e65797ad1161007c578063e65797ad146107e6578063f2fde38b14610889578063fabc1cbc1461089c578063fd39105a146108af57600080fd5b8063d72d8dd6146107a2578063d7476791146107aa578063d75b4c88146107d357600080fd5b8063a50857bf1461070f578063c391425e14610722578063ca0de88214610742578063ca4f2d9714610769578063cf9982841461077c578063d20215f31461078f57600080fd5b8063886f1195116101565780639aa1653d116101305780639aa1653d1461068f5780639b5d177b146106ae5780639e9923c2146106c15780639feab859146106e857600080fd5b8063886f11951461065b5780638da5cb5b1461067457806393e59dc11461067c57600080fd5b806368304835146105d35780636e3b17db146105fa578063715018a61461060d5780637ffbb5f11461061557806384ca521314610635578063871ef0491461064857600080fd5b8063296bb0641161025c5780635865c60c116102155780635b0b829f116101ef5780635b0b829f1461057e5780635c975abb146105915780635df45946146105995780636347c900146105c057600080fd5b80635865c60c14610537578063595c6a67146105575780635ac86ab71461055f57600080fd5b8063296bb064146104a457806329d1e0c3146104b75780632cdd1e86146104ca5780633998fdd3146104dd5780633c2a7f4c146105045780635140a5481461052457600080fd5b806313542a4e116102ae57806313542a4e146103b9578063136439dd146103e25780631478851f146103f55780631eb812da14610428578063249a0c421461047157806328f61b311461049157600080fd5b8062cf2ab5146102f557806303fd34921461030a57806304ec63511461033d578063054310e6146103685780630cf4b7671461039357806310d67a2f146103a6575b600080fd5b610308610303366004614a11565b6108eb565b005b61032a610318366004614a52565b60009081526098602052604090205490565b6040519081526020015b60405180910390f35b61035061034b366004614a7d565b610a01565b6040516001600160c01b039091168152602001610334565b609e5461037b906001600160a01b031681565b6040516001600160a01b039091168152602001610334565b6103086103a1366004614b9c565b610bd3565b6103086103b4366004614c11565b610ca1565b61032a6103c7366004614c11565b6001600160a01b031660009081526099602052604090205490565b6103086103f0366004614a52565b610d54565b610418610403366004614a52565b609a6020526000908152604090205460ff1681565b6040519015158152602001610334565b61043b610436366004614c2e565b610e91565b60408051825163ffffffff908116825260208085015190911690820152918101516001600160c01b031690820152606001610334565b61032a61047f366004614c61565b609b6020526000908152604090205481565b609f5461037b906001600160a01b031681565b61037b6104b2366004614a52565b610f22565b6103086104c5366004614c11565b610fae565b6103086104d8366004614c11565b610fbf565b61037b7f000000000000000000000000000000000000000000000000000000000000000081565b610517610512366004614c11565b610fd0565b6040516103349190614c7c565b610308610532366004614cd4565b61104f565b61054a610545366004614c11565b6114fb565b6040516103349190614d77565b61030861156f565b61041861056d366004614c61565b6001805460ff9092161b9081161490565b61030861058c366004614dfc565b61163b565b60015461032a565b61037b7f000000000000000000000000000000000000000000000000000000000000000081565b61037b6105ce366004614a52565b6116bd565b61037b7f000000000000000000000000000000000000000000000000000000000000000081565b610308610608366004614e30565b6116e7565b610308611795565b61032a610623366004614c11565b609c6020526000908152604090205481565b61032a610643366004614ee7565b6117a9565b610350610656366004614a52565b6117f3565b60005461037b906201000090046001600160a01b031681565b61037b6117fe565b60c95461037b906001600160a01b031681565b60965461069c9060ff1681565b60405160ff9091168152602001610334565b6103086106bc366004615080565b611817565b61037b7f000000000000000000000000000000000000000000000000000000000000000081565b61032a7f2bd82124057f0913bc3b772ce7b83e8057c1ad1f3510fc83778be20f10ec5de681565b61030861071d366004615179565b611b39565b610735610730366004615221565b611d62565b60405161033491906152c6565b61032a7f4d404e3276e7ac2163d8ee476afa6a41d1f68fb71f2d8b6546b24e55ce01b72a81565b610308610777366004615310565b611e1b565b61030861078a366004614a52565b611f07565b61030861079d366004615549565b612083565b609d5461032a565b61032a6107b8366004614c11565b6001600160a01b03166000908152609c602052604090205490565b6103086107e136600461562e565b612393565b6108556107f4366004614c61565b60408051606080820183526000808352602080840182905292840181905260ff9490941684526097825292829020825193840183525463ffffffff8116845261ffff600160201b8204811692850192909252600160301b9004169082015290565b60408051825163ffffffff16815260208084015161ffff908116918301919091529282015190921690820152606001610334565b610308610897366004614c11565b6123a6565b6103086108aa366004614a52565b61241c565b6108de6108bd366004614c11565b6001600160a01b031660009081526099602052604090206001015460ff1690565b604051610334919061568e565b6001546002906004908116141561091d5760405162461bcd60e51b81526004016109149061569c565b60405180910390fd5b60005b828110156109fb57600084848381811061093c5761093c6156d3565b90506020020160208101906109519190614c11565b6001600160a01b03811660009081526099602090815260408083208151808301909252805482526001810154949550929390929183019060ff16600281111561099c5761099c614d3f565b60028111156109ad576109ad614d3f565b905250805190915060006109c082612578565b905060006109d6826001600160c01b03166125e1565b90506109e38585836126ad565b505050505080806109f3906156ff565b915050610920565b50505050565b6000838152609860205260408120805482919084908110610a2457610a246156d3565b600091825260209182902060408051606081018252929091015463ffffffff808216808552600160201b8304821695850195909552600160401b9091046001600160c01b03169183019190915290925085161015610b095760405162461bcd60e51b815260206004820152605660248201527f504e52432e67657451756f72756d4269746d61704174426c6f636b4e756d626560448201527f724279496e6465783a2071756f72756d4269746d617055706461746520697320606482015275333937b69030b33a32b910313637b1b5a73ab6b132b960511b608482015260a401610914565b602081015163ffffffff161580610b2f5750806020015163ffffffff168463ffffffff16105b610bc75760405162461bcd60e51b815260206004820152605760248201527f504e52432e67657451756f72756d4269746d61704174426c6f636b4e756d626560448201527f724279496e6465783a2071756f72756d4269746d61705570646174652069732060648201527f66726f6d206265666f726520626c6f636b4e756d626572000000000000000000608482015260a401610914565b60400151949350505050565b60013360009081526099602052604090206001015460ff166002811115610bfc57610bfc614d3f565b14610c555760405162461bcd60e51b815260206004820152602360248201527f504e52432e75733a206f70657261746f72206973206e6f7420726567697374656044820152621c995960ea1b6064820152608401610914565b33600090815260996020526040908190205490517fec2963ab21c1e50e1e582aa542af2e4bf7bf38e6e1403c27b42e1c5d6e621eaa90610c96908490615767565b60405180910390a250565b600060029054906101000a90046001600160a01b03166001600160a01b031663eab66d7a6040518163ffffffff1660e01b8152600401602060405180830381865afa158015610cf4573d6000803e3d6000fd5b505050506040513d601f19601f82011682018060405250810190610d18919061577a565b6001600160a01b0316336001600160a01b031614610d485760405162461bcd60e51b815260040161091490615797565b610d518161279a565b50565b60005460405163237dfb4760e11b8152336004820152620100009091046001600160a01b0316906346fbf68e90602401602060405180830381865afa158015610da1573d6000803e3d6000fd5b505050506040513d601f19601f82011682018060405250810190610dc591906157e1565b610de15760405162461bcd60e51b815260040161091490615803565b60015481811614610e5a5760405162461bcd60e51b815260206004820152603860248201527f5061757361626c652e70617573653a20696e76616c696420617474656d70742060448201527f746f20756e70617573652066756e6374696f6e616c69747900000000000000006064820152608401610914565b600181905560405181815233907fab40a374bc51de372200a8bc981af8c9ecdc08dfdaef0bb6e09f88f3c616ef3d90602001610c96565b60408051606081018252600080825260208201819052918101919091526000838152609860205260409020805483908110610ece57610ece6156d3565b600091825260209182902060408051606081018252919092015463ffffffff8082168352600160201b820416938201939093526001600160c01b03600160401b909304929092169082015290505b92915050565b6040516308f6629d60e31b8152600481018290526000907f00000000000000000000000000000000000000000000000000000000000000006001600160a01b0316906347b314e890602401602060405180830381865afa158015610f8a573d6000803e3d6000fd5b505050506040513d601f19601f82011682018060405250810190610f1c919061577a565b610fb661289f565b610d51816128fe565b610fc761289f565b610d5181612967565b6040805180820190915260008082526020820152610f1c61104a7f2bd82124057f0913bc3b772ce7b83e8057c1ad1f3510fc83778be20f10ec5de68460405160200161102f9291909182526001600160a01b0316602082015260400190565b604051602081830303815290604052805190602001206129d0565b612a1e565b600154600290600490811614156110785760405162461bcd60e51b81526004016109149061569c565b60006110c084848080601f0160208091040260200160405190810160405280939291908181526020018383808284376000920191909152505060965460ff169150612aae9050565b90508483146111115760405162461bcd60e51b815260206004820181905260248201527f504e52432e756f66713a20696e707574206c656e677468206d69736d617463686044820152606401610914565b60005b838110156114f2576000858583818110611130576111306156d3565b919091013560f81c91503690506000898985818110611151576111516156d3565b9050602002810190611163919061584b565b6040516379a0849160e11b815260ff8616600482015291935091507f00000000000000000000000000000000000000000000000000000000000000006001600160a01b03169063f341092290602401602060405180830381865afa1580156111cf573d6000803e3d6000fd5b505050506040513d601f19601f820116820180604052508101906111f39190615894565b63ffffffff1681146112785760405162461bcd60e51b815260206004820152604260248201527f504e52432e756f66713a206e756d626572206f662075706461746564206f706560448201527f7261746f727320646f6573206e6f74206d617463682071756f72756d20746f74606482015261185b60f21b608482015260a401610914565b6000805b82811015611491576000848483818110611298576112986156d3565b90506020020160208101906112ad9190614c11565b6001600160a01b03811660009081526099602090815260408083208151808301909252805482526001810154949550929390929183019060ff1660028111156112f8576112f8614d3f565b600281111561130957611309614d3f565b9052508051909150600061131c82612578565b905060016001600160c01b03821660ff8b161c8116146113885760405162461bcd60e51b815260206004820152602160248201527f504e52432e756f66713a206f70657261746f72206e6f7420696e2071756f72756044820152606d60f81b6064820152608401610914565b856001600160a01b0316846001600160a01b03161161141d5760405162461bcd60e51b8152602060048201526044602482018190527f504e52432e756f66713a206f70657261746f7273206172726179206d75737420908201527f626520736f7274656420696e20617363656e64696e672061646472657373206f606482015263393232b960e11b608482015260a401610914565b5061147b83838f8f8d908e600161143491906158b1565b92611441939291906158c9565b8080601f0160208091040260200160405190810160405280939291908181526020018383808284376000920191909152506126ad92505050565b5090925061148a9050816156ff565b905061127c565b5060ff84166000818152609b6020908152604091829020439081905591519182527f46077d55330763f16269fd75e5761663f4192d2791747c0189b16ad31db07db4910160405180910390a250505050806114eb906156ff565b9050611114565b50505050505050565b60408051808201909152600080825260208201526001600160a01b0382166000908152609960209081526040918290208251808401909352805483526001810154909183019060ff16600281111561155557611555614d3f565b600281111561156657611566614d3f565b90525092915050565b60005460405163237dfb4760e11b8152336004820152620100009091046001600160a01b0316906346fbf68e90602401602060405180830381865afa1580156115bc573d6000803e3d6000fd5b505050506040513d601f19601f820116820180604052508101906115e091906157e1565b6115fc5760405162461bcd60e51b815260040161091490615803565b600019600181905560405190815233907fab40a374bc51de372200a8bc981af8c9ecdc08dfdaef0bb6e09f88f3c616ef3d9060200160405180910390a2565b61164361289f565b609654829060ff908116908216106116ae5760405162461bcd60e51b815260206004820152602860248201527f504e52432e71756f72756d4578697374733a2071756f72756d20646f6573206e6044820152671bdd08195e1a5cdd60c21b6064820152608401610914565b6116b88383612b3f565b505050565b609d81815481106116cd57600080fd5b6000918252602090912001546001600160a01b0316905081565b609f546001600160a01b031633146117555760405162461bcd60e51b815260206004820152602b60248201527f504e52432e6f6e6c79456a6563746f723a2063616c6c6572206973206e6f742060448201526a3a34329032b532b1ba37b960a91b6064820152608401610914565b6116b88383838080601f016020809104026020016040519081016040528093929190818152602001838380828437600092019190915250612bec92505050565b61179d61289f565b6117a76000612fec565b565b60006117e97f4d404e3276e7ac2163d8ee476afa6a41d1f68fb71f2d8b6546b24e55ce01b72a878787878760405160200161102f969594939291906158f3565b9695505050505050565b6000610f1c82612578565b60006118126064546001600160a01b031690565b905090565b60018054600091908116141561183f5760405162461bcd60e51b81526004016109149061569c565b8389146118ac5760405162461bcd60e51b815260206004820152603560248201527f504e52432e72656769737465724f70657261746f7257697468436875726e3a206044820152740d2dce0eae840d8cadccee8d040dad2e6dac2e8c6d605b1b6064820152608401610914565b60006118b8338861303e565b905061191833828888808060200260200160405190810160405280939291908181526020016000905b8282101561190d576118fe60408302860136819003810190615978565b815260200190600101906118e1565b50505050508761316f565b600061195f33838e8e8e8e8080601f0160208091040260200160405190810160405280939291908181526020018383808284376000920191909152508c92506132a2915050565b905060005b8b811015611b2a576000609760008f8f85818110611984576119846156d3565b919091013560f81c82525060208082019290925260409081016000208151606081018352905463ffffffff811680835261ffff600160201b8304811695840195909552600160301b909104909316918101919091528451805191935090849081106119f1576119f16156d3565b602002602001015163ffffffff161115611b1757611a928e8e84818110611a1a57611a1a6156d3565b9050013560f81c60f81b60f81c84604001518481518110611a3d57611a3d6156d3565b60200260200101513386602001518681518110611a5c57611a5c6156d3565b60200260200101518d8d88818110611a7657611a766156d3565b905060400201803603810190611a8c9190615978565b8661378d565b611b17898984818110611aa757611aa76156d3565b9050604002016020016020810190611abf9190614c11565b8f8f8590866001611ad091906158b1565b92611add939291906158c9565b8080601f016020809104026020016040519081016040528093929190818152602001838380828437600092019190915250612bec92505050565b5080611b22816156ff565b915050611964565b50505050505050505050505050565b600180546000919081161415611b615760405162461bcd60e51b81526004016109149061569c565b60c954604051631399625f60e01b81523360048201526000916001600160a01b031690631399625f90602401602060405180830381865afa158015611baa573d6000803e3d6000fd5b505050506040513d601f19601f82011682018060405250810190611bce9190615994565b1415611c1c5760405162461bcd60e51b815260206004820152601b60248201527f4f70657261746f72206973206e6f742077686974656c697374656400000000006044820152606401610914565b6000611c28338561303e565b90506000611c7133838b8b8b8b8080601f0160208091040260200160405190810160405280939291908181526020018383808284376000920191909152508c92506132a2915050565b51905060005b88811015611d565760008a8a83818110611c9357611c936156d3565b919091013560f81c600081815260976020526040902054855191935063ffffffff169150849084908110611cc957611cc96156d3565b602002602001015163ffffffff161115611d435760405162461bcd60e51b815260206004820152603560248201527f504e52432e72656769737465724f70657261746f723a206f70657261746f7220604482015274636f756e742065786365656473206d6178696d756d60581b6064820152608401610914565b5080611d4e816156ff565b915050611c77565b50505050505050505050565b6060600082516001600160401b03811115611d7f57611d7f614ab5565b604051908082528060200260200182016040528015611da8578160200160208202803683370190505b50905060005b8351811015611e1357611dda85858381518110611dcd57611dcd6156d3565b6020026020010151613a3d565b828281518110611dec57611dec6156d3565b63ffffffff9092166020928302919091019091015280611e0b816156ff565b915050611dae565b509392505050565b6001805460029081161415611e425760405162461bcd60e51b81526004016109149061569c565b336000908152609c6020526040902054431115611ec75760405162461bcd60e51b815260206004820152603d60248201527f504e52432e646f3a206f70657261746f722063616e6e6f74206465726567697360448201527f746572206265666f72652074686520737065636966696320626c6f636b0000006064820152608401610914565b6116b83384848080601f016020809104026020016040519081016040528093929190818152602001838380828437600092019190915250612bec92505050565b60013360009081526099602052604090206001015460ff166002811115611f3057611f30614d3f565b14611f875760405162461bcd60e51b815260206004820152602160248201527f504e52432e6572703a206e6f742072656769737465726564206f70657261746f6044820152603960f91b6064820152608401610914565b438111611ff15760405162461bcd60e51b815260206004820152603260248201527f504e52432e6572703a2063616e206f6e6c7920657874656e6420746f206120626044820152716c6f636b20696e207468652066757475726560701b6064820152608401610914565b611ffc6001436158b1565b8110156120715760405162461bcd60e51b815260206004820152603c60248201527f504e52432e6572703a2073706563696669656420626c6f636b20697320746f6f60448201527f20736d616c6c20666f7220746865206561726c696573742065786974000000006064820152608401610914565b336000908152609c6020526040902055565b600054610100900460ff16158080156120a35750600054600160ff909116105b806120bd5750303b1580156120bd575060005460ff166001145b6121205760405162461bcd60e51b815260206004820152602e60248201527f496e697469616c697a61626c653a20636f6e747261637420697320616c72656160448201526d191e481a5b9a5d1a585b1a5e995960921b6064820152608401610914565b6000805460ff191660011790558015612143576000805461ff0019166101001790555b83518551148015612155575082518451145b6121b05760405162461bcd60e51b815260206004820152602660248201527f504e52432e696e697469616c697a653a20696e707574206c656e677468206d696044820152650e6dac2e8c6d60d31b6064820152608401610914565b6121b98a612fec565b6121c38787613b64565b6121cc896128fe565b6121d588612967565b609d80546001818101835560008381527fd26e832454299e9fabb89e0e5fffdc046d4e14431bc1bf607ffb2e8a1ddecf7b92830180546001600160a01b037f000000000000000000000000000000000000000000000000000000000000000081166001600160a01b03199283161790925585548085018755850180547f0000000000000000000000000000000000000000000000000000000000000000841690831617905585549384019095559190920180547f000000000000000000000000000000000000000000000000000000000000000090921691909316179091555b8551811015612326576123148682815181106122d3576122d36156d3565b60200260200101518683815181106122ed576122ed6156d3565b6020026020010151868481518110612307576123076156d3565b6020026020010151613c54565b8061231e816156ff565b9150506122b5565b5060c980546001600160a01b0319166001600160a01b0384161790558015611d56576000805461ff0019169055604051600181527f7f26b83ff96e1f2b6a682f133852f6798a09c465da95921460cefb38474024989060200160405180910390a150505050505050505050565b61239b61289f565b6116b8838383613c54565b6123ae61289f565b6001600160a01b0381166124135760405162461bcd60e51b815260206004820152602660248201527f4f776e61626c653a206e6577206f776e657220697320746865207a65726f206160448201526564647265737360d01b6064820152608401610914565b610d5181612fec565b600060029054906101000a90046001600160a01b03166001600160a01b031663eab66d7a6040518163ffffffff1660e01b8152600401602060405180830381865afa15801561246f573d6000803e3d6000fd5b505050506040513d601f19601f82011682018060405250810190612493919061577a565b6001600160a01b0316336001600160a01b0316146124c35760405162461bcd60e51b815260040161091490615797565b6001541981196001541916146125415760405162461bcd60e51b815260206004820152603860248201527f5061757361626c652e756e70617573653a20696e76616c696420617474656d7060448201527f7420746f2070617573652066756e6374696f6e616c69747900000000000000006064820152608401610914565b600181905560405181815233907f3582d1828e26bf56bd801502bc021ac0bc8afb57c826e4986b45593c8fad389c90602001610c96565b600081815260986020526040812054806125955750600092915050565b60008381526098602052604090206125ae6001836159ad565b815481106125be576125be6156d3565b600091825260209091200154600160401b90046001600160c01b03169392505050565b60606000806125ef84613e5c565b61ffff166001600160401b0381111561260a5761260a614ab5565b6040519080825280601f01601f191660200182016040528015612634576020820181803683370190505b5090506000805b82518210801561264c575061010081105b156126a3576001811b935085841615612693578060f81b838381518110612675576126756156d3565b60200101906001600160f81b031916908160001a9053508160010191505b61269c816156ff565b905061263b565b5090949350505050565b6001826020015160028111156126c5576126c5614d3f565b146126cf57505050565b81516040516333567f7f60e11b81526000906001600160a01b037f000000000000000000000000000000000000000000000000000000000000000016906366acfefe90612724908890869088906004016159c4565b6020604051808303816000875af1158015612743573d6000803e3d6000fd5b505050506040513d601f19601f8201168201806040525081019061276791906159f4565b90506001600160c01b03811615612793576127938561278e836001600160c01b03166125e1565b612bec565b5050505050565b6001600160a01b0381166128285760405162461bcd60e51b815260206004820152604960248201527f5061757361626c652e5f73657450617573657252656769737472793a206e657760448201527f50617573657252656769737472792063616e6e6f7420626520746865207a65726064820152686f206164647265737360b81b608482015260a401610914565b600054604080516001600160a01b03620100009093048316815291831660208301527f6e9fcd539896fca60e8b0f01dd580233e48a6b0f7df013b89ba7f565869acdb6910160405180910390a1600080546001600160a01b03909216620100000262010000600160b01b0319909216919091179055565b336128a86117fe565b6001600160a01b0316146117a75760405162461bcd60e51b815260206004820181905260248201527f4f776e61626c653a2063616c6c6572206973206e6f7420746865206f776e65726044820152606401610914565b609e54604080516001600160a01b03928316815291831660208301527f315457d8a8fe60f04af17c16e2f5a5e1db612b31648e58030360759ef8f3528c910160405180910390a1609e80546001600160a01b0319166001600160a01b0392909216919091179055565b609f54604080516001600160a01b03928316815291831660208301527f8f30ab09f43a6c157d7fce7e0a13c003042c1c95e8a72e7a146a21c0caa24dc9910160405180910390a1609f80546001600160a01b0319166001600160a01b0392909216919091179055565b6000610f1c6129dd613e87565b8360405161190160f01b6020820152602281018390526042810182905260009060620160405160208183030381529060405280519060200120905092915050565b604080518082019091526000808252602082015260008080612a4e600080516020615e9b83398151915286615a33565b90505b612a5a81613fae565b9093509150600080516020615e9b833981519152828309831415612a94576040805180820190915290815260208101919091529392505050565b600080516020615e9b833981519152600182089050612a51565b600080612aba84614030565b9050808360ff166001901b11612b385760405162461bcd60e51b815260206004820152603f60248201527f4269746d61705574696c732e6f72646572656442797465734172726179546f4260448201527f69746d61703a206269746d61702065786365656473206d61782076616c7565006064820152608401610914565b9392505050565b60ff8216600081815260976020908152604091829020845181548684018051888701805163ffffffff90951665ffffffffffff199094168417600160201b61ffff938416021767ffff0000000000001916600160301b95831695909502949094179094558551918252518316938101939093525116918101919091527f3ee6fe8d54610244c3e9d3c066ae4aee997884aa28f10616ae821925401318ac9060600160405180910390a25050565b6001600160a01b0382166000908152609960205260409020805460018083015460ff166002811115612c2057612c20614d3f565b14612c795760405162461bcd60e51b8152602060048201526024808201527f504e52432e5f646f3a206f70657261746f72206973206e6f7420726567697374604482015263195c995960e21b6064820152608401610914565b609654600090612c8d90859060ff16612aae565b90506000612c9a83612578565b90506001600160c01b038216612cf25760405162461bcd60e51b815260206004820152601c60248201527f504e52432e5f646f3a206269746d61702063616e6e6f742062652030000000006044820152606401610914565b612d096001600160c01b0383811690831681161490565b612d7b5760405162461bcd60e51b815260206004820152603a60248201527f504e52432e5f646f3a206f70657261746f72206973206e6f742072656769737460448201527f6572656420666f72207370656369666965642071756f72756d730000000000006064820152608401610914565b6001600160c01b0382811619821616612d9484826141bd565b6001600160c01b038116612e635760018501805460ff191660021790556040516351b27a6d60e11b81526001600160a01b0388811660048301527f0000000000000000000000000000000000000000000000000000000000000000169063a364f4da90602401600060405180830381600087803b158015612e1457600080fd5b505af1158015612e28573d6000803e3d6000fd5b50506040518692506001600160a01b038a1691507f396fdcb180cb0fea26928113fb0fd1c3549863f9cd563e6a184f1d578116c8e490600090a35b60405163f4e24fe560e01b81526001600160a01b037f0000000000000000000000000000000000000000000000000000000000000000169063f4e24fe590612eb1908a908a90600401615a47565b600060405180830381600087803b158015612ecb57600080fd5b505af1158015612edf573d6000803e3d6000fd5b505060405163bd29b8cd60e01b81526001600160a01b037f000000000000000000000000000000000000000000000000000000000000000016925063bd29b8cd9150612f319087908a90600401615a6b565b600060405180830381600087803b158015612f4b57600080fd5b505af1158015612f5f573d6000803e3d6000fd5b505060405163bd29b8cd60e01b81526001600160a01b037f000000000000000000000000000000000000000000000000000000000000000016925063bd29b8cd9150612fb19087908a90600401615a6b565b600060405180830381600087803b158015612fcb57600080fd5b505af1158015612fdf573d6000803e3d6000fd5b5050505050505050505050565b606480546001600160a01b038381166001600160a01b0319831681179093556040519116919082907f8be0079c531659141344cd1fd0a4f28419497f9722a3daafe3b4186f6b6457e090600090a35050565b6040516309aa152760e11b81526001600160a01b0383811660048301526000917f0000000000000000000000000000000000000000000000000000000000000000909116906313542a4e90602401602060405180830381865afa1580156130a9573d6000803e3d6000fd5b505050506040513d601f19601f820116820180604052508101906130cd9190615994565b905080610f1c577f00000000000000000000000000000000000000000000000000000000000000006001600160a01b031663bf79ce58848461310e87610fd0565b6040518463ffffffff1660e01b815260040161312c93929190615a84565b6020604051808303816000875af115801561314b573d6000803e3d6000fd5b505050506040513d601f19601f82011682018060405250810190612b389190615994565b6020808201516000908152609a909152604090205460ff16156131e85760405162461bcd60e51b815260206004820152602b60248201527f504e52432e5f766361733a20636875726e417070726f7665722073616c74206160448201526a1b1c9958591e481d5cd95960aa1b6064820152608401610914565b42816040015110156132505760405162461bcd60e51b815260206004820152602b60248201527f504e52432e5f766361733a20636875726e417070726f766572207369676e617460448201526a1d5c9948195e1c1a5c995960aa1b6064820152608401610914565b602080820180516000908152609a909252604091829020805460ff19166001179055609e549051918301516109fb926001600160a01b039092169161329b91889188918891906117a9565b835161437d565b6132c660405180606001604052806060815260200160608152602001606081525090565b600061330e86868080601f0160208091040260200160405190810160405280939291908181526020018383808284376000920191909152505060965460ff169150612aae9050565b9050600061331b88612578565b90506001600160c01b0382166133735760405162461bcd60e51b815260206004820152601c60248201527f504e52432e5f726f3a206269746d61702063616e6e6f742062652030000000006044820152606401610914565b8082166001600160c01b0316156134065760405162461bcd60e51b815260206004820152604b60248201527f504e52432e5f726f3a206f70657261746f7220616c726561647920726567697360448201527f746572656420666f7220736f6d652071756f72756d73206265696e672072656760648201526a34b9ba32b932b2103337b960a91b608482015260a401610914565b6001600160c01b038181169083161761341f89826141bd565b887fec2963ab21c1e50e1e582aa542af2e4bf7bf38e6e1403c27b42e1c5d6e621eaa8760405161344f9190615767565b60405180910390a260016001600160a01b038b1660009081526099602052604090206001015460ff16600281111561348957613489614d3f565b146135bf576040805180820182528a8152600160208083018281526001600160a01b038f166000908152609990925293902082518155925183820180549394939192909160ff1916908360028111156134e4576134e4614d3f565b021790555050506001600160a01b038a166000908152609c602052604090206000199055604051639926ee7d60e01b81526001600160a01b037f00000000000000000000000000000000000000000000000000000000000000001690639926ee7d90613556908d908990600401615b03565b600060405180830381600087803b15801561357057600080fd5b505af1158015613584573d6000803e3d6000fd5b50506040518b92506001600160a01b038d1691507fe8e68cef1c3a761ed7be7e8463a375f27f7bc335e51824223cacce636ec5c3fe90600090a35b604051631fd93ca960e11b81526001600160a01b037f00000000000000000000000000000000000000000000000000000000000000001690633fb279529061360f908d908c908c90600401615b77565b600060405180830381600087803b15801561362957600080fd5b505af115801561363d573d6000803e3d6000fd5b5050604051632550477760e01b81526001600160a01b037f000000000000000000000000000000000000000000000000000000000000000016925063255047779150613693908d908d908d908d90600401615b9c565b6000604051808303816000875af11580156136b2573d6000803e3d6000fd5b505050506040513d6000823e601f3d908101601f191682016040526136da9190810190615c28565b60408087019190915260208601919091525162bff04d60e01b81526001600160a01b037f0000000000000000000000000000000000000000000000000000000000000000169062bff04d90613737908c908c908c90600401615c8b565b6000604051808303816000875af1158015613756573d6000803e3d6000fd5b505050506040513d6000823e601f3d908101601f1916820160405261377e9190810190615ca5565b84525050509695505050505050565b6020808301516001600160a01b0380821660008181526099909452604090932054919290871614156138015760405162461bcd60e51b815260206004820152601b60248201527f504e52432e5f76633a2063616e6e6f7420636875726e2073656c6600000000006044820152606401610914565b8760ff16846000015160ff16146138705760405162461bcd60e51b815260206004820152602d60248201527f504e52432e5f76633a2071756f72756d4e756d626572206e6f7420746865207360448201526c185b5948185cc81cda59db9959609a1b6064820152608401610914565b604051635401ed2760e01b81526004810182905260ff891660248201526000907f00000000000000000000000000000000000000000000000000000000000000006001600160a01b031690635401ed2790604401602060405180830381865afa1580156138e1573d6000803e3d6000fd5b505050506040513d601f19601f820116820180604052508101906139059190615d3e565b90506139118185614537565b6001600160601b0316866001600160601b0316116139975760405162461bcd60e51b815260206004820152603c60248201527f504e52432e5f76633a20696e636f6d696e67206f70657261746f72206861732060448201527f696e73756666696369656e74207374616b6520666f7220636875726e000000006064820152608401610914565b6139a1888561455b565b6001600160601b0316816001600160601b031610613a325760405162461bcd60e51b815260206004820152604260248201527f504e52432e5f76633a2063616e6e6f74206b69636b206f70657261746f72207760448201527f697468206d6f7265207468616e206b69636b424950734f66546f74616c5374616064820152616b6560f01b608482015260a401610914565b505050505050505050565b600081815260986020526040812054815b81811015613acf576001613a6282846159ad565b613a6c91906159ad565b92508463ffffffff16609860008681526020019081526020016000208463ffffffff1681548110613a9f57613a9f6156d3565b60009182526020909120015463ffffffff1611613abd575050610f1c565b80613ac7816156ff565b915050613a4e565b5060405162461bcd60e51b815260206004820152605d60248201527f504e52432e67657451756f72756d4269746d6170496e6465784174426c6f636b60448201527f4e756d6265723a206e6f206269746d61702075706461746520666f756e64206660648201527f6f72206f70657261746f72496420617420626c6f636b206e756d626572000000608482015260a401610914565b6000546201000090046001600160a01b0316158015613b8b57506001600160a01b03821615155b613c0d5760405162461bcd60e51b815260206004820152604760248201527f5061757361626c652e5f696e697469616c697a655061757365723a205f696e6960448201527f7469616c697a6550617573657228292063616e206f6e6c792062652063616c6c6064820152666564206f6e636560c81b608482015260a401610914565b600181905560405181815233907fab40a374bc51de372200a8bc981af8c9ecdc08dfdaef0bb6e09f88f3c616ef3d9060200160405180910390a2613c508261279a565b5050565b60965460ff1660c08110613cb95760405162461bcd60e51b815260206004820152602660248201527f504e52432e63726561746551756f72756d3a206d61782071756f72756d732072604482015265195858da195960d21b6064820152608401610914565b613cc4816001615d5b565b6096805460ff191660ff9290921691909117905580613ce38186612b3f565b60405160016296b58960e01b031981526001600160a01b037f0000000000000000000000000000000000000000000000000000000000000000169063ff694a7790613d3690849088908890600401615d80565b600060405180830381600087803b158015613d5057600080fd5b505af1158015613d64573d6000803e3d6000fd5b505060405163136ca0f960e11b815260ff841660048201527f00000000000000000000000000000000000000000000000000000000000000006001600160a01b031692506326d941f29150602401600060405180830381600087803b158015613dcc57600080fd5b505af1158015613de0573d6000803e3d6000fd5b505060405163136ca0f960e11b815260ff841660048201527f00000000000000000000000000000000000000000000000000000000000000006001600160a01b031692506326d941f29150602401600060405180830381600087803b158015613e4857600080fd5b505af1158015613a32573d6000803e3d6000fd5b6000805b8215610f1c57613e716001846159ad565b9092169180613e7f81615df9565b915050613e60565b6000306001600160a01b037f000000000000000000000000000000000000000000000000000000000000000016148015613ee057507f000000000000000000000000000000000000000000000000000000000000000046145b15613f0a57507f000000000000000000000000000000000000000000000000000000000000000090565b50604080517f00000000000000000000000000000000000000000000000000000000000000006020808301919091527f0000000000000000000000000000000000000000000000000000000000000000828401527f000000000000000000000000000000000000000000000000000000000000000060608301524660808301523060a0808401919091528351808403909101815260c0909201909252805191012090565b60008080600080516020615e9b8339815191526003600080516020615e9b83398151915286600080516020615e9b833981519152888909090890506000614024827f0c19139cb84c680a6e14116da060561765e05aa45a1c72a34f082305b61f3f52600080516020615e9b833981519152614575565b91959194509092505050565b6000610100825111156140b95760405162461bcd60e51b8152602060048201526044602482018190527f4269746d61705574696c732e6f72646572656442797465734172726179546f42908201527f69746d61703a206f7264657265644279746573417272617920697320746f6f206064820152636c6f6e6760e01b608482015260a401610914565b81516140c757506000919050565b600080836000815181106140dd576140dd6156d3565b0160200151600160f89190911c81901b92505b84518110156141b45784818151811061410b5761410b6156d3565b0160200151600160f89190911c1b91508282116141a05760405162461bcd60e51b815260206004820152604760248201527f4269746d61705574696c732e6f72646572656442797465734172726179546f4260448201527f69746d61703a206f72646572656442797465734172726179206973206e6f74206064820152661bdc99195c995960ca1b608482015260a401610914565b918117916141ad816156ff565b90506140f0565b50909392505050565b60008281526098602052604090205480614262576000838152609860209081526040808320815160608101835263ffffffff43811682528185018681526001600160c01b03808a16958401958652845460018101865594885295909620915191909201805495519351909416600160401b026001600160401b03938316600160201b0267ffffffffffffffff1990961691909216179390931716919091179055505050565b600083815260986020526040812061427b6001846159ad565b8154811061428b5761428b6156d3565b600091825260209091200180549091504363ffffffff908116911614156142cf5780546001600160401b0316600160401b6001600160c01b038516021781556109fb565b805463ffffffff438116600160201b81810267ffffffff0000000019909416939093178455600087815260986020908152604080832081516060810183529485528483018481526001600160c01b03808c1693870193845282546001810184559286529390942094519401805493519151909216600160401b026001600160401b0391861690960267ffffffffffffffff199093169390941692909217179190911691909117905550505050565b6001600160a01b0383163b1561449757604051630b135d3f60e11b808252906001600160a01b03851690631626ba7e906143bd9086908690600401615a6b565b602060405180830381865afa1580156143da573d6000803e3d6000fd5b505050506040513d601f19601f820116820180604052508101906143fe9190615e1b565b6001600160e01b031916146116b85760405162461bcd60e51b815260206004820152605360248201527f454950313237315369676e61747572655574696c732e636865636b5369676e6160448201527f747572655f454950313237313a2045524331323731207369676e6174757265206064820152721d995c9a599a58d85d1a5bdb8819985a5b1959606a1b608482015260a401610914565b826001600160a01b03166144ab8383614624565b6001600160a01b0316146116b85760405162461bcd60e51b815260206004820152604760248201527f454950313237315369676e61747572655574696c732e636865636b5369676e6160448201527f747572655f454950313237313a207369676e6174757265206e6f742066726f6d6064820152661039b4b3b732b960c91b608482015260a401610914565b6020810151600090612710906145519061ffff1685615e45565b612b389190615e74565b6040810151600090612710906145519061ffff1685615e45565b600080614580614991565b6145886149af565b602080825281810181905260408201819052606082018890526080820187905260a082018690528260c08360056107d05a03fa92508280156145c9576145cb565bfe5b50826146195760405162461bcd60e51b815260206004820152601a60248201527f424e3235342e6578704d6f643a2063616c6c206661696c7572650000000000006044820152606401610914565b505195945050505050565b60008060006146338585614640565b91509150611e13816146b0565b6000808251604114156146775760208301516040840151606085015160001a61466b8782858561486b565b945094505050506146a9565b8251604014156146a15760208301516040840151614696868383614958565b9350935050506146a9565b506000905060025b9250929050565b60008160048111156146c4576146c4614d3f565b14156146cd5750565b60018160048111156146e1576146e1614d3f565b141561472f5760405162461bcd60e51b815260206004820152601860248201527f45434453413a20696e76616c6964207369676e617475726500000000000000006044820152606401610914565b600281600481111561474357614743614d3f565b14156147915760405162461bcd60e51b815260206004820152601f60248201527f45434453413a20696e76616c6964207369676e6174757265206c656e677468006044820152606401610914565b60038160048111156147a5576147a5614d3f565b14156147fe5760405162461bcd60e51b815260206004820152602260248201527f45434453413a20696e76616c6964207369676e6174757265202773272076616c604482015261756560f01b6064820152608401610914565b600481600481111561481257614812614d3f565b1415610d515760405162461bcd60e51b815260206004820152602260248201527f45434453413a20696e76616c6964207369676e6174757265202776272076616c604482015261756560f01b6064820152608401610914565b6000807f7fffffffffffffffffffffffffffffff5d576e7357a4501ddfe92f46681b20a08311156148a2575060009050600361494f565b8460ff16601b141580156148ba57508460ff16601c14155b156148cb575060009050600461494f565b6040805160008082526020820180845289905260ff881692820192909252606081018690526080810185905260019060a0016020604051602081039080840390855afa15801561491f573d6000803e3d6000fd5b5050604051601f1901519150506001600160a01b0381166149485760006001925092505061494f565b9150600090505b94509492505050565b6000806001600160ff1b0383168161497560ff86901c601b6158b1565b90506149838782888561486b565b935093505050935093915050565b60405180602001604052806001906020820280368337509192915050565b6040518060c001604052806006906020820280368337509192915050565b60008083601f8401126149df57600080fd5b5081356001600160401b038111156149f657600080fd5b6020830191508360208260051b85010111156146a957600080fd5b60008060208385031215614a2457600080fd5b82356001600160401b03811115614a3a57600080fd5b614a46858286016149cd565b90969095509350505050565b600060208284031215614a6457600080fd5b5035919050565b63ffffffff81168114610d5157600080fd5b600080600060608486031215614a9257600080fd5b833592506020840135614aa481614a6b565b929592945050506040919091013590565b634e487b7160e01b600052604160045260246000fd5b604051606081016001600160401b0381118282101715614aed57614aed614ab5565b60405290565b604080519081016001600160401b0381118282101715614aed57614aed614ab5565b604051601f8201601f191681016001600160401b0381118282101715614b3d57614b3d614ab5565b604052919050565b60006001600160401b03831115614b5e57614b5e614ab5565b614b71601f8401601f1916602001614b15565b9050828152838383011115614b8557600080fd5b828260208301376000602084830101529392505050565b600060208284031215614bae57600080fd5b81356001600160401b03811115614bc457600080fd5b8201601f81018413614bd557600080fd5b614be484823560208401614b45565b949350505050565b6001600160a01b0381168114610d5157600080fd5b8035614c0c81614bec565b919050565b600060208284031215614c2357600080fd5b8135612b3881614bec565b60008060408385031215614c4157600080fd5b50508035926020909101359150565b803560ff81168114614c0c57600080fd5b600060208284031215614c7357600080fd5b612b3882614c50565b815181526020808301519082015260408101610f1c565b60008083601f840112614ca557600080fd5b5081356001600160401b03811115614cbc57600080fd5b6020830191508360208285010111156146a957600080fd5b60008060008060408587031215614cea57600080fd5b84356001600160401b0380821115614d0157600080fd5b614d0d888389016149cd565b90965094506020870135915080821115614d2657600080fd5b50614d3387828801614c93565b95989497509550505050565b634e487b7160e01b600052602160045260246000fd5b60038110614d7357634e487b7160e01b600052602160045260246000fd5b9052565b815181526020808301516040830191614d9290840182614d55565b5092915050565b803561ffff81168114614c0c57600080fd5b600060608284031215614dbd57600080fd5b614dc5614acb565b90508135614dd281614a6b565b8152614de060208301614d99565b6020820152614df160408301614d99565b604082015292915050565b60008060808385031215614e0f57600080fd5b614e1883614c50565b9150614e278460208501614dab565b90509250929050565b600080600060408486031215614e4557600080fd5b8335614e5081614bec565b925060208401356001600160401b03811115614e6b57600080fd5b614e7786828701614c93565b9497909650939450505050565b60006001600160401b03821115614e9d57614e9d614ab5565b5060051b60200190565b600060408284031215614eb957600080fd5b614ec1614af3565b9050614ecc82614c50565b81526020820135614edc81614bec565b602082015292915050565b600080600080600060a08688031215614eff57600080fd5b8535614f0a81614bec565b945060208681013594506040808801356001600160401b03811115614f2e57600080fd5b8801601f81018a13614f3f57600080fd5b8035614f52614f4d82614e84565b614b15565b81815260069190911b8201840190848101908c831115614f7157600080fd5b928501925b82841015614f9757614f888d85614ea7565b82529284019290850190614f76565b999c989b5098996060810135995060800135979650505050505050565b60006101008284031215614fc757600080fd5b50919050565b60008083601f840112614fdf57600080fd5b5081356001600160401b03811115614ff657600080fd5b6020830191508360208260061b85010111156146a957600080fd5b60006060828403121561502357600080fd5b61502b614acb565b905081356001600160401b0381111561504357600080fd5b8201601f8101841361505457600080fd5b61506384823560208401614b45565b825250602082013560208201526040820135604082015292915050565b60008060008060008060008060006101a08a8c03121561509f57600080fd5b89356001600160401b03808211156150b657600080fd5b6150c28d838e01614c93565b909b50995060208c01359150808211156150db57600080fd5b6150e78d838e01614c93565b90995097508791506150fc8d60408e01614fb4565b96506101408c013591508082111561511357600080fd5b61511f8d838e01614fcd565b90965094506101608c013591508082111561513957600080fd5b6151458d838e01615011565b93506101808c013591508082111561515c57600080fd5b506151698c828d01615011565b9150509295985092959850929598565b600080600080600080610160878903121561519357600080fd5b86356001600160401b03808211156151aa57600080fd5b6151b68a838b01614c93565b909850965060208901359150808211156151cf57600080fd5b6151db8a838b01614c93565b90965094508491506151f08a60408b01614fb4565b935061014089013591508082111561520757600080fd5b5061521489828a01615011565b9150509295509295509295565b6000806040838503121561523457600080fd5b823561523f81614a6b565b91506020838101356001600160401b0381111561525b57600080fd5b8401601f8101861361526c57600080fd5b803561527a614f4d82614e84565b81815260059190911b8201830190838101908883111561529957600080fd5b928401925b828410156152b75783358252928401929084019061529e565b80955050505050509250929050565b6020808252825182820181905260009190848201906040850190845b8181101561530457835163ffffffff16835292840192918401916001016152e2565b50909695505050505050565b6000806020838503121561532357600080fd5b82356001600160401b0381111561533957600080fd5b614a4685828601614c93565b600082601f83011261535657600080fd5b81356020615366614f4d83614e84565b8281526060928302850182019282820191908785111561538557600080fd5b8387015b858110156153a85761539b8982614dab565b8452928401928101615389565b5090979650505050505050565b6001600160601b0381168114610d5157600080fd5b600082601f8301126153db57600080fd5b813560206153eb614f4d83614e84565b82815260059290921b8401810191818101908684111561540a57600080fd5b8286015b8481101561542e578035615421816153b5565b835291830191830161540e565b509695505050505050565b600082601f83011261544a57600080fd5b8135602061545a614f4d83614e84565b82815260069290921b8401810191818101908684111561547957600080fd5b8286015b8481101561542e57604081890312156154965760008081fd5b61549e614af3565b81356154a981614bec565b8152818501356154b8816153b5565b8186015283529183019160400161547d565b600082601f8301126154db57600080fd5b813560206154eb614f4d83614e84565b82815260059290921b8401810191818101908684111561550a57600080fd5b8286015b8481101561542e5780356001600160401b0381111561552d5760008081fd5b61553b8986838b0101615439565b84525091830191830161550e565b60008060008060008060008060006101208a8c03121561556857600080fd5b6155718a614c01565b985061557f60208b01614c01565b975061558d60408b01614c01565b965061559b60608b01614c01565b955060808a0135945060a08a01356001600160401b03808211156155be57600080fd5b6155ca8d838e01615345565b955060c08c01359150808211156155e057600080fd5b6155ec8d838e016153ca565b945060e08c013591508082111561560257600080fd5b5061560f8c828d016154ca565b92505061561f6101008b01614c01565b90509295985092959850929598565b600080600060a0848603121561564357600080fd5b61564d8585614dab565b9250606084013561565d816153b5565b915060808401356001600160401b0381111561567857600080fd5b61568486828701615439565b9150509250925092565b60208101610f1c8284614d55565b60208082526019908201527f5061757361626c653a20696e6465782069732070617573656400000000000000604082015260600190565b634e487b7160e01b600052603260045260246000fd5b634e487b7160e01b600052601160045260246000fd5b6000600019821415615713576157136156e9565b5060010190565b6000815180845260005b8181101561574057602081850181015186830182015201615724565b81811115615752576000602083870101525b50601f01601f19169290920160200192915050565b602081526000612b38602083018461571a565b60006020828403121561578c57600080fd5b8151612b3881614bec565b6020808252602a908201527f6d73672e73656e646572206973206e6f74207065726d697373696f6e6564206160408201526939903ab73830bab9b2b960b11b606082015260800190565b6000602082840312156157f357600080fd5b81518015158114612b3857600080fd5b60208082526028908201527f6d73672e73656e646572206973206e6f74207065726d697373696f6e6564206160408201526739903830bab9b2b960c11b606082015260800190565b6000808335601e1984360301811261586257600080fd5b8301803591506001600160401b0382111561587c57600080fd5b6020019150600581901b36038213156146a957600080fd5b6000602082840312156158a657600080fd5b8151612b3881614a6b565b600082198211156158c4576158c46156e9565b500190565b600080858511156158d957600080fd5b838611156158e657600080fd5b5050820193919092039150565b600060c08201888352602060018060a01b03808a16828601526040898187015260c0606087015283895180865260e088019150848b01955060005b81811015615958578651805160ff168452860151851686840152958501959183019160010161592e565b505060808701989098525050505060a09091019190915250949350505050565b60006040828403121561598a57600080fd5b612b388383614ea7565b6000602082840312156159a657600080fd5b5051919050565b6000828210156159bf576159bf6156e9565b500390565b60018060a01b03841681528260208201526060604082015260006159eb606083018461571a565b95945050505050565b600060208284031215615a0657600080fd5b81516001600160c01b0381168114612b3857600080fd5b634e487b7160e01b600052601260045260246000fd5b600082615a4257615a42615a1d565b500690565b6001600160a01b0383168152604060208201819052600090614be49083018461571a565b828152604060208201526000614be4604083018461571a565b6001600160a01b03841681526101608101615aac602083018580358252602090810135910152565b615ac6606083016040860180358252602090810135910152565b60406080850160a084013760e0820160008152604060c0860182375060006101208301908152835190526020909201516101409091015292915050565b60018060a01b0383168152604060208201526000825160606040840152615b2d60a084018261571a565b90506020840151606084015260408401516080840152809150509392505050565b81835281816020850137506000828201602090810191909152601f909101601f19169091010190565b6001600160a01b03841681526040602082018190526000906159eb9083018486615b4e565b60018060a01b03851681528360208201526060604082015260006117e9606083018486615b4e565b600082601f830112615bd557600080fd5b81516020615be5614f4d83614e84565b82815260059290921b84018101918181019086841115615c0457600080fd5b8286015b8481101561542e578051615c1b816153b5565b8352918301918301615c08565b60008060408385031215615c3b57600080fd5b82516001600160401b0380821115615c5257600080fd5b615c5e86838701615bc4565b93506020850151915080821115615c7457600080fd5b50615c8185828601615bc4565b9150509250929050565b8381526040602082015260006159eb604083018486615b4e565b60006020808385031215615cb857600080fd5b82516001600160401b03811115615cce57600080fd5b8301601f81018513615cdf57600080fd5b8051615ced614f4d82614e84565b81815260059190911b82018301908381019087831115615d0c57600080fd5b928401925b82841015615d33578351615d2481614a6b565b82529284019290840190615d11565b979650505050505050565b600060208284031215615d5057600080fd5b8151612b38816153b5565b600060ff821660ff84168060ff03821115615d7857615d786156e9565b019392505050565b60006060820160ff8616835260206001600160601b03808716828601526040606081870152838751808652608088019150848901955060005b81811015615de957865180516001600160a01b031684528601518516868401529585019591830191600101615db9565b50909a9950505050505050505050565b600061ffff80831681811415615e1157615e116156e9565b6001019392505050565b600060208284031215615e2d57600080fd5b81516001600160e01b031981168114612b3857600080fd5b60006001600160601b0380831681851681830481118215151615615e6b57615e6b6156e9565b02949350505050565b60006001600160601b0380841680615e8e57615e8e615a1d565b9216919091049291505056fe30644e72e131a029b85045b68181585d97816a916871ca8d3c208c16d87cfd47a26469706673582212204957d8e813c23b122aa98c1fe071ba249ad2a5c869bf0c1c8bfe6c1c64c49fd364736f6c634300080c0033","linkReferences":{}},"methodIdentifiers":{"OPERATOR_CHURN_APPROVAL_TYPEHASH()":"ca0de882","PUBKEY_REGISTRATION_TYPEHASH()":"9feab859","availableTillBlock(address)":"d7476791","blsApkRegistry()":"5df45946","calculateOperatorChurnApprovalDigestHash(address,bytes32,(uint8,address)[],bytes32,uint256)":"84ca5213","churnApprover()":"054310e6","commitToExit(uint256)":"cf998284","createQuorum((uint32,uint16,uint16),uint96,(address,uint96)[])":"d75b4c88","deregisterOperator(bytes)":"ca4f2d97","ejectOperator(address,bytes)":"6e3b17db","ejector()":"28f61b31","getCurrentQuorumBitmap(bytes32)":"871ef049","getOperator(address)":"5865c60c","getOperatorFromId(bytes32)":"296bb064","getOperatorId(address)":"13542a4e","getOperatorSetParams(uint8)":"e65797ad","getOperatorStatus(address)":"fd39105a","getQuorumBitmapAtBlockNumberByIndex(bytes32,uint32,uint256)":"04ec6351","getQuorumBitmapHistoryLength(bytes32)":"03fd3492","getQuorumBitmapIndicesAtBlockNumber(uint32,bytes32[])":"c391425e","getQuorumBitmapUpdateByIndex(bytes32,uint256)":"1eb812da","indexRegistry()":"9e9923c2","initialize(address,address,address,address,uint256,(uint32,uint16,uint16)[],uint96[],(address,uint96)[][],address)":"d20215f3","isChurnApproverSaltUsed(bytes32)":"1478851f","numRegistries()":"d72d8dd6","owner()":"8da5cb5b","pause(uint256)":"136439dd","pauseAll()":"595c6a67","paused()":"5c975abb","paused(uint8)":"5ac86ab7","pauserRegistry()":"886f1195","pubkeyRegistrationMessageHash(address)":"3c2a7f4c","quorumCount()":"9aa1653d","quorumUpdateBlockNumber(uint8)":"249a0c42","registerOperator(bytes,string,((uint256,uint256),(uint256,uint256),(uint256[2],uint256[2])),(bytes,bytes32,uint256))":"a50857bf","registerOperatorWithChurn(bytes,string,((uint256,uint256),(uint256,uint256),(uint256[2],uint256[2])),(uint8,address)[],(bytes,bytes32,uint256),(bytes,bytes32,uint256))":"9b5d177b","registeredTillBlock(address)":"7ffbb5f1","registries(uint256)":"6347c900","renounceOwnership()":"715018a6","serviceManager()":"3998fdd3","setChurnApprover(address)":"29d1e0c3","setEjector(address)":"2cdd1e86","setOperatorSetParams(uint8,(uint32,uint16,uint16))":"5b0b829f","setPauserRegistry(address)":"10d67a2f","stakeRegistry()":"68304835","transferOwnership(address)":"f2fde38b","unpause(uint256)":"fabc1cbc","updateOperators(address[])":"00cf2ab5","updateOperatorsForQuorum(address[][],bytes)":"5140a548","updateSocket(string)":"0cf4b767","whitelist()":"93e59dc1"},"id":161}