{"abi":[{"type":"constructor","inputs":[{"name":"_delegation","type":"address","internalType":"contract IDelegationManager"},{"name":"_eigenPodManager","type":"address","internalType":"contract IEigenPodManager"},{"name":"_slasher","type":"address","internalType":"contract ISlasher"}],"stateMutability":"nonpayable"},{"type":"function","name":"DEPOSIT_TYPEHASH","inputs":[],"outputs":[{"name":"","type":"bytes32","internalType":"bytes32"}],"stateMutability":"view"},{"type":"function","name":"DOMAIN_TYPEHASH","inputs":[],"outputs":[{"name":"","type":"bytes32","internalType":"bytes32"}],"stateMutability":"view"},{"type":"function","name":"addShares","inputs":[{"name":"staker","type":"address","internalType":"address"},{"name":"token","type":"address","internalType":"contract IERC20"},{"name":"strategy","type":"address","internalType":"contract IStrategy"},{"name":"shares","type":"uint256","internalType":"uint256"}],"outputs":[],"stateMutability":"nonpayable"},{"type":"function","name":"addStrategiesToDepositWhitelist","inputs":[{"name":"strategiesToWhitelist","type":"address[]","internalType":"contract IStrategy[]"},{"name":"thirdPartyTransfersForbiddenValues","type":"bool[]","internalType":"bool[]"}],"outputs":[],"stateMutability":"nonpayable"},{"type":"function","name":"delegation","inputs":[],"outputs":[{"name":"","type":"address","internalType":"contract IDelegationManager"}],"stateMutability":"view"},{"type":"function","name":"depositIntoStrategy","inputs":[{"name":"strategy","type":"address","internalType":"contract IStrategy"},{"name":"token","type":"address","internalType":"contract IERC20"},{"name":"amount","type":"uint256","internalType":"uint256"}],"outputs":[{"name":"shares","type":"uint256","internalType":"uint256"}],"stateMutability":"nonpayable"},{"type":"function","name":"depositIntoStrategyWithSignature","inputs":[{"name":"strategy","type":"address","internalType":"contract IStrategy"},{"name":"token","type":"address","internalType":"contract IERC20"},{"name":"amount","type":"uint256","internalType":"uint256"},{"name":"staker","type":"address","internalType":"address"},{"name":"expiry","type":"uint256","internalType":"uint256"},{"name":"signature","type":"bytes","internalType":"bytes"}],"outputs":[{"name":"shares","type":"uint256","internalType":"uint256"}],"stateMutability":"nonpayable"},{"type":"function","name":"domainSeparator","inputs":[],"outputs":[{"name":"","type":"bytes32","internalType":"bytes32"}],"stateMutability":"view"},{"type":"function","name":"eigenPodManager","inputs":[],"outputs":[{"name":"","type":"address","internalType":"contract IEigenPodManager"}],"stateMutability":"view"},{"type":"function","name":"getDeposits","inputs":[{"name":"staker","type":"address","internalType":"address"}],"outputs":[{"name":"","type":"address[]","internalType":"contract IStrategy[]"},{"name":"","type":"uint256[]","internalType":"uint256[]"}],"stateMutability":"view"},{"type":"function","name":"initialize","inputs":[{"name":"initialOwner","type":"address","internalType":"address"},{"name":"initialStrategyWhitelister","type":"address","internalType":"address"},{"name":"_pauserRegistry","type":"address","internalType":"contract IPauserRegistry"},{"name":"initialPausedStatus","type":"uint256","internalType":"uint256"}],"outputs":[],"stateMutability":"nonpayable"},{"type":"function","name":"nonces","inputs":[{"name":"","type":"address","internalType":"address"}],"outputs":[{"name":"","type":"uint256","internalType":"uint256"}],"stateMutability":"view"},{"type":"function","name":"owner","inputs":[],"outputs":[{"name":"","type":"address","internalType":"address"}],"stateMutability":"view"},{"type":"function","name":"pause","inputs":[{"name":"newPausedStatus","type":"uint256","internalType":"uint256"}],"outputs":[],"stateMutability":"nonpayable"},{"type":"function","name":"pauseAll","inputs":[],"outputs":[],"stateMutability":"nonpayable"},{"type":"function","name":"paused","inputs":[{"name":"index","type":"uint8","internalType":"uint8"}],"outputs":[{"name":"","type":"bool","internalType":"bool"}],"stateMutability":"view"},{"type":"function","name":"paused","inputs":[],"outputs":[{"name":"","type":"uint256","internalType":"uint256"}],"stateMutability":"view"},{"type":"function","name":"pauserRegistry","inputs":[],"outputs":[{"name":"","type":"address","internalType":"contract IPauserRegistry"}],"stateMutability":"view"},{"type":"function","name":"removeShares","inputs":[{"name":"staker","type":"address","internalType":"address"},{"name":"strategy","type":"address","internalType":"contract IStrategy"},{"name":"shares","type":"uint256","internalType":"uint256"}],"outputs":[],"stateMutability":"nonpayable"},{"type":"function","name":"removeStrategiesFromDepositWhitelist","inputs":[{"name":"strategiesToRemoveFromWhitelist","type":"address[]","internalType":"contract IStrategy[]"}],"outputs":[],"stateMutability":"nonpayable"},{"type":"function","name":"renounceOwnership","inputs":[],"outputs":[],"stateMutability":"nonpayable"},{"type":"function","name":"setPauserRegistry","inputs":[{"name":"newPauserRegistry","type":"address","internalType":"contract IPauserRegistry"}],"outputs":[],"stateMutability":"nonpayable"},{"type":"function","name":"setStrategyWhitelister","inputs":[{"name":"newStrategyWhitelister","type":"address","internalType":"address"}],"outputs":[],"stateMutability":"nonpayable"},{"type":"function","name":"setThirdPartyTransfersForbidden","inputs":[{"name":"strategy","type":"address","internalType":"contract IStrategy"},{"name":"value","type":"bool","internalType":"bool"}],"outputs":[],"stateMutability":"nonpayable"},{"type":"function","name":"slasher","inputs":[],"outputs":[{"name":"","type":"address","internalType":"contract ISlasher"}],"stateMutability":"view"},{"type":"function","name":"stakerStrategyList","inputs":[{"name":"","type":"address","internalType":"address"},{"name":"","type":"uint256","internalType":"uint256"}],"outputs":[{"name":"","type":"address","internalType":"contract IStrategy"}],"stateMutability":"view"},{"type":"function","name":"stakerStrategyListLength","inputs":[{"name":"staker","type":"address","internalType":"address"}],"outputs":[{"name":"","type":"uint256","internalType":"uint256"}],"stateMutability":"view"},{"type":"function","name":"stakerStrategyShares","inputs":[{"name":"","type":"address","internalType":"address"},{"name":"","type":"address","internalType":"contract IStrategy"}],"outputs":[{"name":"","type":"uint256","internalType":"uint256"}],"stateMutability":"view"},{"type":"function","name":"strategyIsWhitelistedForDeposit","inputs":[{"name":"","type":"address","internalType":"contract IStrategy"}],"outputs":[{"name":"","type":"bool","internalType":"bool"}],"stateMutability":"view"},{"type":"function","name":"strategyWhitelister","inputs":[],"outputs":[{"name":"","type":"address","internalType":"address"}],"stateMutability":"view"},{"type":"function","name":"thirdPartyTransfersForbidden","inputs":[{"name":"","type":"address","internalType":"contract IStrategy"}],"outputs":[{"name":"","type":"bool","internalType":"bool"}],"stateMutability":"view"},{"type":"function","name":"transferOwnership","inputs":[{"name":"newOwner","type":"address","internalType":"address"}],"outputs":[],"stateMutability":"nonpayable"},{"type":"function","name":"unpause","inputs":[{"name":"newPausedStatus","type":"uint256","internalType":"uint256"}],"outputs":[],"stateMutability":"nonpayable"},{"type":"function","name":"withdrawSharesAsTokens","inputs":[{"name":"recipient","type":"address","internalType":"address"},{"name":"strategy","type":"address","internalType":"contract IStrategy"},{"name":"shares","type":"uint256","internalType":"uint256"},{"name":"token","type":"address","internalType":"contract IERC20"}],"outputs":[],"stateMutability":"nonpayable"},{"type":"event","name":"Deposit","inputs":[{"name":"staker","type":"address","indexed":false,"internalType":"address"},{"name":"token","type":"address","indexed":false,"internalType":"contract IERC20"},{"name":"strategy","type":"address","indexed":false,"internalType":"contract IStrategy"},{"name":"shares","type":"uint256","indexed":false,"internalType":"uint256"}],"anonymous":false},{"type":"event","name":"Initialized","inputs":[{"name":"version","type":"uint8","indexed":false,"internalType":"uint8"}],"anonymous":false},{"type":"event","name":"OwnershipTransferred","inputs":[{"name":"previousOwner","type":"address","indexed":true,"internalType":"address"},{"name":"newOwner","type":"address","indexed":true,"internalType":"address"}],"anonymous":false},{"type":"event","name":"Paused","inputs":[{"name":"account","type":"address","indexed":true,"internalType":"address"},{"name":"newPausedStatus","type":"uint256","indexed":false,"internalType":"uint256"}],"anonymous":false},{"type":"event","name":"PauserRegistrySet","inputs":[{"name":"pauserRegistry","type":"address","indexed":false,"internalType":"contract IPauserRegistry"},{"name":"newPauserRegistry","type":"address","indexed":false,"internalType":"contract IPauserRegistry"}],"anonymous":false},{"type":"event","name":"StrategyAddedToDepositWhitelist","inputs":[{"name":"strategy","type":"address","indexed":false,"internalType":"contract IStrategy"}],"anonymous":false},{"type":"event","name":"StrategyRemovedFromDepositWhitelist","inputs":[{"name":"strategy","type":"address","indexed":false,"internalType":"contract IStrategy"}],"anonymous":false},{"type":"event","name":"StrategyWhitelisterChanged","inputs":[{"name":"previousAddress","type":"address","indexed":false,"internalType":"address"},{"name":"newAddress","type":"address","indexed":false,"internalType":"address"}],"anonymous":false},{"type":"event","name":"Unpaused","inputs":[{"name":"account","type":"address","indexed":true,"internalType":"address"},{"name":"newPausedStatus","type":"uint256","indexed":false,"internalType":"uint256"}],"anonymous":false},{"type":"event","name":"UpdatedThirdPartyTransfersForbidden","inputs":[{"name":"strategy","type":"address","indexed":false,"internalType":"contract IStrategy"},{"name":"value","type":"bool","indexed":false,"internalType":"bool"}],"anonymous":false}],"bytecode":{"object":"0x6101006040523480156200001257600080fd5b506040516200338a3803806200338a833981016040819052620000359162000140565b6001600160a01b0380841660805280831660a052811660c0526200005862000065565b50504660e0525062000194565b600054610100900460ff1615620000d25760405162461bcd60e51b815260206004820152602760248201527f496e697469616c697a61626c653a20636f6e747261637420697320696e697469604482015266616c697a696e6760c81b606482015260840160405180910390fd5b60005460ff908116101562000125576000805460ff191660ff9081179091556040519081527f7f26b83ff96e1f2b6a682f133852f6798a09c465da95921460cefb38474024989060200160405180910390a15b565b6001600160a01b03811681146200013d57600080fd5b50565b6000806000606084860312156200015657600080fd5b8351620001638162000127565b6020850151909350620001768162000127565b6040850151909250620001898162000127565b809150509250925092565b60805160a05160c05160e0516131a0620001ea60003960006114bb0152600061046e0152600061028501526000818161051a01528181610b8401528181610ed101528181610f250152611a7101526131a06000f3fe608060405234801561001057600080fd5b50600436106102065760003560e01c80638da5cb5b1161011a578063c6656702116100ad578063df5cf7231161007c578063df5cf72314610515578063e7a050aa1461053c578063f2fde38b1461054f578063f698da2514610562578063fabc1cbc1461056a57600080fd5b8063c6656702146104c9578063cbc2bd62146104dc578063cf756fdf146104ef578063df5b35471461050257600080fd5b8063b1344271116100e9578063b134427114610469578063b5d8b5b814610490578063c4623ea1146104a3578063c608c7f3146104b657600080fd5b80638da5cb5b1461040157806394f649dd14610412578063967fc0d2146104335780639b4da03d1461044657600080fd5b80635ac86ab71161019d5780637a7e0d921161016c5780637a7e0d92146103675780637ecebe0014610392578063886f1195146103b25780638b8aac3c146103c55780638c80d4e5146103ee57600080fd5b80635ac86ab7146103015780635c975abb14610334578063663c1de41461033c578063715018a61461035f57600080fd5b80634665bcda116101d95780634665bcda1461028057806348825e94146102bf5780634e5a4263146102e6578063595c6a67146102f957600080fd5b806310d67a2f1461020b578063136439dd1461022057806320606b701461023357806332e89ace1461026d575b600080fd5b61021e6102193660046129e8565b61057d565b005b61021e61022e366004612a05565b610639565b61025a7f8cad95687ba82c2ce50e74f7b754645e5117c3a5bec8151c0726d5857980a86681565b6040519081526020015b60405180910390f35b61025a61027b366004612a34565b610778565b6102a77f000000000000000000000000000000000000000000000000000000000000000081565b6040516001600160a01b039091168152602001610264565b61025a7f4337f82d142e41f2a8c10547cd8c859bddb92262a61058e77842e24d9dea922481565b61021e6102f4366004612b3d565b610a66565b61021e610a9e565b61032461030f366004612b76565b609854600160ff9092169190911b9081161490565b6040519015158152602001610264565b60985461025a565b61032461034a3660046129e8565b60d16020526000908152604090205460ff1681565b61021e610b65565b61025a610375366004612b99565b60cd60209081526000928352604080842090915290825290205481565b61025a6103a03660046129e8565b60ca6020526000908152604090205481565b6097546102a7906001600160a01b031681565b61025a6103d33660046129e8565b6001600160a01b0316600090815260ce602052604090205490565b61021e6103fc366004612bc7565b610b79565b6033546001600160a01b03166102a7565b6104256104203660046129e8565b610bd2565b604051610264929190612c08565b60cb546102a7906001600160a01b031681565b6103246104543660046129e8565b60d36020526000908152604090205460ff1681565b6102a77f000000000000000000000000000000000000000000000000000000000000000081565b61021e61049e366004612cd1565b610d52565b61021e6104b1366004612d13565b610ec6565b61021e6104c4366004612d64565b610f1a565b61021e6104d73660046129e8565b610fd2565b6102a76104ea366004612db7565b610fe3565b61021e6104fd366004612d13565b61101b565b61021e610510366004612de3565b61114f565b6102a77f000000000000000000000000000000000000000000000000000000000000000081565b61025a61054a366004612bc7565b611378565b61021e61055d3660046129e8565b611441565b61025a6114b7565b61021e610578366004612a05565b6114f5565b609760009054906101000a90046001600160a01b03166001600160a01b031663eab66d7a6040518163ffffffff1660e01b8152600401602060405180830381865afa1580156105d0573d6000803e3d6000fd5b505050506040513d601f19601f820116820180604052508101906105f49190612e4f565b6001600160a01b0316336001600160a01b03161461062d5760405162461bcd60e51b815260040161062490612e6c565b60405180910390fd5b61063681611651565b50565b60975460405163237dfb4760e11b81523360048201526001600160a01b03909116906346fbf68e90602401602060405180830381865afa158015610681573d6000803e3d6000fd5b505050506040513d601f19601f820116820180604052508101906106a59190612eb6565b6106c15760405162461bcd60e51b815260040161062490612ed3565b6098548181161461073a5760405162461bcd60e51b815260206004820152603860248201527f5061757361626c652e70617573653a20696e76616c696420617474656d70742060448201527f746f20756e70617573652066756e6374696f6e616c69747900000000000000006064820152608401610624565b609881905560405181815233907fab40a374bc51de372200a8bc981af8c9ecdc08dfdaef0bb6e09f88f3c616ef3d906020015b60405180910390a250565b6098546000908190600190811614156107cf5760405162461bcd60e51b815260206004820152601960248201527814185d5cd8589b194e881a5b99195e081a5cc81c185d5cd959603a1b6044820152606401610624565b600260655414156108225760405162461bcd60e51b815260206004820152601f60248201527f5265656e7472616e637947756172643a207265656e7472616e742063616c6c006044820152606401610624565b60026065556001600160a01b038816600090815260d3602052604090205460ff16156108c95760405162461bcd60e51b815260206004820152604a60248201527f53747261746567794d616e616765722e6465706f736974496e746f537472617460448201527f656779576974685369676e61747572653a207468697264207472616e736665726064820152691cc8191a5cd8589b195960b21b608482015260a401610624565b4284101561094b5760405162461bcd60e51b815260206004820152604360248201527f53747261746567794d616e616765722e6465706f736974496e746f537472617460448201527f656779576974685369676e61747572653a207369676e617475726520657870696064820152621c995960ea1b608482015260a401610624565b6001600160a01b03858116600081815260ca602090815260408083205481517f4337f82d142e41f2a8c10547cd8c859bddb92262a61058e77842e24d9dea922493810193909352908201939093528b84166060820152928a16608084015260a0830189905260c0830182905260e0830187905290916101000160408051601f1981840301815291815281516020928301206001600160a01b038a16600090815260ca9093529082206001850190559150610a036114b7565b60405161190160f01b6020820152602281019190915260428101839052606201604051602081830303815290604052805190602001209050610a46888288611748565b610a52888c8c8c611907565b60016065559b9a5050505050505050505050565b60cb546001600160a01b03163314610a905760405162461bcd60e51b815260040161062490612f1b565b610a9a8282611ad6565b5050565b60975460405163237dfb4760e11b81523360048201526001600160a01b03909116906346fbf68e90602401602060405180830381865afa158015610ae6573d6000803e3d6000fd5b505050506040513d601f19601f82011682018060405250810190610b0a9190612eb6565b610b265760405162461bcd60e51b815260040161062490612ed3565b600019609881905560405190815233907fab40a374bc51de372200a8bc981af8c9ecdc08dfdaef0bb6e09f88f3c616ef3d9060200160405180910390a2565b610b6d611b44565b610b776000611b9e565b565b336001600160a01b037f00000000000000000000000000000000000000000000000000000000000000001614610bc15760405162461bcd60e51b815260040161062490612f85565b610bcc838383611bf0565b50505050565b6001600160a01b038116600090815260ce60205260408120546060918291908167ffffffffffffffff811115610c0a57610c0a612a1e565b604051908082528060200260200182016040528015610c33578160200160208202803683370190505b50905060005b82811015610cc4576001600160a01b038616600090815260cd6020908152604080832060ce9092528220805491929184908110610c7857610c78612fe3565b60009182526020808320909101546001600160a01b031683528201929092526040019020548251839083908110610cb157610cb1612fe3565b6020908102919091010152600101610c39565b5060ce6000866001600160a01b03166001600160a01b031681526020019081526020016000208181805480602002602001604051908101604052809291908181526020018280548015610d4057602002820191906000526020600020905b81546001600160a01b03168152600190910190602001808311610d22575b50505050509150935093505050915091565b60cb546001600160a01b03163314610d7c5760405162461bcd60e51b815260040161062490612f1b565b8060005b81811015610bcc5760d16000858584818110610d9e57610d9e612fe3565b9050602002016020810190610db391906129e8565b6001600160a01b0316815260208101919091526040016000205460ff1615610ebe57600060d16000868685818110610ded57610ded612fe3565b9050602002016020810190610e0291906129e8565b6001600160a01b031681526020810191909152604001600020805460ff19169115159190911790557f4074413b4b443e4e58019f2855a8765113358c7c72e39509c6af45fc0f5ba030848483818110610e5d57610e5d612fe3565b9050602002016020810190610e7291906129e8565b6040516001600160a01b03909116815260200160405180910390a1610ebe848483818110610ea257610ea2612fe3565b9050602002016020810190610eb791906129e8565b6000611ad6565b600101610d80565b336001600160a01b037f00000000000000000000000000000000000000000000000000000000000000001614610f0e5760405162461bcd60e51b815260040161062490612f85565b610bcc84848484611d4c565b336001600160a01b037f00000000000000000000000000000000000000000000000000000000000000001614610f625760405162461bcd60e51b815260040161062490612f85565b604051636ce5768960e11b81526001600160a01b03858116600483015282811660248301526044820184905284169063d9caed1290606401600060405180830381600087803b158015610fb457600080fd5b505af1158015610fc8573d6000803e3d6000fd5b5050505050505050565b610fda611b44565b61063681611fd9565b60ce6020528160005260406000208181548110610fff57600080fd5b6000918252602090912001546001600160a01b03169150829050565b600054610100900460ff161580801561103b5750600054600160ff909116105b806110555750303b158015611055575060005460ff166001145b6110b85760405162461bcd60e51b815260206004820152602e60248201527f496e697469616c697a61626c653a20636f6e747261637420697320616c72656160448201526d191e481a5b9a5d1a585b1a5e995960921b6064820152608401610624565b6000805460ff1916600117905580156110db576000805461ff0019166101001790555b6110e3612042565b60c9556110f083836120d9565b6110f985611b9e565b61110284611fd9565b8015611148576000805461ff0019169055604051600181527f7f26b83ff96e1f2b6a682f133852f6798a09c465da95921460cefb38474024989060200160405180910390a15b5050505050565b60cb546001600160a01b031633146111795760405162461bcd60e51b815260040161062490612f1b565b8281146112025760405162461bcd60e51b815260206004820152604b60248201527f53747261746567794d616e616765722e61646453747261746567696573546f4460448201527f65706f73697457686974656c6973743a206172726179206c656e67746873206460648201526a0de40dcdee840dac2e8c6d60ab1b608482015260a401610624565b8260005b818110156113705760d1600087878481811061122457611224612fe3565b905060200201602081019061123991906129e8565b6001600160a01b0316815260208101919091526040016000205460ff1661136857600160d1600088888581811061127257611272612fe3565b905060200201602081019061128791906129e8565b6001600160a01b031681526020810191909152604001600020805460ff19169115159190911790557f0c35b17d91c96eb2751cd456e1252f42a386e524ef9ff26ecc9950859fdc04fe8686838181106112e2576112e2612fe3565b90506020020160208101906112f791906129e8565b6040516001600160a01b03909116815260200160405180910390a161136886868381811061132757611327612fe3565b905060200201602081019061133c91906129e8565b85858481811061134e5761134e612fe3565b90506020020160208101906113639190612ff9565b611ad6565b600101611206565b505050505050565b6098546000908190600190811614156113cf5760405162461bcd60e51b815260206004820152601960248201527814185d5cd8589b194e881a5b99195e081a5cc81c185d5cd959603a1b6044820152606401610624565b600260655414156114225760405162461bcd60e51b815260206004820152601f60248201527f5265656e7472616e637947756172643a207265656e7472616e742063616c6c006044820152606401610624565b600260655561143333868686611907565b600160655595945050505050565b611449611b44565b6001600160a01b0381166114ae5760405162461bcd60e51b815260206004820152602660248201527f4f776e61626c653a206e6577206f776e657220697320746865207a65726f206160448201526564647265737360d01b6064820152608401610624565b61063681611b9e565b60007f00000000000000000000000000000000000000000000000000000000000000004614156114e8575060c95490565b6114f0612042565b905090565b609760009054906101000a90046001600160a01b03166001600160a01b031663eab66d7a6040518163ffffffff1660e01b8152600401602060405180830381865afa158015611548573d6000803e3d6000fd5b505050506040513d601f19601f8201168201806040525081019061156c9190612e4f565b6001600160a01b0316336001600160a01b03161461159c5760405162461bcd60e51b815260040161062490612e6c565b60985419811960985419161461161a5760405162461bcd60e51b815260206004820152603860248201527f5061757361626c652e756e70617573653a20696e76616c696420617474656d7060448201527f7420746f2070617573652066756e6374696f6e616c69747900000000000000006064820152608401610624565b609881905560405181815233907f3582d1828e26bf56bd801502bc021ac0bc8afb57c826e4986b45593c8fad389c9060200161076d565b6001600160a01b0381166116df5760405162461bcd60e51b815260206004820152604960248201527f5061757361626c652e5f73657450617573657252656769737472793a206e657760448201527f50617573657252656769737472792063616e6e6f7420626520746865207a65726064820152686f206164647265737360b81b608482015260a401610624565b609754604080516001600160a01b03928316815291831660208301527f6e9fcd539896fca60e8b0f01dd580233e48a6b0f7df013b89ba7f565869acdb6910160405180910390a1609780546001600160a01b0319166001600160a01b0392909216919091179055565b6001600160a01b0383163b1561186757604051630b135d3f60e11b808252906001600160a01b03851690631626ba7e90611788908690869060040161306e565b602060405180830381865afa1580156117a5573d6000803e3d6000fd5b505050506040513d601f19601f820116820180604052508101906117c99190613087565b6001600160e01b031916146118625760405162461bcd60e51b815260206004820152605360248201527f454950313237315369676e61747572655574696c732e636865636b5369676e6160448201527f747572655f454950313237313a2045524331323731207369676e6174757265206064820152721d995c9a599a58d85d1a5bdb8819985a5b1959606a1b608482015260a401610624565b505050565b826001600160a01b031661187b83836121bf565b6001600160a01b0316146118625760405162461bcd60e51b815260206004820152604760248201527f454950313237315369676e61747572655574696c732e636865636b5369676e6160448201527f747572655f454950313237313a207369676e6174757265206e6f742066726f6d6064820152661039b4b3b732b960c91b608482015260a401610624565b6001600160a01b038316600090815260d16020526040812054849060ff166119ad5760405162461bcd60e51b815260206004820152604d60248201527f53747261746567794d616e616765722e6f6e6c7953747261746567696573576860448201527f6974656c6973746564466f724465706f7369743a207374726174656779206e6f60648201526c1d081dda1a5d195b1a5cdd1959609a1b608482015260a401610624565b6119c26001600160a01b0385163387866121e3565b6040516311f9fbc960e21b81526001600160a01b038581166004830152602482018590528616906347e7ef24906044016020604051808303816000875af1158015611a11573d6000803e3d6000fd5b505050506040513d601f19601f82011682018060405250810190611a3591906130b1565b9150611a4386858785611d4c565b604051631452b9d760e11b81526001600160a01b0387811660048301528681166024830152604482018490527f000000000000000000000000000000000000000000000000000000000000000016906328a573ae90606401600060405180830381600087803b158015611ab557600080fd5b505af1158015611ac9573d6000803e3d6000fd5b5050505050949350505050565b604080516001600160a01b038416815282151560208201527f77d930df4937793473a95024d87a98fd2ccb9e92d3c2463b3dacd65d3e6a5786910160405180910390a16001600160a01b0391909116600090815260d360205260409020805460ff1916911515919091179055565b6033546001600160a01b03163314610b775760405162461bcd60e51b815260206004820181905260248201527f4f776e61626c653a2063616c6c6572206973206e6f7420746865206f776e65726044820152606401610624565b603380546001600160a01b038381166001600160a01b0319831681179093556040519116919082907f8be0079c531659141344cd1fd0a4f28419497f9722a3daafe3b4186f6b6457e090600090a35050565b600081611c655760405162461bcd60e51b815260206004820152603e60248201527f53747261746567794d616e616765722e5f72656d6f76655368617265733a207360448201527f68617265416d6f756e742073686f756c64206e6f74206265207a65726f2100006064820152608401610624565b6001600160a01b03808516600090815260cd602090815260408083209387168352929052205480831115611cf75760405162461bcd60e51b815260206004820152603360248201527f53747261746567794d616e616765722e5f72656d6f76655368617265733a20736044820152720d0c2e4ca82dadeeadce840e8dede40d0d2ced606b1b6064820152608401610624565b6001600160a01b03808616600090815260cd602090815260408083209388168352929052208382039081905590831415611d3f57611d35858561223d565b6001915050611d45565b60009150505b9392505050565b6001600160a01b038416611dc85760405162461bcd60e51b815260206004820152603960248201527f53747261746567794d616e616765722e5f6164645368617265733a207374616b60448201527f65722063616e6e6f74206265207a65726f2061646472657373000000000000006064820152608401610624565b80611e345760405162461bcd60e51b815260206004820152603660248201527f53747261746567794d616e616765722e5f6164645368617265733a207368617260448201527565732073686f756c64206e6f74206265207a65726f2160501b6064820152608401610624565b6001600160a01b03808516600090815260cd6020908152604080832093861683529290522054611f45576001600160a01b038416600090815260ce602090815260409091205410611f065760405162461bcd60e51b815260206004820152605060248201527f53747261746567794d616e616765722e5f6164645368617265733a206465706f60448201527f73697420776f756c6420657863656564204d41585f5354414b45525f5354524160648201526f0a88a8eb2be9892a6a8be988a9c8ea8960831b608482015260a401610624565b6001600160a01b03848116600090815260ce602090815260408220805460018101825590835291200180546001600160a01b0319169184169190911790555b6001600160a01b03808516600090815260cd6020908152604080832093861683529290529081208054839290611f7c9084906130e0565b9091555050604080516001600160a01b03868116825285811660208301528416818301526060810183905290517f7cfff908a4b583f36430b25d75964c458d8ede8a99bd61be750e97ee1b2f3a969181900360800190a150505050565b60cb54604080516001600160a01b03928316815291831660208301527f4264275e593955ff9d6146a51a4525f6ddace2e81db9391abcc9d1ca48047d29910160405180910390a160cb80546001600160a01b0319166001600160a01b0392909216919091179055565b604080518082018252600a81526922b4b3b2b72630bcb2b960b11b60209182015281517f8cad95687ba82c2ce50e74f7b754645e5117c3a5bec8151c0726d5857980a866818301527f71b625cfad44bac63b13dba07f2e1d6084ee04b6f8752101ece6126d584ee6ea81840152466060820152306080808301919091528351808303909101815260a0909101909252815191012090565b6097546001600160a01b03161580156120fa57506001600160a01b03821615155b61217c5760405162461bcd60e51b815260206004820152604760248201527f5061757361626c652e5f696e697469616c697a655061757365723a205f696e6960448201527f7469616c697a6550617573657228292063616e206f6e6c792062652063616c6c6064820152666564206f6e636560c81b608482015260a401610624565b609881905560405181815233907fab40a374bc51de372200a8bc981af8c9ecdc08dfdaef0bb6e09f88f3c616ef3d9060200160405180910390a2610a9a82611651565b60008060006121ce858561242f565b915091506121db8161249f565b509392505050565b604080516001600160a01b0385811660248301528416604482015260648082018490528251808303909101815260849091019091526020810180516001600160e01b03166323b872dd60e01b179052610bcc90859061265a565b6001600160a01b038216600090815260ce6020526040812054905b81811015612358576001600160a01b03848116600090815260ce602052604090208054918516918390811061228f5761228f612fe3565b6000918252602090912001546001600160a01b03161415612350576001600160a01b038416600090815260ce6020526040902080546122d0906001906130f8565b815481106122e0576122e0612fe3565b60009182526020808320909101546001600160a01b03878116845260ce909252604090922080549190921691908390811061231d5761231d612fe3565b9060005260206000200160006101000a8154816001600160a01b0302191690836001600160a01b03160217905550612358565b600101612258565b818114156123e05760405162461bcd60e51b815260206004820152604960248201527f53747261746567794d616e616765722e5f72656d6f766553747261746567794660448201527f726f6d5374616b657253747261746567794c6973743a207374726174656779206064820152681b9bdd08199bdd5b9960ba1b608482015260a401610624565b6001600160a01b038416600090815260ce602052604090208054806124075761240761310f565b600082815260209020810160001990810180546001600160a01b031916905501905550505050565b6000808251604114156124665760208301516040840151606085015160001a61245a8782858561272c565b94509450505050612498565b8251604014156124905760208301516040840151612485868383612819565b935093505050612498565b506000905060025b9250929050565b60008160048111156124b3576124b3613125565b14156124bc5750565b60018160048111156124d0576124d0613125565b141561251e5760405162461bcd60e51b815260206004820152601860248201527f45434453413a20696e76616c6964207369676e617475726500000000000000006044820152606401610624565b600281600481111561253257612532613125565b14156125805760405162461bcd60e51b815260206004820152601f60248201527f45434453413a20696e76616c6964207369676e6174757265206c656e677468006044820152606401610624565b600381600481111561259457612594613125565b14156125ed5760405162461bcd60e51b815260206004820152602260248201527f45434453413a20696e76616c6964207369676e6174757265202773272076616c604482015261756560f01b6064820152608401610624565b600481600481111561260157612601613125565b14156106365760405162461bcd60e51b815260206004820152602260248201527f45434453413a20696e76616c6964207369676e6174757265202776272076616c604482015261756560f01b6064820152608401610624565b60006126af826040518060400160405280602081526020017f5361666545524332303a206c6f772d6c6576656c2063616c6c206661696c6564815250856001600160a01b03166128529092919063ffffffff16565b80519091501561186257808060200190518101906126cd9190612eb6565b6118625760405162461bcd60e51b815260206004820152602a60248201527f5361666545524332303a204552433230206f7065726174696f6e20646964206e6044820152691bdd081cdd58d8d9595960b21b6064820152608401610624565b6000807f7fffffffffffffffffffffffffffffff5d576e7357a4501ddfe92f46681b20a08311156127635750600090506003612810565b8460ff16601b1415801561277b57508460ff16601c14155b1561278c5750600090506004612810565b6040805160008082526020820180845289905260ff881692820192909252606081018690526080810185905260019060a0016020604051602081039080840390855afa1580156127e0573d6000803e3d6000fd5b5050604051601f1901519150506001600160a01b03811661280957600060019250925050612810565b9150600090505b94509492505050565b6000806001600160ff1b0383168161283660ff86901c601b6130e0565b90506128448782888561272c565b935093505050935093915050565b60606128618484600085612869565b949350505050565b6060824710156128ca5760405162461bcd60e51b815260206004820152602660248201527f416464726573733a20696e73756666696369656e742062616c616e636520666f6044820152651c8818d85b1b60d21b6064820152608401610624565b6001600160a01b0385163b6129215760405162461bcd60e51b815260206004820152601d60248201527f416464726573733a2063616c6c20746f206e6f6e2d636f6e74726163740000006044820152606401610624565b600080866001600160a01b0316858760405161293d919061313b565b60006040518083038185875af1925050503d806000811461297a576040519150601f19603f3d011682016040523d82523d6000602084013e61297f565b606091505b509150915061298f82828661299a565b979650505050505050565b606083156129a9575081611d45565b8251156129b95782518084602001fd5b8160405162461bcd60e51b81526004016106249190613157565b6001600160a01b038116811461063657600080fd5b6000602082840312156129fa57600080fd5b8135611d45816129d3565b600060208284031215612a1757600080fd5b5035919050565b634e487b7160e01b600052604160045260246000fd5b60008060008060008060c08789031215612a4d57600080fd5b8635612a58816129d3565b95506020870135612a68816129d3565b9450604087013593506060870135612a7f816129d3565b92506080870135915060a087013567ffffffffffffffff80821115612aa357600080fd5b818901915089601f830112612ab757600080fd5b813581811115612ac957612ac9612a1e565b604051601f8201601f19908116603f01168101908382118183101715612af157612af1612a1e565b816040528281528c6020848701011115612b0a57600080fd5b8260208601602083013760006020848301015280955050505050509295509295509295565b801515811461063657600080fd5b60008060408385031215612b5057600080fd5b8235612b5b816129d3565b91506020830135612b6b81612b2f565b809150509250929050565b600060208284031215612b8857600080fd5b813560ff81168114611d4557600080fd5b60008060408385031215612bac57600080fd5b8235612bb7816129d3565b91506020830135612b6b816129d3565b600080600060608486031215612bdc57600080fd5b8335612be7816129d3565b92506020840135612bf7816129d3565b929592945050506040919091013590565b604080825283519082018190526000906020906060840190828701845b82811015612c4a5781516001600160a01b031684529284019290840190600101612c25565b5050508381038285015284518082528583019183019060005b81811015612c7f57835183529284019291840191600101612c63565b5090979650505050505050565b60008083601f840112612c9e57600080fd5b50813567ffffffffffffffff811115612cb657600080fd5b6020830191508360208260051b850101111561249857600080fd5b60008060208385031215612ce457600080fd5b823567ffffffffffffffff811115612cfb57600080fd5b612d0785828601612c8c565b90969095509350505050565b60008060008060808587031215612d2957600080fd5b8435612d34816129d3565b93506020850135612d44816129d3565b92506040850135612d54816129d3565b9396929550929360600135925050565b60008060008060808587031215612d7a57600080fd5b8435612d85816129d3565b93506020850135612d95816129d3565b9250604085013591506060850135612dac816129d3565b939692955090935050565b60008060408385031215612dca57600080fd5b8235612dd5816129d3565b946020939093013593505050565b60008060008060408587031215612df957600080fd5b843567ffffffffffffffff80821115612e1157600080fd5b612e1d88838901612c8c565b90965094506020870135915080821115612e3657600080fd5b50612e4387828801612c8c565b95989497509550505050565b600060208284031215612e6157600080fd5b8151611d45816129d3565b6020808252602a908201527f6d73672e73656e646572206973206e6f74207065726d697373696f6e6564206160408201526939903ab73830bab9b2b960b11b606082015260800190565b600060208284031215612ec857600080fd5b8151611d4581612b2f565b60208082526028908201527f6d73672e73656e646572206973206e6f74207065726d697373696f6e6564206160408201526739903830bab9b2b960c11b606082015260800190565b60208082526044908201527f53747261746567794d616e616765722e6f6e6c7953747261746567795768697460408201527f656c69737465723a206e6f742074686520737472617465677957686974656c6960608201526339ba32b960e11b608082015260a00190565b602080825260409082018190527f53747261746567794d616e616765722e6f6e6c7944656c65676174696f6e4d61908201527f6e616765723a206e6f74207468652044656c65676174696f6e4d616e61676572606082015260800190565b634e487b7160e01b600052603260045260246000fd5b60006020828403121561300b57600080fd5b8135611d4581612b2f565b60005b83811015613031578181015183820152602001613019565b83811115610bcc5750506000910152565b6000815180845261305a816020860160208601613016565b601f01601f19169290920160200192915050565b8281526040602082015260006128616040830184613042565b60006020828403121561309957600080fd5b81516001600160e01b031981168114611d4557600080fd5b6000602082840312156130c357600080fd5b5051919050565b634e487b7160e01b600052601160045260246000fd5b600082198211156130f3576130f36130ca565b500190565b60008282101561310a5761310a6130ca565b500390565b634e487b7160e01b600052603160045260246000fd5b634e487b7160e01b600052602160045260246000fd5b6000825161314d818460208701613016565b9190910192915050565b602081526000611d45602083018461304256fea26469706673582212206a9ae91d69003732c8ad6baece5b84ff83e7121fdf8cc4e329a1b28536b0650264736f6c634300080c0033","linkReferences":{}},"methodIdentifiers":{"DEPOSIT_TYPEHASH()":"48825e94","DOMAIN_TYPEHASH()":"20606b70","addShares(address,address,address,uint256)":"c4623ea1","addStrategiesToDepositWhitelist(address[],bool[])":"df5b3547","delegation()":"df5cf723","depositIntoStrategy(address,address,uint256)":"e7a050aa","depositIntoStrategyWithSignature(address,address,uint256,address,uint256,bytes)":"32e89ace","domainSeparator()":"f698da25","eigenPodManager()":"4665bcda","getDeposits(address)":"94f649dd","initialize(address,address,address,uint256)":"cf756fdf","nonces(address)":"7ecebe00","owner()":"8da5cb5b","pause(uint256)":"136439dd","pauseAll()":"595c6a67","paused()":"5c975abb","paused(uint8)":"5ac86ab7","pauserRegistry()":"886f1195","removeShares(address,address,uint256)":"8c80d4e5","removeStrategiesFromDepositWhitelist(address[])":"b5d8b5b8","renounceOwnership()":"715018a6","setPauserRegistry(address)":"10d67a2f","setStrategyWhitelister(address)":"c6656702","setThirdPartyTransfersForbidden(address,bool)":"4e5a4263","slasher()":"b1344271","stakerStrategyList(address,uint256)":"cbc2bd62","stakerStrategyListLength(address)":"8b8aac3c","stakerStrategyShares(address,address)":"7a7e0d92","strategyIsWhitelistedForDeposit(address)":"663c1de4","strategyWhitelister()":"967fc0d2","thirdPartyTransfersForbidden(address)":"9b4da03d","transferOwnership(address)":"f2fde38b","unpause(uint256)":"fabc1cbc","withdrawSharesAsTokens(address,address,uint256,address)":"c608c7f3"},"id":75}