{"abi":[{"type":"constructor","inputs":[{"name":"_ethPOS","type":"address","internalType":"contract IETHPOSDeposit"},{"name":"_eigenPodBeacon","type":"address","internalType":"contract IBeacon"},{"name":"_strategyManager","type":"address","internalType":"contract IStrategyManager"},{"name":"_slasher","type":"address","internalType":"contract ISlasher"},{"name":"_delegationManager","type":"address","internalType":"contract IDelegationManager"}],"stateMutability":"nonpayable"},{"type":"function","name":"addShares","inputs":[{"name":"podOwner","type":"address","internalType":"address"},{"name":"shares","type":"uint256","internalType":"uint256"}],"outputs":[{"name":"","type":"uint256","internalType":"uint256"}],"stateMutability":"nonpayable"},{"type":"function","name":"beaconChainETHStrategy","inputs":[],"outputs":[{"name":"","type":"address","internalType":"contract IStrategy"}],"stateMutability":"view"},{"type":"function","name":"beaconChainOracle","inputs":[],"outputs":[{"name":"","type":"address","internalType":"contract IBeaconChainOracle"}],"stateMutability":"view"},{"type":"function","name":"createPod","inputs":[],"outputs":[{"name":"","type":"address","internalType":"address"}],"stateMutability":"nonpayable"},{"type":"function","name":"delegationManager","inputs":[],"outputs":[{"name":"","type":"address","internalType":"contract IDelegationManager"}],"stateMutability":"view"},{"type":"function","name":"denebForkTimestamp","inputs":[],"outputs":[{"name":"","type":"uint64","internalType":"uint64"}],"stateMutability":"view"},{"type":"function","name":"eigenPodBeacon","inputs":[],"outputs":[{"name":"","type":"address","internalType":"contract IBeacon"}],"stateMutability":"view"},{"type":"function","name":"ethPOS","inputs":[],"outputs":[{"name":"","type":"address","internalType":"contract IETHPOSDeposit"}],"stateMutability":"view"},{"type":"function","name":"getBlockRootAtTimestamp","inputs":[{"name":"timestamp","type":"uint64","internalType":"uint64"}],"outputs":[{"name":"","type":"bytes32","internalType":"bytes32"}],"stateMutability":"view"},{"type":"function","name":"getPod","inputs":[{"name":"podOwner","type":"address","internalType":"address"}],"outputs":[{"name":"","type":"address","internalType":"contract IEigenPod"}],"stateMutability":"view"},{"type":"function","name":"hasPod","inputs":[{"name":"podOwner","type":"address","internalType":"address"}],"outputs":[{"name":"","type":"bool","internalType":"bool"}],"stateMutability":"view"},{"type":"function","name":"initialize","inputs":[{"name":"_beaconChainOracle","type":"address","internalType":"contract IBeaconChainOracle"},{"name":"initialOwner","type":"address","internalType":"address"},{"name":"_pauserRegistry","type":"address","internalType":"contract IPauserRegistry"},{"name":"_initPausedStatus","type":"uint256","internalType":"uint256"}],"outputs":[],"stateMutability":"nonpayable"},{"type":"function","name":"numPods","inputs":[],"outputs":[{"name":"","type":"uint256","internalType":"uint256"}],"stateMutability":"view"},{"type":"function","name":"owner","inputs":[],"outputs":[{"name":"","type":"address","internalType":"address"}],"stateMutability":"view"},{"type":"function","name":"ownerToPod","inputs":[{"name":"","type":"address","internalType":"address"}],"outputs":[{"name":"","type":"address","internalType":"contract IEigenPod"}],"stateMutability":"view"},{"type":"function","name":"pause","inputs":[{"name":"newPausedStatus","type":"uint256","internalType":"uint256"}],"outputs":[],"stateMutability":"nonpayable"},{"type":"function","name":"pauseAll","inputs":[],"outputs":[],"stateMutability":"nonpayable"},{"type":"function","name":"paused","inputs":[{"name":"index","type":"uint8","internalType":"uint8"}],"outputs":[{"name":"","type":"bool","internalType":"bool"}],"stateMutability":"view"},{"type":"function","name":"paused","inputs":[],"outputs":[{"name":"","type":"uint256","internalType":"uint256"}],"stateMutability":"view"},{"type":"function","name":"pauserRegistry","inputs":[],"outputs":[{"name":"","type":"address","internalType":"contract IPauserRegistry"}],"stateMutability":"view"},{"type":"function","name":"podOwnerShares","inputs":[{"name":"","type":"address","internalType":"address"}],"outputs":[{"name":"","type":"int256","internalType":"int256"}],"stateMutability":"view"},{"type":"function","name":"recordBeaconChainETHBalanceUpdate","inputs":[{"name":"podOwner","type":"address","internalType":"address"},{"name":"sharesDelta","type":"int256","internalType":"int256"}],"outputs":[],"stateMutability":"nonpayable"},{"type":"function","name":"removeShares","inputs":[{"name":"podOwner","type":"address","internalType":"address"},{"name":"shares","type":"uint256","internalType":"uint256"}],"outputs":[],"stateMutability":"nonpayable"},{"type":"function","name":"renounceOwnership","inputs":[],"outputs":[],"stateMutability":"nonpayable"},{"type":"function","name":"setDenebForkTimestamp","inputs":[{"name":"newDenebForkTimestamp","type":"uint64","internalType":"uint64"}],"outputs":[],"stateMutability":"nonpayable"},{"type":"function","name":"setPauserRegistry","inputs":[{"name":"newPauserRegistry","type":"address","internalType":"contract IPauserRegistry"}],"outputs":[],"stateMutability":"nonpayable"},{"type":"function","name":"slasher","inputs":[],"outputs":[{"name":"","type":"address","internalType":"contract ISlasher"}],"stateMutability":"view"},{"type":"function","name":"stake","inputs":[{"name":"pubkey","type":"bytes","internalType":"bytes"},{"name":"signature","type":"bytes","internalType":"bytes"},{"name":"depositDataRoot","type":"bytes32","internalType":"bytes32"}],"outputs":[],"stateMutability":"payable"},{"type":"function","name":"strategyManager","inputs":[],"outputs":[{"name":"","type":"address","internalType":"contract IStrategyManager"}],"stateMutability":"view"},{"type":"function","name":"transferOwnership","inputs":[{"name":"newOwner","type":"address","internalType":"address"}],"outputs":[],"stateMutability":"nonpayable"},{"type":"function","name":"unpause","inputs":[{"name":"newPausedStatus","type":"uint256","internalType":"uint256"}],"outputs":[],"stateMutability":"nonpayable"},{"type":"function","name":"updateBeaconChainOracle","inputs":[{"name":"newBeaconChainOracle","type":"address","internalType":"contract IBeaconChainOracle"}],"outputs":[],"stateMutability":"nonpayable"},{"type":"function","name":"withdrawSharesAsTokens","inputs":[{"name":"podOwner","type":"address","internalType":"address"},{"name":"destination","type":"address","internalType":"address"},{"name":"shares","type":"uint256","internalType":"uint256"}],"outputs":[],"stateMutability":"nonpayable"},{"type":"event","name":"BeaconChainETHDeposited","inputs":[{"name":"podOwner","type":"address","indexed":true,"internalType":"address"},{"name":"amount","type":"uint256","indexed":false,"internalType":"uint256"}],"anonymous":false},{"type":"event","name":"BeaconChainETHWithdrawalCompleted","inputs":[{"name":"podOwner","type":"address","indexed":true,"internalType":"address"},{"name":"shares","type":"uint256","indexed":false,"internalType":"uint256"},{"name":"nonce","type":"uint96","indexed":false,"internalType":"uint96"},{"name":"delegatedAddress","type":"address","indexed":false,"internalType":"address"},{"name":"withdrawer","type":"address","indexed":false,"internalType":"address"},{"name":"withdrawalRoot","type":"bytes32","indexed":false,"internalType":"bytes32"}],"anonymous":false},{"type":"event","name":"BeaconOracleUpdated","inputs":[{"name":"newOracleAddress","type":"address","indexed":true,"internalType":"address"}],"anonymous":false},{"type":"event","name":"DenebForkTimestampUpdated","inputs":[{"name":"newValue","type":"uint64","indexed":false,"internalType":"uint64"}],"anonymous":false},{"type":"event","name":"Initialized","inputs":[{"name":"version","type":"uint8","indexed":false,"internalType":"uint8"}],"anonymous":false},{"type":"event","name":"OwnershipTransferred","inputs":[{"name":"previousOwner","type":"address","indexed":true,"internalType":"address"},{"name":"newOwner","type":"address","indexed":true,"internalType":"address"}],"anonymous":false},{"type":"event","name":"Paused","inputs":[{"name":"account","type":"address","indexed":true,"internalType":"address"},{"name":"newPausedStatus","type":"uint256","indexed":false,"internalType":"uint256"}],"anonymous":false},{"type":"event","name":"PauserRegistrySet","inputs":[{"name":"pauserRegistry","type":"address","indexed":false,"internalType":"contract IPauserRegistry"},{"name":"newPauserRegistry","type":"address","indexed":false,"internalType":"contract IPauserRegistry"}],"anonymous":false},{"type":"event","name":"PodDeployed","inputs":[{"name":"eigenPod","type":"address","indexed":true,"internalType":"address"},{"name":"podOwner","type":"address","indexed":true,"internalType":"address"}],"anonymous":false},{"type":"event","name":"PodSharesUpdated","inputs":[{"name":"podOwner","type":"address","indexed":true,"internalType":"address"},{"name":"sharesDelta","type":"int256","indexed":false,"internalType":"int256"}],"anonymous":false},{"type":"event","name":"Unpaused","inputs":[{"name":"account","type":"address","indexed":true,"internalType":"address"},{"name":"newPausedStatus","type":"uint256","indexed":false,"internalType":"uint256"}],"anonymous":false}],"bytecode":{"object":"0x6101206040523480156200001257600080fd5b50604051620034e7380380620034e783398101604081905262000035916200014b565b6001600160a01b0380861660805280851660a05280841660c05280831660e0528116610100526200006562000070565b5050505050620001cb565b600054610100900460ff1615620000dd5760405162461bcd60e51b815260206004820152602760248201527f496e697469616c697a61626c653a20636f6e747261637420697320696e697469604482015266616c697a696e6760c81b606482015260840160405180910390fd5b60005460ff908116101562000130576000805460ff191660ff9081179091556040519081527f7f26b83ff96e1f2b6a682f133852f6798a09c465da95921460cefb38474024989060200160405180910390a15b565b6001600160a01b03811681146200014857600080fd5b50565b600080600080600060a086880312156200016457600080fd5b8551620001718162000132565b6020870151909550620001848162000132565b6040870151909450620001978162000132565b6060870151909350620001aa8162000132565b6080870151909250620001bd8162000132565b809150509295509295909350565b60805160a05160c05160e051610100516132a66200024160003960008181610636015281816106e001528181610b0e015281816113e70152818161187c015261196c01526000610542015260006102e601526000818161027a01528181611366015261203a0152600061041401526132a66000f3fe6080604052600436106101ee5760003560e01c80638da5cb5b1161010d578063c052bd61116100a0578063d1c64cc91161006f578063d1c64cc914610604578063ea4d3c9b14610624578063f2fde38b14610658578063f6848d2414610678578063fabc1cbc146106b357600080fd5b8063c052bd6114610584578063c1de3aef146105a4578063c2c51c40146105c4578063cf756fdf146105e457600080fd5b8063a38406a3116100dc578063a38406a3146104fa578063a6a509be1461051a578063b134427114610530578063beffbb891461056457600080fd5b80638da5cb5b1461046b5780639104c319146104895780639b4e4634146104b15780639ba06275146104c457600080fd5b8063595c6a6711610185578063715018a611610154578063715018a6146103ed57806374cdd7981461040257806384d8106214610436578063886f11951461044b57600080fd5b8063595c6a67146103565780635ac86ab71461036b5780635c975abb146103ab57806360f4062b146103c057600080fd5b8063387b1300116101c1578063387b1300146102b457806339b70e38146102d457806344e71c8014610308578063463db0381461033657600080fd5b80630e81073c146101f357806310d67a2f14610226578063136439dd14610248578063292b7b2b14610268575b600080fd5b3480156101ff57600080fd5b5061021361020e366004612406565b6106d3565b6040519081526020015b60405180910390f35b34801561023257600080fd5b50610246610241366004612432565b610911565b005b34801561025457600080fd5b5061024661026336600461244f565b6109c4565b34801561027457600080fd5b5061029c7f000000000000000000000000000000000000000000000000000000000000000081565b6040516001600160a01b03909116815260200161021d565b3480156102c057600080fd5b506102466102cf366004612468565b610b03565b3480156102e057600080fd5b5061029c7f000000000000000000000000000000000000000000000000000000000000000081565b34801561031457600080fd5b5061031d610ea1565b60405167ffffffffffffffff909116815260200161021d565b34801561034257600080fd5b506102466103513660046124a9565b610eca565b34801561036257600080fd5b50610246611056565b34801561037757600080fd5b5061039b6103863660046124d3565b606654600160ff9092169190911b9081161490565b604051901515815260200161021d565b3480156103b757600080fd5b50606654610213565b3480156103cc57600080fd5b506102136103db366004612432565b609b6020526000908152604090205481565b3480156103f957600080fd5b5061024661111d565b34801561040e57600080fd5b5061029c7f000000000000000000000000000000000000000000000000000000000000000081565b34801561044257600080fd5b5061029c611131565b34801561045757600080fd5b5060655461029c906001600160a01b031681565b34801561047757600080fd5b506033546001600160a01b031661029c565b34801561049557600080fd5b5061029c73beac0eeeeeeeeeeeeeeeeeeeeeeeeeeeeeebeac081565b6102466104bf36600461253f565b61121b565b3480156104d057600080fd5b5061029c6104df366004612432565b6098602052600090815260409020546001600160a01b031681565b34801561050657600080fd5b5061029c610515366004612432565b61130a565b34801561052657600080fd5b5061021360995481565b34801561053c57600080fd5b5061029c7f000000000000000000000000000000000000000000000000000000000000000081565b34801561057057600080fd5b5061024661057f366004612406565b6113dc565b34801561059057600080fd5b5060975461029c906001600160a01b031681565b3480156105b057600080fd5b506102466105bf366004612432565b6115f3565b3480156105d057600080fd5b506102466105df366004612406565b611604565b3480156105f057600080fd5b506102466105ff3660046125b3565b611a07565b34801561061057600080fd5b5061021361061f3660046124a9565b611b30565b34801561063057600080fd5b5061029c7f000000000000000000000000000000000000000000000000000000000000000081565b34801561066457600080fd5b50610246610673366004612432565b611c3b565b34801561068457600080fd5b5061039b610693366004612432565b6001600160a01b0390811660009081526098602052604090205416151590565b3480156106bf57600080fd5b506102466106ce36600461244f565b611cb1565b6000336001600160a01b037f000000000000000000000000000000000000000000000000000000000000000016146107265760405162461bcd60e51b815260040161071d90612604565b60405180910390fd5b6001600160a01b0383166107a25760405162461bcd60e51b815260206004820152603a60248201527f456967656e506f644d616e616765722e6164645368617265733a20706f644f7760448201527f6e65722063616e6e6f74206265207a65726f2061646472657373000000000000606482015260840161071d565b60008212156108105760405162461bcd60e51b815260206004820152603460248201527f456967656e506f644d616e616765722e6164645368617265733a207368617265604482015273732063616e6e6f74206265206e6567617469766560601b606482015260840161071d565b61081e633b9aca0083612678565b156108915760405162461bcd60e51b815260206004820152603d60248201527f456967656e506f644d616e616765722e6164645368617265733a20736861726560448201527f73206d75737420626520612077686f6c65204777656920616d6f756e74000000606482015260840161071d565b6001600160a01b0383166000908152609b6020526040812054906108b584836126a2565b6001600160a01b0386166000818152609b6020526040908190208390555191925090600080516020613231833981519152906108f49087815260200190565b60405180910390a26109068282611e0d565b925050505b92915050565b606560009054906101000a90046001600160a01b03166001600160a01b031663eab66d7a6040518163ffffffff1660e01b8152600401602060405180830381865afa158015610964573d6000803e3d6000fd5b505050506040513d601f19601f8201168201806040525081019061098891906126e3565b6001600160a01b0316336001600160a01b0316146109b85760405162461bcd60e51b815260040161071d90612700565b6109c181611e4f565b50565b60655460405163237dfb4760e11b81523360048201526001600160a01b03909116906346fbf68e90602401602060405180830381865afa158015610a0c573d6000803e3d6000fd5b505050506040513d601f19601f82011682018060405250810190610a30919061274a565b610a4c5760405162461bcd60e51b815260040161071d9061276c565b60665481811614610ac55760405162461bcd60e51b815260206004820152603860248201527f5061757361626c652e70617573653a20696e76616c696420617474656d70742060448201527f746f20756e70617573652066756e6374696f6e616c6974790000000000000000606482015260840161071d565b606681905560405181815233907fab40a374bc51de372200a8bc981af8c9ecdc08dfdaef0bb6e09f88f3c616ef3d906020015b60405180910390a250565b336001600160a01b037f00000000000000000000000000000000000000000000000000000000000000001614610b4b5760405162461bcd60e51b815260040161071d90612604565b6001600160a01b038316610bc55760405162461bcd60e51b8152602060048201526047602482015260008051602061325183398151915260448201527f546f6b656e733a20706f644f776e65722063616e6e6f74206265207a65726f206064820152666164647265737360c81b608482015260a40161071d565b6001600160a01b038216610c425760405162461bcd60e51b815260206004820152604a602482015260008051602061325183398151915260448201527f546f6b656e733a2064657374696e6174696f6e2063616e6e6f74206265207a65606482015269726f206164647265737360b01b608482015260a40161071d565b6000811215610cb15760405162461bcd60e51b8152602060048201526041602482015260008051602061325183398151915260448201527f546f6b656e733a207368617265732063616e6e6f74206265206e6567617469766064820152606560f81b608482015260a40161071d565b610cbf633b9aca0082612678565b15610d335760405162461bcd60e51b815260206004820152604a602482015260008051602061325183398151915260448201527f546f6b656e733a20736861726573206d75737420626520612077686f6c6520476064820152691dd95a48185b5bdd5b9d60b21b608482015260a40161071d565b6001600160a01b0383166000908152609b602052604081205490811215610e26576000610d5f826127b4565b905080831115610dc4576001600160a01b0385166000908152609b6020526040812055610d8c81846127d1565b9250846001600160a01b031660008051602061323183398151915282604051610db791815260200190565b60405180910390a2610e24565b6001600160a01b0385166000908152609b602052604081208054859290610dec9084906126a2565b90915550506040518381526001600160a01b038616906000805160206132318339815191529060200160405180910390a25050505050565b505b6001600160a01b03848116600090815260986020526040908190205490516362483a2160e11b815285831660048201526024810185905291169063c490744290604401600060405180830381600087803b158015610e8357600080fd5b505af1158015610e97573d6000803e3d6000fd5b5050505050505050565b609c5460009067ffffffffffffffff1680610ec55767ffffffffffffffff91505090565b919050565b610ed2611f46565b67ffffffffffffffff8116610f645760405162461bcd60e51b815260206004820152604c60248201527f456967656e506f644d616e616765722e73657444656e6562466f726b54696d6560448201527f7374616d703a2063616e6e6f7420736574206e657744656e6562466f726b546960648201526b06d657374616d7020746f20360a41b608482015260a40161071d565b609c5467ffffffffffffffff16156110005760405162461bcd60e51b815260206004820152605360248201527f456967656e506f644d616e616765722e73657444656e6562466f726b54696d6560448201527f7374616d703a2063616e6e6f74207365742064656e6562466f726b54696d657360648201527274616d70206d6f7265207468616e206f6e636560681b608482015260a40161071d565b609c805467ffffffffffffffff191667ffffffffffffffff83169081179091556040519081527f19200b6fdad58f91b2f496b0c444fc4be3eff74a7e24b07770e04a7137bfd9db9060200160405180910390a150565b60655460405163237dfb4760e11b81523360048201526001600160a01b03909116906346fbf68e90602401602060405180830381865afa15801561109e573d6000803e3d6000fd5b505050506040513d601f19601f820116820180604052508101906110c2919061274a565b6110de5760405162461bcd60e51b815260040161071d9061276c565b600019606681905560405190815233907fab40a374bc51de372200a8bc981af8c9ecdc08dfdaef0bb6e09f88f3c616ef3d9060200160405180910390a2565b611125611f46565b61112f6000611fa0565b565b6066546000908190600190811614156111885760405162461bcd60e51b815260206004820152601960248201527814185d5cd8589b194e881a5b99195e081a5cc81c185d5cd959603a1b604482015260640161071d565b336000908152609860205260409020546001600160a01b03161561120a5760405162461bcd60e51b815260206004820152603360248201527f456967656e506f644d616e616765722e637265617465506f643a2053656e64656044820152721c88185b1c9958591e481a185cc818481c1bd9606a1b606482015260840161071d565b6000611214611ff2565b9250505090565b606654600090600190811614156112705760405162461bcd60e51b815260206004820152601960248201527814185d5cd8589b194e881a5b99195e081a5cc81c185d5cd959603a1b604482015260640161071d565b336000908152609860205260409020546001600160a01b03168061129957611296611ff2565b90505b6040516326d3918d60e21b81526001600160a01b03821690639b4e46349034906112cf908b908b908b908b908b90600401612811565b6000604051808303818588803b1580156112e857600080fd5b505af11580156112fc573d6000803e3d6000fd5b505050505050505050505050565b6001600160a01b038082166000908152609860205260408120549091168061090b576113d5836001600160a01b031660001b60405180610940016040528061090e815260200161292361090e9139604080516001600160a01b037f0000000000000000000000000000000000000000000000000000000000000000166020820152808201919091526000606082015260800160408051601f19818403018152908290526113ba9291602001612886565b60405160208183030381529060405280519060200120612157565b9392505050565b336001600160a01b037f000000000000000000000000000000000000000000000000000000000000000016146114245760405162461bcd60e51b815260040161071d90612604565b600081121561149b5760405162461bcd60e51b815260206004820152603760248201527f456967656e506f644d616e616765722e72656d6f76655368617265733a20736860448201527f617265732063616e6e6f74206265206e65676174697665000000000000000000606482015260840161071d565b6114a9633b9aca0082612678565b1561151e576040805162461bcd60e51b81526020600482015260248101919091527f456967656e506f644d616e616765722e72656d6f76655368617265733a20736860448201527f61726573206d75737420626520612077686f6c65204777656920616d6f756e74606482015260840161071d565b6001600160a01b0382166000908152609b602052604081205461154290839061289b565b905060008112156115d35760405162461bcd60e51b815260206004820152604f60248201527f456967656e506f644d616e616765722e72656d6f76655368617265733a20636160448201527f6e6e6f7420726573756c7420696e20706f64206f776e657220686176696e672060648201526e6e656761746976652073686172657360881b608482015260a40161071d565b6001600160a01b039092166000908152609b602052604090209190915550565b6115fb611f46565b6109c1816121b3565b6001600160a01b03808316600090815260986020526040902054839116331461167f5760405162461bcd60e51b815260206004820152602760248201527f456967656e506f644d616e616765722e6f6e6c79456967656e506f643a206e6f6044820152661d0818481c1bd960ca1b606482015260840161071d565b600260c95414156116d25760405162461bcd60e51b815260206004820152601f60248201527f5265656e7472616e637947756172643a207265656e7472616e742063616c6c00604482015260640161071d565b600260c9556001600160a01b03831661176e5760405162461bcd60e51b815260206004820152605260248201527f456967656e506f644d616e616765722e7265636f7264426561636f6e4368616960448201527f6e45544842616c616e63655570646174653a20706f644f776e65722063616e6e6064820152716f74206265207a65726f206164647265737360701b608482015260a40161071d565b61177c633b9aca00836128da565b156118155760405162461bcd60e51b815260206004820152605a60248201527f456967656e506f644d616e616765722e7265636f7264426561636f6e4368616960448201527f6e45544842616c616e63655570646174653a2073686172657344656c7461206d60648201527f75737420626520612077686f6c65204777656920616d6f756e74000000000000608482015260a40161071d565b6001600160a01b0383166000908152609b60205260408120549061183984836126a2565b6001600160a01b0386166000908152609b602052604081208290559091506118618383611e0d565b905080156119c957600081121561192c576001600160a01b037f00000000000000000000000000000000000000000000000000000000000000001663132d49678773beac0eeeeeeeeeeeeeeeeeeeeeeeeeeeeeebeac06118c0856127b4565b6040516001600160e01b031960e086901b1681526001600160a01b0393841660048201529290911660248301526044820152606401600060405180830381600087803b15801561190f57600080fd5b505af1158015611923573d6000803e3d6000fd5b505050506119c9565b604051631452b9d760e11b81526001600160a01b03878116600483015273beac0eeeeeeeeeeeeeeeeeeeeeeeeeeeeeebeac06024830152604482018390527f000000000000000000000000000000000000000000000000000000000000000016906328a573ae90606401600060405180830381600087803b1580156119b057600080fd5b505af11580156119c4573d6000803e3d6000fd5b505050505b856001600160a01b0316600080516020613231833981519152866040516119f291815260200190565b60405180910390a25050600160c95550505050565b600054610100900460ff1615808015611a275750600054600160ff909116105b80611a415750303b158015611a41575060005460ff166001145b611aa45760405162461bcd60e51b815260206004820152602e60248201527f496e697469616c697a61626c653a20636f6e747261637420697320616c72656160448201526d191e481a5b9a5d1a585b1a5e995960921b606482015260840161071d565b6000805460ff191660011790558015611ac7576000805461ff0019166101001790555b611ad0856121b3565b611ad984611fa0565b611ae383836121fd565b8015611b29576000805461ff0019169055604051600181527f7f26b83ff96e1f2b6a682f133852f6798a09c465da95921460cefb38474024989060200160405180910390a15b5050505050565b60975460405163321accf960e11b815267ffffffffffffffff8316600482015260009182916001600160a01b039091169063643599f290602401602060405180830381865afa158015611b87573d6000803e3d6000fd5b505050506040513d601f19601f82011682018060405250810190611bab91906128ee565b90508061090b5760405162461bcd60e51b815260206004820152605260248201527f456967656e506f644d616e616765722e676574426c6f636b526f6f744174546960448201527f6d657374616d703a20737461746520726f6f742061742074696d657374616d70606482015271081b9bdd081e595d08199a5b985b1a5e995960721b608482015260a40161071d565b611c43611f46565b6001600160a01b038116611ca85760405162461bcd60e51b815260206004820152602660248201527f4f776e61626c653a206e6577206f776e657220697320746865207a65726f206160448201526564647265737360d01b606482015260840161071d565b6109c181611fa0565b606560009054906101000a90046001600160a01b03166001600160a01b031663eab66d7a6040518163ffffffff1660e01b8152600401602060405180830381865afa158015611d04573d6000803e3d6000fd5b505050506040513d601f19601f82011682018060405250810190611d2891906126e3565b6001600160a01b0316336001600160a01b031614611d585760405162461bcd60e51b815260040161071d90612700565b606654198119606654191614611dd65760405162461bcd60e51b815260206004820152603860248201527f5061757361626c652e756e70617573653a20696e76616c696420617474656d7060448201527f7420746f2070617573652066756e6374696f6e616c6974790000000000000000606482015260840161071d565b606681905560405181815233907f3582d1828e26bf56bd801502bc021ac0bc8afb57c826e4986b45593c8fad389c90602001610af8565b6000808313611e2d5760008213611e265750600061090b565b508061090b565b60008213611e4557611e3e836127b4565b905061090b565b611e3e838361289b565b6001600160a01b038116611edd5760405162461bcd60e51b815260206004820152604960248201527f5061757361626c652e5f73657450617573657252656769737472793a206e657760448201527f50617573657252656769737472792063616e6e6f7420626520746865207a65726064820152686f206164647265737360b81b608482015260a40161071d565b606554604080516001600160a01b03928316815291831660208301527f6e9fcd539896fca60e8b0f01dd580233e48a6b0f7df013b89ba7f565869acdb6910160405180910390a1606580546001600160a01b0319166001600160a01b0392909216919091179055565b6033546001600160a01b0316331461112f5760405162461bcd60e51b815260206004820181905260248201527f4f776e61626c653a2063616c6c6572206973206e6f7420746865206f776e6572604482015260640161071d565b603380546001600160a01b038381166001600160a01b0319831681179093556040519116919082907f8be0079c531659141344cd1fd0a4f28419497f9722a3daafe3b4186f6b6457e090600090a35050565b600060996000815461200390612907565b9091555060408051610940810190915261090e8082526000916120a291839133916129236020830139604080516001600160a01b037f0000000000000000000000000000000000000000000000000000000000000000166020820152808201919091526000606082015260800160408051601f198184030181529082905261208e9291602001612886565b6040516020818303038152906040526122e7565b60405163189acdbd60e31b81523360048201529091506001600160a01b0382169063c4d66de890602401600060405180830381600087803b1580156120e657600080fd5b505af11580156120fa573d6000803e3d6000fd5b50503360008181526098602052604080822080546001600160a01b0319166001600160a01b038816908117909155905192945092507f21c99d0db02213c32fff5b05cf0a718ab5f858802b91498f80d82270289d856a91a3919050565b604080516001600160f81b03196020808301919091526bffffffffffffffffffffffff193060601b16602183015260358201859052605580830185905283518084039091018152607590920190925280519101206000906113d5565b609780546001600160a01b0319166001600160a01b0383169081179091556040517f08f0470754946ccfbb446ff7fd2d6ae6af1bbdae19f85794c0cc5ed5e8ceb4f690600090a250565b6065546001600160a01b031615801561221e57506001600160a01b03821615155b6122a05760405162461bcd60e51b815260206004820152604760248201527f5061757361626c652e5f696e697469616c697a655061757365723a205f696e6960448201527f7469616c697a6550617573657228292063616e206f6e6c792062652063616c6c6064820152666564206f6e636560c81b608482015260a40161071d565b606681905560405181815233907fab40a374bc51de372200a8bc981af8c9ecdc08dfdaef0bb6e09f88f3c616ef3d9060200160405180910390a26122e382611e4f565b5050565b6000808447101561233a5760405162461bcd60e51b815260206004820152601d60248201527f437265617465323a20696e73756666696369656e742062616c616e6365000000604482015260640161071d565b82516123885760405162461bcd60e51b815260206004820181905260248201527f437265617465323a2062797465636f6465206c656e677468206973207a65726f604482015260640161071d565b8383516020850187f590506001600160a01b0381166123e95760405162461bcd60e51b815260206004820152601960248201527f437265617465323a204661696c6564206f6e206465706c6f7900000000000000604482015260640161071d565b949350505050565b6001600160a01b03811681146109c157600080fd5b6000806040838503121561241957600080fd5b8235612424816123f1565b946020939093013593505050565b60006020828403121561244457600080fd5b81356113d5816123f1565b60006020828403121561246157600080fd5b5035919050565b60008060006060848603121561247d57600080fd5b8335612488816123f1565b92506020840135612498816123f1565b929592945050506040919091013590565b6000602082840312156124bb57600080fd5b813567ffffffffffffffff811681146113d557600080fd5b6000602082840312156124e557600080fd5b813560ff811681146113d557600080fd5b60008083601f84011261250857600080fd5b50813567ffffffffffffffff81111561252057600080fd5b60208301915083602082850101111561253857600080fd5b9250929050565b60008060008060006060868803121561255757600080fd5b853567ffffffffffffffff8082111561256f57600080fd5b61257b89838a016124f6565b9097509550602088013591508082111561259457600080fd5b506125a1888289016124f6565b96999598509660400135949350505050565b600080600080608085870312156125c957600080fd5b84356125d4816123f1565b935060208501356125e4816123f1565b925060408501356125f4816123f1565b9396929550929360600135925050565b602080825260409082018190527f456967656e506f644d616e616765722e6f6e6c7944656c65676174696f6e4d61908201527f6e616765723a206e6f74207468652044656c65676174696f6e4d616e61676572606082015260800190565b634e487b7160e01b600052601260045260246000fd5b60008261268757612687612662565b500690565b634e487b7160e01b600052601160045260246000fd5b600080821280156001600160ff1b03849003851316156126c4576126c461268c565b600160ff1b83900384128116156126dd576126dd61268c565b50500190565b6000602082840312156126f557600080fd5b81516113d5816123f1565b6020808252602a908201527f6d73672e73656e646572206973206e6f74207065726d697373696f6e6564206160408201526939903ab73830bab9b2b960b11b606082015260800190565b60006020828403121561275c57600080fd5b815180151581146113d557600080fd5b60208082526028908201527f6d73672e73656e646572206973206e6f74207065726d697373696f6e6564206160408201526739903830bab9b2b960c11b606082015260800190565b6000600160ff1b8214156127ca576127ca61268c565b5060000390565b6000828210156127e3576127e361268c565b500390565b81835281816020850137506000828201602090810191909152601f909101601f19169091010190565b6060815260006128256060830187896127e8565b82810360208401526128388186886127e8565b9150508260408301529695505050505050565b6000815160005b8181101561286c5760208185018101518683015201612852565b8181111561287b576000828601525b509290920192915050565b60006123e9612895838661284b565b8461284b565b60008083128015600160ff1b8501841216156128b9576128b961268c565b6001600160ff1b03840183138116156128d4576128d461268c565b50500390565b6000826128e9576128e9612662565b500790565b60006020828403121561290057600080fd5b5051919050565b600060001982141561291b5761291b61268c565b506001019056fe608060405260405161090e38038061090e83398101604081905261002291610460565b61002e82826000610035565b505061058a565b61003e83610100565b6040516001600160a01b038416907f1cf3b03a6cf19fa2baba4df148e9dcabedea7f8a5c07840e207e5c089be95d3e90600090a260008251118061007f5750805b156100fb576100f9836001600160a01b0316635c60da1b6040518163ffffffff1660e01b8152600401602060405180830381865afa1580156100c5573d6000803e3d6000fd5b505050506040513d601f19601f820116820180604052508101906100e99190610520565b836102a360201b6100291760201c565b505b505050565b610113816102cf60201b6100551760201c565b6101725760405162461bcd60e51b815260206004820152602560248201527f455243313936373a206e657720626561636f6e206973206e6f74206120636f6e6044820152641d1c9858dd60da1b60648201526084015b60405180910390fd5b6101e6816001600160a01b0316635c60da1b6040518163ffffffff1660e01b8152600401602060405180830381865afa1580156101b3573d6000803e3d6000fd5b505050506040513d601f19601f820116820180604052508101906101d79190610520565b6102cf60201b6100551760201c565b61024b5760405162461bcd60e51b815260206004820152603060248201527f455243313936373a20626561636f6e20696d706c656d656e746174696f6e206960448201526f1cc81b9bdd08184818dbdb9d1c9858dd60821b6064820152608401610169565b806102827fa3f0ad74e5423aebfd80d3ef4346578335a9a72aeaee59ff6cb3582b35133d5060001b6102de60201b6100641760201c565b80546001600160a01b0319166001600160a01b039290921691909117905550565b60606102c883836040518060600160405280602781526020016108e7602791396102e1565b9392505050565b6001600160a01b03163b151590565b90565b6060600080856001600160a01b0316856040516102fe919061053b565b600060405180830381855af49150503d8060008114610339576040519150601f19603f3d011682016040523d82523d6000602084013e61033e565b606091505b5090925090506103508683838761035a565b9695505050505050565b606083156103c65782516103bf576001600160a01b0385163b6103bf5760405162461bcd60e51b815260206004820152601d60248201527f416464726573733a2063616c6c20746f206e6f6e2d636f6e74726163740000006044820152606401610169565b50816103d0565b6103d083836103d8565b949350505050565b8151156103e85781518083602001fd5b8060405162461bcd60e51b81526004016101699190610557565b80516001600160a01b038116811461041957600080fd5b919050565b634e487b7160e01b600052604160045260246000fd5b60005b8381101561044f578181015183820152602001610437565b838111156100f95750506000910152565b6000806040838503121561047357600080fd5b61047c83610402565b60208401519092506001600160401b038082111561049957600080fd5b818501915085601f8301126104ad57600080fd5b8151818111156104bf576104bf61041e565b604051601f8201601f19908116603f011681019083821181831017156104e7576104e761041e565b8160405282815288602084870101111561050057600080fd5b610511836020830160208801610434565b80955050505050509250929050565b60006020828403121561053257600080fd5b6102c882610402565b6000825161054d818460208701610434565b9190910192915050565b6020815260008251806020840152610576816040850160208701610434565b601f01601f19169190910160400192915050565b61034e806105996000396000f3fe60806040523661001357610011610017565b005b6100115b610027610022610067565b610100565b565b606061004e83836040518060600160405280602781526020016102f260279139610124565b9392505050565b6001600160a01b03163b151590565b90565b600061009a7fa3f0ad74e5423aebfd80d3ef4346578335a9a72aeaee59ff6cb3582b35133d50546001600160a01b031690565b6001600160a01b0316635c60da1b6040518163ffffffff1660e01b8152600401602060405180830381865afa1580156100d7573d6000803e3d6000fd5b505050506040513d601f19601f820116820180604052508101906100fb9190610249565b905090565b3660008037600080366000845af43d6000803e80801561011f573d6000f35b3d6000fd5b6060600080856001600160a01b03168560405161014191906102a2565b600060405180830381855af49150503d806000811461017c576040519150601f19603f3d011682016040523d82523d6000602084013e610181565b606091505b50915091506101928683838761019c565b9695505050505050565b6060831561020d578251610206576001600160a01b0385163b6102065760405162461bcd60e51b815260206004820152601d60248201527f416464726573733a2063616c6c20746f206e6f6e2d636f6e747261637400000060448201526064015b60405180910390fd5b5081610217565b610217838361021f565b949350505050565b81511561022f5781518083602001fd5b8060405162461bcd60e51b81526004016101fd91906102be565b60006020828403121561025b57600080fd5b81516001600160a01b038116811461004e57600080fd5b60005b8381101561028d578181015183820152602001610275565b8381111561029c576000848401525b50505050565b600082516102b4818460208701610272565b9190910192915050565b60208152600082518060208401526102dd816040850160208701610272565b601f01601f1916919091016040019291505056fe416464726573733a206c6f772d6c6576656c2064656c65676174652063616c6c206661696c6564a2646970667358221220d51e81d3bc5ed20a26aeb05dce7e825c503b2061aa78628027300c8d65b9d89a64736f6c634300080c0033416464726573733a206c6f772d6c6576656c2064656c65676174652063616c6c206661696c65644e2b791dedccd9fb30141b088cabf5c14a8912b52f59375c95c010700b8c6193456967656e506f644d616e616765722e77697468647261775368617265734173a2646970667358221220edbed5274fbf941edd55007339d5a1741989a308219f8ecff050861e0714bc7864736f6c634300080c0033","linkReferences":{}},"methodIdentifiers":{"addShares(address,uint256)":"0e81073c","beaconChainETHStrategy()":"9104c319","beaconChainOracle()":"c052bd61","createPod()":"84d81062","delegationManager()":"ea4d3c9b","denebForkTimestamp()":"44e71c80","eigenPodBeacon()":"292b7b2b","ethPOS()":"74cdd798","getBlockRootAtTimestamp(uint64)":"d1c64cc9","getPod(address)":"a38406a3","hasPod(address)":"f6848d24","initialize(address,address,address,uint256)":"cf756fdf","numPods()":"a6a509be","owner()":"8da5cb5b","ownerToPod(address)":"9ba06275","pause(uint256)":"136439dd","pauseAll()":"595c6a67","paused()":"5c975abb","paused(uint8)":"5ac86ab7","pauserRegistry()":"886f1195","podOwnerShares(address)":"60f4062b","recordBeaconChainETHBalanceUpdate(address,int256)":"c2c51c40","removeShares(address,uint256)":"beffbb89","renounceOwnership()":"715018a6","setDenebForkTimestamp(uint64)":"463db038","setPauserRegistry(address)":"10d67a2f","slasher()":"b1344271","stake(bytes,bytes,bytes32)":"9b4e4634","strategyManager()":"39b70e38","transferOwnership(address)":"f2fde38b","unpause(uint256)":"fabc1cbc","updateBeaconChainOracle(address)":"c1de3aef","withdrawSharesAsTokens(address,address,uint256)":"387b1300"},"id":101}