{"abi":[{"type":"constructor","inputs":[{"name":"_registryCoordinator","type":"address","internalType":"contract IRegistryCoordinator"}],"stateMutability":"nonpayable"},{"type":"function","name":"blsApkRegistry","inputs":[],"outputs":[{"name":"","type":"address","internalType":"contract IBLSApkRegistry"}],"stateMutability":"view"},{"type":"function","name":"checkSignatures","inputs":[{"name":"msgHash","type":"bytes32","internalType":"bytes32"},{"name":"quorumNumbers","type":"bytes","internalType":"bytes"},{"name":"referenceBlockNumber","type":"uint32","internalType":"uint32"},{"name":"params","type":"tuple","internalType":"struct IBLSSignatureChecker.NonSignerStakesAndSignature","components":[{"name":"nonSignerQuorumBitmapIndices","type":"uint32[]","internalType":"uint32[]"},{"name":"nonSignerPubkeys","type":"tuple[]","internalType":"struct BN254.G1Point[]","components":[{"name":"X","type":"uint256","internalType":"uint256"},{"name":"Y","type":"uint256","internalType":"uint256"}]},{"name":"quorumApks","type":"tuple[]","internalType":"struct BN254.G1Point[]","components":[{"name":"X","type":"uint256","internalType":"uint256"},{"name":"Y","type":"uint256","internalType":"uint256"}]},{"name":"apkG2","type":"tuple","internalType":"struct BN254.G2Point","components":[{"name":"X","type":"uint256[2]","internalType":"uint256[2]"},{"name":"Y","type":"uint256[2]","internalType":"uint256[2]"}]},{"name":"sigma","type":"tuple","internalType":"struct BN254.G1Point","components":[{"name":"X","type":"uint256","internalType":"uint256"},{"name":"Y","type":"uint256","internalType":"uint256"}]},{"name":"quorumApkIndices","type":"uint32[]","internalType":"uint32[]"},{"name":"totalStakeIndices","type":"uint32[]","internalType":"uint32[]"},{"name":"nonSignerStakeIndices","type":"uint32[][]","internalType":"uint32[][]"}]}],"outputs":[{"name":"","type":"tuple","internalType":"struct IBLSSignatureChecker.QuorumStakeTotals","components":[{"name":"signedStakeForQuorum","type":"uint96[]","internalType":"uint96[]"},{"name":"totalStakeForQuorum","type":"uint96[]","internalType":"uint96[]"}]},{"name":"","type":"bytes32","internalType":"bytes32"}],"stateMutability":"view"},{"type":"function","name":"delegation","inputs":[],"outputs":[{"name":"","type":"address","internalType":"contract IDelegationManager"}],"stateMutability":"view"},{"type":"function","name":"registryCoordinator","inputs":[],"outputs":[{"name":"","type":"address","internalType":"contract IRegistryCoordinator"}],"stateMutability":"view"},{"type":"function","name":"setStaleStakesForbidden","inputs":[{"name":"value","type":"bool","internalType":"bool"}],"outputs":[],"stateMutability":"nonpayable"},{"type":"function","name":"stakeRegistry","inputs":[],"outputs":[{"name":"","type":"address","internalType":"contract IStakeRegistry"}],"stateMutability":"view"},{"type":"function","name":"staleStakesForbidden","inputs":[],"outputs":[{"name":"","type":"bool","internalType":"bool"}],"stateMutability":"view"},{"type":"function","name":"trySignatureAndApkVerification","inputs":[{"name":"msgHash","type":"bytes32","internalType":"bytes32"},{"name":"apk","type":"tuple","internalType":"struct BN254.G1Point","components":[{"name":"X","type":"uint256","internalType":"uint256"},{"name":"Y","type":"uint256","internalType":"uint256"}]},{"name":"apkG2","type":"tuple","internalType":"struct BN254.G2Point","components":[{"name":"X","type":"uint256[2]","internalType":"uint256[2]"},{"name":"Y","type":"uint256[2]","internalType":"uint256[2]"}]},{"name":"sigma","type":"tuple","internalType":"struct BN254.G1Point","components":[{"name":"X","type":"uint256","internalType":"uint256"},{"name":"Y","type":"uint256","internalType":"uint256"}]}],"outputs":[{"name":"pairingSuccessful","type":"bool","internalType":"bool"},{"name":"siganatureIsValid","type":"bool","internalType":"bool"}],"stateMutability":"view"},{"type":"event","name":"StaleStakesForbiddenUpdate","inputs":[{"name":"value","type":"bool","indexed":false,"internalType":"bool"}],"anonymous":false}],"bytecode":{"object":"0x6101006040523480156200001257600080fd5b506040516200292c3803806200292c8339810160408190526200003591620001d0565b6001600160a01b038116608081905260408051636830483560e01b815290516368304835916004808201926020929091908290030181865afa15801562000080573d6000803e3d6000fd5b505050506040513d601f19601f82011682018060405250810190620000a69190620001d0565b6001600160a01b031660a0816001600160a01b031681525050806001600160a01b0316635df459466040518163ffffffff1660e01b8152600401602060405180830381865afa158015620000fe573d6000803e3d6000fd5b505050506040513d601f19601f82011682018060405250810190620001249190620001d0565b6001600160a01b031660c0816001600160a01b03168152505060a0516001600160a01b031663df5cf7236040518163ffffffff1660e01b8152600401602060405180830381865afa1580156200017e573d6000803e3d6000fd5b505050506040513d601f19601f82011682018060405250810190620001a49190620001d0565b6001600160a01b031660e05250620001f7565b6001600160a01b0381168114620001cd57600080fd5b50565b600060208284031215620001e357600080fd5b8151620001f081620001b7565b9392505050565b60805160a05160c05160e0516126c462000268600039600081816101a10152610b7601526000818160d60152610d5801526000818161011501528181610f2e01526110f001526000818161013c0152818161034f0152818161083f015281816109d70152610c1301526126c46000f3fe608060405234801561001057600080fd5b50600436106100885760003560e01c80636d14a9871161005b5780636d14a987146101375780636efb46361461015e578063b98d09081461017f578063df5cf7231461019c57600080fd5b8063171f1d5b1461008d578063416c7e5e146100bc5780635df45946146100d15780636830483514610110575b600080fd5b6100a061009b366004611fbe565b6101c3565b6040805192151583529015156020830152015b60405180910390f35b6100cf6100ca36600461200f565b61034d565b005b6100f87f000000000000000000000000000000000000000000000000000000000000000081565b6040516001600160a01b0390911681526020016100b3565b6100f87f000000000000000000000000000000000000000000000000000000000000000081565b6100f87f000000000000000000000000000000000000000000000000000000000000000081565b61017161016c3660046122e7565b61048c565b6040516100b39291906123da565b60005461018c9060ff1681565b60405190151581526020016100b3565b6100f87f000000000000000000000000000000000000000000000000000000000000000081565b60008060007f30644e72e131a029b85045b68181585d2833e84879b9709143e1f593f00000018787600001518860200151886000015160006002811061020b5761020b612423565b60200201518951600160200201518a6020015160006002811061023057610230612423565b60200201518b6020015160016002811061024c5761024c612423565b602090810291909101518c518d8301516040516102a99a99989796959401988952602089019790975260408801959095526060870193909352608086019190915260a085015260c084015260e08301526101008201526101200190565b6040516020818303038152906040528051906020012060001c6102cc9190612439565b905061033f6102e56102de88846113a5565b869061143c565b6102ed6114d0565b61033561032685610320604080518082018252600080825260209182015281518083019092526001825260029082015290565b906113a5565b61032f8c611590565b9061143c565b886201d4c0611620565b909890975095505050505050565b7f00000000000000000000000000000000000000000000000000000000000000006001600160a01b0316638da5cb5b6040518163ffffffff1660e01b8152600401602060405180830381865afa1580156103ab573d6000803e3d6000fd5b505050506040513d601f19601f820116820180604052508101906103cf919061245b565b6001600160a01b0316336001600160a01b0316146104805760405162461bcd60e51b815260206004820152605c60248201527f424c535369676e6174757265436865636b65722e6f6e6c79436f6f7264696e6160448201527f746f724f776e65723a2063616c6c6572206973206e6f7420746865206f776e6560648201527f72206f6620746865207265676973747279436f6f7264696e61746f7200000000608482015260a4015b60405180910390fd5b61048981611844565b50565b60408051808201909152606080825260208201526000846105035760405162461bcd60e51b8152602060048201526037602482015260008051602061266f83398151915260448201527f7265733a20656d7074792071756f72756d20696e7075740000000000000000006064820152608401610477565b6040830151518514801561051b575060a08301515185145b801561052b575060c08301515185145b801561053b575060e08301515185145b6105a55760405162461bcd60e51b8152602060048201526041602482015260008051602061266f83398151915260448201527f7265733a20696e7075742071756f72756d206c656e677468206d69736d6174636064820152600d60fb1b608482015260a401610477565b8251516020840151511461061d5760405162461bcd60e51b81526020600482015260446024820181905260008051602061266f833981519152908201527f7265733a20696e707574206e6f6e7369676e6572206c656e677468206d69736d6064820152630c2e8c6d60e31b608482015260a401610477565b4363ffffffff168463ffffffff161061068c5760405162461bcd60e51b815260206004820152603c602482015260008051602061266f83398151915260448201527f7265733a20696e76616c6964207265666572656e636520626c6f636b000000006064820152608401610477565b6040805180820182526000808252602080830191909152825180840190935260608084529083015290866001600160401b038111156106cd576106cd611e59565b6040519080825280602002602001820160405280156106f6578160200160208202803683370190505b506020820152866001600160401b0381111561071457610714611e59565b60405190808252806020026020018201604052801561073d578160200160208202803683370190505b50815260408051808201909152606080825260208201528560200151516001600160401b0381111561077157610771611e59565b60405190808252806020026020018201604052801561079a578160200160208202803683370190505b5081526020860151516001600160401b038111156107ba576107ba611e59565b6040519080825280602002602001820160405280156107e3578160200160208202803683370190505b50816020018190525060006108b58a8a8080601f0160208091040260200160405190810160405280939291908181526020018383808284376000920191909152505060408051639aa1653d60e01b815290516001600160a01b037f0000000000000000000000000000000000000000000000000000000000000000169350639aa1653d925060048083019260209291908290030181865afa15801561088c573d6000803e3d6000fd5b505050506040513d601f19601f820116820180604052508101906108b09190612484565b61188b565b905060005b876020015151811015610b50576108ff886020015182815181106108e0576108e0612423565b6020026020010151805160009081526020918201519091526040902090565b8360200151828151811061091557610915612423565b602090810291909101015280156109d55760208301516109366001836124bd565b8151811061094657610946612423565b602002602001015160001c8360200151828151811061096757610967612423565b602002602001015160001c116109d5576040805162461bcd60e51b815260206004820152602481019190915260008051602061266f83398151915260448201527f7265733a206e6f6e5369676e65725075626b657973206e6f7420736f727465646064820152608401610477565b7f00000000000000000000000000000000000000000000000000000000000000006001600160a01b03166304ec635184602001518381518110610a1a57610a1a612423565b60200260200101518b8b600001518581518110610a3957610a39612423565b60200260200101516040518463ffffffff1660e01b8152600401610a769392919092835263ffffffff918216602084015216604082015260600190565b602060405180830381865afa158015610a93573d6000803e3d6000fd5b505050506040513d601f19601f82011682018060405250810190610ab791906124d4565b6001600160c01b031683600001518281518110610ad657610ad6612423565b602002602001018181525050610b3c6102de610b108486600001518581518110610b0257610b02612423565b60200260200101511661191e565b8a602001518481518110610b2657610b26612423565b602002602001015161194990919063ffffffff16565b945080610b48816124fd565b9150506108ba565b5050610b5b83611a2d565b6000805491945060ff9091169081610b74576000610bf6565b7f00000000000000000000000000000000000000000000000000000000000000006001600160a01b031663c448feb86040518163ffffffff1660e01b8152600401602060405180830381865afa158015610bd2573d6000803e3d6000fd5b505050506040513d601f19601f82011682018060405250810190610bf69190612518565b905060005b8a811015611274578215610d56578963ffffffff16827f00000000000000000000000000000000000000000000000000000000000000006001600160a01b031663249a0c428f8f86818110610c5257610c52612423565b60405160e085901b6001600160e01b031916815292013560f81c600483015250602401602060405180830381865afa158015610c92573d6000803e3d6000fd5b505050506040513d601f19601f82011682018060405250810190610cb69190612518565b610cc09190612531565b11610d565760405162461bcd60e51b8152602060048201526066602482015260008051602061266f83398151915260448201527f7265733a205374616b6552656769737472792075706461746573206d7573742060648201527f62652077697468696e207769746864726177616c44656c6179426c6f636b732060848201526577696e646f7760d01b60a482015260c401610477565b7f00000000000000000000000000000000000000000000000000000000000000006001600160a01b03166368bccaac8d8d84818110610d9757610d97612423565b9050013560f81c60f81b60f81c8c8c60a001518581518110610dbb57610dbb612423565b60209081029190910101516040516001600160e01b031960e086901b16815260ff909316600484015263ffffffff9182166024840152166044820152606401602060405180830381865afa158015610e17573d6000803e3d6000fd5b505050506040513d601f19601f82011682018060405250810190610e3b9190612549565b6001600160401b031916610e5e8a6040015183815181106108e0576108e0612423565b67ffffffffffffffff191614610efa5760405162461bcd60e51b8152602060048201526061602482015260008051602061266f83398151915260448201527f7265733a2071756f72756d41706b206861736820696e2073746f72616765206460648201527f6f6573206e6f74206d617463682070726f76696465642071756f72756d2061706084820152606b60f81b60a482015260c401610477565b610f2a89604001518281518110610f1357610f13612423565b60200260200101518761143c90919063ffffffff16565b95507f00000000000000000000000000000000000000000000000000000000000000006001600160a01b031663c8294c568d8d84818110610f6d57610f6d612423565b9050013560f81c60f81b60f81c8c8c60c001518581518110610f9157610f91612423565b60209081029190910101516040516001600160e01b031960e086901b16815260ff909316600484015263ffffffff9182166024840152166044820152606401602060405180830381865afa158015610fed573d6000803e3d6000fd5b505050506040513d601f19601f820116820180604052508101906110119190612574565b8560200151828151811061102757611027612423565b6001600160601b0390921660209283029190910182015285015180518290811061105357611053612423565b60200260200101518560000151828151811061107157611071612423565b60200260200101906001600160601b031690816001600160601b0316815250506000805b8a602001515181101561125f576110e9866000015182815181106110bb576110bb612423565b60200260200101518f8f868181106110d5576110d5612423565b600192013560f81c9290921c811614919050565b1561124d577f00000000000000000000000000000000000000000000000000000000000000006001600160a01b031663f2be94ae8f8f8681811061112f5761112f612423565b9050013560f81c60f81b60f81c8e8960200151858151811061115357611153612423565b60200260200101518f60e00151888151811061117157611171612423565b6020026020010151878151811061118a5761118a612423565b60209081029190910101516040516001600160e01b031960e087901b16815260ff909416600485015263ffffffff92831660248501526044840191909152166064820152608401602060405180830381865afa1580156111ee573d6000803e3d6000fd5b505050506040513d601f19601f820116820180604052508101906112129190612574565b875180518590811061122657611226612423565b6020026020010181815161123a919061259d565b6001600160601b03169052506001909101905b80611257816124fd565b915050611095565b5050808061126c906124fd565b915050610bfb565b50505060008061128e8c868a606001518b608001516101c3565b91509150816112ff5760405162461bcd60e51b8152602060048201526043602482015260008051602061266f83398151915260448201527f7265733a2070616972696e6720707265636f6d70696c652063616c6c206661696064820152621b195960ea1b608482015260a401610477565b806113605760405162461bcd60e51b8152602060048201526039602482015260008051602061266f83398151915260448201527f7265733a207369676e617475726520697320696e76616c6964000000000000006064820152608401610477565b5050600087826020015160405160200161137b9291906125c5565b60408051808303601f190181529190528051602090910120929b929a509198505050505050505050565b60408051808201909152600080825260208201526113c1611d7f565b835181526020808501519082015260408082018490526000908360608460076107d05a03fa90508080156113f4576113f6565bfe5b50806114345760405162461bcd60e51b815260206004820152600d60248201526c1958cb5b5d5b0b59985a5b1959609a1b6044820152606401610477565b505092915050565b6040805180820190915260008082526020820152611458611d9d565b835181526020808501518183015283516040808401919091529084015160608301526000908360808460066107d05a03fa90508080156113f45750806114345760405162461bcd60e51b815260206004820152600d60248201526c1958cb5859190b59985a5b1959609a1b6044820152606401610477565b6114d8611dbb565b50604080516080810182527f198e9393920d483a7260bfb731fb5d25f1aa493335a9e71297e485b7aef312c28183019081527f1800deef121f1e76426a00665e5c4479674322d4f75edadd46debd5cd992f6ed6060830152815281518083019092527f275dc4a288d1afb3cbb1ac09187524c7db36395df7be3b99e673b13a075a65ec82527f1d9befcd05a5323e6da4d435f3b617cdb3af83285c2df711ef39c01571827f9d60208381019190915281019190915290565b6040805180820190915260008082526020820152600080806115c060008051602061264f83398151915286612439565b90505b6115cc81611ac8565b909350915060008051602061264f833981519152828309831415611606576040805180820190915290815260208101919091529392505050565b60008051602061264f8339815191526001820890506115c3565b604080518082018252868152602080820186905282518084019093528683528201849052600091829190611652611de0565b60005b600281101561181757600061166b82600661260d565b905084826002811061167f5761167f612423565b60200201515183611691836000612531565b600c81106116a1576116a1612423565b60200201528482600281106116b8576116b8612423565b602002015160200151838260016116cf9190612531565b600c81106116df576116df612423565b60200201528382600281106116f6576116f6612423565b6020020151515183611709836002612531565b600c811061171957611719612423565b602002015283826002811061173057611730612423565b6020020151516001602002015183611749836003612531565b600c811061175957611759612423565b602002015283826002811061177057611770612423565b60200201516020015160006002811061178b5761178b612423565b60200201518361179c836004612531565b600c81106117ac576117ac612423565b60200201528382600281106117c3576117c3612423565b6020020151602001516001600281106117de576117de612423565b6020020151836117ef836005612531565b600c81106117ff576117ff612423565b6020020152508061180f816124fd565b915050611655565b50611820611dff565b60006020826101808560088cfa9151919c9115159b50909950505050505050505050565b6000805460ff19168215159081179091556040519081527f40e4ed880a29e0f6ddce307457fb75cddf4feef7d3ecb0301bfdf4976a0e2dfc9060200160405180910390a150565b60008061189784611b4a565b9050808360ff166001901b116119155760405162461bcd60e51b815260206004820152603f60248201527f4269746d61705574696c732e6f72646572656442797465734172726179546f4260448201527f69746d61703a206269746d61702065786365656473206d61782076616c7565006064820152608401610477565b90505b92915050565b6000805b8215611918576119336001846124bd565b90921691806119418161262c565b915050611922565b60408051808201909152600080825260208201526102008261ffff16106119a55760405162461bcd60e51b815260206004820152601060248201526f7363616c61722d746f6f2d6c6172676560801b6044820152606401610477565b8161ffff16600114156119b9575081611918565b6040805180820190915260008082526020820181905284906001905b8161ffff168661ffff1610611a2257600161ffff871660ff83161c81161415611a0557611a02848461143c565b93505b611a0f838461143c565b92506201fffe600192831b1691016119d5565b509195945050505050565b60408051808201909152600080825260208201528151158015611a5257506020820151155b15611a70575050604080518082019091526000808252602082015290565b60405180604001604052808360000151815260200160008051602061264f8339815191528460200151611aa39190612439565b611abb9060008051602061264f8339815191526124bd565b905292915050565b919050565b6000808060008051602061264f833981519152600360008051602061264f8339815191528660008051602061264f833981519152888909090890506000611b3e827f0c19139cb84c680a6e14116da060561765e05aa45a1c72a34f082305b61f3f5260008051602061264f833981519152611cd7565b91959194509092505050565b600061010082511115611bd35760405162461bcd60e51b8152602060048201526044602482018190527f4269746d61705574696c732e6f72646572656442797465734172726179546f42908201527f69746d61703a206f7264657265644279746573417272617920697320746f6f206064820152636c6f6e6760e01b608482015260a401610477565b8151611be157506000919050565b60008083600081518110611bf757611bf7612423565b0160200151600160f89190911c81901b92505b8451811015611cce57848181518110611c2557611c25612423565b0160200151600160f89190911c1b9150828211611cba5760405162461bcd60e51b815260206004820152604760248201527f4269746d61705574696c732e6f72646572656442797465734172726179546f4260448201527f69746d61703a206f72646572656442797465734172726179206973206e6f74206064820152661bdc99195c995960ca1b608482015260a401610477565b91811791611cc7816124fd565b9050611c0a565b50909392505050565b600080611ce2611dff565b611cea611e1d565b602080825281810181905260408201819052606082018890526080820187905260a082018690528260c08360056107d05a03fa92508280156113f4575082611d745760405162461bcd60e51b815260206004820152601a60248201527f424e3235342e6578704d6f643a2063616c6c206661696c7572650000000000006044820152606401610477565b505195945050505050565b60405180606001604052806003906020820280368337509192915050565b60405180608001604052806004906020820280368337509192915050565b6040518060400160405280611dce611e3b565b8152602001611ddb611e3b565b905290565b604051806101800160405280600c906020820280368337509192915050565b60405180602001604052806001906020820280368337509192915050565b6040518060c001604052806006906020820280368337509192915050565b60405180604001604052806002906020820280368337509192915050565b634e487b7160e01b600052604160045260246000fd5b604080519081016001600160401b0381118282101715611e9157611e91611e59565b60405290565b60405161010081016001600160401b0381118282101715611e9157611e91611e59565b604051601f8201601f191681016001600160401b0381118282101715611ee257611ee2611e59565b604052919050565b600060408284031215611efc57600080fd5b611f04611e6f565b9050813581526020820135602082015292915050565b600082601f830112611f2b57600080fd5b604051604081018181106001600160401b0382111715611f4d57611f4d611e59565b8060405250806040840185811115611f6457600080fd5b845b81811015611a22578035835260209283019201611f66565b600060808284031215611f9057600080fd5b611f98611e6f565b9050611fa48383611f1a565b8152611fb38360408401611f1a565b602082015292915050565b6000806000806101208587031215611fd557600080fd5b84359350611fe68660208701611eea565b9250611ff58660608701611f7e565b91506120048660e08701611eea565b905092959194509250565b60006020828403121561202157600080fd5b8135801515811461191557600080fd5b803563ffffffff81168114611ac357600080fd5b60006001600160401b0382111561205e5761205e611e59565b5060051b60200190565b600082601f83011261207957600080fd5b8135602061208e61208983612045565b611eba565b82815260059290921b840181019181810190868411156120ad57600080fd5b8286015b848110156120cf576120c281612031565b83529183019183016120b1565b509695505050505050565b600082601f8301126120eb57600080fd5b813560206120fb61208983612045565b82815260069290921b8401810191818101908684111561211a57600080fd5b8286015b848110156120cf576121308882611eea565b83529183019160400161211e565b600082601f83011261214f57600080fd5b8135602061215f61208983612045565b82815260059290921b8401810191818101908684111561217e57600080fd5b8286015b848110156120cf5780356001600160401b038111156121a15760008081fd5b6121af8986838b0101612068565b845250918301918301612182565b600061018082840312156121d057600080fd5b6121d8611e97565b905081356001600160401b03808211156121f157600080fd5b6121fd85838601612068565b8352602084013591508082111561221357600080fd5b61221f858386016120da565b6020840152604084013591508082111561223857600080fd5b612244858386016120da565b60408401526122568560608601611f7e565b60608401526122688560e08601611eea565b608084015261012084013591508082111561228257600080fd5b61228e85838601612068565b60a08401526101408401359150808211156122a857600080fd5b6122b485838601612068565b60c08401526101608401359150808211156122ce57600080fd5b506122db8482850161213e565b60e08301525092915050565b6000806000806000608086880312156122ff57600080fd5b8535945060208601356001600160401b038082111561231d57600080fd5b818801915088601f83011261233157600080fd5b81358181111561234057600080fd5b89602082850101111561235257600080fd5b602083019650945061236660408901612031565b9350606088013591508082111561237c57600080fd5b50612389888289016121bd565b9150509295509295909350565b600081518084526020808501945080840160005b838110156123cf5781516001600160601b0316875295820195908201906001016123aa565b509495945050505050565b60408152600083516040808401526123f56080840182612396565b90506020850151603f198483030160608501526124128282612396565b925050508260208301529392505050565b634e487b7160e01b600052603260045260246000fd5b60008261245657634e487b7160e01b600052601260045260246000fd5b500690565b60006020828403121561246d57600080fd5b81516001600160a01b038116811461191557600080fd5b60006020828403121561249657600080fd5b815160ff8116811461191557600080fd5b634e487b7160e01b600052601160045260246000fd5b6000828210156124cf576124cf6124a7565b500390565b6000602082840312156124e657600080fd5b81516001600160c01b038116811461191557600080fd5b6000600019821415612511576125116124a7565b5060010190565b60006020828403121561252a57600080fd5b5051919050565b60008219821115612544576125446124a7565b500190565b60006020828403121561255b57600080fd5b815167ffffffffffffffff198116811461191557600080fd5b60006020828403121561258657600080fd5b81516001600160601b038116811461191557600080fd5b60006001600160601b03838116908316818110156125bd576125bd6124a7565b039392505050565b63ffffffff60e01b8360e01b1681526000600482018351602080860160005b83811015612600578151855293820193908201906001016125e4565b5092979650505050505050565b6000816000190483118215151615612627576126276124a7565b500290565b600061ffff80831681811415612644576126446124a7565b600101939250505056fe30644e72e131a029b85045b68181585d97816a916871ca8d3c208c16d87cfd47424c535369676e6174757265436865636b65722e636865636b5369676e617475a26469706673582212201274bad1b8b6b559f6e45669103493f6cfbf0881b6c16a5cda6fcaeb673e49c964736f6c634300080c0033","linkReferences":{}},"methodIdentifiers":{"blsApkRegistry()":"5df45946","checkSignatures(bytes32,bytes,uint32,(uint32[],(uint256,uint256)[],(uint256,uint256)[],(uint256[2],uint256[2]),(uint256,uint256),uint32[],uint32[],uint32[][]))":"6efb4636","delegation()":"df5cf723","registryCoordinator()":"6d14a987","setStaleStakesForbidden(bool)":"416c7e5e","stakeRegistry()":"68304835","staleStakesForbidden()":"b98d0908","trySignatureAndApkVerification(bytes32,(uint256,uint256),(uint256[2],uint256[2]),(uint256,uint256))":"171f1d5b"},"id":110}