{"abi":[{"type":"constructor","inputs":[],"stateMutability":"nonpayable"},{"type":"function","name":"initialize","inputs":[{"name":"_whitelister","type":"address","internalType":"address"}],"outputs":[],"stateMutability":"nonpayable"},{"type":"function","name":"isWhitelistedOperator","inputs":[{"name":"operator","type":"address","internalType":"address"}],"outputs":[{"name":"","type":"bytes32","internalType":"bytes32"}],"stateMutability":"view"},{"type":"function","name":"isWhitelistedSeeker","inputs":[{"name":"seeker","type":"address","internalType":"address"}],"outputs":[{"name":"","type":"bool","internalType":"bool"}],"stateMutability":"view"},{"type":"function","name":"operators","inputs":[{"name":"","type":"address","internalType":"address"}],"outputs":[{"name":"","type":"bytes32","internalType":"bytes32"}],"stateMutability":"view"},{"type":"function","name":"owner","inputs":[],"outputs":[{"name":"","type":"address","internalType":"address"}],"stateMutability":"view"},{"type":"function","name":"renounceOwnership","inputs":[],"outputs":[],"stateMutability":"nonpayable"},{"type":"function","name":"seekers","inputs":[{"name":"","type":"address","internalType":"address"}],"outputs":[{"name":"","type":"bool","internalType":"bool"}],"stateMutability":"view"},{"type":"function","name":"transferOwnership","inputs":[{"name":"newOwner","type":"address","internalType":"address"}],"outputs":[],"stateMutability":"nonpayable"},{"type":"function","name":"whitelistOperator","inputs":[{"name":"operator","type":"address","internalType":"address"},{"name":"_hash","type":"bytes32","internalType":"bytes32"}],"outputs":[],"stateMutability":"nonpayable"},{"type":"function","name":"whitelistSeeker","inputs":[{"name":"seeker","type":"address","internalType":"address"}],"outputs":[],"stateMutability":"nonpayable"},{"type":"function","name":"whitelister","inputs":[],"outputs":[{"name":"","type":"address","internalType":"address"}],"stateMutability":"view"},{"type":"event","name":"Initialized","inputs":[{"name":"version","type":"uint8","indexed":false,"internalType":"uint8"}],"anonymous":false},{"type":"event","name":"OwnershipTransferred","inputs":[{"name":"previousOwner","type":"address","indexed":true,"internalType":"address"},{"name":"newOwner","type":"address","indexed":true,"internalType":"address"}],"anonymous":false}],"bytecode":{"object":"0x608060405234801561001057600080fd5b506105f0806100206000396000f3fe608060405234801561001057600080fd5b50600436106100a95760003560e01c8063491a5af311610071578063491a5af314610186578063715018a6146101a95780638da5cb5b146101b15780638f0677ed146101c2578063c4d66de8146101d5578063f2fde38b146101e857600080fd5b80631399625f146100ae57806313e7c9d8146100ea57806322758a4a1461010a5780632e43651e146101355780633e6d953a1461014a575b600080fd5b6100d76100bc36600461056e565b6001600160a01b031660009081526066602052604090205490565b6040519081526020015b60405180910390f35b6100d76100f836600461056e565b60666020526000908152604090205481565b60655461011d906001600160a01b031681565b6040516001600160a01b0390911681526020016100e1565b610148610143366004610590565b6101fb565b005b61017661015836600461056e565b6001600160a01b031660009081526067602052604090205460ff1690565b60405190151581526020016100e1565b61017661019436600461056e565b60676020526000908152604090205460ff1681565b610148610276565b6033546001600160a01b031661011d565b6101486101d036600461056e565b61028a565b6101486101e336600461056e565b610308565b6101486101f636600461056e565b61042d565b6065546001600160a01b0316331461025a5760405162461bcd60e51b815260206004820152601e60248201527f4f6e6c792077686974656c69737465722063616e2077686974656c697374000060448201526064015b60405180910390fd5b6001600160a01b03909116600090815260666020526040902055565b61027e6104a6565b6102886000610500565b565b6065546001600160a01b031633146102e45760405162461bcd60e51b815260206004820152601e60248201527f4f6e6c792077686974656c69737465722063616e2077686974656c69737400006044820152606401610251565b6001600160a01b03166000908152606760205260409020805460ff19166001179055565b600054610100900460ff16158080156103285750600054600160ff909116105b806103425750303b158015610342575060005460ff166001145b6103a55760405162461bcd60e51b815260206004820152602e60248201527f496e697469616c697a61626c653a20636f6e747261637420697320616c72656160448201526d191e481a5b9a5d1a585b1a5e995960921b6064820152608401610251565b6000805460ff1916600117905580156103c8576000805461ff0019166101001790555b606580546001600160a01b0319166001600160a01b0384161790558015610429576000805461ff0019169055604051600181527f7f26b83ff96e1f2b6a682f133852f6798a09c465da95921460cefb38474024989060200160405180910390a15b5050565b6104356104a6565b6001600160a01b03811661049a5760405162461bcd60e51b815260206004820152602660248201527f4f776e61626c653a206e6577206f776e657220697320746865207a65726f206160448201526564647265737360d01b6064820152608401610251565b6104a381610500565b50565b6033546001600160a01b031633146102885760405162461bcd60e51b815260206004820181905260248201527f4f776e61626c653a2063616c6c6572206973206e6f7420746865206f776e65726044820152606401610251565b603380546001600160a01b038381166001600160a01b0319831681179093556040519116919082907f8be0079c531659141344cd1fd0a4f28419497f9722a3daafe3b4186f6b6457e090600090a35050565b80356001600160a01b038116811461056957600080fd5b919050565b60006020828403121561058057600080fd5b61058982610552565b9392505050565b600080604083850312156105a357600080fd5b6105ac83610552565b94602093909301359350505056fea264697066735822122029cd67b4675b9af15abad76a38ce9a4fc4a8748a5bd58fffac734cd3cf2b88eb64736f6c634300080c0033","linkReferences":{}},"methodIdentifiers":{"initialize(address)":"c4d66de8","isWhitelistedOperator(address)":"1399625f","isWhitelistedSeeker(address)":"3e6d953a","operators(address)":"13e7c9d8","owner()":"8da5cb5b","renounceOwnership()":"715018a6","seekers(address)":"491a5af3","transferOwnership(address)":"f2fde38b","whitelistOperator(address,bytes32)":"2e43651e","whitelistSeeker(address)":"8f0677ed","whitelister()":"22758a4a"},"id":165}