{"abi":[{"type":"constructor","inputs":[{"name":"_registryCoordinator","type":"address","internalType":"contract IRegistryCoordinator"},{"name":"_disputeResponseWindowBlock","type":"uint32","internalType":"uint32"}],"stateMutability":"nonpayable"},{"type":"function","name":"TASK_CHALLENGE_WINDOW_BLOCK","inputs":[],"outputs":[{"name":"","type":"uint32","internalType":"uint32"}],"stateMutability":"view"},{"type":"function","name":"TASK_RESPONSE_WINDOW_BLOCK","inputs":[],"outputs":[{"name":"","type":"uint32","internalType":"uint32"}],"stateMutability":"view"},{"type":"function","name":"aggregator","inputs":[],"outputs":[{"name":"","type":"address","internalType":"address"}],"stateMutability":"view"},{"type":"function","name":"allDisputeHashes","inputs":[{"name":"","type":"uint32","internalType":"uint32"}],"outputs":[{"name":"","type":"bytes32","internalType":"bytes32"}],"stateMutability":"view"},{"type":"function","name":"allDisputeResponses","inputs":[{"name":"","type":"uint32","internalType":"uint32"}],"outputs":[{"name":"","type":"bytes32","internalType":"bytes32"}],"stateMutability":"view"},{"type":"function","name":"blsApkRegistry","inputs":[],"outputs":[{"name":"","type":"address","internalType":"contract IBLSApkRegistry"}],"stateMutability":"view"},{"type":"function","name":"checkSignatures","inputs":[{"name":"msgHash","type":"bytes32","internalType":"bytes32"},{"name":"quorumNumbers","type":"bytes","internalType":"bytes"},{"name":"referenceBlockNumber","type":"uint32","internalType":"uint32"},{"name":"params","type":"tuple","internalType":"struct IBLSSignatureChecker.NonSignerStakesAndSignature","components":[{"name":"nonSignerQuorumBitmapIndices","type":"uint32[]","internalType":"uint32[]"},{"name":"nonSignerPubkeys","type":"tuple[]","internalType":"struct BN254.G1Point[]","components":[{"name":"X","type":"uint256","internalType":"uint256"},{"name":"Y","type":"uint256","internalType":"uint256"}]},{"name":"quorumApks","type":"tuple[]","internalType":"struct BN254.G1Point[]","components":[{"name":"X","type":"uint256","internalType":"uint256"},{"name":"Y","type":"uint256","internalType":"uint256"}]},{"name":"apkG2","type":"tuple","internalType":"struct BN254.G2Point","components":[{"name":"X","type":"uint256[2]","internalType":"uint256[2]"},{"name":"Y","type":"uint256[2]","internalType":"uint256[2]"}]},{"name":"sigma","type":"tuple","internalType":"struct BN254.G1Point","components":[{"name":"X","type":"uint256","internalType":"uint256"},{"name":"Y","type":"uint256","internalType":"uint256"}]},{"name":"quorumApkIndices","type":"uint32[]","internalType":"uint32[]"},{"name":"totalStakeIndices","type":"uint32[]","internalType":"uint32[]"},{"name":"nonSignerStakeIndices","type":"uint32[][]","internalType":"uint32[][]"}]}],"outputs":[{"name":"","type":"tuple","internalType":"struct IBLSSignatureChecker.QuorumStakeTotals","components":[{"name":"signedStakeForQuorum","type":"uint96[]","internalType":"uint96[]"},{"name":"totalStakeForQuorum","type":"uint96[]","internalType":"uint96[]"}]},{"name":"","type":"bytes32","internalType":"bytes32"}],"stateMutability":"view"},{"type":"function","name":"createNewDispute","inputs":[{"name":"numberToBeSquared","type":"uint256","internalType":"uint256"},{"name":"quorumThresholdPercentage","type":"uint32","internalType":"uint32"},{"name":"quorumNumbers","type":"bytes","internalType":"bytes"}],"outputs":[],"stateMutability":"nonpayable"},{"type":"function","name":"delegation","inputs":[],"outputs":[{"name":"","type":"address","internalType":"contract IDelegationManager"}],"stateMutability":"view"},{"type":"function","name":"disputeNumber","inputs":[],"outputs":[{"name":"","type":"uint32","internalType":"uint32"}],"stateMutability":"view"},{"type":"function","name":"disputeSuccesfullyChallenged","inputs":[{"name":"","type":"uint32","internalType":"uint32"}],"outputs":[{"name":"","type":"bool","internalType":"bool"}],"stateMutability":"view"},{"type":"function","name":"fermahOperators","inputs":[{"name":"","type":"uint256","internalType":"uint256"}],"outputs":[{"name":"","type":"address","internalType":"address"}],"stateMutability":"view"},{"type":"function","name":"generator","inputs":[],"outputs":[{"name":"","type":"address","internalType":"address"}],"stateMutability":"view"},{"type":"function","name":"getBatchOperatorFromId","inputs":[{"name":"registryCoordinator","type":"address","internalType":"contract IRegistryCoordinator"},{"name":"operatorIds","type":"bytes32[]","internalType":"bytes32[]"}],"outputs":[{"name":"operators","type":"address[]","internalType":"address[]"}],"stateMutability":"view"},{"type":"function","name":"getBatchOperatorId","inputs":[{"name":"registryCoordinator","type":"address","internalType":"contract IRegistryCoordinator"},{"name":"operators","type":"address[]","internalType":"address[]"}],"outputs":[{"name":"operatorIds","type":"bytes32[]","internalType":"bytes32[]"}],"stateMutability":"view"},{"type":"function","name":"getCheckSignaturesIndices","inputs":[{"name":"registryCoordinator","type":"address","internalType":"contract IRegistryCoordinator"},{"name":"referenceBlockNumber","type":"uint32","internalType":"uint32"},{"name":"quorumNumbers","type":"bytes","internalType":"bytes"},{"name":"nonSignerOperatorIds","type":"bytes32[]","internalType":"bytes32[]"}],"outputs":[{"name":"","type":"tuple","internalType":"struct OperatorStateRetriever.CheckSignaturesIndices","components":[{"name":"nonSignerQuorumBitmapIndices","type":"uint32[]","internalType":"uint32[]"},{"name":"quorumApkIndices","type":"uint32[]","internalType":"uint32[]"},{"name":"totalStakeIndices","type":"uint32[]","internalType":"uint32[]"},{"name":"nonSignerStakeIndices","type":"uint32[][]","internalType":"uint32[][]"}]}],"stateMutability":"view"},{"type":"function","name":"getDisputeResponseWindowBlock","inputs":[],"outputs":[{"name":"","type":"uint32","internalType":"uint32"}],"stateMutability":"view"},{"type":"function","name":"getOperatorState","inputs":[{"name":"registryCoordinator","type":"address","internalType":"contract IRegistryCoordinator"},{"name":"quorumNumbers","type":"bytes","internalType":"bytes"},{"name":"blockNumber","type":"uint32","internalType":"uint32"}],"outputs":[{"name":"","type":"tuple[][]","internalType":"struct OperatorStateRetriever.Operator[][]","components":[{"name":"operator","type":"address","internalType":"address"},{"name":"operatorId","type":"bytes32","internalType":"bytes32"},{"name":"stake","type":"uint96","internalType":"uint96"}]}],"stateMutability":"view"},{"type":"function","name":"getOperatorState","inputs":[{"name":"registryCoordinator","type":"address","internalType":"contract IRegistryCoordinator"},{"name":"operatorId","type":"bytes32","internalType":"bytes32"},{"name":"blockNumber","type":"uint32","internalType":"uint32"}],"outputs":[{"name":"","type":"uint256","internalType":"uint256"},{"name":"","type":"tuple[][]","internalType":"struct OperatorStateRetriever.Operator[][]","components":[{"name":"operator","type":"address","internalType":"address"},{"name":"operatorId","type":"bytes32","internalType":"bytes32"},{"name":"stake","type":"uint96","internalType":"uint96"}]}],"stateMutability":"view"},{"type":"function","name":"getQuorumBitmapsAtBlockNumber","inputs":[{"name":"registryCoordinator","type":"address","internalType":"contract IRegistryCoordinator"},{"name":"operatorIds","type":"bytes32[]","internalType":"bytes32[]"},{"name":"blockNumber","type":"uint32","internalType":"uint32"}],"outputs":[{"name":"","type":"uint256[]","internalType":"uint256[]"}],"stateMutability":"view"},{"type":"function","name":"initialize","inputs":[{"name":"_pauserRegistry","type":"address","internalType":"contract IPauserRegistry"},{"name":"initialOwner","type":"address","internalType":"address"},{"name":"_aggregator","type":"address","internalType":"address"},{"name":"_generator","type":"address","internalType":"address"}],"outputs":[],"stateMutability":"nonpayable"},{"type":"function","name":"latestDisputeNum","inputs":[],"outputs":[{"name":"","type":"uint32","internalType":"uint32"}],"stateMutability":"view"},{"type":"function","name":"owner","inputs":[],"outputs":[{"name":"","type":"address","internalType":"address"}],"stateMutability":"view"},{"type":"function","name":"pause","inputs":[{"name":"newPausedStatus","type":"uint256","internalType":"uint256"}],"outputs":[],"stateMutability":"nonpayable"},{"type":"function","name":"pauseAll","inputs":[],"outputs":[],"stateMutability":"nonpayable"},{"type":"function","name":"paused","inputs":[{"name":"index","type":"uint8","internalType":"uint8"}],"outputs":[{"name":"","type":"bool","internalType":"bool"}],"stateMutability":"view"},{"type":"function","name":"paused","inputs":[],"outputs":[{"name":"","type":"uint256","internalType":"uint256"}],"stateMutability":"view"},{"type":"function","name":"pauserRegistry","inputs":[],"outputs":[{"name":"","type":"address","internalType":"contract IPauserRegistry"}],"stateMutability":"view"},{"type":"function","name":"raiseAndResolveChallenge","inputs":[{"name":"dispute","type":"tuple","internalType":"struct IDisputeManager.Dispute","components":[{"name":"numberToBeSquared","type":"uint256","internalType":"uint256"},{"name":"disputeCreatedBlock","type":"uint32","internalType":"uint32"},{"name":"quorumNumbers","type":"bytes","internalType":"bytes"},{"name":"quorumThresholdPercentage","type":"uint32","internalType":"uint32"}]},{"name":"disputeResponse","type":"tuple","internalType":"struct IDisputeManager.DisputeResponse","components":[{"name":"referenceDisputeIndex","type":"uint32","internalType":"uint32"},{"name":"numberSquared","type":"uint256","internalType":"uint256"}]},{"name":"disputeResponseMetadata","type":"tuple","internalType":"struct IDisputeManager.DisputeResponseMetadata","components":[{"name":"disputeResponsedBlock","type":"uint32","internalType":"uint32"},{"name":"hashOfNonSigners","type":"bytes32","internalType":"bytes32"}]},{"name":"pubkeysOfNonSigningOperators","type":"tuple[]","internalType":"struct BN254.G1Point[]","components":[{"name":"X","type":"uint256","internalType":"uint256"},{"name":"Y","type":"uint256","internalType":"uint256"}]}],"outputs":[],"stateMutability":"nonpayable"},{"type":"function","name":"registryCoordinator","inputs":[],"outputs":[{"name":"","type":"address","internalType":"contract IRegistryCoordinator"}],"stateMutability":"view"},{"type":"function","name":"renounceOwnership","inputs":[],"outputs":[],"stateMutability":"nonpayable"},{"type":"function","name":"respondToDispute","inputs":[{"name":"dispute","type":"tuple","internalType":"struct IDisputeManager.Dispute","components":[{"name":"numberToBeSquared","type":"uint256","internalType":"uint256"},{"name":"disputeCreatedBlock","type":"uint32","internalType":"uint32"},{"name":"quorumNumbers","type":"bytes","internalType":"bytes"},{"name":"quorumThresholdPercentage","type":"uint32","internalType":"uint32"}]},{"name":"disputeResponse","type":"tuple","internalType":"struct IDisputeManager.DisputeResponse","components":[{"name":"referenceDisputeIndex","type":"uint32","internalType":"uint32"},{"name":"numberSquared","type":"uint256","internalType":"uint256"}]},{"name":"nonSignerStakesAndSignature","type":"tuple","internalType":"struct IBLSSignatureChecker.NonSignerStakesAndSignature","components":[{"name":"nonSignerQuorumBitmapIndices","type":"uint32[]","internalType":"uint32[]"},{"name":"nonSignerPubkeys","type":"tuple[]","internalType":"struct BN254.G1Point[]","components":[{"name":"X","type":"uint256","internalType":"uint256"},{"name":"Y","type":"uint256","internalType":"uint256"}]},{"name":"quorumApks","type":"tuple[]","internalType":"struct BN254.G1Point[]","components":[{"name":"X","type":"uint256","internalType":"uint256"},{"name":"Y","type":"uint256","internalType":"uint256"}]},{"name":"apkG2","type":"tuple","internalType":"struct BN254.G2Point","components":[{"name":"X","type":"uint256[2]","internalType":"uint256[2]"},{"name":"Y","type":"uint256[2]","internalType":"uint256[2]"}]},{"name":"sigma","type":"tuple","internalType":"struct BN254.G1Point","components":[{"name":"X","type":"uint256","internalType":"uint256"},{"name":"Y","type":"uint256","internalType":"uint256"}]},{"name":"quorumApkIndices","type":"uint32[]","internalType":"uint32[]"},{"name":"totalStakeIndices","type":"uint32[]","internalType":"uint32[]"},{"name":"nonSignerStakeIndices","type":"uint32[][]","internalType":"uint32[][]"}]}],"outputs":[],"stateMutability":"nonpayable"},{"type":"function","name":"setPauserRegistry","inputs":[{"name":"newPauserRegistry","type":"address","internalType":"contract IPauserRegistry"}],"outputs":[],"stateMutability":"nonpayable"},{"type":"function","name":"setStaleStakesForbidden","inputs":[{"name":"value","type":"bool","internalType":"bool"}],"outputs":[],"stateMutability":"nonpayable"},{"type":"function","name":"stakeRegistry","inputs":[],"outputs":[{"name":"","type":"address","internalType":"contract IStakeRegistry"}],"stateMutability":"view"},{"type":"function","name":"staleStakesForbidden","inputs":[],"outputs":[{"name":"","type":"bool","internalType":"bool"}],"stateMutability":"view"},{"type":"function","name":"transferOwnership","inputs":[{"name":"newOwner","type":"address","internalType":"address"}],"outputs":[],"stateMutability":"nonpayable"},{"type":"function","name":"trySignatureAndApkVerification","inputs":[{"name":"msgHash","type":"bytes32","internalType":"bytes32"},{"name":"apk","type":"tuple","internalType":"struct BN254.G1Point","components":[{"name":"X","type":"uint256","internalType":"uint256"},{"name":"Y","type":"uint256","internalType":"uint256"}]},{"name":"apkG2","type":"tuple","internalType":"struct BN254.G2Point","components":[{"name":"X","type":"uint256[2]","internalType":"uint256[2]"},{"name":"Y","type":"uint256[2]","internalType":"uint256[2]"}]},{"name":"sigma","type":"tuple","internalType":"struct BN254.G1Point","components":[{"name":"X","type":"uint256","internalType":"uint256"},{"name":"Y","type":"uint256","internalType":"uint256"}]}],"outputs":[{"name":"pairingSuccessful","type":"bool","internalType":"bool"},{"name":"siganatureIsValid","type":"bool","internalType":"bool"}],"stateMutability":"view"},{"type":"function","name":"unpause","inputs":[{"name":"newPausedStatus","type":"uint256","internalType":"uint256"}],"outputs":[],"stateMutability":"nonpayable"},{"type":"event","name":"DisputeChallengedSuccessfully","inputs":[{"name":"disputeIndex","type":"uint32","indexed":true,"internalType":"uint32"},{"name":"challenger","type":"address","indexed":true,"internalType":"address"}],"anonymous":false},{"type":"event","name":"DisputeChallengedUnsuccessfully","inputs":[{"name":"disputeIndex","type":"uint32","indexed":true,"internalType":"uint32"},{"name":"challenger","type":"address","indexed":true,"internalType":"address"}],"anonymous":false},{"type":"event","name":"DisputeCompleted","inputs":[{"name":"disputeIndex","type":"uint32","indexed":true,"internalType":"uint32"}],"anonymous":false},{"type":"event","name":"DisputeResponded","inputs":[{"name":"disputeResponse","type":"tuple","indexed":false,"internalType":"struct IDisputeManager.DisputeResponse","components":[{"name":"referenceDisputeIndex","type":"uint32","internalType":"uint32"},{"name":"numberSquared","type":"uint256","internalType":"uint256"}]},{"name":"disputeResponseMetadata","type":"tuple","indexed":false,"internalType":"struct IDisputeManager.DisputeResponseMetadata","components":[{"name":"disputeResponsedBlock","type":"uint32","internalType":"uint32"},{"name":"hashOfNonSigners","type":"bytes32","internalType":"bytes32"}]}],"anonymous":false},{"type":"event","name":"Initialized","inputs":[{"name":"version","type":"uint8","indexed":false,"internalType":"uint8"}],"anonymous":false},{"type":"event","name":"NewDisputeCreated","inputs":[{"name":"disputeIndex","type":"uint32","indexed":true,"internalType":"uint32"},{"name":"dispute","type":"tuple","indexed":false,"internalType":"struct IDisputeManager.Dispute","components":[{"name":"numberToBeSquared","type":"uint256","internalType":"uint256"},{"name":"disputeCreatedBlock","type":"uint32","internalType":"uint32"},{"name":"quorumNumbers","type":"bytes","internalType":"bytes"},{"name":"quorumThresholdPercentage","type":"uint32","internalType":"uint32"}]}],"anonymous":false},{"type":"event","name":"OwnershipTransferred","inputs":[{"name":"previousOwner","type":"address","indexed":true,"internalType":"address"},{"name":"newOwner","type":"address","indexed":true,"internalType":"address"}],"anonymous":false},{"type":"event","name":"Paused","inputs":[{"name":"account","type":"address","indexed":true,"internalType":"address"},{"name":"newPausedStatus","type":"uint256","indexed":false,"internalType":"uint256"}],"anonymous":false},{"type":"event","name":"PauserRegistrySet","inputs":[{"name":"pauserRegistry","type":"address","indexed":false,"internalType":"contract IPauserRegistry"},{"name":"newPauserRegistry","type":"address","indexed":false,"internalType":"contract IPauserRegistry"}],"anonymous":false},{"type":"event","name":"StaleStakesForbiddenUpdate","inputs":[{"name":"value","type":"bool","indexed":false,"internalType":"bool"}],"anonymous":false},{"type":"event","name":"Unpaused","inputs":[{"name":"account","type":"address","indexed":true,"internalType":"address"},{"name":"newPausedStatus","type":"uint256","indexed":false,"internalType":"uint256"}],"anonymous":false}],"bytecode":{"object":"0x6101206040523480156200001257600080fd5b50604051620062c5380380620062c58339810160408190526200003591620001ea565b81806001600160a01b03166080816001600160a01b031681525050806001600160a01b031663683048356040518163ffffffff1660e01b8152600401602060405180830381865afa1580156200008f573d6000803e3d6000fd5b505050506040513d601f19601f82011682018060405250810190620000b5919062000231565b6001600160a01b031660a0816001600160a01b031681525050806001600160a01b0316635df459466040518163ffffffff1660e01b8152600401602060405180830381865afa1580156200010d573d6000803e3d6000fd5b505050506040513d601f19601f8201168201806040525081019062000133919062000231565b6001600160a01b031660c0816001600160a01b03168152505060a0516001600160a01b031663df5cf7236040518163ffffffff1660e01b8152600401602060405180830381865afa1580156200018d573d6000803e3d6000fd5b505050506040513d601f19601f82011682018060405250810190620001b3919062000231565b6001600160a01b031660e0525063ffffffff16610100525062000258565b6001600160a01b0381168114620001e757600080fd5b50565b60008060408385031215620001fe57600080fd5b82516200020b81620001d1565b602084015190925063ffffffff811681146200022657600080fd5b809150509250929050565b6000602082840312156200024457600080fd5b81516200025181620001d1565b9392505050565b60805160a05160c05160e05161010051615fdb620002ea600039600081816102cc015281816105fd01526135aa0152600081816105c601526129df01526000818161046f015281816121dd0152612bc101526000818161049601528181612d970152612f590152600081816104d00152818161113e015281816126c9015281816128420152612a7c0152615fdb6000f3fe608060405234801561001057600080fd5b506004361061023d5760003560e01c8063683048351161013b578063c9ba3907116100b8578063ec50a2ef1161007c578063ec50a2ef146105fb578063f2fde38b14610621578063f63c5bab14610634578063f8c8765e1461063c578063fabc1cbc1461064f57600080fd5b8063c9ba39071461057f578063cefdc1d41461058d578063d5ad886d146105ae578063df5cf723146105c1578063eba4e01e146105e857600080fd5b80637afa1eed116100ff5780637afa1eed1461051b578063886f11951461052e5780638da5cb5b14610541578063914eea1b14610552578063b98d09081461057257600080fd5b806368304835146104915780636b532e9e146104b85780636d14a987146104cb5780636efb4636146104f2578063715018a61461051357600080fd5b80633563b0d1116101c9578063595c6a671161018d578063595c6a67146104175780635ac86ab71461041f5780635c155662146104425780635c975abb146104625780635df459461461046a57600080fd5b80633563b0d1146103945780633b12421d146103b4578063416c7e5e146103c45780634d2b57fe146103d75780634f739f74146103f757600080fd5b80631ad43189116102105780631ad43189146102c7578063245a7bfc146103035780632b0a2ea41461032e5780632bc70afc1461034157806331b36bd91461037457600080fd5b806304a274861461024257806310d67a2f14610275578063136439dd1461028a578063171f1d5b1461029d575b600080fd5b6102626102503660046149b2565b60cb6020526000908152604090205481565b6040519081526020015b60405180910390f35b6102886102833660046149e4565b610662565b005b610288610298366004614a01565b61071e565b6102b06102ab366004614b7f565b61085d565b60408051921515835290151560208301520161026c565b6102ee7f000000000000000000000000000000000000000000000000000000000000000081565b60405163ffffffff909116815260200161026c565b60ce54610316906001600160a01b031681565b6040516001600160a01b03909116815260200161026c565b61028861033c366004614c18565b6109e7565b61036461034f3660046149b2565b60cc6020526000908152604090205460ff1681565b604051901515815260200161026c565b610387610382366004614c96565b610b8a565b60405161026c9190614d84565b6103a76103a2366004614d9e565b610ca6565b60405161026c9190614ef9565b60c9546102ee9063ffffffff1681565b6102886103d2366004614f1a565b61113c565b6103ea6103e5366004614f9d565b611273565b60405161026c9190614fec565b61040a610405366004615039565b611388565b60405161026c9190615132565b610288611aae565b61036461042d3660046151fc565b606654600160ff9092169190911b9081161490565b610455610450366004615219565b611b75565b60405161026c919061527c565b606654610262565b6103167f000000000000000000000000000000000000000000000000000000000000000081565b6103167f000000000000000000000000000000000000000000000000000000000000000081565b6102886104c6366004615342565b611d3d565b6103167f000000000000000000000000000000000000000000000000000000000000000081565b6105056105003660046155d5565b612316565b60405161026c929190615695565b61028861320e565b60cf54610316906001600160a01b031681565b606554610316906001600160a01b031681565b6033546001600160a01b0316610316565b6102626105603660046149b2565b60ca6020526000908152604090205481565b6097546103649060ff1681565b60c95463ffffffff166102ee565b6105a061059b3660046156de565b613222565b60405161026c929190615715565b6102886105bc366004615736565b6133b4565b6103167f000000000000000000000000000000000000000000000000000000000000000081565b6103166105f6366004614a01565b61383b565b7f00000000000000000000000000000000000000000000000000000000000000006102ee565b61028861062f3660046149e4565b613865565b6102ee606481565b61028861064a3660046157aa565b6138db565b61028861065d366004614a01565b613a2c565b606560009054906101000a90046001600160a01b03166001600160a01b031663eab66d7a6040518163ffffffff1660e01b8152600401602060405180830381865afa1580156106b5573d6000803e3d6000fd5b505050506040513d601f19601f820116820180604052508101906106d99190615806565b6001600160a01b0316336001600160a01b0316146107125760405162461bcd60e51b815260040161070990615823565b60405180910390fd5b61071b81613b88565b50565b60655460405163237dfb4760e11b81523360048201526001600160a01b03909116906346fbf68e90602401602060405180830381865afa158015610766573d6000803e3d6000fd5b505050506040513d601f19601f8201168201806040525081019061078a919061586d565b6107a65760405162461bcd60e51b81526004016107099061588a565b6066548181161461081f5760405162461bcd60e51b815260206004820152603860248201527f5061757361626c652e70617573653a20696e76616c696420617474656d70742060448201527f746f20756e70617573652066756e6374696f6e616c69747900000000000000006064820152608401610709565b606681905560405181815233907fab40a374bc51de372200a8bc981af8c9ecdc08dfdaef0bb6e09f88f3c616ef3d906020015b60405180910390a250565b60008060007f30644e72e131a029b85045b68181585d2833e84879b9709143e1f593f0000001878760000151886020015188600001516000600281106108a5576108a56158d2565b60200201518951600160200201518a602001516000600281106108ca576108ca6158d2565b60200201518b602001516001600281106108e6576108e66158d2565b602090810291909101518c518d8301516040516109439a99989796959401988952602089019790975260408801959095526060870193909352608086019190915260a085015260c084015260e08301526101008201526101200190565b6040516020818303038152906040528051906020012060001c61096691906158e8565b90506109d961097f6109788884613c7f565b8690613d16565b610987613daa565b6109cf6109c0856109ba604080518082018252600080825260209182015281518083019092526001825260029082015290565b90613c7f565b6109c98c613e6a565b90613d16565b886201d4c0613efa565b909890975095505050505050565b60cf546001600160a01b03163314610a4d5760405162461bcd60e51b8152602060048201526024808201527f446973707574652067656e657261746f72206d75737420626520746865206361604482015263363632b960e11b6064820152608401610709565b610a84604051806080016040528060008152602001600063ffffffff16815260200160608152602001600063ffffffff1681525090565b84815263ffffffff438116602080840191909152908516606083015260408051601f850183900483028101830190915283815290849084908190840183828082843760009201919091525050505060408083019190915251610aea90829060200161590a565b60408051601f19818403018152828252805160209182012060c9805463ffffffff908116600090815260ca90945293909220555416907fb34dae11be68e43298ceb1c3af16c51154aad41aa1648092b358f163acd3de0d90610b4d90849061590a565b60405180910390a260c954610b699063ffffffff1660016159ab565b60c9805463ffffffff191663ffffffff929092169190911790555050505050565b606081516001600160401b03811115610ba557610ba5614a1a565b604051908082528060200260200182016040528015610bce578160200160208202803683370190505b50905060005b8251811015610c9f57836001600160a01b03166313542a4e848381518110610bfe57610bfe6158d2565b60200260200101516040518263ffffffff1660e01b8152600401610c3191906001600160a01b0391909116815260200190565b602060405180830381865afa158015610c4e573d6000803e3d6000fd5b505050506040513d601f19601f82011682018060405250810190610c7291906159d3565b828281518110610c8457610c846158d2565b6020908102919091010152610c98816159ec565b9050610bd4565b5092915050565b60606000846001600160a01b031663683048356040518163ffffffff1660e01b8152600401602060405180830381865afa158015610ce8573d6000803e3d6000fd5b505050506040513d601f19601f82011682018060405250810190610d0c9190615806565b90506000856001600160a01b0316639e9923c26040518163ffffffff1660e01b8152600401602060405180830381865afa158015610d4e573d6000803e3d6000fd5b505050506040513d601f19601f82011682018060405250810190610d729190615806565b90506000866001600160a01b0316635df459466040518163ffffffff1660e01b8152600401602060405180830381865afa158015610db4573d6000803e3d6000fd5b505050506040513d601f19601f82011682018060405250810190610dd89190615806565b9050600086516001600160401b03811115610df557610df5614a1a565b604051908082528060200260200182016040528015610e2857816020015b6060815260200190600190039081610e135790505b50905060005b8751811015611130576000888281518110610e4b57610e4b6158d2565b0160200151604051638902624560e01b815260f89190911c6004820181905263ffffffff8a16602483015291506000906001600160a01b03871690638902624590604401600060405180830381865afa158015610eac573d6000803e3d6000fd5b505050506040513d6000823e601f3d908101601f19168201604052610ed49190810190615a07565b905080516001600160401b03811115610eef57610eef614a1a565b604051908082528060200260200182016040528015610f3a57816020015b6040805160608101825260008082526020808301829052928201528252600019909201910181610f0d5790505b50848481518110610f4d57610f4d6158d2565b602002602001018190525060005b815181101561111a576040518060600160405280876001600160a01b03166347b314e8858581518110610f9057610f906158d2565b60200260200101516040518263ffffffff1660e01b8152600401610fb691815260200190565b602060405180830381865afa158015610fd3573d6000803e3d6000fd5b505050506040513d601f19601f82011682018060405250810190610ff79190615806565b6001600160a01b03168152602001838381518110611017576110176158d2565b60200260200101518152602001896001600160a01b031663fa28c627858581518110611045576110456158d2565b60209081029190910101516040516001600160e01b031960e084901b168152600481019190915260ff8816602482015263ffffffff8f166044820152606401602060405180830381865afa1580156110a1573d6000803e3d6000fd5b505050506040513d601f19601f820116820180604052508101906110c59190615a97565b6001600160601b03168152508585815181106110e3576110e36158d2565b602002602001015182815181106110fc576110fc6158d2565b60200260200101819052508080611112906159ec565b915050610f5b565b5050508080611128906159ec565b915050610e2e565b50979650505050505050565b7f00000000000000000000000000000000000000000000000000000000000000006001600160a01b0316638da5cb5b6040518163ffffffff1660e01b8152600401602060405180830381865afa15801561119a573d6000803e3d6000fd5b505050506040513d601f19601f820116820180604052508101906111be9190615806565b6001600160a01b0316336001600160a01b03161461126a5760405162461bcd60e51b815260206004820152605c60248201527f424c535369676e6174757265436865636b65722e6f6e6c79436f6f7264696e6160448201527f746f724f776e65723a2063616c6c6572206973206e6f7420746865206f776e6560648201527f72206f6620746865207265676973747279436f6f7264696e61746f7200000000608482015260a401610709565b61071b8161411e565b606081516001600160401b0381111561128e5761128e614a1a565b6040519080825280602002602001820160405280156112b7578160200160208202803683370190505b50905060005b8251811015610c9f57836001600160a01b031663296bb0648483815181106112e7576112e76158d2565b60200260200101516040518263ffffffff1660e01b815260040161130d91815260200190565b602060405180830381865afa15801561132a573d6000803e3d6000fd5b505050506040513d601f19601f8201168201806040525081019061134e9190615806565b828281518110611360576113606158d2565b6001600160a01b0390921660209283029190910190910152611381816159ec565b90506112bd565b6113b36040518060800160405280606081526020016060815260200160608152602001606081525090565b6000876001600160a01b031663683048356040518163ffffffff1660e01b8152600401602060405180830381865afa1580156113f3573d6000803e3d6000fd5b505050506040513d601f19601f820116820180604052508101906114179190615806565b90506114446040518060800160405280606081526020016060815260200160608152602001606081525090565b6040516361c8a12f60e11b81526001600160a01b038a169063c391425e90611474908b9089908990600401615ac0565b600060405180830381865afa158015611491573d6000803e3d6000fd5b505050506040513d6000823e601f3d908101601f191682016040526114b99190810190615b0a565b81526040516340e03a8160e11b81526001600160a01b038316906381c07502906114eb908b908b908b90600401615bc1565b600060405180830381865afa158015611508573d6000803e3d6000fd5b505050506040513d6000823e601f3d908101601f191682016040526115309190810190615b0a565b6040820152856001600160401b0381111561154d5761154d614a1a565b60405190808252806020026020018201604052801561158057816020015b606081526020019060019003908161156b5790505b50606082015260005b60ff81168711156119bf576000856001600160401b038111156115ae576115ae614a1a565b6040519080825280602002602001820160405280156115d7578160200160208202803683370190505b5083606001518360ff16815181106115f1576115f16158d2565b602002602001018190525060005b868110156118bf5760008c6001600160a01b03166304ec63518a8a8581811061162a5761162a6158d2565b905060200201358e88600001518681518110611648576116486158d2565b60200260200101516040518463ffffffff1660e01b81526004016116859392919092835263ffffffff918216602084015216604082015260600190565b602060405180830381865afa1580156116a2573d6000803e3d6000fd5b505050506040513d601f19601f820116820180604052508101906116c69190615bea565b90506001600160c01b03811661176a5760405162461bcd60e51b815260206004820152605c60248201527f4f70657261746f7253746174655265747269657665722e676574436865636b5360448201527f69676e617475726573496e64696365733a206f70657261746f72206d7573742060648201527f6265207265676973746572656420617420626c6f636b6e756d62657200000000608482015260a401610709565b8a8a8560ff1681811061177f5761177f6158d2565b6001600160c01b03841692013560f81c9190911c6001908116141590506118ac57856001600160a01b031663dd9846b98a8a858181106117c1576117c16158d2565b905060200201358d8d8860ff168181106117dd576117dd6158d2565b6040516001600160e01b031960e087901b1681526004810194909452919091013560f81c60248301525063ffffffff8f166044820152606401602060405180830381865afa158015611833573d6000803e3d6000fd5b505050506040513d601f19601f820116820180604052508101906118579190615c13565b85606001518560ff1681518110611870576118706158d2565b60200260200101518481518110611889576118896158d2565b63ffffffff90921660209283029190910190910152826118a8816159ec565b9350505b50806118b7816159ec565b9150506115ff565b506000816001600160401b038111156118da576118da614a1a565b604051908082528060200260200182016040528015611903578160200160208202803683370190505b50905060005b828110156119845784606001518460ff168151811061192a5761192a6158d2565b60200260200101518181518110611943576119436158d2565b602002602001015182828151811061195d5761195d6158d2565b63ffffffff909216602092830291909101909101528061197c816159ec565b915050611909565b508084606001518460ff168151811061199f5761199f6158d2565b6020026020010181905250505080806119b790615c30565b915050611589565b506000896001600160a01b0316635df459466040518163ffffffff1660e01b8152600401602060405180830381865afa158015611a00573d6000803e3d6000fd5b505050506040513d601f19601f82011682018060405250810190611a249190615806565b60405163354952a360e21b81529091506001600160a01b0382169063d5254a8c90611a57908b908b908e90600401615c50565b600060405180830381865afa158015611a74573d6000803e3d6000fd5b505050506040513d6000823e601f3d908101601f19168201604052611a9c9190810190615b0a565b60208301525098975050505050505050565b60655460405163237dfb4760e11b81523360048201526001600160a01b03909116906346fbf68e90602401602060405180830381865afa158015611af6573d6000803e3d6000fd5b505050506040513d601f19601f82011682018060405250810190611b1a919061586d565b611b365760405162461bcd60e51b81526004016107099061588a565b600019606681905560405190815233907fab40a374bc51de372200a8bc981af8c9ecdc08dfdaef0bb6e09f88f3c616ef3d9060200160405180910390a2565b60606000846001600160a01b031663c391425e84866040518363ffffffff1660e01b8152600401611ba7929190615c7a565b600060405180830381865afa158015611bc4573d6000803e3d6000fd5b505050506040513d6000823e601f3d908101601f19168201604052611bec9190810190615b0a565b9050600084516001600160401b03811115611c0957611c09614a1a565b604051908082528060200260200182016040528015611c32578160200160208202803683370190505b50905060005b8551811015611d3357866001600160a01b03166304ec6351878381518110611c6257611c626158d2565b602002602001015187868581518110611c7d57611c7d6158d2565b60200260200101516040518463ffffffff1660e01b8152600401611cba9392919092835263ffffffff918216602084015216604082015260600190565b602060405180830381865afa158015611cd7573d6000803e3d6000fd5b505050506040513d601f19601f82011682018060405250810190611cfb9190615bea565b6001600160c01b0316828281518110611d1657611d166158d2565b602090810291909101015280611d2b816159ec565b915050611c38565b5095945050505050565b6000611d4c60208501856149b2565b63ffffffff8116600090815260cb6020526040902054909150853590611dc05760405162461bcd60e51b8152602060048201526024808201527f44697370757465206861736e2774206265656e20726573706f6e64656420746f604482015263081e595d60e21b6064820152608401610709565b8484604051602001611dd3929190615cb7565b60408051601f19818403018152918152815160209283012063ffffffff8516600090815260cb90935291205414611e74576040805162461bcd60e51b81526020600482015260248101919091527f4469737075746520726573706f6e736520646f6573206e6f74206d617463682060448201527f746865206f6e65207265636f7264656420696e2074686520636f6e74726163746064820152608401610709565b63ffffffff8216600090815260cc602052604090205460ff1615611f0f5760405162461bcd60e51b815260206004820152604660248201527f54686520726573706f6e736520746f207468697320646973707574652068617360448201527f20616c7265616479206265656e206368616c6c656e6765642073756363657373606482015265333ab6363c9760d11b608482015260a401610709565b6064611f1e60208601866149b2565b611f2891906159ab565b63ffffffff164363ffffffff161115611fa95760405162461bcd60e51b815260206004820152603a60248201527f546865206368616c6c656e676520706572696f6420666f72207468697320646960448201527f73707574652068617320616c726561647920657870697265642e0000000000006064820152608401610709565b6000611fb58280615ced565b905060208601358114600181141561200357604051339063ffffffff8616907f4a605edde300aa7e90bfea8e781d28f7e5e32a02bcc9aaf70e14a03e1db8328290600090a350505050612310565b600085516001600160401b0381111561201e5761201e614a1a565b604051908082528060200260200182016040528015612047578160200160208202803683370190505b50905060005b86518110156120b95761208a87828151811061206b5761206b6158d2565b6020026020010151805160009081526020918201519091526040902090565b82828151811061209c5761209c6158d2565b6020908102919091010152806120b1816159ec565b91505061204d565b5060006120cc60408b0160208c016149b2565b826040516020016120de929190615d0c565b604051602081830303815290604052805190602001209050876020013581146121885760405162461bcd60e51b815260206004820152605060248201527f546865207075626b657973206f66206e6f6e2d7369676e696e67206f7065726160448201527f746f727320737570706c69656420627920746865206368616c6c656e6765722060648201526f30b932903737ba1031b7b93932b1ba1760811b608482015260a401610709565b600087516001600160401b038111156121a3576121a3614a1a565b6040519080825280602002602001820160405280156121cc578160200160208202803683370190505b50905060005b88518110156122bf577f00000000000000000000000000000000000000000000000000000000000000006001600160a01b031663e8bb9ae685838151811061221c5761221c6158d2565b60200260200101516040518263ffffffff1660e01b815260040161224291815260200190565b602060405180830381865afa15801561225f573d6000803e3d6000fd5b505050506040513d601f19601f820116820180604052508101906122839190615806565b828281518110612295576122956158d2565b6001600160a01b0390921660209283029190910190910152806122b7816159ec565b9150506121d2565b5063ffffffff8716600081815260cc6020526040808220805460ff19166001179055513392917fb4dad22709114226336563a3749fe44eb5bfe6ea46987919b4eefecd11a542f591a3505050505050505b50505050565b604080518082019091526060808252602082015260008461238d5760405162461bcd60e51b81526020600482015260376024820152600080516020615f8683398151915260448201527f7265733a20656d7074792071756f72756d20696e7075740000000000000000006064820152608401610709565b604083015151851480156123a5575060a08301515185145b80156123b5575060c08301515185145b80156123c5575060e08301515185145b61242f5760405162461bcd60e51b81526020600482015260416024820152600080516020615f8683398151915260448201527f7265733a20696e7075742071756f72756d206c656e677468206d69736d6174636064820152600d60fb1b608482015260a401610709565b825151602084015151146124a75760405162461bcd60e51b815260206004820152604460248201819052600080516020615f86833981519152908201527f7265733a20696e707574206e6f6e7369676e6572206c656e677468206d69736d6064820152630c2e8c6d60e31b608482015260a401610709565b4363ffffffff168463ffffffff16106125165760405162461bcd60e51b815260206004820152603c6024820152600080516020615f8683398151915260448201527f7265733a20696e76616c6964207265666572656e636520626c6f636b000000006064820152608401610709565b6040805180820182526000808252602080830191909152825180840190935260608084529083015290866001600160401b0381111561255757612557614a1a565b604051908082528060200260200182016040528015612580578160200160208202803683370190505b506020820152866001600160401b0381111561259e5761259e614a1a565b6040519080825280602002602001820160405280156125c7578160200160208202803683370190505b50815260408051808201909152606080825260208201528560200151516001600160401b038111156125fb576125fb614a1a565b604051908082528060200260200182016040528015612624578160200160208202803683370190505b5081526020860151516001600160401b0381111561264457612644614a1a565b60405190808252806020026020018201604052801561266d578160200160208202803683370190505b508160200181905250600061273f8a8a8080601f0160208091040260200160405190810160405280939291908181526020018383808284376000920191909152505060408051639aa1653d60e01b815290516001600160a01b037f0000000000000000000000000000000000000000000000000000000000000000169350639aa1653d925060048083019260209291908290030181865afa158015612716573d6000803e3d6000fd5b505050506040513d601f19601f8201168201806040525081019061273a9190615d54565b614165565b905060005b8760200151518110156129bb5761276a8860200151828151811061206b5761206b6158d2565b83602001518281518110612780576127806158d2565b602090810291909101015280156128405760208301516127a1600183615d71565b815181106127b1576127b16158d2565b602002602001015160001c836020015182815181106127d2576127d26158d2565b602002602001015160001c11612840576040805162461bcd60e51b8152602060048201526024810191909152600080516020615f8683398151915260448201527f7265733a206e6f6e5369676e65725075626b657973206e6f7420736f727465646064820152608401610709565b7f00000000000000000000000000000000000000000000000000000000000000006001600160a01b03166304ec635184602001518381518110612885576128856158d2565b60200260200101518b8b6000015185815181106128a4576128a46158d2565b60200260200101516040518463ffffffff1660e01b81526004016128e19392919092835263ffffffff918216602084015216604082015260600190565b602060405180830381865afa1580156128fe573d6000803e3d6000fd5b505050506040513d601f19601f820116820180604052508101906129229190615bea565b6001600160c01b031683600001518281518110612941576129416158d2565b6020026020010181815250506129a761097861297b848660000151858151811061296d5761296d6158d2565b6020026020010151166141f8565b8a602001518481518110612991576129916158d2565b602002602001015161422390919063ffffffff16565b9450806129b3816159ec565b915050612744565b50506129c683614307565b60975490935060ff166000816129dd576000612a5f565b7f00000000000000000000000000000000000000000000000000000000000000006001600160a01b031663c448feb86040518163ffffffff1660e01b8152600401602060405180830381865afa158015612a3b573d6000803e3d6000fd5b505050506040513d601f19601f82011682018060405250810190612a5f91906159d3565b905060005b8a8110156130dd578215612bbf578963ffffffff16827f00000000000000000000000000000000000000000000000000000000000000006001600160a01b031663249a0c428f8f86818110612abb57612abb6158d2565b60405160e085901b6001600160e01b031916815292013560f81c600483015250602401602060405180830381865afa158015612afb573d6000803e3d6000fd5b505050506040513d601f19601f82011682018060405250810190612b1f91906159d3565b612b299190615d88565b11612bbf5760405162461bcd60e51b81526020600482015260666024820152600080516020615f8683398151915260448201527f7265733a205374616b6552656769737472792075706461746573206d7573742060648201527f62652077697468696e207769746864726177616c44656c6179426c6f636b732060848201526577696e646f7760d01b60a482015260c401610709565b7f00000000000000000000000000000000000000000000000000000000000000006001600160a01b03166368bccaac8d8d84818110612c0057612c006158d2565b9050013560f81c60f81b60f81c8c8c60a001518581518110612c2457612c246158d2565b60209081029190910101516040516001600160e01b031960e086901b16815260ff909316600484015263ffffffff9182166024840152166044820152606401602060405180830381865afa158015612c80573d6000803e3d6000fd5b505050506040513d601f19601f82011682018060405250810190612ca49190615da0565b6001600160401b031916612cc78a60400151838151811061206b5761206b6158d2565b67ffffffffffffffff191614612d635760405162461bcd60e51b81526020600482015260616024820152600080516020615f8683398151915260448201527f7265733a2071756f72756d41706b206861736820696e2073746f72616765206460648201527f6f6573206e6f74206d617463682070726f76696465642071756f72756d2061706084820152606b60f81b60a482015260c401610709565b612d9389604001518281518110612d7c57612d7c6158d2565b602002602001015187613d1690919063ffffffff16565b95507f00000000000000000000000000000000000000000000000000000000000000006001600160a01b031663c8294c568d8d84818110612dd657612dd66158d2565b9050013560f81c60f81b60f81c8c8c60c001518581518110612dfa57612dfa6158d2565b60209081029190910101516040516001600160e01b031960e086901b16815260ff909316600484015263ffffffff9182166024840152166044820152606401602060405180830381865afa158015612e56573d6000803e3d6000fd5b505050506040513d601f19601f82011682018060405250810190612e7a9190615a97565b85602001518281518110612e9057612e906158d2565b6001600160601b03909216602092830291909101820152850151805182908110612ebc57612ebc6158d2565b602002602001015185600001518281518110612eda57612eda6158d2565b60200260200101906001600160601b031690816001600160601b0316815250506000805b8a60200151518110156130c857612f5286600001518281518110612f2457612f246158d2565b60200260200101518f8f86818110612f3e57612f3e6158d2565b600192013560f81c9290921c811614919050565b156130b6577f00000000000000000000000000000000000000000000000000000000000000006001600160a01b031663f2be94ae8f8f86818110612f9857612f986158d2565b9050013560f81c60f81b60f81c8e89602001518581518110612fbc57612fbc6158d2565b60200260200101518f60e001518881518110612fda57612fda6158d2565b60200260200101518781518110612ff357612ff36158d2565b60209081029190910101516040516001600160e01b031960e087901b16815260ff909416600485015263ffffffff92831660248501526044840191909152166064820152608401602060405180830381865afa158015613057573d6000803e3d6000fd5b505050506040513d601f19601f8201168201806040525081019061307b9190615a97565b875180518590811061308f5761308f6158d2565b602002602001018181516130a39190615dcb565b6001600160601b03169052506001909101905b806130c0816159ec565b915050612efe565b505080806130d5906159ec565b915050612a64565b5050506000806130f78c868a606001518b6080015161085d565b91509150816131685760405162461bcd60e51b81526020600482015260436024820152600080516020615f8683398151915260448201527f7265733a2070616972696e6720707265636f6d70696c652063616c6c206661696064820152621b195960ea1b608482015260a401610709565b806131c95760405162461bcd60e51b81526020600482015260396024820152600080516020615f8683398151915260448201527f7265733a207369676e617475726520697320696e76616c6964000000000000006064820152608401610709565b505060008782602001516040516020016131e4929190615d0c565b60408051808303601f190181529190528051602090910120929b929a509198505050505050505050565b6132166143a2565b61322060006143fc565b565b604080516001808252818301909252600091606091839160208083019080368337019050509050848160008151811061325d5761325d6158d2565b60209081029190910101526040516361c8a12f60e11b81526000906001600160a01b0388169063c391425e906132999088908690600401615c7a565b600060405180830381865afa1580156132b6573d6000803e3d6000fd5b505050506040513d6000823e601f3d908101601f191682016040526132de9190810190615b0a565b6000815181106132f0576132f06158d2565b60209081029190910101516040516304ec635160e01b81526004810188905263ffffffff87811660248301529091166044820181905291506000906001600160a01b038916906304ec635190606401602060405180830381865afa15801561335c573d6000803e3d6000fd5b505050506040513d601f19601f820116820180604052508101906133809190615bea565b6001600160c01b0316905060006133968261444e565b9050816133a48a838a610ca6565b9550955050505050935093915050565b60ce546001600160a01b0316331461340e5760405162461bcd60e51b815260206004820152601d60248201527f41676772656761746f72206d757374206265207468652063616c6c65720000006044820152606401610709565b600061342060408501602086016149b2565b90503660006134326040870187615df3565b9092509050600061344960808801606089016149b2565b905060ca600061345c60208901896149b2565b63ffffffff1663ffffffff16815260200190815260200160002054876040516020016134889190615e39565b6040516020818303038152906040528051906020012014613513576040805162461bcd60e51b81526020600482015260248101919091527f737570706c696564206469737075746520646f6573206e6f74206d617463682060448201527f746865206f6e65207265636f7264656420696e2074686520636f6e74726163746064820152608401610709565b600060cb8161352560208a018a6149b2565b63ffffffff1663ffffffff16815260200190815260200160002054146135a55760405162461bcd60e51b815260206004820152602f60248201527f41676772656761746f722068617320616c726561647920726573706f6e64656460448201526e20746f20746865206469737075746560881b6064820152608401610709565b6135cf7f0000000000000000000000000000000000000000000000000000000000000000856159ab565b63ffffffff164363ffffffff1611156136435760405162461bcd60e51b815260206004820152603060248201527f41676772656761746f722068617320726573706f6e64656420746f207468652060448201526f6469737075746520746f6f206c61746560801b6064820152608401610709565b6000866040516020016136569190615eda565b60405160208183030381529060405280519060200120905060008061367e8387878a8c612316565b9150915060005b8581101561377d578460ff16836020015182815181106136a7576136a76158d2565b60200260200101516136b99190615ee8565b6001600160601b03166064846000015183815181106136da576136da6158d2565b60200260200101516001600160601b03166136f59190615ced565b101561376b576040805162461bcd60e51b81526020600482015260248101919091527f5369676e61746f7269657320646f206e6f74206f776e206174206c656173742060448201527f7468726573686f6c642070657263656e74616765206f6620612071756f72756d6064820152608401610709565b80613775816159ec565b915050613685565b5060408051808201825263ffffffff431681526020808201849052915190916137aa918c91849101615f17565b6040516020818303038152906040528051906020012060cb60008c60000160208101906137d791906149b2565b63ffffffff1663ffffffff168152602001908152602001600020819055507f35371174acc108e74ddc50f4a0d36bcd1131f91115abcbd1d88602493c120f6f8a82604051613826929190615f17565b60405180910390a15050505050505050505050565b60cd818154811061384b57600080fd5b6000918252602090912001546001600160a01b0316905081565b61386d6143a2565b6001600160a01b0381166138d25760405162461bcd60e51b815260206004820152602660248201527f4f776e61626c653a206e6577206f776e657220697320746865207a65726f206160448201526564647265737360d01b6064820152608401610709565b61071b816143fc565b600054610100900460ff16158080156138fb5750600054600160ff909116105b806139155750303b158015613915575060005460ff166001145b6139785760405162461bcd60e51b815260206004820152602e60248201527f496e697469616c697a61626c653a20636f6e747261637420697320616c72656160448201526d191e481a5b9a5d1a585b1a5e995960921b6064820152608401610709565b6000805460ff19166001179055801561399b576000805461ff0019166101001790555b6139a685600061451a565b6139af846143fc565b60ce80546001600160a01b038086166001600160a01b03199283161790925560cf8054928516929091169190911790558015613a25576000805461ff0019169055604051600181527f7f26b83ff96e1f2b6a682f133852f6798a09c465da95921460cefb38474024989060200160405180910390a15b5050505050565b606560009054906101000a90046001600160a01b03166001600160a01b031663eab66d7a6040518163ffffffff1660e01b8152600401602060405180830381865afa158015613a7f573d6000803e3d6000fd5b505050506040513d601f19601f82011682018060405250810190613aa39190615806565b6001600160a01b0316336001600160a01b031614613ad35760405162461bcd60e51b815260040161070990615823565b606654198119606654191614613b515760405162461bcd60e51b815260206004820152603860248201527f5061757361626c652e756e70617573653a20696e76616c696420617474656d7060448201527f7420746f2070617573652066756e6374696f6e616c69747900000000000000006064820152608401610709565b606681905560405181815233907f3582d1828e26bf56bd801502bc021ac0bc8afb57c826e4986b45593c8fad389c90602001610852565b6001600160a01b038116613c165760405162461bcd60e51b815260206004820152604960248201527f5061757361626c652e5f73657450617573657252656769737472793a206e657760448201527f50617573657252656769737472792063616e6e6f7420626520746865207a65726064820152686f206164647265737360b81b608482015260a401610709565b606554604080516001600160a01b03928316815291831660208301527f6e9fcd539896fca60e8b0f01dd580233e48a6b0f7df013b89ba7f565869acdb6910160405180910390a1606580546001600160a01b0319166001600160a01b0392909216919091179055565b6040805180820190915260008082526020820152613c9b6148bb565b835181526020808501519082015260408082018490526000908360608460076107d05a03fa9050808015613cce57613cd0565bfe5b5080613d0e5760405162461bcd60e51b815260206004820152600d60248201526c1958cb5b5d5b0b59985a5b1959609a1b6044820152606401610709565b505092915050565b6040805180820190915260008082526020820152613d326148d9565b835181526020808501518183015283516040808401919091529084015160608301526000908360808460066107d05a03fa9050808015613cce575080613d0e5760405162461bcd60e51b815260206004820152600d60248201526c1958cb5859190b59985a5b1959609a1b6044820152606401610709565b613db26148f7565b50604080516080810182527f198e9393920d483a7260bfb731fb5d25f1aa493335a9e71297e485b7aef312c28183019081527f1800deef121f1e76426a00665e5c4479674322d4f75edadd46debd5cd992f6ed6060830152815281518083019092527f275dc4a288d1afb3cbb1ac09187524c7db36395df7be3b99e673b13a075a65ec82527f1d9befcd05a5323e6da4d435f3b617cdb3af83285c2df711ef39c01571827f9d60208381019190915281019190915290565b604080518082019091526000808252602082015260008080613e9a600080516020615f66833981519152866158e8565b90505b613ea681614604565b9093509150600080516020615f66833981519152828309831415613ee0576040805180820190915290815260208101919091529392505050565b600080516020615f66833981519152600182089050613e9d565b604080518082018252868152602080820186905282518084019093528683528201849052600091829190613f2c61491c565b60005b60028110156140f1576000613f45826006615ced565b9050848260028110613f5957613f596158d2565b60200201515183613f6b836000615d88565b600c8110613f7b57613f7b6158d2565b6020020152848260028110613f9257613f926158d2565b60200201516020015183826001613fa99190615d88565b600c8110613fb957613fb96158d2565b6020020152838260028110613fd057613fd06158d2565b6020020151515183613fe3836002615d88565b600c8110613ff357613ff36158d2565b602002015283826002811061400a5761400a6158d2565b6020020151516001602002015183614023836003615d88565b600c8110614033576140336158d2565b602002015283826002811061404a5761404a6158d2565b602002015160200151600060028110614065576140656158d2565b602002015183614076836004615d88565b600c8110614086576140866158d2565b602002015283826002811061409d5761409d6158d2565b6020020151602001516001600281106140b8576140b86158d2565b6020020151836140c9836005615d88565b600c81106140d9576140d96158d2565b602002015250806140e9816159ec565b915050613f2f565b506140fa61493b565b60006020826101808560088cfa9151919c9115159b50909950505050505050505050565b6097805460ff19168215159081179091556040519081527f40e4ed880a29e0f6ddce307457fb75cddf4feef7d3ecb0301bfdf4976a0e2dfc9060200160405180910390a150565b60008061417184614686565b9050808360ff166001901b116141ef5760405162461bcd60e51b815260206004820152603f60248201527f4269746d61705574696c732e6f72646572656442797465734172726179546f4260448201527f69746d61703a206269746d61702065786365656473206d61782076616c7565006064820152608401610709565b90505b92915050565b6000805b82156141f25761420d600184615d71565b909216918061421b81615f43565b9150506141fc565b60408051808201909152600080825260208201526102008261ffff161061427f5760405162461bcd60e51b815260206004820152601060248201526f7363616c61722d746f6f2d6c6172676560801b6044820152606401610709565b8161ffff16600114156142935750816141f2565b6040805180820190915260008082526020820181905284906001905b8161ffff168661ffff16106142fc57600161ffff871660ff83161c811614156142df576142dc8484613d16565b93505b6142e98384613d16565b92506201fffe600192831b1691016142af565b509195945050505050565b6040805180820190915260008082526020820152815115801561432c57506020820151155b1561434a575050604080518082019091526000808252602082015290565b604051806040016040528083600001518152602001600080516020615f66833981519152846020015161437d91906158e8565b61439590600080516020615f66833981519152615d71565b905292915050565b919050565b6033546001600160a01b031633146132205760405162461bcd60e51b815260206004820181905260248201527f4f776e61626c653a2063616c6c6572206973206e6f7420746865206f776e65726044820152606401610709565b603380546001600160a01b038381166001600160a01b0319831681179093556040519116919082907f8be0079c531659141344cd1fd0a4f28419497f9722a3daafe3b4186f6b6457e090600090a35050565b606060008061445c846141f8565b61ffff166001600160401b0381111561447757614477614a1a565b6040519080825280601f01601f1916602001820160405280156144a1576020820181803683370190505b5090506000805b8251821080156144b9575061010081105b15614510576001811b935085841615614500578060f81b8383815181106144e2576144e26158d2565b60200101906001600160f81b031916908160001a9053508160010191505b614509816159ec565b90506144a8565b5090949350505050565b6065546001600160a01b031615801561453b57506001600160a01b03821615155b6145bd5760405162461bcd60e51b815260206004820152604760248201527f5061757361626c652e5f696e697469616c697a655061757365723a205f696e6960448201527f7469616c697a6550617573657228292063616e206f6e6c792062652063616c6c6064820152666564206f6e636560c81b608482015260a401610709565b606681905560405181815233907fab40a374bc51de372200a8bc981af8c9ecdc08dfdaef0bb6e09f88f3c616ef3d9060200160405180910390a261460082613b88565b5050565b60008080600080516020615f668339815191526003600080516020615f6683398151915286600080516020615f6683398151915288890909089050600061467a827f0c19139cb84c680a6e14116da060561765e05aa45a1c72a34f082305b61f3f52600080516020615f66833981519152614813565b91959194509092505050565b60006101008251111561470f5760405162461bcd60e51b8152602060048201526044602482018190527f4269746d61705574696c732e6f72646572656442797465734172726179546f42908201527f69746d61703a206f7264657265644279746573417272617920697320746f6f206064820152636c6f6e6760e01b608482015260a401610709565b815161471d57506000919050565b60008083600081518110614733576147336158d2565b0160200151600160f89190911c81901b92505b845181101561480a57848181518110614761576147616158d2565b0160200151600160f89190911c1b91508282116147f65760405162461bcd60e51b815260206004820152604760248201527f4269746d61705574696c732e6f72646572656442797465734172726179546f4260448201527f69746d61703a206f72646572656442797465734172726179206973206e6f74206064820152661bdc99195c995960ca1b608482015260a401610709565b91811791614803816159ec565b9050614746565b50909392505050565b60008061481e61493b565b614826614959565b602080825281810181905260408201819052606082018890526080820187905260a082018690528260c08360056107d05a03fa9250828015613cce5750826148b05760405162461bcd60e51b815260206004820152601a60248201527f424e3235342e6578704d6f643a2063616c6c206661696c7572650000000000006044820152606401610709565b505195945050505050565b60405180606001604052806003906020820280368337509192915050565b60405180608001604052806004906020820280368337509192915050565b604051806040016040528061490a614977565b8152602001614917614977565b905290565b604051806101800160405280600c906020820280368337509192915050565b60405180602001604052806001906020820280368337509192915050565b6040518060c001604052806006906020820280368337509192915050565b60405180604001604052806002906020820280368337509192915050565b63ffffffff8116811461071b57600080fd5b803561439d81614995565b6000602082840312156149c457600080fd5b81356141ef81614995565b6001600160a01b038116811461071b57600080fd5b6000602082840312156149f657600080fd5b81356141ef816149cf565b600060208284031215614a1357600080fd5b5035919050565b634e487b7160e01b600052604160045260246000fd5b604080519081016001600160401b0381118282101715614a5257614a52614a1a565b60405290565b60405161010081016001600160401b0381118282101715614a5257614a52614a1a565b604051601f8201601f191681016001600160401b0381118282101715614aa357614aa3614a1a565b604052919050565b600060408284031215614abd57600080fd5b614ac5614a30565b9050813581526020820135602082015292915050565b600082601f830112614aec57600080fd5b604051604081018181106001600160401b0382111715614b0e57614b0e614a1a565b8060405250806040840185811115614b2557600080fd5b845b818110156142fc578035835260209283019201614b27565b600060808284031215614b5157600080fd5b614b59614a30565b9050614b658383614adb565b8152614b748360408401614adb565b602082015292915050565b6000806000806101208587031215614b9657600080fd5b84359350614ba78660208701614aab565b9250614bb68660608701614b3f565b9150614bc58660e08701614aab565b905092959194509250565b60008083601f840112614be257600080fd5b5081356001600160401b03811115614bf957600080fd5b602083019150836020828501011115614c1157600080fd5b9250929050565b60008060008060608587031215614c2e57600080fd5b843593506020850135614c4081614995565b925060408501356001600160401b03811115614c5b57600080fd5b614c6787828801614bd0565b95989497509550505050565b60006001600160401b03821115614c8c57614c8c614a1a565b5060051b60200190565b60008060408385031215614ca957600080fd5b8235614cb4816149cf565b91506020838101356001600160401b03811115614cd057600080fd5b8401601f81018613614ce157600080fd5b8035614cf4614cef82614c73565b614a7b565b81815260059190911b82018301908381019088831115614d1357600080fd5b928401925b82841015614d3a578335614d2b816149cf565b82529284019290840190614d18565b80955050505050509250929050565b600081518084526020808501945080840160005b83811015614d7957815187529582019590820190600101614d5d565b509495945050505050565b602081526000614d976020830184614d49565b9392505050565b600080600060608486031215614db357600080fd5b8335614dbe816149cf565b92506020848101356001600160401b0380821115614ddb57600080fd5b818701915087601f830112614def57600080fd5b813581811115614e0157614e01614a1a565b614e13601f8201601f19168501614a7b565b91508082528884828501011115614e2957600080fd5b8084840185840137600084828401015250809450505050614e4c604085016149a7565b90509250925092565b600081518084526020808501808196508360051b810191508286016000805b86811015614eeb578385038a52825180518087529087019087870190845b81811015614ed657835180516001600160a01b031684528a8101518b8501526040908101516001600160601b03169084015292890192606090920191600101614e92565b50509a87019a95505091850191600101614e74565b509298975050505050505050565b602081526000614d976020830184614e55565b801515811461071b57600080fd5b600060208284031215614f2c57600080fd5b81356141ef81614f0c565b600082601f830112614f4857600080fd5b81356020614f58614cef83614c73565b82815260059290921b84018101918181019086841115614f7757600080fd5b8286015b84811015614f925780358352918301918301614f7b565b509695505050505050565b60008060408385031215614fb057600080fd5b8235614fbb816149cf565b915060208301356001600160401b03811115614fd657600080fd5b614fe285828601614f37565b9150509250929050565b6020808252825182820181905260009190848201906040850190845b8181101561502d5783516001600160a01b031683529284019291840191600101615008565b50909695505050505050565b6000806000806000806080878903121561505257600080fd5b863561505d816149cf565b9550602087013561506d81614995565b945060408701356001600160401b038082111561508957600080fd5b6150958a838b01614bd0565b909650945060608901359150808211156150ae57600080fd5b818901915089601f8301126150c257600080fd5b8135818111156150d157600080fd5b8a60208260051b85010111156150e657600080fd5b6020830194508093505050509295509295509295565b600081518084526020808501945080840160005b83811015614d7957815163ffffffff1687529582019590820190600101615110565b60006020808352835160808285015261514e60a08501826150fc565b905081850151601f198086840301604087015261516b83836150fc565b9250604087015191508086840301606087015261518883836150fc565b60608801518782038301608089015280518083529194508501925084840190600581901b8501860160005b828110156151df57848783030184526151cd8287516150fc565b958801959388019391506001016151b3565b509998505050505050505050565b60ff8116811461071b57600080fd5b60006020828403121561520e57600080fd5b81356141ef816151ed565b60008060006060848603121561522e57600080fd5b8335615239816149cf565b925060208401356001600160401b0381111561525457600080fd5b61526086828701614f37565b925050604084013561527181614995565b809150509250925092565b6020808252825182820181905260009190848201906040850190845b8181101561502d57835183529284019291840191600101615298565b6000608082840312156152c657600080fd5b50919050565b6000604082840312156152c657600080fd5b600082601f8301126152ef57600080fd5b813560206152ff614cef83614c73565b82815260069290921b8401810191818101908684111561531e57600080fd5b8286015b84811015614f92576153348882614aab565b835291830191604001615322565b60008060008060c0858703121561535857600080fd5b84356001600160401b038082111561536f57600080fd5b61537b888389016152b4565b955061538a88602089016152cc565b945061539988606089016152cc565b935060a08701359150808211156153af57600080fd5b506153bc878288016152de565b91505092959194509250565b600082601f8301126153d957600080fd5b813560206153e9614cef83614c73565b82815260059290921b8401810191818101908684111561540857600080fd5b8286015b84811015614f9257803561541f81614995565b835291830191830161540c565b600082601f83011261543d57600080fd5b8135602061544d614cef83614c73565b82815260059290921b8401810191818101908684111561546c57600080fd5b8286015b84811015614f925780356001600160401b0381111561548f5760008081fd5b61549d8986838b01016153c8565b845250918301918301615470565b600061018082840312156154be57600080fd5b6154c6614a58565b905081356001600160401b03808211156154df57600080fd5b6154eb858386016153c8565b8352602084013591508082111561550157600080fd5b61550d858386016152de565b6020840152604084013591508082111561552657600080fd5b615532858386016152de565b60408401526155448560608601614b3f565b60608401526155568560e08601614aab565b608084015261012084013591508082111561557057600080fd5b61557c858386016153c8565b60a084015261014084013591508082111561559657600080fd5b6155a2858386016153c8565b60c08401526101608401359150808211156155bc57600080fd5b506155c98482850161542c565b60e08301525092915050565b6000806000806000608086880312156155ed57600080fd5b8535945060208601356001600160401b038082111561560b57600080fd5b61561789838a01614bd0565b90965094506040880135915061562c82614995565b9092506060870135908082111561564257600080fd5b5061564f888289016154ab565b9150509295509295909350565b600081518084526020808501945080840160005b83811015614d795781516001600160601b031687529582019590820190600101615670565b60408152600083516040808401526156b0608084018261565c565b90506020850151603f198483030160608501526156cd828261565c565b925050508260208301529392505050565b6000806000606084860312156156f357600080fd5b83356156fe816149cf565b925060208401359150604084013561527181614995565b82815260406020820152600061572e6040830184614e55565b949350505050565b60008060006080848603121561574b57600080fd5b83356001600160401b038082111561576257600080fd5b61576e878388016152b4565b945061577d87602088016152cc565b9350606086013591508082111561579357600080fd5b506157a0868287016154ab565b9150509250925092565b600080600080608085870312156157c057600080fd5b84356157cb816149cf565b935060208501356157db816149cf565b925060408501356157eb816149cf565b915060608501356157fb816149cf565b939692955090935050565b60006020828403121561581857600080fd5b81516141ef816149cf565b6020808252602a908201527f6d73672e73656e646572206973206e6f74207065726d697373696f6e6564206160408201526939903ab73830bab9b2b960b11b606082015260800190565b60006020828403121561587f57600080fd5b81516141ef81614f0c565b60208082526028908201527f6d73672e73656e646572206973206e6f74207065726d697373696f6e6564206160408201526739903830bab9b2b960c11b606082015260800190565b634e487b7160e01b600052603260045260246000fd5b60008261590557634e487b7160e01b600052601260045260246000fd5b500690565b6000602080835283518184015263ffffffff8185015116604084015260408401516080606085015280518060a086015260005b818110156159595782810184015186820160c00152830161593d565b8181111561596b57600060c083880101525b50606086015163ffffffff811660808701529250601f01601f19169390930160c001949350505050565b634e487b7160e01b600052601160045260246000fd5b600063ffffffff8083168185168083038211156159ca576159ca615995565b01949350505050565b6000602082840312156159e557600080fd5b5051919050565b6000600019821415615a0057615a00615995565b5060010190565b60006020808385031215615a1a57600080fd5b82516001600160401b03811115615a3057600080fd5b8301601f81018513615a4157600080fd5b8051615a4f614cef82614c73565b81815260059190911b82018301908381019087831115615a6e57600080fd5b928401925b82841015615a8c57835182529284019290840190615a73565b979650505050505050565b600060208284031215615aa957600080fd5b81516001600160601b03811681146141ef57600080fd5b63ffffffff84168152604060208201819052810182905260006001600160fb1b03831115615aed57600080fd5b8260051b8085606085013760009201606001918252509392505050565b60006020808385031215615b1d57600080fd5b82516001600160401b03811115615b3357600080fd5b8301601f81018513615b4457600080fd5b8051615b52614cef82614c73565b81815260059190911b82018301908381019087831115615b7157600080fd5b928401925b82841015615a8c578351615b8981614995565b82529284019290840190615b76565b81835281816020850137506000828201602090810191909152601f909101601f19169091010190565b63ffffffff84168152604060208201526000615be1604083018486615b98565b95945050505050565b600060208284031215615bfc57600080fd5b81516001600160c01b03811681146141ef57600080fd5b600060208284031215615c2557600080fd5b81516141ef81614995565b600060ff821660ff811415615c4757615c47615995565b60010192915050565b604081526000615c64604083018587615b98565b905063ffffffff83166020830152949350505050565b63ffffffff8316815260406020820152600061572e6040830184614d49565b8035615ca481614995565b63ffffffff168252602090810135910152565b60808101615cc58285615c99565b8235615cd081614995565b63ffffffff16604083015260209290920135606090910152919050565b6000816000190483118215151615615d0757615d07615995565b500290565b63ffffffff60e01b8360e01b1681526000600482018351602080860160005b83811015615d4757815185529382019390820190600101615d2b565b5092979650505050505050565b600060208284031215615d6657600080fd5b81516141ef816151ed565b600082821015615d8357615d83615995565b500390565b60008219821115615d9b57615d9b615995565b500190565b600060208284031215615db257600080fd5b815167ffffffffffffffff19811681146141ef57600080fd5b60006001600160601b0383811690831681811015615deb57615deb615995565b039392505050565b6000808335601e19843603018112615e0a57600080fd5b8301803591506001600160401b03821115615e2457600080fd5b602001915036819003821315614c1157600080fd5b602081528135602082015260006020830135615e5481614995565b63ffffffff81166040840152506040830135601e19843603018112615e7857600080fd5b830180356001600160401b03811115615e9057600080fd5b803603851315615e9f57600080fd5b60806060850152615eb760a085018260208501615b98565b915050615ec6606085016149a7565b63ffffffff81166080850152509392505050565b604081016141f28284615c99565b60006001600160601b0380831681851681830481118215151615615f0e57615f0e615995565b02949350505050565b60808101615f258285615c99565b63ffffffff8351166040830152602083015160608301529392505050565b600061ffff80831681811415615f5b57615f5b615995565b600101939250505056fe30644e72e131a029b85045b68181585d97816a916871ca8d3c208c16d87cfd47424c535369676e6174757265436865636b65722e636865636b5369676e617475a2646970667358221220fd151841c0760ee83c8acdbb3e70041daab32c4ca3fce709e594de03cc2ef57964736f6c634300080c0033","linkReferences":{}},"methodIdentifiers":{"TASK_CHALLENGE_WINDOW_BLOCK()":"f63c5bab","TASK_RESPONSE_WINDOW_BLOCK()":"1ad43189","aggregator()":"245a7bfc","allDisputeHashes(uint32)":"914eea1b","allDisputeResponses(uint32)":"04a27486","blsApkRegistry()":"5df45946","checkSignatures(bytes32,bytes,uint32,(uint32[],(uint256,uint256)[],(uint256,uint256)[],(uint256[2],uint256[2]),(uint256,uint256),uint32[],uint32[],uint32[][]))":"6efb4636","createNewDispute(uint256,uint32,bytes)":"2b0a2ea4","delegation()":"df5cf723","disputeNumber()":"c9ba3907","disputeSuccesfullyChallenged(uint32)":"2bc70afc","fermahOperators(uint256)":"eba4e01e","generator()":"7afa1eed","getBatchOperatorFromId(address,bytes32[])":"4d2b57fe","getBatchOperatorId(address,address[])":"31b36bd9","getCheckSignaturesIndices(address,uint32,bytes,bytes32[])":"4f739f74","getDisputeResponseWindowBlock()":"ec50a2ef","getOperatorState(address,bytes,uint32)":"3563b0d1","getOperatorState(address,bytes32,uint32)":"cefdc1d4","getQuorumBitmapsAtBlockNumber(address,bytes32[],uint32)":"5c155662","initialize(address,address,address,address)":"f8c8765e","latestDisputeNum()":"3b12421d","owner()":"8da5cb5b","pause(uint256)":"136439dd","pauseAll()":"595c6a67","paused()":"5c975abb","paused(uint8)":"5ac86ab7","pauserRegistry()":"886f1195","raiseAndResolveChallenge((uint256,uint32,bytes,uint32),(uint32,uint256),(uint32,bytes32),(uint256,uint256)[])":"6b532e9e","registryCoordinator()":"6d14a987","renounceOwnership()":"715018a6","respondToDispute((uint256,uint32,bytes,uint32),(uint32,uint256),(uint32[],(uint256,uint256)[],(uint256,uint256)[],(uint256[2],uint256[2]),(uint256,uint256),uint32[],uint32[],uint32[][]))":"d5ad886d","setPauserRegistry(address)":"10d67a2f","setStaleStakesForbidden(bool)":"416c7e5e","stakeRegistry()":"68304835","staleStakesForbidden()":"b98d0908","transferOwnership(address)":"f2fde38b","trySignatureAndApkVerification(bytes32,(uint256,uint256),(uint256[2],uint256[2]),(uint256,uint256))":"171f1d5b","unpause(uint256)":"fabc1cbc"},"id":156}