{"abi":[{"type":"constructor","inputs":[{"name":"_serviceManager","type":"address","internalType":"contract IServiceManager"},{"name":"_stakeRegistry","type":"address","internalType":"contract IStakeRegistry"},{"name":"_blsApkRegistry","type":"address","internalType":"contract IBLSApkRegistry"},{"name":"_indexRegistry","type":"address","internalType":"contract IIndexRegistry"}],"stateMutability":"nonpayable"},{"type":"function","name":"OPERATOR_CHURN_APPROVAL_TYPEHASH","inputs":[],"outputs":[{"name":"","type":"bytes32","internalType":"bytes32"}],"stateMutability":"view"},{"type":"function","name":"PUBKEY_REGISTRATION_TYPEHASH","inputs":[],"outputs":[{"name":"","type":"bytes32","internalType":"bytes32"}],"stateMutability":"view"},{"type":"function","name":"availableTillBlock","inputs":[{"name":"operator","type":"address","internalType":"address"}],"outputs":[{"name":"","type":"uint256","internalType":"uint256"}],"stateMutability":"view"},{"type":"function","name":"blsApkRegistry","inputs":[],"outputs":[{"name":"","type":"address","internalType":"contract IBLSApkRegistry"}],"stateMutability":"view"},{"type":"function","name":"calculateOperatorChurnApprovalDigestHash","inputs":[{"name":"registeringOperator","type":"address","internalType":"address"},{"name":"registeringOperatorId","type":"bytes32","internalType":"bytes32"},{"name":"operatorKickParams","type":"tuple[]","internalType":"struct IRegistryCoordinator.OperatorKickParam[]","components":[{"name":"quorumNumber","type":"uint8","internalType":"uint8"},{"name":"operator","type":"address","internalType":"address"}]},{"name":"salt","type":"bytes32","internalType":"bytes32"},{"name":"expiry","type":"uint256","internalType":"uint256"}],"outputs":[{"name":"","type":"bytes32","internalType":"bytes32"}],"stateMutability":"view"},{"type":"function","name":"churnApprover","inputs":[],"outputs":[{"name":"","type":"address","internalType":"address"}],"stateMutability":"view"},{"type":"function","name":"commitToExit","inputs":[{"name":"newRegisteredTillBlock","type":"uint256","internalType":"uint256"}],"outputs":[],"stateMutability":"nonpayable"},{"type":"function","name":"createQuorum","inputs":[{"name":"operatorSetParams","type":"tuple","internalType":"struct IRegistryCoordinator.OperatorSetParam","components":[{"name":"maxOperatorCount","type":"uint32","internalType":"uint32"},{"name":"kickBIPsOfOperatorStake","type":"uint16","internalType":"uint16"},{"name":"kickBIPsOfTotalStake","type":"uint16","internalType":"uint16"}]},{"name":"minimumStake","type":"uint96","internalType":"uint96"},{"name":"strategyParams","type":"tuple[]","internalType":"struct IStakeRegistry.StrategyParams[]","components":[{"name":"strategy","type":"address","internalType":"contract IStrategy"},{"name":"multiplier","type":"uint96","internalType":"uint96"}]}],"outputs":[],"stateMutability":"nonpayable"},{"type":"function","name":"deregisterOperator","inputs":[{"name":"quorumNumbers","type":"bytes","internalType":"bytes"}],"outputs":[],"stateMutability":"nonpayable"},{"type":"function","name":"ejectOperator","inputs":[{"name":"operator","type":"address","internalType":"address"},{"name":"quorumNumbers","type":"bytes","internalType":"bytes"}],"outputs":[],"stateMutability":"nonpayable"},{"type":"function","name":"ejector","inputs":[],"outputs":[{"name":"","type":"address","internalType":"address"}],"stateMutability":"view"},{"type":"function","name":"getCurrentQuorumBitmap","inputs":[{"name":"operatorId","type":"bytes32","internalType":"bytes32"}],"outputs":[{"name":"","type":"uint192","internalType":"uint192"}],"stateMutability":"view"},{"type":"function","name":"getOperator","inputs":[{"name":"operator","type":"address","internalType":"address"}],"outputs":[{"name":"","type":"tuple","internalType":"struct IRegistryCoordinator.OperatorInfo","components":[{"name":"operatorId","type":"bytes32","internalType":"bytes32"},{"name":"status","type":"uint8","internalType":"enum IRegistryCoordinator.OperatorStatus"}]}],"stateMutability":"view"},{"type":"function","name":"getOperatorFromId","inputs":[{"name":"operatorId","type":"bytes32","internalType":"bytes32"}],"outputs":[{"name":"","type":"address","internalType":"address"}],"stateMutability":"view"},{"type":"function","name":"getOperatorId","inputs":[{"name":"operator","type":"address","internalType":"address"}],"outputs":[{"name":"","type":"bytes32","internalType":"bytes32"}],"stateMutability":"view"},{"type":"function","name":"getOperatorSetParams","inputs":[{"name":"quorumNumber","type":"uint8","internalType":"uint8"}],"outputs":[{"name":"","type":"tuple","internalType":"struct IRegistryCoordinator.OperatorSetParam","components":[{"name":"maxOperatorCount","type":"uint32","internalType":"uint32"},{"name":"kickBIPsOfOperatorStake","type":"uint16","internalType":"uint16"},{"name":"kickBIPsOfTotalStake","type":"uint16","internalType":"uint16"}]}],"stateMutability":"view"},{"type":"function","name":"getOperatorStatus","inputs":[{"name":"operator","type":"address","internalType":"address"}],"outputs":[{"name":"","type":"uint8","internalType":"enum IRegistryCoordinator.OperatorStatus"}],"stateMutability":"view"},{"type":"function","name":"getQuorumBitmapAtBlockNumberByIndex","inputs":[{"name":"operatorId","type":"bytes32","internalType":"bytes32"},{"name":"blockNumber","type":"uint32","internalType":"uint32"},{"name":"index","type":"uint256","internalType":"uint256"}],"outputs":[{"name":"","type":"uint192","internalType":"uint192"}],"stateMutability":"view"},{"type":"function","name":"getQuorumBitmapHistoryLength","inputs":[{"name":"operatorId","type":"bytes32","internalType":"bytes32"}],"outputs":[{"name":"","type":"uint256","internalType":"uint256"}],"stateMutability":"view"},{"type":"function","name":"getQuorumBitmapIndicesAtBlockNumber","inputs":[{"name":"blockNumber","type":"uint32","internalType":"uint32"},{"name":"operatorIds","type":"bytes32[]","internalType":"bytes32[]"}],"outputs":[{"name":"","type":"uint32[]","internalType":"uint32[]"}],"stateMutability":"view"},{"type":"function","name":"getQuorumBitmapUpdateByIndex","inputs":[{"name":"operatorId","type":"bytes32","internalType":"bytes32"},{"name":"index","type":"uint256","internalType":"uint256"}],"outputs":[{"name":"","type":"tuple","internalType":"struct IRegistryCoordinator.QuorumBitmapUpdate","components":[{"name":"updateBlockNumber","type":"uint32","internalType":"uint32"},{"name":"nextUpdateBlockNumber","type":"uint32","internalType":"uint32"},{"name":"quorumBitmap","type":"uint192","internalType":"uint192"}]}],"stateMutability":"view"},{"type":"function","name":"indexRegistry","inputs":[],"outputs":[{"name":"","type":"address","internalType":"contract IIndexRegistry"}],"stateMutability":"view"},{"type":"function","name":"initialize","inputs":[{"name":"_initialOwner","type":"address","internalType":"address"},{"name":"_churnApprover","type":"address","internalType":"address"},{"name":"_ejector","type":"address","internalType":"address"},{"name":"_pauserRegistry","type":"address","internalType":"contract IPauserRegistry"},{"name":"_initialPausedStatus","type":"uint256","internalType":"uint256"},{"name":"_operatorSetParams","type":"tuple[]","internalType":"struct IRegistryCoordinator.OperatorSetParam[]","components":[{"name":"maxOperatorCount","type":"uint32","internalType":"uint32"},{"name":"kickBIPsOfOperatorStake","type":"uint16","internalType":"uint16"},{"name":"kickBIPsOfTotalStake","type":"uint16","internalType":"uint16"}]},{"name":"_minimumStakes","type":"uint96[]","internalType":"uint96[]"},{"name":"_strategyParams","type":"tuple[][]","internalType":"struct IStakeRegistry.StrategyParams[][]","components":[{"name":"strategy","type":"address","internalType":"contract IStrategy"},{"name":"multiplier","type":"uint96","internalType":"uint96"}]},{"name":"_whitelist","type":"address","internalType":"contract IWhitelist"}],"outputs":[],"stateMutability":"nonpayable"},{"type":"function","name":"isChurnApproverSaltUsed","inputs":[{"name":"","type":"bytes32","internalType":"bytes32"}],"outputs":[{"name":"","type":"bool","internalType":"bool"}],"stateMutability":"view"},{"type":"function","name":"numRegistries","inputs":[],"outputs":[{"name":"","type":"uint256","internalType":"uint256"}],"stateMutability":"view"},{"type":"function","name":"owner","inputs":[],"outputs":[{"name":"","type":"address","internalType":"address"}],"stateMutability":"view"},{"type":"function","name":"pause","inputs":[{"name":"newPausedStatus","type":"uint256","internalType":"uint256"}],"outputs":[],"stateMutability":"nonpayable"},{"type":"function","name":"pauseAll","inputs":[],"outputs":[],"stateMutability":"nonpayable"},{"type":"function","name":"paused","inputs":[{"name":"index","type":"uint8","internalType":"uint8"}],"outputs":[{"name":"","type":"bool","internalType":"bool"}],"stateMutability":"view"},{"type":"function","name":"paused","inputs":[],"outputs":[{"name":"","type":"uint256","internalType":"uint256"}],"stateMutability":"view"},{"type":"function","name":"pauserRegistry","inputs":[],"outputs":[{"name":"","type":"address","internalType":"contract IPauserRegistry"}],"stateMutability":"view"},{"type":"function","name":"pubkeyRegistrationMessageHash","inputs":[{"name":"operator","type":"address","internalType":"address"}],"outputs":[{"name":"","type":"tuple","internalType":"struct BN254.G1Point","components":[{"name":"X","type":"uint256","internalType":"uint256"},{"name":"Y","type":"uint256","internalType":"uint256"}]}],"stateMutability":"view"},{"type":"function","name":"quorumCount","inputs":[],"outputs":[{"name":"","type":"uint8","internalType":"uint8"}],"stateMutability":"view"},{"type":"function","name":"quorumUpdateBlockNumber","inputs":[{"name":"","type":"uint8","internalType":"uint8"}],"outputs":[{"name":"","type":"uint256","internalType":"uint256"}],"stateMutability":"view"},{"type":"function","name":"registerOperator","inputs":[{"name":"quorumNumbers","type":"bytes","internalType":"bytes"},{"name":"socket","type":"string","internalType":"string"},{"name":"params","type":"tuple","internalType":"struct IBLSApkRegistry.PubkeyRegistrationParams","components":[{"name":"pubkeyRegistrationSignature","type":"tuple","internalType":"struct BN254.G1Point","components":[{"name":"X","type":"uint256","internalType":"uint256"},{"name":"Y","type":"uint256","internalType":"uint256"}]},{"name":"pubkeyG1","type":"tuple","internalType":"struct BN254.G1Point","components":[{"name":"X","type":"uint256","internalType":"uint256"},{"name":"Y","type":"uint256","internalType":"uint256"}]},{"name":"pubkeyG2","type":"tuple","internalType":"struct BN254.G2Point","components":[{"name":"X","type":"uint256[2]","internalType":"uint256[2]"},{"name":"Y","type":"uint256[2]","internalType":"uint256[2]"}]}]},{"name":"operatorSignature","type":"tuple","internalType":"struct ISignatureUtils.SignatureWithSaltAndExpiry","components":[{"name":"signature","type":"bytes","internalType":"bytes"},{"name":"salt","type":"bytes32","internalType":"bytes32"},{"name":"expiry","type":"uint256","internalType":"uint256"}]}],"outputs":[],"stateMutability":"nonpayable"},{"type":"function","name":"registerOperatorWithChurn","inputs":[{"name":"quorumNumbers","type":"bytes","internalType":"bytes"},{"name":"socket","type":"string","internalType":"string"},{"name":"params","type":"tuple","internalType":"struct IBLSApkRegistry.PubkeyRegistrationParams","components":[{"name":"pubkeyRegistrationSignature","type":"tuple","internalType":"struct BN254.G1Point","components":[{"name":"X","type":"uint256","internalType":"uint256"},{"name":"Y","type":"uint256","internalType":"uint256"}]},{"name":"pubkeyG1","type":"tuple","internalType":"struct BN254.G1Point","components":[{"name":"X","type":"uint256","internalType":"uint256"},{"name":"Y","type":"uint256","internalType":"uint256"}]},{"name":"pubkeyG2","type":"tuple","internalType":"struct BN254.G2Point","components":[{"name":"X","type":"uint256[2]","internalType":"uint256[2]"},{"name":"Y","type":"uint256[2]","internalType":"uint256[2]"}]}]},{"name":"operatorKickParams","type":"tuple[]","internalType":"struct IRegistryCoordinator.OperatorKickParam[]","components":[{"name":"quorumNumber","type":"uint8","internalType":"uint8"},{"name":"operator","type":"address","internalType":"address"}]},{"name":"churnApproverSignature","type":"tuple","internalType":"struct ISignatureUtils.SignatureWithSaltAndExpiry","components":[{"name":"signature","type":"bytes","internalType":"bytes"},{"name":"salt","type":"bytes32","internalType":"bytes32"},{"name":"expiry","type":"uint256","internalType":"uint256"}]},{"name":"operatorSignature","type":"tuple","internalType":"struct ISignatureUtils.SignatureWithSaltAndExpiry","components":[{"name":"signature","type":"bytes","internalType":"bytes"},{"name":"salt","type":"bytes32","internalType":"bytes32"},{"name":"expiry","type":"uint256","internalType":"uint256"}]}],"outputs":[],"stateMutability":"nonpayable"},{"type":"function","name":"registeredTillBlock","inputs":[{"name":"","type":"address","internalType":"address"}],"outputs":[{"name":"","type":"uint256","internalType":"uint256"}],"stateMutability":"view"},{"type":"function","name":"registries","inputs":[{"name":"","type":"uint256","internalType":"uint256"}],"outputs":[{"name":"","type":"address","internalType":"address"}],"stateMutability":"view"},{"type":"function","name":"renounceOwnership","inputs":[],"outputs":[],"stateMutability":"nonpayable"},{"type":"function","name":"serviceManager","inputs":[],"outputs":[{"name":"","type":"address","internalType":"contract IServiceManager"}],"stateMutability":"view"},{"type":"function","name":"setChurnApprover","inputs":[{"name":"_churnApprover","type":"address","internalType":"address"}],"outputs":[],"stateMutability":"nonpayable"},{"type":"function","name":"setEjector","inputs":[{"name":"_ejector","type":"address","internalType":"address"}],"outputs":[],"stateMutability":"nonpayable"},{"type":"function","name":"setOperatorSetParams","inputs":[{"name":"quorumNumber","type":"uint8","internalType":"uint8"},{"name":"operatorSetParams","type":"tuple","internalType":"struct IRegistryCoordinator.OperatorSetParam","components":[{"name":"maxOperatorCount","type":"uint32","internalType":"uint32"},{"name":"kickBIPsOfOperatorStake","type":"uint16","internalType":"uint16"},{"name":"kickBIPsOfTotalStake","type":"uint16","internalType":"uint16"}]}],"outputs":[],"stateMutability":"nonpayable"},{"type":"function","name":"setPauserRegistry","inputs":[{"name":"newPauserRegistry","type":"address","internalType":"contract IPauserRegistry"}],"outputs":[],"stateMutability":"nonpayable"},{"type":"function","name":"stakeRegistry","inputs":[],"outputs":[{"name":"","type":"address","internalType":"contract IStakeRegistry"}],"stateMutability":"view"},{"type":"function","name":"transferOwnership","inputs":[{"name":"newOwner","type":"address","internalType":"address"}],"outputs":[],"stateMutability":"nonpayable"},{"type":"function","name":"unpause","inputs":[{"name":"newPausedStatus","type":"uint256","internalType":"uint256"}],"outputs":[],"stateMutability":"nonpayable"},{"type":"function","name":"updateOperators","inputs":[{"name":"operators","type":"address[]","internalType":"address[]"}],"outputs":[],"stateMutability":"nonpayable"},{"type":"function","name":"updateOperatorsForQuorum","inputs":[{"name":"operatorsPerQuorum","type":"address[][]","internalType":"address[][]"},{"name":"quorumNumbers","type":"bytes","internalType":"bytes"}],"outputs":[],"stateMutability":"nonpayable"},{"type":"function","name":"updateSocket","inputs":[{"name":"socket","type":"string","internalType":"string"}],"outputs":[],"stateMutability":"nonpayable"},{"type":"function","name":"whitelist","inputs":[],"outputs":[{"name":"","type":"address","internalType":"contract IWhitelist"}],"stateMutability":"view"},{"type":"event","name":"ChurnApproverUpdated","inputs":[{"name":"prevChurnApprover","type":"address","indexed":false,"internalType":"address"},{"name":"newChurnApprover","type":"address","indexed":false,"internalType":"address"}],"anonymous":false},{"type":"event","name":"EjectorUpdated","inputs":[{"name":"prevEjector","type":"address","indexed":false,"internalType":"address"},{"name":"newEjector","type":"address","indexed":false,"internalType":"address"}],"anonymous":false},{"type":"event","name":"Initialized","inputs":[{"name":"version","type":"uint8","indexed":false,"internalType":"uint8"}],"anonymous":false},{"type":"event","name":"OperatorDeregistered","inputs":[{"name":"operator","type":"address","indexed":true,"internalType":"address"},{"name":"operatorId","type":"bytes32","indexed":true,"internalType":"bytes32"}],"anonymous":false},{"type":"event","name":"OperatorRegistered","inputs":[{"name":"operator","type":"address","indexed":true,"internalType":"address"},{"name":"operatorId","type":"bytes32","indexed":true,"internalType":"bytes32"}],"anonymous":false},{"type":"event","name":"OperatorSetParamsUpdated","inputs":[{"name":"quorumNumber","type":"uint8","indexed":true,"internalType":"uint8"},{"name":"operatorSetParams","type":"tuple","indexed":false,"internalType":"struct IRegistryCoordinator.OperatorSetParam","components":[{"name":"maxOperatorCount","type":"uint32","internalType":"uint32"},{"name":"kickBIPsOfOperatorStake","type":"uint16","internalType":"uint16"},{"name":"kickBIPsOfTotalStake","type":"uint16","internalType":"uint16"}]}],"anonymous":false},{"type":"event","name":"OperatorSocketUpdate","inputs":[{"name":"operatorId","type":"bytes32","indexed":true,"internalType":"bytes32"},{"name":"socket","type":"string","indexed":false,"internalType":"string"}],"anonymous":false},{"type":"event","name":"OwnershipTransferred","inputs":[{"name":"previousOwner","type":"address","indexed":true,"internalType":"address"},{"name":"newOwner","type":"address","indexed":true,"internalType":"address"}],"anonymous":false},{"type":"event","name":"Paused","inputs":[{"name":"account","type":"address","indexed":true,"internalType":"address"},{"name":"newPausedStatus","type":"uint256","indexed":false,"internalType":"uint256"}],"anonymous":false},{"type":"event","name":"PauserRegistrySet","inputs":[{"name":"pauserRegistry","type":"address","indexed":false,"internalType":"contract IPauserRegistry"},{"name":"newPauserRegistry","type":"address","indexed":false,"internalType":"contract IPauserRegistry"}],"anonymous":false},{"type":"event","name":"QuorumBlockNumberUpdated","inputs":[{"name":"quorumNumber","type":"uint8","indexed":true,"internalType":"uint8"},{"name":"blocknumber","type":"uint256","indexed":false,"internalType":"uint256"}],"anonymous":false},{"type":"event","name":"Unpaused","inputs":[{"name":"account","type":"address","indexed":true,"internalType":"address"},{"name":"newPausedStatus","type":"uint256","indexed":false,"internalType":"uint256"}],"anonymous":false}],"bytecode":{"object":"0x6101c06040523480156200001257600080fd5b506040516200632f3803806200632f833981016040819052620000359162000254565b604080518082018252601681527f4156535265676973747279436f6f7264696e61746f720000000000000000000060208083019182528351808501909452600684526576302e302e3160d01b908401528151902060e08190527f6bda7e3f385e48841048390444cced5cc795af87758af67622e5f4f0882c4a996101008190524660a05287938793879387939192917f8b73c3c69bb8fe3d512ecc4cf759cc79239f7b179b0ffacaa9a75d522b39400f620001358184846040805160208101859052908101839052606081018290524660808201523060a082015260009060c0016040516020818303038152906040528051906020012090509392505050565b6080523060c05261012052505050506001600160a01b039384166101405291831661018052821661016052166101a0526200016f62000179565b50505050620002bc565b600054610100900460ff1615620001e65760405162461bcd60e51b815260206004820152602760248201527f496e697469616c697a61626c653a20636f6e747261637420697320696e697469604482015266616c697a696e6760c81b606482015260840160405180910390fd5b60005460ff908116101562000239576000805460ff191660ff9081179091556040519081527f7f26b83ff96e1f2b6a682f133852f6798a09c465da95921460cefb38474024989060200160405180910390a15b565b6001600160a01b03811681146200025157600080fd5b50565b600080600080608085870312156200026b57600080fd5b845162000278816200023b565b60208601519094506200028b816200023b565b60408601519093506200029e816200023b565b6060860151909250620002b1816200023b565b939692955090935050565b60805160a05160c05160e05161010051610120516101405161016051610180516101a051615f6b620003c4600039600081816106c601528181611197015281816122dc01528181612fcf015281816137620152613df90152600081816105d8015281816122670152818161273d01528181612f4f015281816136b9015281816138f90152613d7801526000818161059e01528181610f46015281816122a501528181612ed1015281816130b70152818161312d015281816136390152613e750152600081816104e201528181612e27015261358201526000613f8c01526000613fdb01526000613fb601526000613f0f01526000613f3901526000613f630152615f6b6000f3fe608060405234801561001057600080fd5b50600436106102f05760003560e01c8063683048351161019d578063a50857bf116100e9578063d72d8dd6116100a2578063e65797ad1161007c578063e65797ad146107e6578063f2fde38b14610889578063fabc1cbc1461089c578063fd39105a146108af57600080fd5b8063d72d8dd6146107a2578063d7476791146107aa578063d75b4c88146107d357600080fd5b8063a50857bf1461070f578063c391425e14610722578063ca0de88214610742578063ca4f2d9714610769578063cf9982841461077c578063d20215f31461078f57600080fd5b8063886f1195116101565780639aa1653d116101305780639aa1653d1461068f5780639b5d177b146106ae5780639e9923c2146106c15780639feab859146106e857600080fd5b8063886f11951461065b5780638da5cb5b1461067457806393e59dc11461067c57600080fd5b806368304835146105d35780636e3b17db146105fa578063715018a61461060d5780637ffbb5f11461061557806384ca521314610635578063871ef0491461064857600080fd5b8063296bb0641161025c5780635865c60c116102155780635b0b829f116101ef5780635b0b829f1461057e5780635c975abb146105915780635df45946146105995780636347c900146105c057600080fd5b80635865c60c14610537578063595c6a67146105575780635ac86ab71461055f57600080fd5b8063296bb064146104a457806329d1e0c3146104b75780632cdd1e86146104ca5780633998fdd3146104dd5780633c2a7f4c146105045780635140a5481461052457600080fd5b806313542a4e116102ae57806313542a4e146103b9578063136439dd146103e25780631478851f146103f55780631eb812da14610428578063249a0c421461047157806328f61b311461049157600080fd5b8062cf2ab5146102f557806303fd34921461030a57806304ec63511461033d578063054310e6146103685780630cf4b7671461039357806310d67a2f146103a6575b600080fd5b610308610303366004614a8c565b6108eb565b005b61032a610318366004614acd565b60009081526098602052604090205490565b6040519081526020015b60405180910390f35b61035061034b366004614af8565b610a01565b6040516001600160c01b039091168152602001610334565b609e5461037b906001600160a01b031681565b6040516001600160a01b039091168152602001610334565b6103086103a1366004614c17565b610bda565b6103086103b4366004614c8c565b610cac565b61032a6103c7366004614c8c565b6001600160a01b031660009081526099602052604090205490565b6103086103f0366004614acd565b610d5f565b610418610403366004614acd565b609a6020526000908152604090205460ff1681565b6040519015158152602001610334565b61043b610436366004614ca9565b610e9c565b60408051825163ffffffff908116825260208085015190911690820152918101516001600160c01b031690820152606001610334565b61032a61047f366004614cdc565b609b6020526000908152604090205481565b609f5461037b906001600160a01b031681565b61037b6104b2366004614acd565b610f2d565b6103086104c5366004614c8c565b610fb9565b6103086104d8366004614c8c565b610fca565b61037b7f000000000000000000000000000000000000000000000000000000000000000081565b610517610512366004614c8c565b610fdb565b6040516103349190614cf7565b610308610532366004614d4f565b61105a565b61054a610545366004614c8c565b61151d565b6040516103349190614df2565b610308611591565b61041861056d366004614cdc565b6001805460ff9092161b9081161490565b61030861058c366004614e77565b61165d565b60015461032a565b61037b7f000000000000000000000000000000000000000000000000000000000000000081565b61037b6105ce366004614acd565b6116e3565b61037b7f000000000000000000000000000000000000000000000000000000000000000081565b610308610608366004614eab565b61170d565b6103086117bf565b61032a610623366004614c8c565b609c6020526000908152604090205481565b61032a610643366004614f62565b6117d3565b610350610656366004614acd565b61181d565b60005461037b906201000090046001600160a01b031681565b61037b611828565b60c95461037b906001600160a01b031681565b60965461069c9060ff1681565b60405160ff9091168152602001610334565b6103086106bc3660046150fb565b611841565b61037b7f000000000000000000000000000000000000000000000000000000000000000081565b61032a7f2bd82124057f0913bc3b772ce7b83e8057c1ad1f3510fc83778be20f10ec5de681565b61030861071d3660046151f4565b611b6b565b61073561073036600461529c565b611d9c565b6040516103349190615341565b61032a7f4d404e3276e7ac2163d8ee476afa6a41d1f68fb71f2d8b6546b24e55ce01b72a81565b61030861077736600461538b565b611e55565b61030861078a366004614acd565b611f4b565b61030861079d3660046155c4565b6120d1565b609d5461032a565b61032a6107b8366004614c8c565b6001600160a01b03166000908152609c602052604090205490565b6103086107e13660046156a9565b6123e5565b6108556107f4366004614cdc565b60408051606080820183526000808352602080840182905292840181905260ff9490941684526097825292829020825193840183525463ffffffff8116845261ffff600160201b8204811692850192909252600160301b9004169082015290565b60408051825163ffffffff16815260208084015161ffff908116918301919091529282015190921690820152606001610334565b610308610897366004614c8c565b6123f8565b6103086108aa366004614acd565b61246e565b6108de6108bd366004614c8c565b6001600160a01b031660009081526099602052604090206001015460ff1690565b6040516103349190615709565b6001546002906004908116141561091d5760405162461bcd60e51b815260040161091490615717565b60405180910390fd5b60005b828110156109fb57600084848381811061093c5761093c61574e565b90506020020160208101906109519190614c8c565b6001600160a01b03811660009081526099602090815260408083208151808301909252805482526001810154949550929390929183019060ff16600281111561099c5761099c614dba565b60028111156109ad576109ad614dba565b905250805190915060006109c0826125ca565b905060006109d6826001600160c01b0316612633565b90506109e38585836126ff565b505050505080806109f39061577a565b915050610920565b50505050565b6000838152609860205260408120805482919084908110610a2457610a2461574e565b600091825260209182902060408051606081018252929091015463ffffffff808216808552600160201b8304821695850195909552600160401b9091046001600160c01b03169183019190915290925085161015610b105760405162461bcd60e51b815260206004820152605a60248201527f4665726d616852432e67657451756f72756d4269746d61704174426c6f636b4e60448201527f756d6265724279496e6465783a2071756f72756d4269746d617055706461746560648201527f2069732066726f6d20616674657220626c6f636b4e756d626572000000000000608482015260a401610914565b602081015163ffffffff161580610b365750806020015163ffffffff168463ffffffff16105b610bce5760405162461bcd60e51b815260206004820152605b60248201527f4665726d616852432e67657451756f72756d4269746d61704174426c6f636b4e60448201527f756d6265724279496e6465783a2071756f72756d4269746d617055706461746560648201527f2069732066726f6d206265666f726520626c6f636b4e756d6265720000000000608482015260a401610914565b60400151949350505050565b60013360009081526099602052604090206001015460ff166002811115610c0357610c03614dba565b14610c605760405162461bcd60e51b815260206004820152602760248201527f4665726d616852432e75733a206f70657261746f72206973206e6f74207265676044820152661a5cdd195c995960ca1b6064820152608401610914565b33600090815260996020526040908190205490517fec2963ab21c1e50e1e582aa542af2e4bf7bf38e6e1403c27b42e1c5d6e621eaa90610ca19084906157e2565b60405180910390a250565b600060029054906101000a90046001600160a01b03166001600160a01b031663eab66d7a6040518163ffffffff1660e01b8152600401602060405180830381865afa158015610cff573d6000803e3d6000fd5b505050506040513d601f19601f82011682018060405250810190610d2391906157f5565b6001600160a01b0316336001600160a01b031614610d535760405162461bcd60e51b815260040161091490615812565b610d5c816127ec565b50565b60005460405163237dfb4760e11b8152336004820152620100009091046001600160a01b0316906346fbf68e90602401602060405180830381865afa158015610dac573d6000803e3d6000fd5b505050506040513d601f19601f82011682018060405250810190610dd0919061585c565b610dec5760405162461bcd60e51b81526004016109149061587e565b60015481811614610e655760405162461bcd60e51b815260206004820152603860248201527f5061757361626c652e70617573653a20696e76616c696420617474656d70742060448201527f746f20756e70617573652066756e6374696f6e616c69747900000000000000006064820152608401610914565b600181905560405181815233907fab40a374bc51de372200a8bc981af8c9ecdc08dfdaef0bb6e09f88f3c616ef3d90602001610ca1565b60408051606081018252600080825260208201819052918101919091526000838152609860205260409020805483908110610ed957610ed961574e565b600091825260209182902060408051606081018252919092015463ffffffff8082168352600160201b820416938201939093526001600160c01b03600160401b909304929092169082015290505b92915050565b6040516308f6629d60e31b8152600481018290526000907f00000000000000000000000000000000000000000000000000000000000000006001600160a01b0316906347b314e890602401602060405180830381865afa158015610f95573d6000803e3d6000fd5b505050506040513d601f19601f82011682018060405250810190610f2791906157f5565b610fc16128f1565b610d5c81612950565b610fd26128f1565b610d5c816129b9565b6040805180820190915260008082526020820152610f276110557f2bd82124057f0913bc3b772ce7b83e8057c1ad1f3510fc83778be20f10ec5de68460405160200161103a9291909182526001600160a01b0316602082015260400190565b60405160208183030381529060405280519060200120612a22565b612a70565b600154600290600490811614156110835760405162461bcd60e51b815260040161091490615717565b60006110cb84848080601f0160208091040260200160405190810160405280939291908181526020018383808284376000920191909152505060965460ff169150612b009050565b90508483146111285760405162461bcd60e51b8152602060048201526024808201527f4665726d616852432e756f66713a20696e707574206c656e677468206d69736d6044820152630c2e8c6d60e31b6064820152608401610914565b60005b838110156115145760008585838181106111475761114761574e565b919091013560f81c915036905060008989858181106111685761116861574e565b905060200281019061117a91906158c6565b6040516379a0849160e11b815260ff8616600482015291935091507f00000000000000000000000000000000000000000000000000000000000000006001600160a01b03169063f341092290602401602060405180830381865afa1580156111e6573d6000803e3d6000fd5b505050506040513d601f19601f8201168201806040525081019061120a919061590f565b63ffffffff1681146112935760405162461bcd60e51b815260206004820152604660248201527f4665726d616852432e756f66713a206e756d626572206f66207570646174656460448201527f206f70657261746f727320646f6573206e6f74206d617463682071756f72756d606482015265081d1bdd185b60d21b608482015260a401610914565b6000805b828110156114b35760008484838181106112b3576112b361574e565b90506020020160208101906112c89190614c8c565b6001600160a01b03811660009081526099602090815260408083208151808301909252805482526001810154949550929390929183019060ff16600281111561131357611313614dba565b600281111561132457611324614dba565b90525080519091506000611337826125ca565b905060016001600160c01b03821660ff8b161c8116146113a75760405162461bcd60e51b815260206004820152602560248201527f4665726d616852432e756f66713a206f70657261746f72206e6f7420696e2071604482015264756f72756d60d81b6064820152608401610914565b856001600160a01b0316846001600160a01b03161161143f5760405162461bcd60e51b815260206004820152604860248201527f4665726d616852432e756f66713a206f70657261746f7273206172726179206d60448201527f75737420626520736f7274656420696e20617363656e64696e6720616464726560648201526739b99037b93232b960c11b608482015260a401610914565b5061149d83838f8f8d908e6001611456919061592c565b9261146393929190615944565b8080601f0160208091040260200160405190810160405280939291908181526020018383808284376000920191909152506126ff92505050565b509092506114ac90508161577a565b9050611297565b5060ff84166000818152609b6020908152604091829020439081905591519182527f46077d55330763f16269fd75e5761663f4192d2791747c0189b16ad31db07db4910160405180910390a2505050508061150d9061577a565b905061112b565b50505050505050565b60408051808201909152600080825260208201526001600160a01b0382166000908152609960209081526040918290208251808401909352805483526001810154909183019060ff16600281111561157757611577614dba565b600281111561158857611588614dba565b90525092915050565b60005460405163237dfb4760e11b8152336004820152620100009091046001600160a01b0316906346fbf68e90602401602060405180830381865afa1580156115de573d6000803e3d6000fd5b505050506040513d601f19601f82011682018060405250810190611602919061585c565b61161e5760405162461bcd60e51b81526004016109149061587e565b600019600181905560405190815233907fab40a374bc51de372200a8bc981af8c9ecdc08dfdaef0bb6e09f88f3c616ef3d9060200160405180910390a2565b6116656128f1565b609654829060ff908116908216106116d45760405162461bcd60e51b815260206004820152602c60248201527f4665726d616852432e71756f72756d4578697374733a2071756f72756d20646f60448201526b195cc81b9bdd08195e1a5cdd60a21b6064820152608401610914565b6116de8383612b91565b505050565b609d81815481106116f357600080fd5b6000918252602090912001546001600160a01b0316905081565b609f546001600160a01b0316331461177f5760405162461bcd60e51b815260206004820152602f60248201527f4665726d616852432e6f6e6c79456a6563746f723a2063616c6c65722069732060448201526e3737ba103a34329032b532b1ba37b960891b6064820152608401610914565b6116de8383838080601f016020809104026020016040519081016040528093929190818152602001838380828437600092019190915250612c3e92505050565b6117c76128f1565b6117d16000613043565b565b60006118137f4d404e3276e7ac2163d8ee476afa6a41d1f68fb71f2d8b6546b24e55ce01b72a878787878760405160200161103a9695949392919061596e565b9695505050505050565b6000610f27826125ca565b600061183c6064546001600160a01b031690565b905090565b6001805460009190811614156118695760405162461bcd60e51b815260040161091490615717565b8389146118de5760405162461bcd60e51b815260206004820152603960248201527f4665726d616852432e72656769737465724f70657261746f725769746843687560448201527f726e3a20696e707574206c656e677468206d69736d61746368000000000000006064820152608401610914565b60006118ea3388613095565b905061194a33828888808060200260200160405190810160405280939291908181526020016000905b8282101561193f57611930604083028601368190038101906159f3565b81526020019060010190611913565b5050505050876131c6565b600061199133838e8e8e8e8080601f0160208091040260200160405190810160405280939291908181526020018383808284376000920191909152508c9250613301915050565b905060005b8b811015611b5c576000609760008f8f858181106119b6576119b661574e565b919091013560f81c82525060208082019290925260409081016000208151606081018352905463ffffffff811680835261ffff600160201b8304811695840195909552600160301b90910490931691810191909152845180519193509084908110611a2357611a2361574e565b602002602001015163ffffffff161115611b4957611ac48e8e84818110611a4c57611a4c61574e565b9050013560f81c60f81b60f81c84604001518481518110611a6f57611a6f61574e565b60200260200101513386602001518681518110611a8e57611a8e61574e565b60200260200101518d8d88818110611aa857611aa861574e565b905060400201803603810190611abe91906159f3565b866137f0565b611b49898984818110611ad957611ad961574e565b9050604002016020016020810190611af19190614c8c565b8f8f8590866001611b02919061592c565b92611b0f93929190615944565b8080601f016020809104026020016040519081016040528093929190818152602001838380828437600092019190915250612c3e92505050565b5080611b548161577a565b915050611996565b50505050505050505050505050565b600180546000919081161415611b935760405162461bcd60e51b815260040161091490615717565b60c954604051631399625f60e01b81523360048201526000916001600160a01b031690631399625f90602401602060405180830381865afa158015611bdc573d6000803e3d6000fd5b505050506040513d601f19601f82011682018060405250810190611c009190615a0f565b1415611c4e5760405162461bcd60e51b815260206004820152601b60248201527f4f70657261746f72206973206e6f742077686974656c697374656400000000006044820152606401610914565b6000611c5a3385613095565b90506000611ca333838b8b8b8b8080601f0160208091040260200160405190810160405280939291908181526020018383808284376000920191909152508c9250613301915050565b51905060005b88811015611d905760008a8a83818110611cc557611cc561574e565b919091013560f81c600081815260976020526040902054855191935063ffffffff169150849084908110611cfb57611cfb61574e565b602002602001015163ffffffff161115611d7d5760405162461bcd60e51b815260206004820152603960248201527f4665726d616852432e72656769737465724f70657261746f723a206f7065726160448201527f746f7220636f756e742065786365656473206d6178696d756d000000000000006064820152608401610914565b5080611d888161577a565b915050611ca9565b50505050505050505050565b6060600082516001600160401b03811115611db957611db9614b30565b604051908082528060200260200182016040528015611de2578160200160208202803683370190505b50905060005b8351811015611e4d57611e1485858381518110611e0757611e0761574e565b6020026020010151613aaa565b828281518110611e2657611e2661574e565b63ffffffff9092166020928302919091019091015280611e458161577a565b915050611de8565b509392505050565b6001805460029081161415611e7c5760405162461bcd60e51b815260040161091490615717565b336000908152609c6020526040902054431015611f0b5760405162461bcd60e51b815260206004820152604160248201527f4665726d616852432e646f3a206f70657261746f722063616e6e6f742064657260448201527f65676973746572206265666f72652074686520737065636966696320626c6f636064820152606b60f81b608482015260a401610914565b6116de3384848080601f016020809104026020016040519081016040528093929190818152602001838380828437600092019190915250612c3e92505050565b60013360009081526099602052604090206001015460ff166002811115611f7457611f74614dba565b14611fcf5760405162461bcd60e51b815260206004820152602560248201527f4665726d616852432e6572703a206e6f742072656769737465726564206f70656044820152643930ba37b960d91b6064820152608401610914565b43811161203d5760405162461bcd60e51b815260206004820152603660248201527f4665726d616852432e6572703a2063616e206f6e6c7920657874656e6420746f604482015275206120626c6f636b20696e207468652066757475726560501b6064820152608401610914565b61204860014361592c565b8110156120bf576040805162461bcd60e51b81526020600482015260248101919091527f4665726d616852432e6572703a2073706563696669656420626c6f636b20697360448201527f20746f6f20736d616c6c20666f7220746865206561726c6965737420657869746064820152608401610914565b336000908152609c6020526040902055565b600054610100900460ff16158080156120f15750600054600160ff909116105b8061210b5750303b15801561210b575060005460ff166001145b61216e5760405162461bcd60e51b815260206004820152602e60248201527f496e697469616c697a61626c653a20636f6e747261637420697320616c72656160448201526d191e481a5b9a5d1a585b1a5e995960921b6064820152608401610914565b6000805460ff191660011790558015612191576000805461ff0019166101001790555b835185511480156121a3575082518451145b6122025760405162461bcd60e51b815260206004820152602a60248201527f4665726d616852432e696e697469616c697a653a20696e707574206c656e67746044820152690d040dad2e6dac2e8c6d60b31b6064820152608401610914565b61220b8a613043565b6122158787613bdb565b61221e89612950565b612227886129b9565b609d80546001818101835560008381527fd26e832454299e9fabb89e0e5fffdc046d4e14431bc1bf607ffb2e8a1ddecf7b92830180546001600160a01b037f000000000000000000000000000000000000000000000000000000000000000081166001600160a01b03199283161790925585548085018755850180547f0000000000000000000000000000000000000000000000000000000000000000841690831617905585549384019095559190920180547f000000000000000000000000000000000000000000000000000000000000000090921691909316179091555b8551811015612378576123668682815181106123255761232561574e565b602002602001015186838151811061233f5761233f61574e565b60200260200101518684815181106123595761235961574e565b6020026020010151613ccb565b806123708161577a565b915050612307565b5060c980546001600160a01b0319166001600160a01b0384161790558015611d90576000805461ff0019169055604051600181527f7f26b83ff96e1f2b6a682f133852f6798a09c465da95921460cefb38474024989060200160405180910390a150505050505050505050565b6123ed6128f1565b6116de838383613ccb565b6124006128f1565b6001600160a01b0381166124655760405162461bcd60e51b815260206004820152602660248201527f4f776e61626c653a206e6577206f776e657220697320746865207a65726f206160448201526564647265737360d01b6064820152608401610914565b610d5c81613043565b600060029054906101000a90046001600160a01b03166001600160a01b031663eab66d7a6040518163ffffffff1660e01b8152600401602060405180830381865afa1580156124c1573d6000803e3d6000fd5b505050506040513d601f19601f820116820180604052508101906124e591906157f5565b6001600160a01b0316336001600160a01b0316146125155760405162461bcd60e51b815260040161091490615812565b6001541981196001541916146125935760405162461bcd60e51b815260206004820152603860248201527f5061757361626c652e756e70617573653a20696e76616c696420617474656d7060448201527f7420746f2070617573652066756e6374696f6e616c69747900000000000000006064820152608401610914565b600181905560405181815233907f3582d1828e26bf56bd801502bc021ac0bc8afb57c826e4986b45593c8fad389c90602001610ca1565b600081815260986020526040812054806125e75750600092915050565b6000838152609860205260409020612600600183615a28565b815481106126105761261061574e565b600091825260209091200154600160401b90046001600160c01b03169392505050565b606060008061264184613ed7565b61ffff166001600160401b0381111561265c5761265c614b30565b6040519080825280601f01601f191660200182016040528015612686576020820181803683370190505b5090506000805b82518210801561269e575061010081105b156126f5576001811b9350858416156126e5578060f81b8383815181106126c7576126c761574e565b60200101906001600160f81b031916908160001a9053508160010191505b6126ee8161577a565b905061268d565b5090949350505050565b60018260200151600281111561271757612717614dba565b1461272157505050565b81516040516333567f7f60e11b81526000906001600160a01b037f000000000000000000000000000000000000000000000000000000000000000016906366acfefe9061277690889086908890600401615a3f565b6020604051808303816000875af1158015612795573d6000803e3d6000fd5b505050506040513d601f19601f820116820180604052508101906127b99190615a6f565b90506001600160c01b038116156127e5576127e5856127e0836001600160c01b0316612633565b612c3e565b5050505050565b6001600160a01b03811661287a5760405162461bcd60e51b815260206004820152604960248201527f5061757361626c652e5f73657450617573657252656769737472793a206e657760448201527f50617573657252656769737472792063616e6e6f7420626520746865207a65726064820152686f206164647265737360b81b608482015260a401610914565b600054604080516001600160a01b03620100009093048316815291831660208301527f6e9fcd539896fca60e8b0f01dd580233e48a6b0f7df013b89ba7f565869acdb6910160405180910390a1600080546001600160a01b03909216620100000262010000600160b01b0319909216919091179055565b336128fa611828565b6001600160a01b0316146117d15760405162461bcd60e51b815260206004820181905260248201527f4f776e61626c653a2063616c6c6572206973206e6f7420746865206f776e65726044820152606401610914565b609e54604080516001600160a01b03928316815291831660208301527f315457d8a8fe60f04af17c16e2f5a5e1db612b31648e58030360759ef8f3528c910160405180910390a1609e80546001600160a01b0319166001600160a01b0392909216919091179055565b609f54604080516001600160a01b03928316815291831660208301527f8f30ab09f43a6c157d7fce7e0a13c003042c1c95e8a72e7a146a21c0caa24dc9910160405180910390a1609f80546001600160a01b0319166001600160a01b0392909216919091179055565b6000610f27612a2f613f02565b8360405161190160f01b6020820152602281018390526042810182905260009060620160405160208183030381529060405280519060200120905092915050565b604080518082019091526000808252602082015260008080612aa0600080516020615f1683398151915286615aae565b90505b612aac81614029565b9093509150600080516020615f16833981519152828309831415612ae6576040805180820190915290815260208101919091529392505050565b600080516020615f16833981519152600182089050612aa3565b600080612b0c846140ab565b9050808360ff166001901b11612b8a5760405162461bcd60e51b815260206004820152603f60248201527f4269746d61705574696c732e6f72646572656442797465734172726179546f4260448201527f69746d61703a206269746d61702065786365656473206d61782076616c7565006064820152608401610914565b9392505050565b60ff8216600081815260976020908152604091829020845181548684018051888701805163ffffffff90951665ffffffffffff199094168417600160201b61ffff938416021767ffff0000000000001916600160301b95831695909502949094179094558551918252518316938101939093525116918101919091527f3ee6fe8d54610244c3e9d3c066ae4aee997884aa28f10616ae821925401318ac9060600160405180910390a25050565b6001600160a01b0382166000908152609960205260409020805460018083015460ff166002811115612c7257612c72614dba565b14612cd05760405162461bcd60e51b815260206004820152602860248201527f4665726d616852432e5f646f3a206f70657261746f72206973206e6f7420726560448201526719da5cdd195c995960c21b6064820152608401610914565b609654600090612ce490859060ff16612b00565b90506000612cf1836125ca565b90506001600160c01b038216612d495760405162461bcd60e51b815260206004820181905260248201527f4665726d616852432e5f646f3a206269746d61702063616e6e6f7420626520306044820152606401610914565b612d606001600160c01b0383811690831681161490565b612dd25760405162461bcd60e51b815260206004820152603e60248201527f4665726d616852432e5f646f3a206f70657261746f72206973206e6f7420726560448201527f676973746572656420666f72207370656369666965642071756f72756d7300006064820152608401610914565b6001600160c01b0382811619821616612deb8482614238565b6001600160c01b038116612eba5760018501805460ff191660021790556040516351b27a6d60e11b81526001600160a01b0388811660048301527f0000000000000000000000000000000000000000000000000000000000000000169063a364f4da90602401600060405180830381600087803b158015612e6b57600080fd5b505af1158015612e7f573d6000803e3d6000fd5b50506040518692506001600160a01b038a1691507f396fdcb180cb0fea26928113fb0fd1c3549863f9cd563e6a184f1d578116c8e490600090a35b60405163f4e24fe560e01b81526001600160a01b037f0000000000000000000000000000000000000000000000000000000000000000169063f4e24fe590612f08908a908a90600401615ac2565b600060405180830381600087803b158015612f2257600080fd5b505af1158015612f36573d6000803e3d6000fd5b505060405163bd29b8cd60e01b81526001600160a01b037f000000000000000000000000000000000000000000000000000000000000000016925063bd29b8cd9150612f889087908a90600401615ae6565b600060405180830381600087803b158015612fa257600080fd5b505af1158015612fb6573d6000803e3d6000fd5b505060405163bd29b8cd60e01b81526001600160a01b037f000000000000000000000000000000000000000000000000000000000000000016925063bd29b8cd91506130089087908a90600401615ae6565b600060405180830381600087803b15801561302257600080fd5b505af1158015613036573d6000803e3d6000fd5b5050505050505050505050565b606480546001600160a01b038381166001600160a01b0319831681179093556040519116919082907f8be0079c531659141344cd1fd0a4f28419497f9722a3daafe3b4186f6b6457e090600090a35050565b6040516309aa152760e11b81526001600160a01b0383811660048301526000917f0000000000000000000000000000000000000000000000000000000000000000909116906313542a4e90602401602060405180830381865afa158015613100573d6000803e3d6000fd5b505050506040513d601f19601f820116820180604052508101906131249190615a0f565b905080610f27577f00000000000000000000000000000000000000000000000000000000000000006001600160a01b031663bf79ce58848461316587610fdb565b6040518463ffffffff1660e01b815260040161318393929190615aff565b6020604051808303816000875af11580156131a2573d6000803e3d6000fd5b505050506040513d601f19601f82011682018060405250810190612b8a9190615a0f565b6020808201516000908152609a909152604090205460ff16156132435760405162461bcd60e51b815260206004820152602f60248201527f4665726d616852432e5f766361733a20636875726e417070726f76657220736160448201526e1b1d08185b1c9958591e481d5cd959608a1b6064820152608401610914565b42816040015110156132af5760405162461bcd60e51b815260206004820152602f60248201527f4665726d616852432e5f766361733a20636875726e417070726f76657220736960448201526e19db985d1d5c9948195e1c1a5c9959608a1b6064820152608401610914565b602080820180516000908152609a909252604091829020805460ff19166001179055609e549051918301516109fb926001600160a01b03909216916132fa91889188918891906117d3565b83516143f8565b61332560405180606001604052806060815260200160608152602001606081525090565b600061336d86868080601f0160208091040260200160405190810160405280939291908181526020018383808284376000920191909152505060965460ff169150612b009050565b9050600061337a886125ca565b90506001600160c01b0382166133d25760405162461bcd60e51b815260206004820181905260248201527f4665726d616852432e5f726f3a206269746d61702063616e6e6f7420626520306044820152606401610914565b8082166001600160c01b0316156134695760405162461bcd60e51b815260206004820152604f60248201527f4665726d616852432e5f726f3a206f70657261746f7220616c7265616479207260448201527f65676973746572656420666f7220736f6d652071756f72756d73206265696e6760648201526e103932b3b4b9ba32b932b2103337b960891b608482015260a401610914565b6001600160c01b03818116908316176134828982614238565b887fec2963ab21c1e50e1e582aa542af2e4bf7bf38e6e1403c27b42e1c5d6e621eaa876040516134b291906157e2565b60405180910390a260016001600160a01b038b1660009081526099602052604090206001015460ff1660028111156134ec576134ec614dba565b14613622576040805180820182528a8152600160208083018281526001600160a01b038f166000908152609990925293902082518155925183820180549394939192909160ff19169083600281111561354757613547614dba565b021790555050506001600160a01b038a166000908152609c602052604090206000199055604051639926ee7d60e01b81526001600160a01b037f00000000000000000000000000000000000000000000000000000000000000001690639926ee7d906135b9908d908990600401615b7e565b600060405180830381600087803b1580156135d357600080fd5b505af11580156135e7573d6000803e3d6000fd5b50506040518b92506001600160a01b038d1691507fe8e68cef1c3a761ed7be7e8463a375f27f7bc335e51824223cacce636ec5c3fe90600090a35b604051631fd93ca960e11b81526001600160a01b037f00000000000000000000000000000000000000000000000000000000000000001690633fb2795290613672908d908c908c90600401615bf2565b600060405180830381600087803b15801561368c57600080fd5b505af11580156136a0573d6000803e3d6000fd5b5050604051632550477760e01b81526001600160a01b037f0000000000000000000000000000000000000000000000000000000000000000169250632550477791506136f6908d908d908d908d90600401615c17565b6000604051808303816000875af1158015613715573d6000803e3d6000fd5b505050506040513d6000823e601f3d908101601f1916820160405261373d9190810190615ca3565b60408087019190915260208601919091525162bff04d60e01b81526001600160a01b037f0000000000000000000000000000000000000000000000000000000000000000169062bff04d9061379a908c908c908c90600401615d06565b6000604051808303816000875af11580156137b9573d6000803e3d6000fd5b505050506040513d6000823e601f3d908101601f191682016040526137e19190810190615d20565b84525050509695505050505050565b6020808301516001600160a01b0380821660008181526099909452604090932054919290871614156138645760405162461bcd60e51b815260206004820152601f60248201527f4665726d616852432e5f76633a2063616e6e6f7420636875726e2073656c66006044820152606401610914565b8760ff16846000015160ff16146138d75760405162461bcd60e51b815260206004820152603160248201527f4665726d616852432e5f76633a2071756f72756d4e756d626572206e6f7420746044820152701a19481cd85b5948185cc81cda59db9959607a1b6064820152608401610914565b604051635401ed2760e01b81526004810182905260ff891660248201526000907f00000000000000000000000000000000000000000000000000000000000000006001600160a01b031690635401ed2790604401602060405180830381865afa158015613948573d6000803e3d6000fd5b505050506040513d601f19601f8201168201806040525081019061396c9190615db9565b905061397881856145b2565b6001600160601b0316866001600160601b031611613a00576040805162461bcd60e51b81526020600482015260248101919091527f4665726d616852432e5f76633a20696e636f6d696e67206f70657261746f722060448201527f68617320696e73756666696369656e74207374616b6520666f7220636875726e6064820152608401610914565b613a0a88856145d6565b6001600160601b0316816001600160601b031610613a9f5760405162461bcd60e51b815260206004820152604660248201527f4665726d616852432e5f76633a2063616e6e6f74206b69636b206f706572617460448201527f6f722077697468206d6f7265207468616e206b69636b424950734f66546f74616064820152656c5374616b6560d01b608482015260a401610914565b505050505050505050565b600081815260986020526040812054815b81811015613b3c576001613acf8284615a28565b613ad99190615a28565b92508463ffffffff16609860008681526020019081526020016000208463ffffffff1681548110613b0c57613b0c61574e565b60009182526020909120015463ffffffff1611613b2a575050610f27565b80613b348161577a565b915050613abb565b5060405162461bcd60e51b815260206004820152606160248201527f4665726d616852432e67657451756f72756d4269746d6170496e64657841744260448201527f6c6f636b4e756d6265723a206e6f206269746d61702075706461746520666f7560648201527f6e6420666f72206f70657261746f72496420617420626c6f636b206e756d62656084820152603960f91b60a482015260c401610914565b6000546201000090046001600160a01b0316158015613c0257506001600160a01b03821615155b613c845760405162461bcd60e51b815260206004820152604760248201527f5061757361626c652e5f696e697469616c697a655061757365723a205f696e6960448201527f7469616c697a6550617573657228292063616e206f6e6c792062652063616c6c6064820152666564206f6e636560c81b608482015260a401610914565b600181905560405181815233907fab40a374bc51de372200a8bc981af8c9ecdc08dfdaef0bb6e09f88f3c616ef3d9060200160405180910390a2613cc7826127ec565b5050565b60965460ff1660c08110613d345760405162461bcd60e51b815260206004820152602a60248201527f4665726d616852432e63726561746551756f72756d3a206d61782071756f72756044820152691b5cc81c995858da195960b21b6064820152608401610914565b613d3f816001615dd6565b6096805460ff191660ff9290921691909117905580613d5e8186612b91565b60405160016296b58960e01b031981526001600160a01b037f0000000000000000000000000000000000000000000000000000000000000000169063ff694a7790613db190849088908890600401615dfb565b600060405180830381600087803b158015613dcb57600080fd5b505af1158015613ddf573d6000803e3d6000fd5b505060405163136ca0f960e11b815260ff841660048201527f00000000000000000000000000000000000000000000000000000000000000006001600160a01b031692506326d941f29150602401600060405180830381600087803b158015613e4757600080fd5b505af1158015613e5b573d6000803e3d6000fd5b505060405163136ca0f960e11b815260ff841660048201527f00000000000000000000000000000000000000000000000000000000000000006001600160a01b031692506326d941f29150602401600060405180830381600087803b158015613ec357600080fd5b505af1158015613a9f573d6000803e3d6000fd5b6000805b8215610f2757613eec600184615a28565b9092169180613efa81615e74565b915050613edb565b6000306001600160a01b037f000000000000000000000000000000000000000000000000000000000000000016148015613f5b57507f000000000000000000000000000000000000000000000000000000000000000046145b15613f8557507f000000000000000000000000000000000000000000000000000000000000000090565b50604080517f00000000000000000000000000000000000000000000000000000000000000006020808301919091527f0000000000000000000000000000000000000000000000000000000000000000828401527f000000000000000000000000000000000000000000000000000000000000000060608301524660808301523060a0808401919091528351808403909101815260c0909201909252805191012090565b60008080600080516020615f168339815191526003600080516020615f1683398151915286600080516020615f1683398151915288890909089050600061409f827f0c19139cb84c680a6e14116da060561765e05aa45a1c72a34f082305b61f3f52600080516020615f168339815191526145f0565b91959194509092505050565b6000610100825111156141345760405162461bcd60e51b8152602060048201526044602482018190527f4269746d61705574696c732e6f72646572656442797465734172726179546f42908201527f69746d61703a206f7264657265644279746573417272617920697320746f6f206064820152636c6f6e6760e01b608482015260a401610914565b815161414257506000919050565b600080836000815181106141585761415861574e565b0160200151600160f89190911c81901b92505b845181101561422f578481815181106141865761418661574e565b0160200151600160f89190911c1b915082821161421b5760405162461bcd60e51b815260206004820152604760248201527f4269746d61705574696c732e6f72646572656442797465734172726179546f4260448201527f69746d61703a206f72646572656442797465734172726179206973206e6f74206064820152661bdc99195c995960ca1b608482015260a401610914565b918117916142288161577a565b905061416b565b50909392505050565b600082815260986020526040902054806142dd576000838152609860209081526040808320815160608101835263ffffffff43811682528185018681526001600160c01b03808a16958401958652845460018101865594885295909620915191909201805495519351909416600160401b026001600160401b03938316600160201b0267ffffffffffffffff1990961691909216179390931716919091179055505050565b60008381526098602052604081206142f6600184615a28565b815481106143065761430661574e565b600091825260209091200180549091504363ffffffff9081169116141561434a5780546001600160401b0316600160401b6001600160c01b038516021781556109fb565b805463ffffffff438116600160201b81810267ffffffff0000000019909416939093178455600087815260986020908152604080832081516060810183529485528483018481526001600160c01b03808c1693870193845282546001810184559286529390942094519401805493519151909216600160401b026001600160401b0391861690960267ffffffffffffffff199093169390941692909217179190911691909117905550505050565b6001600160a01b0383163b1561451257604051630b135d3f60e11b808252906001600160a01b03851690631626ba7e906144389086908690600401615ae6565b602060405180830381865afa158015614455573d6000803e3d6000fd5b505050506040513d601f19601f820116820180604052508101906144799190615e96565b6001600160e01b031916146116de5760405162461bcd60e51b815260206004820152605360248201527f454950313237315369676e61747572655574696c732e636865636b5369676e6160448201527f747572655f454950313237313a2045524331323731207369676e6174757265206064820152721d995c9a599a58d85d1a5bdb8819985a5b1959606a1b608482015260a401610914565b826001600160a01b0316614526838361469f565b6001600160a01b0316146116de5760405162461bcd60e51b815260206004820152604760248201527f454950313237315369676e61747572655574696c732e636865636b5369676e6160448201527f747572655f454950313237313a207369676e6174757265206e6f742066726f6d6064820152661039b4b3b732b960c91b608482015260a401610914565b6020810151600090612710906145cc9061ffff1685615ec0565b612b8a9190615eef565b6040810151600090612710906145cc9061ffff1685615ec0565b6000806145fb614a0c565b614603614a2a565b602080825281810181905260408201819052606082018890526080820187905260a082018690528260c08360056107d05a03fa925082801561464457614646565bfe5b50826146945760405162461bcd60e51b815260206004820152601a60248201527f424e3235342e6578704d6f643a2063616c6c206661696c7572650000000000006044820152606401610914565b505195945050505050565b60008060006146ae85856146bb565b91509150611e4d8161472b565b6000808251604114156146f25760208301516040840151606085015160001a6146e6878285856148e6565b94509450505050614724565b82516040141561471c57602083015160408401516147118683836149d3565b935093505050614724565b506000905060025b9250929050565b600081600481111561473f5761473f614dba565b14156147485750565b600181600481111561475c5761475c614dba565b14156147aa5760405162461bcd60e51b815260206004820152601860248201527f45434453413a20696e76616c6964207369676e617475726500000000000000006044820152606401610914565b60028160048111156147be576147be614dba565b141561480c5760405162461bcd60e51b815260206004820152601f60248201527f45434453413a20696e76616c6964207369676e6174757265206c656e677468006044820152606401610914565b600381600481111561482057614820614dba565b14156148795760405162461bcd60e51b815260206004820152602260248201527f45434453413a20696e76616c6964207369676e6174757265202773272076616c604482015261756560f01b6064820152608401610914565b600481600481111561488d5761488d614dba565b1415610d5c5760405162461bcd60e51b815260206004820152602260248201527f45434453413a20696e76616c6964207369676e6174757265202776272076616c604482015261756560f01b6064820152608401610914565b6000807f7fffffffffffffffffffffffffffffff5d576e7357a4501ddfe92f46681b20a083111561491d57506000905060036149ca565b8460ff16601b1415801561493557508460ff16601c14155b1561494657506000905060046149ca565b6040805160008082526020820180845289905260ff881692820192909252606081018690526080810185905260019060a0016020604051602081039080840390855afa15801561499a573d6000803e3d6000fd5b5050604051601f1901519150506001600160a01b0381166149c3576000600192509250506149ca565b9150600090505b94509492505050565b6000806001600160ff1b038316816149f060ff86901c601b61592c565b90506149fe878288856148e6565b935093505050935093915050565b60405180602001604052806001906020820280368337509192915050565b6040518060c001604052806006906020820280368337509192915050565b60008083601f840112614a5a57600080fd5b5081356001600160401b03811115614a7157600080fd5b6020830191508360208260051b850101111561472457600080fd5b60008060208385031215614a9f57600080fd5b82356001600160401b03811115614ab557600080fd5b614ac185828601614a48565b90969095509350505050565b600060208284031215614adf57600080fd5b5035919050565b63ffffffff81168114610d5c57600080fd5b600080600060608486031215614b0d57600080fd5b833592506020840135614b1f81614ae6565b929592945050506040919091013590565b634e487b7160e01b600052604160045260246000fd5b604051606081016001600160401b0381118282101715614b6857614b68614b30565b60405290565b604080519081016001600160401b0381118282101715614b6857614b68614b30565b604051601f8201601f191681016001600160401b0381118282101715614bb857614bb8614b30565b604052919050565b60006001600160401b03831115614bd957614bd9614b30565b614bec601f8401601f1916602001614b90565b9050828152838383011115614c0057600080fd5b828260208301376000602084830101529392505050565b600060208284031215614c2957600080fd5b81356001600160401b03811115614c3f57600080fd5b8201601f81018413614c5057600080fd5b614c5f84823560208401614bc0565b949350505050565b6001600160a01b0381168114610d5c57600080fd5b8035614c8781614c67565b919050565b600060208284031215614c9e57600080fd5b8135612b8a81614c67565b60008060408385031215614cbc57600080fd5b50508035926020909101359150565b803560ff81168114614c8757600080fd5b600060208284031215614cee57600080fd5b612b8a82614ccb565b815181526020808301519082015260408101610f27565b60008083601f840112614d2057600080fd5b5081356001600160401b03811115614d3757600080fd5b60208301915083602082850101111561472457600080fd5b60008060008060408587031215614d6557600080fd5b84356001600160401b0380821115614d7c57600080fd5b614d8888838901614a48565b90965094506020870135915080821115614da157600080fd5b50614dae87828801614d0e565b95989497509550505050565b634e487b7160e01b600052602160045260246000fd5b60038110614dee57634e487b7160e01b600052602160045260246000fd5b9052565b815181526020808301516040830191614e0d90840182614dd0565b5092915050565b803561ffff81168114614c8757600080fd5b600060608284031215614e3857600080fd5b614e40614b46565b90508135614e4d81614ae6565b8152614e5b60208301614e14565b6020820152614e6c60408301614e14565b604082015292915050565b60008060808385031215614e8a57600080fd5b614e9383614ccb565b9150614ea28460208501614e26565b90509250929050565b600080600060408486031215614ec057600080fd5b8335614ecb81614c67565b925060208401356001600160401b03811115614ee657600080fd5b614ef286828701614d0e565b9497909650939450505050565b60006001600160401b03821115614f1857614f18614b30565b5060051b60200190565b600060408284031215614f3457600080fd5b614f3c614b6e565b9050614f4782614ccb565b81526020820135614f5781614c67565b602082015292915050565b600080600080600060a08688031215614f7a57600080fd5b8535614f8581614c67565b945060208681013594506040808801356001600160401b03811115614fa957600080fd5b8801601f81018a13614fba57600080fd5b8035614fcd614fc882614eff565b614b90565b81815260069190911b8201840190848101908c831115614fec57600080fd5b928501925b82841015615012576150038d85614f22565b82529284019290850190614ff1565b999c989b5098996060810135995060800135979650505050505050565b6000610100828403121561504257600080fd5b50919050565b60008083601f84011261505a57600080fd5b5081356001600160401b0381111561507157600080fd5b6020830191508360208260061b850101111561472457600080fd5b60006060828403121561509e57600080fd5b6150a6614b46565b905081356001600160401b038111156150be57600080fd5b8201601f810184136150cf57600080fd5b6150de84823560208401614bc0565b825250602082013560208201526040820135604082015292915050565b60008060008060008060008060006101a08a8c03121561511a57600080fd5b89356001600160401b038082111561513157600080fd5b61513d8d838e01614d0e565b909b50995060208c013591508082111561515657600080fd5b6151628d838e01614d0e565b90995097508791506151778d60408e0161502f565b96506101408c013591508082111561518e57600080fd5b61519a8d838e01615048565b90965094506101608c01359150808211156151b457600080fd5b6151c08d838e0161508c565b93506101808c01359150808211156151d757600080fd5b506151e48c828d0161508c565b9150509295985092959850929598565b600080600080600080610160878903121561520e57600080fd5b86356001600160401b038082111561522557600080fd5b6152318a838b01614d0e565b9098509650602089013591508082111561524a57600080fd5b6152568a838b01614d0e565b909650945084915061526b8a60408b0161502f565b935061014089013591508082111561528257600080fd5b5061528f89828a0161508c565b9150509295509295509295565b600080604083850312156152af57600080fd5b82356152ba81614ae6565b91506020838101356001600160401b038111156152d657600080fd5b8401601f810186136152e757600080fd5b80356152f5614fc882614eff565b81815260059190911b8201830190838101908883111561531457600080fd5b928401925b8284101561533257833582529284019290840190615319565b80955050505050509250929050565b6020808252825182820181905260009190848201906040850190845b8181101561537f57835163ffffffff168352928401929184019160010161535d565b50909695505050505050565b6000806020838503121561539e57600080fd5b82356001600160401b038111156153b457600080fd5b614ac185828601614d0e565b600082601f8301126153d157600080fd5b813560206153e1614fc883614eff565b8281526060928302850182019282820191908785111561540057600080fd5b8387015b85811015615423576154168982614e26565b8452928401928101615404565b5090979650505050505050565b6001600160601b0381168114610d5c57600080fd5b600082601f83011261545657600080fd5b81356020615466614fc883614eff565b82815260059290921b8401810191818101908684111561548557600080fd5b8286015b848110156154a957803561549c81615430565b8352918301918301615489565b509695505050505050565b600082601f8301126154c557600080fd5b813560206154d5614fc883614eff565b82815260069290921b840181019181810190868411156154f457600080fd5b8286015b848110156154a957604081890312156155115760008081fd5b615519614b6e565b813561552481614c67565b81528185013561553381615430565b818601528352918301916040016154f8565b600082601f83011261555657600080fd5b81356020615566614fc883614eff565b82815260059290921b8401810191818101908684111561558557600080fd5b8286015b848110156154a95780356001600160401b038111156155a85760008081fd5b6155b68986838b01016154b4565b845250918301918301615589565b60008060008060008060008060006101208a8c0312156155e357600080fd5b6155ec8a614c7c565b98506155fa60208b01614c7c565b975061560860408b01614c7c565b965061561660608b01614c7c565b955060808a0135945060a08a01356001600160401b038082111561563957600080fd5b6156458d838e016153c0565b955060c08c013591508082111561565b57600080fd5b6156678d838e01615445565b945060e08c013591508082111561567d57600080fd5b5061568a8c828d01615545565b92505061569a6101008b01614c7c565b90509295985092959850929598565b600080600060a084860312156156be57600080fd5b6156c88585614e26565b925060608401356156d881615430565b915060808401356001600160401b038111156156f357600080fd5b6156ff868287016154b4565b9150509250925092565b60208101610f278284614dd0565b60208082526019908201527f5061757361626c653a20696e6465782069732070617573656400000000000000604082015260600190565b634e487b7160e01b600052603260045260246000fd5b634e487b7160e01b600052601160045260246000fd5b600060001982141561578e5761578e615764565b5060010190565b6000815180845260005b818110156157bb5760208185018101518683018201520161579f565b818111156157cd576000602083870101525b50601f01601f19169290920160200192915050565b602081526000612b8a6020830184615795565b60006020828403121561580757600080fd5b8151612b8a81614c67565b6020808252602a908201527f6d73672e73656e646572206973206e6f74207065726d697373696f6e6564206160408201526939903ab73830bab9b2b960b11b606082015260800190565b60006020828403121561586e57600080fd5b81518015158114612b8a57600080fd5b60208082526028908201527f6d73672e73656e646572206973206e6f74207065726d697373696f6e6564206160408201526739903830bab9b2b960c11b606082015260800190565b6000808335601e198436030181126158dd57600080fd5b8301803591506001600160401b038211156158f757600080fd5b6020019150600581901b360382131561472457600080fd5b60006020828403121561592157600080fd5b8151612b8a81614ae6565b6000821982111561593f5761593f615764565b500190565b6000808585111561595457600080fd5b8386111561596157600080fd5b5050820193919092039150565b600060c08201888352602060018060a01b03808a16828601526040898187015260c0606087015283895180865260e088019150848b01955060005b818110156159d3578651805160ff16845286015185168684015295850195918301916001016159a9565b505060808701989098525050505060a09091019190915250949350505050565b600060408284031215615a0557600080fd5b612b8a8383614f22565b600060208284031215615a2157600080fd5b5051919050565b600082821015615a3a57615a3a615764565b500390565b60018060a01b0384168152826020820152606060408201526000615a666060830184615795565b95945050505050565b600060208284031215615a8157600080fd5b81516001600160c01b0381168114612b8a57600080fd5b634e487b7160e01b600052601260045260246000fd5b600082615abd57615abd615a98565b500690565b6001600160a01b0383168152604060208201819052600090614c5f90830184615795565b828152604060208201526000614c5f6040830184615795565b6001600160a01b03841681526101608101615b27602083018580358252602090810135910152565b615b41606083016040860180358252602090810135910152565b60406080850160a084013760e0820160008152604060c0860182375060006101208301908152835190526020909201516101409091015292915050565b60018060a01b0383168152604060208201526000825160606040840152615ba860a0840182615795565b90506020840151606084015260408401516080840152809150509392505050565b81835281816020850137506000828201602090810191909152601f909101601f19169091010190565b6001600160a01b0384168152604060208201819052600090615a669083018486615bc9565b60018060a01b0385168152836020820152606060408201526000611813606083018486615bc9565b600082601f830112615c5057600080fd5b81516020615c60614fc883614eff565b82815260059290921b84018101918181019086841115615c7f57600080fd5b8286015b848110156154a9578051615c9681615430565b8352918301918301615c83565b60008060408385031215615cb657600080fd5b82516001600160401b0380821115615ccd57600080fd5b615cd986838701615c3f565b93506020850151915080821115615cef57600080fd5b50615cfc85828601615c3f565b9150509250929050565b838152604060208201526000615a66604083018486615bc9565b60006020808385031215615d3357600080fd5b82516001600160401b03811115615d4957600080fd5b8301601f81018513615d5a57600080fd5b8051615d68614fc882614eff565b81815260059190911b82018301908381019087831115615d8757600080fd5b928401925b82841015615dae578351615d9f81614ae6565b82529284019290840190615d8c565b979650505050505050565b600060208284031215615dcb57600080fd5b8151612b8a81615430565b600060ff821660ff84168060ff03821115615df357615df3615764565b019392505050565b60006060820160ff8616835260206001600160601b03808716828601526040606081870152838751808652608088019150848901955060005b81811015615e6457865180516001600160a01b031684528601518516868401529585019591830191600101615e34565b50909a9950505050505050505050565b600061ffff80831681811415615e8c57615e8c615764565b6001019392505050565b600060208284031215615ea857600080fd5b81516001600160e01b031981168114612b8a57600080fd5b60006001600160601b0380831681851681830481118215151615615ee657615ee6615764565b02949350505050565b60006001600160601b0380841680615f0957615f09615a98565b9216919091049291505056fe30644e72e131a029b85045b68181585d97816a916871ca8d3c208c16d87cfd47a2646970667358221220beab59cf7365070654e3811ce798deda314c8e93904196b5a1ea563a463db08164736f6c634300080c0033","linkReferences":{}},"methodIdentifiers":{"OPERATOR_CHURN_APPROVAL_TYPEHASH()":"ca0de882","PUBKEY_REGISTRATION_TYPEHASH()":"9feab859","availableTillBlock(address)":"d7476791","blsApkRegistry()":"5df45946","calculateOperatorChurnApprovalDigestHash(address,bytes32,(uint8,address)[],bytes32,uint256)":"84ca5213","churnApprover()":"054310e6","commitToExit(uint256)":"cf998284","createQuorum((uint32,uint16,uint16),uint96,(address,uint96)[])":"d75b4c88","deregisterOperator(bytes)":"ca4f2d97","ejectOperator(address,bytes)":"6e3b17db","ejector()":"28f61b31","getCurrentQuorumBitmap(bytes32)":"871ef049","getOperator(address)":"5865c60c","getOperatorFromId(bytes32)":"296bb064","getOperatorId(address)":"13542a4e","getOperatorSetParams(uint8)":"e65797ad","getOperatorStatus(address)":"fd39105a","getQuorumBitmapAtBlockNumberByIndex(bytes32,uint32,uint256)":"04ec6351","getQuorumBitmapHistoryLength(bytes32)":"03fd3492","getQuorumBitmapIndicesAtBlockNumber(uint32,bytes32[])":"c391425e","getQuorumBitmapUpdateByIndex(bytes32,uint256)":"1eb812da","indexRegistry()":"9e9923c2","initialize(address,address,address,address,uint256,(uint32,uint16,uint16)[],uint96[],(address,uint96)[][],address)":"d20215f3","isChurnApproverSaltUsed(bytes32)":"1478851f","numRegistries()":"d72d8dd6","owner()":"8da5cb5b","pause(uint256)":"136439dd","pauseAll()":"595c6a67","paused()":"5c975abb","paused(uint8)":"5ac86ab7","pauserRegistry()":"886f1195","pubkeyRegistrationMessageHash(address)":"3c2a7f4c","quorumCount()":"9aa1653d","quorumUpdateBlockNumber(uint8)":"249a0c42","registerOperator(bytes,string,((uint256,uint256),(uint256,uint256),(uint256[2],uint256[2])),(bytes,bytes32,uint256))":"a50857bf","registerOperatorWithChurn(bytes,string,((uint256,uint256),(uint256,uint256),(uint256[2],uint256[2])),(uint8,address)[],(bytes,bytes32,uint256),(bytes,bytes32,uint256))":"9b5d177b","registeredTillBlock(address)":"7ffbb5f1","registries(uint256)":"6347c900","renounceOwnership()":"715018a6","serviceManager()":"3998fdd3","setChurnApprover(address)":"29d1e0c3","setEjector(address)":"2cdd1e86","setOperatorSetParams(uint8,(uint32,uint16,uint16))":"5b0b829f","setPauserRegistry(address)":"10d67a2f","stakeRegistry()":"68304835","transferOwnership(address)":"f2fde38b","unpause(uint256)":"fabc1cbc","updateOperators(address[])":"00cf2ab5","updateOperatorsForQuorum(address[][],bytes)":"5140a548","updateSocket(string)":"0cf4b767","whitelist()":"93e59dc1"},"id":158}