{"abi":[{"type":"constructor","inputs":[{"name":"_delegationManager","type":"address","internalType":"contract IDelegationManager"},{"name":"_strategyManager","type":"address","internalType":"contract IStrategyManager"},{"name":"_CALCULATION_INTERVAL_SECONDS","type":"uint32","internalType":"uint32"},{"name":"_MAX_REWARDS_DURATION","type":"uint32","internalType":"uint32"},{"name":"_MAX_RETROACTIVE_LENGTH","type":"uint32","internalType":"uint32"},{"name":"_MAX_FUTURE_LENGTH","type":"uint32","internalType":"uint32"},{"name":"__GENESIS_REWARDS_TIMESTAMP","type":"uint32","internalType":"uint32"}],"stateMutability":"nonpayable"},{"type":"function","name":"CALCULATION_INTERVAL_SECONDS","inputs":[],"outputs":[{"name":"","type":"uint32","internalType":"uint32"}],"stateMutability":"view"},{"type":"function","name":"GENESIS_REWARDS_TIMESTAMP","inputs":[],"outputs":[{"name":"","type":"uint32","internalType":"uint32"}],"stateMutability":"view"},{"type":"function","name":"MAX_FUTURE_LENGTH","inputs":[],"outputs":[{"name":"","type":"uint32","internalType":"uint32"}],"stateMutability":"view"},{"type":"function","name":"MAX_RETROACTIVE_LENGTH","inputs":[],"outputs":[{"name":"","type":"uint32","internalType":"uint32"}],"stateMutability":"view"},{"type":"function","name":"MAX_REWARDS_DURATION","inputs":[],"outputs":[{"name":"","type":"uint32","internalType":"uint32"}],"stateMutability":"view"},{"type":"function","name":"activationDelay","inputs":[],"outputs":[{"name":"","type":"uint32","internalType":"uint32"}],"stateMutability":"view"},{"type":"function","name":"beaconChainETHStrategy","inputs":[],"outputs":[{"name":"","type":"address","internalType":"contract IStrategy"}],"stateMutability":"view"},{"type":"function","name":"calculateEarnerLeafHash","inputs":[{"name":"leaf","type":"tuple","internalType":"struct IRewardsCoordinator.EarnerTreeMerkleLeaf","components":[{"name":"earner","type":"address","internalType":"address"},{"name":"earnerTokenRoot","type":"bytes32","internalType":"bytes32"}]}],"outputs":[{"name":"","type":"bytes32","internalType":"bytes32"}],"stateMutability":"pure"},{"type":"function","name":"calculateTokenLeafHash","inputs":[{"name":"leaf","type":"tuple","internalType":"struct IRewardsCoordinator.TokenTreeMerkleLeaf","components":[{"name":"token","type":"address","internalType":"contract IERC20"},{"name":"cumulativeEarnings","type":"uint256","internalType":"uint256"}]}],"outputs":[{"name":"","type":"bytes32","internalType":"bytes32"}],"stateMutability":"pure"},{"type":"function","name":"checkClaim","inputs":[{"name":"claim","type":"tuple","internalType":"struct IRewardsCoordinator.RewardsMerkleClaim","components":[{"name":"rootIndex","type":"uint32","internalType":"uint32"},{"name":"earnerIndex","type":"uint32","internalType":"uint32"},{"name":"earnerTreeProof","type":"bytes","internalType":"bytes"},{"name":"earnerLeaf","type":"tuple","internalType":"struct IRewardsCoordinator.EarnerTreeMerkleLeaf","components":[{"name":"earner","type":"address","internalType":"address"},{"name":"earnerTokenRoot","type":"bytes32","internalType":"bytes32"}]},{"name":"tokenIndices","type":"uint32[]","internalType":"uint32[]"},{"name":"tokenTreeProofs","type":"bytes[]","internalType":"bytes[]"},{"name":"tokenLeaves","type":"tuple[]","internalType":"struct IRewardsCoordinator.TokenTreeMerkleLeaf[]","components":[{"name":"token","type":"address","internalType":"contract IERC20"},{"name":"cumulativeEarnings","type":"uint256","internalType":"uint256"}]}]}],"outputs":[{"name":"","type":"bool","internalType":"bool"}],"stateMutability":"view"},{"type":"function","name":"claimerFor","inputs":[{"name":"","type":"address","internalType":"address"}],"outputs":[{"name":"","type":"address","internalType":"address"}],"stateMutability":"view"},{"type":"function","name":"createAVSRewardsSubmission","inputs":[{"name":"rewardsSubmissions","type":"tuple[]","internalType":"struct IRewardsCoordinator.RewardsSubmission[]","components":[{"name":"strategiesAndMultipliers","type":"tuple[]","internalType":"struct IRewardsCoordinator.StrategyAndMultiplier[]","components":[{"name":"strategy","type":"address","internalType":"contract IStrategy"},{"name":"multiplier","type":"uint96","internalType":"uint96"}]},{"name":"token","type":"address","internalType":"contract IERC20"},{"name":"amount","type":"uint256","internalType":"uint256"},{"name":"startTimestamp","type":"uint32","internalType":"uint32"},{"name":"duration","type":"uint32","internalType":"uint32"}]}],"outputs":[],"stateMutability":"nonpayable"},{"type":"function","name":"createRewardsForAllSubmission","inputs":[{"name":"rewardsSubmissions","type":"tuple[]","internalType":"struct IRewardsCoordinator.RewardsSubmission[]","components":[{"name":"strategiesAndMultipliers","type":"tuple[]","internalType":"struct IRewardsCoordinator.StrategyAndMultiplier[]","components":[{"name":"strategy","type":"address","internalType":"contract IStrategy"},{"name":"multiplier","type":"uint96","internalType":"uint96"}]},{"name":"token","type":"address","internalType":"contract IERC20"},{"name":"amount","type":"uint256","internalType":"uint256"},{"name":"startTimestamp","type":"uint32","internalType":"uint32"},{"name":"duration","type":"uint32","internalType":"uint32"}]}],"outputs":[],"stateMutability":"nonpayable"},{"type":"function","name":"cumulativeClaimed","inputs":[{"name":"","type":"address","internalType":"address"},{"name":"","type":"address","internalType":"contract IERC20"}],"outputs":[{"name":"","type":"uint256","internalType":"uint256"}],"stateMutability":"view"},{"type":"function","name":"currRewardsCalculationEndTimestamp","inputs":[],"outputs":[{"name":"","type":"uint32","internalType":"uint32"}],"stateMutability":"view"},{"type":"function","name":"delegationManager","inputs":[],"outputs":[{"name":"","type":"address","internalType":"contract IDelegationManager"}],"stateMutability":"view"},{"type":"function","name":"disableRoot","inputs":[{"name":"rootIndex","type":"uint32","internalType":"uint32"}],"outputs":[],"stateMutability":"nonpayable"},{"type":"function","name":"domainSeparator","inputs":[],"outputs":[{"name":"","type":"bytes32","internalType":"bytes32"}],"stateMutability":"view"},{"type":"function","name":"getCurrentClaimableDistributionRoot","inputs":[],"outputs":[{"name":"","type":"tuple","internalType":"struct IRewardsCoordinator.DistributionRoot","components":[{"name":"root","type":"bytes32","internalType":"bytes32"},{"name":"rewardsCalculationEndTimestamp","type":"uint32","internalType":"uint32"},{"name":"activatedAt","type":"uint32","internalType":"uint32"},{"name":"disabled","type":"bool","internalType":"bool"}]}],"stateMutability":"view"},{"type":"function","name":"getCurrentDistributionRoot","inputs":[],"outputs":[{"name":"","type":"tuple","internalType":"struct IRewardsCoordinator.DistributionRoot","components":[{"name":"root","type":"bytes32","internalType":"bytes32"},{"name":"rewardsCalculationEndTimestamp","type":"uint32","internalType":"uint32"},{"name":"activatedAt","type":"uint32","internalType":"uint32"},{"name":"disabled","type":"bool","internalType":"bool"}]}],"stateMutability":"view"},{"type":"function","name":"getDistributionRootAtIndex","inputs":[{"name":"index","type":"uint256","internalType":"uint256"}],"outputs":[{"name":"","type":"tuple","internalType":"struct IRewardsCoordinator.DistributionRoot","components":[{"name":"root","type":"bytes32","internalType":"bytes32"},{"name":"rewardsCalculationEndTimestamp","type":"uint32","internalType":"uint32"},{"name":"activatedAt","type":"uint32","internalType":"uint32"},{"name":"disabled","type":"bool","internalType":"bool"}]}],"stateMutability":"view"},{"type":"function","name":"getDistributionRootsLength","inputs":[],"outputs":[{"name":"","type":"uint256","internalType":"uint256"}],"stateMutability":"view"},{"type":"function","name":"getRootIndexFromHash","inputs":[{"name":"rootHash","type":"bytes32","internalType":"bytes32"}],"outputs":[{"name":"","type":"uint32","internalType":"uint32"}],"stateMutability":"view"},{"type":"function","name":"globalOperatorCommissionBips","inputs":[],"outputs":[{"name":"","type":"uint16","internalType":"uint16"}],"stateMutability":"view"},{"type":"function","name":"initialize","inputs":[{"name":"initialOwner","type":"address","internalType":"address"},{"name":"_pauserRegistry","type":"address","internalType":"contract IPauserRegistry"},{"name":"initialPausedStatus","type":"uint256","internalType":"uint256"},{"name":"_rewardsUpdater","type":"address","internalType":"address"},{"name":"_activationDelay","type":"uint32","internalType":"uint32"},{"name":"_globalCommissionBips","type":"uint16","internalType":"uint16"}],"outputs":[],"stateMutability":"nonpayable"},{"type":"function","name":"isAVSRewardsSubmissionHash","inputs":[{"name":"","type":"address","internalType":"address"},{"name":"","type":"bytes32","internalType":"bytes32"}],"outputs":[{"name":"","type":"bool","internalType":"bool"}],"stateMutability":"view"},{"type":"function","name":"isRewardsForAllSubmitter","inputs":[{"name":"","type":"address","internalType":"address"}],"outputs":[{"name":"","type":"bool","internalType":"bool"}],"stateMutability":"view"},{"type":"function","name":"isRewardsSubmissionForAllHash","inputs":[{"name":"","type":"address","internalType":"address"},{"name":"","type":"bytes32","internalType":"bytes32"}],"outputs":[{"name":"","type":"bool","internalType":"bool"}],"stateMutability":"view"},{"type":"function","name":"operatorCommissionBips","inputs":[{"name":"operator","type":"address","internalType":"address"},{"name":"avs","type":"address","internalType":"address"}],"outputs":[{"name":"","type":"uint16","internalType":"uint16"}],"stateMutability":"view"},{"type":"function","name":"owner","inputs":[],"outputs":[{"name":"","type":"address","internalType":"address"}],"stateMutability":"view"},{"type":"function","name":"pause","inputs":[{"name":"newPausedStatus","type":"uint256","internalType":"uint256"}],"outputs":[],"stateMutability":"nonpayable"},{"type":"function","name":"pauseAll","inputs":[],"outputs":[],"stateMutability":"nonpayable"},{"type":"function","name":"paused","inputs":[{"name":"index","type":"uint8","internalType":"uint8"}],"outputs":[{"name":"","type":"bool","internalType":"bool"}],"stateMutability":"view"},{"type":"function","name":"paused","inputs":[],"outputs":[{"name":"","type":"uint256","internalType":"uint256"}],"stateMutability":"view"},{"type":"function","name":"pauserRegistry","inputs":[],"outputs":[{"name":"","type":"address","internalType":"contract IPauserRegistry"}],"stateMutability":"view"},{"type":"function","name":"processClaim","inputs":[{"name":"claim","type":"tuple","internalType":"struct IRewardsCoordinator.RewardsMerkleClaim","components":[{"name":"rootIndex","type":"uint32","internalType":"uint32"},{"name":"earnerIndex","type":"uint32","internalType":"uint32"},{"name":"earnerTreeProof","type":"bytes","internalType":"bytes"},{"name":"earnerLeaf","type":"tuple","internalType":"struct IRewardsCoordinator.EarnerTreeMerkleLeaf","components":[{"name":"earner","type":"address","internalType":"address"},{"name":"earnerTokenRoot","type":"bytes32","internalType":"bytes32"}]},{"name":"tokenIndices","type":"uint32[]","internalType":"uint32[]"},{"name":"tokenTreeProofs","type":"bytes[]","internalType":"bytes[]"},{"name":"tokenLeaves","type":"tuple[]","internalType":"struct IRewardsCoordinator.TokenTreeMerkleLeaf[]","components":[{"name":"token","type":"address","internalType":"contract IERC20"},{"name":"cumulativeEarnings","type":"uint256","internalType":"uint256"}]}]},{"name":"recipient","type":"address","internalType":"address"}],"outputs":[],"stateMutability":"nonpayable"},{"type":"function","name":"renounceOwnership","inputs":[],"outputs":[],"stateMutability":"nonpayable"},{"type":"function","name":"rewardsUpdater","inputs":[],"outputs":[{"name":"","type":"address","internalType":"address"}],"stateMutability":"view"},{"type":"function","name":"setActivationDelay","inputs":[{"name":"_activationDelay","type":"uint32","internalType":"uint32"}],"outputs":[],"stateMutability":"nonpayable"},{"type":"function","name":"setClaimerFor","inputs":[{"name":"claimer","type":"address","internalType":"address"}],"outputs":[],"stateMutability":"nonpayable"},{"type":"function","name":"setGlobalOperatorCommission","inputs":[{"name":"_globalCommissionBips","type":"uint16","internalType":"uint16"}],"outputs":[],"stateMutability":"nonpayable"},{"type":"function","name":"setPauserRegistry","inputs":[{"name":"newPauserRegistry","type":"address","internalType":"contract IPauserRegistry"}],"outputs":[],"stateMutability":"nonpayable"},{"type":"function","name":"setRewardsForAllSubmitter","inputs":[{"name":"_submitter","type":"address","internalType":"address"},{"name":"_newValue","type":"bool","internalType":"bool"}],"outputs":[],"stateMutability":"nonpayable"},{"type":"function","name":"setRewardsUpdater","inputs":[{"name":"_rewardsUpdater","type":"address","internalType":"address"}],"outputs":[],"stateMutability":"nonpayable"},{"type":"function","name":"strategyManager","inputs":[],"outputs":[{"name":"","type":"address","internalType":"contract IStrategyManager"}],"stateMutability":"view"},{"type":"function","name":"submissionNonce","inputs":[{"name":"","type":"address","internalType":"address"}],"outputs":[{"name":"","type":"uint256","internalType":"uint256"}],"stateMutability":"view"},{"type":"function","name":"submitRoot","inputs":[{"name":"root","type":"bytes32","internalType":"bytes32"},{"name":"rewardsCalculationEndTimestamp","type":"uint32","internalType":"uint32"}],"outputs":[],"stateMutability":"nonpayable"},{"type":"function","name":"transferOwnership","inputs":[{"name":"newOwner","type":"address","internalType":"address"}],"outputs":[],"stateMutability":"nonpayable"},{"type":"function","name":"unpause","inputs":[{"name":"newPausedStatus","type":"uint256","internalType":"uint256"}],"outputs":[],"stateMutability":"nonpayable"},{"type":"event","name":"AVSRewardsSubmissionCreated","inputs":[{"name":"avs","type":"address","indexed":true,"internalType":"address"},{"name":"submissionNonce","type":"uint256","indexed":true,"internalType":"uint256"},{"name":"rewardsSubmissionHash","type":"bytes32","indexed":true,"internalType":"bytes32"},{"name":"rewardsSubmission","type":"tuple","indexed":false,"internalType":"struct IRewardsCoordinator.RewardsSubmission","components":[{"name":"strategiesAndMultipliers","type":"tuple[]","internalType":"struct IRewardsCoordinator.StrategyAndMultiplier[]","components":[{"name":"strategy","type":"address","internalType":"contract IStrategy"},{"name":"multiplier","type":"uint96","internalType":"uint96"}]},{"name":"token","type":"address","internalType":"contract IERC20"},{"name":"amount","type":"uint256","internalType":"uint256"},{"name":"startTimestamp","type":"uint32","internalType":"uint32"},{"name":"duration","type":"uint32","internalType":"uint32"}]}],"anonymous":false},{"type":"event","name":"ActivationDelaySet","inputs":[{"name":"oldActivationDelay","type":"uint32","indexed":false,"internalType":"uint32"},{"name":"newActivationDelay","type":"uint32","indexed":false,"internalType":"uint32"}],"anonymous":false},{"type":"event","name":"ClaimerForSet","inputs":[{"name":"earner","type":"address","indexed":true,"internalType":"address"},{"name":"oldClaimer","type":"address","indexed":true,"internalType":"address"},{"name":"claimer","type":"address","indexed":true,"internalType":"address"}],"anonymous":false},{"type":"event","name":"DistributionRootDisabled","inputs":[{"name":"rootIndex","type":"uint32","indexed":true,"internalType":"uint32"}],"anonymous":false},{"type":"event","name":"DistributionRootSubmitted","inputs":[{"name":"rootIndex","type":"uint32","indexed":true,"internalType":"uint32"},{"name":"root","type":"bytes32","indexed":true,"internalType":"bytes32"},{"name":"rewardsCalculationEndTimestamp","type":"uint32","indexed":true,"internalType":"uint32"},{"name":"activatedAt","type":"uint32","indexed":false,"internalType":"uint32"}],"anonymous":false},{"type":"event","name":"GlobalCommissionBipsSet","inputs":[{"name":"oldGlobalCommissionBips","type":"uint16","indexed":false,"internalType":"uint16"},{"name":"newGlobalCommissionBips","type":"uint16","indexed":false,"internalType":"uint16"}],"anonymous":false},{"type":"event","name":"Initialized","inputs":[{"name":"version","type":"uint8","indexed":false,"internalType":"uint8"}],"anonymous":false},{"type":"event","name":"OwnershipTransferred","inputs":[{"name":"previousOwner","type":"address","indexed":true,"internalType":"address"},{"name":"newOwner","type":"address","indexed":true,"internalType":"address"}],"anonymous":false},{"type":"event","name":"Paused","inputs":[{"name":"account","type":"address","indexed":true,"internalType":"address"},{"name":"newPausedStatus","type":"uint256","indexed":false,"internalType":"uint256"}],"anonymous":false},{"type":"event","name":"PauserRegistrySet","inputs":[{"name":"pauserRegistry","type":"address","indexed":false,"internalType":"contract IPauserRegistry"},{"name":"newPauserRegistry","type":"address","indexed":false,"internalType":"contract IPauserRegistry"}],"anonymous":false},{"type":"event","name":"RewardsClaimed","inputs":[{"name":"root","type":"bytes32","indexed":false,"internalType":"bytes32"},{"name":"earner","type":"address","indexed":true,"internalType":"address"},{"name":"claimer","type":"address","indexed":true,"internalType":"address"},{"name":"recipient","type":"address","indexed":true,"internalType":"address"},{"name":"token","type":"address","indexed":false,"internalType":"contract IERC20"},{"name":"claimedAmount","type":"uint256","indexed":false,"internalType":"uint256"}],"anonymous":false},{"type":"event","name":"RewardsForAllSubmitterSet","inputs":[{"name":"rewardsForAllSubmitter","type":"address","indexed":true,"internalType":"address"},{"name":"oldValue","type":"bool","indexed":true,"internalType":"bool"},{"name":"newValue","type":"bool","indexed":true,"internalType":"bool"}],"anonymous":false},{"type":"event","name":"RewardsSubmissionForAllCreated","inputs":[{"name":"submitter","type":"address","indexed":true,"internalType":"address"},{"name":"submissionNonce","type":"uint256","indexed":true,"internalType":"uint256"},{"name":"rewardsSubmissionHash","type":"bytes32","indexed":true,"internalType":"bytes32"},{"name":"rewardsSubmission","type":"tuple","indexed":false,"internalType":"struct IRewardsCoordinator.RewardsSubmission","components":[{"name":"strategiesAndMultipliers","type":"tuple[]","internalType":"struct IRewardsCoordinator.StrategyAndMultiplier[]","components":[{"name":"strategy","type":"address","internalType":"contract IStrategy"},{"name":"multiplier","type":"uint96","internalType":"uint96"}]},{"name":"token","type":"address","internalType":"contract IERC20"},{"name":"amount","type":"uint256","internalType":"uint256"},{"name":"startTimestamp","type":"uint32","internalType":"uint32"},{"name":"duration","type":"uint32","internalType":"uint32"}]}],"anonymous":false},{"type":"event","name":"RewardsUpdaterSet","inputs":[{"name":"oldRewardsUpdater","type":"address","indexed":true,"internalType":"address"},{"name":"newRewardsUpdater","type":"address","indexed":true,"internalType":"address"}],"anonymous":false},{"type":"event","name":"Unpaused","inputs":[{"name":"account","type":"address","indexed":true,"internalType":"address"},{"name":"newPausedStatus","type":"uint256","indexed":false,"internalType":"uint256"}],"anonymous":false}],"bytecode":{"object":"0x6101806040523480156200001257600080fd5b5060405162004367380380620043678339810160408190526200003591620002e4565b868686868686866200004885826200037e565b63ffffffff1615620000ed5760405162461bcd60e51b815260206004820152606060248201527f52657761726473436f6f7264696e61746f723a2047454e455349535f5245574160448201527f5244535f54494d455354414d50206d7573742062652061206d756c7469706c6560648201527f206f662043414c43554c4154494f4e5f494e54455256414c5f5345434f4e4453608482015260a4015b60405180910390fd5b620000fc62015180866200037e565b63ffffffff16156200019d5760405162461bcd60e51b815260206004820152605760248201527f52657761726473436f6f7264696e61746f723a2043414c43554c4154494f4e5f60448201527f494e54455256414c5f5345434f4e4453206d7573742062652061206d756c746960648201527f706c65206f6620534e415053484f545f434144454e4345000000000000000000608482015260a401620000e4565b6001600160a01b0396871661012052949095166101405263ffffffff92831660805290821660a052811660c05291821660e0521661010052620001df620001f2565b5050466101605250620003b09350505050565b600054610100900460ff16156200025c5760405162461bcd60e51b815260206004820152602760248201527f496e697469616c697a61626c653a20636f6e747261637420697320696e697469604482015266616c697a696e6760c81b6064820152608401620000e4565b60005460ff9081161015620002af576000805460ff191660ff9081179091556040519081527f7f26b83ff96e1f2b6a682f133852f6798a09c465da95921460cefb38474024989060200160405180910390a15b565b6001600160a01b0381168114620002c757600080fd5b50565b805163ffffffff81168114620002df57600080fd5b919050565b600080600080600080600060e0888a0312156200030057600080fd5b87516200030d81620002b1565b60208901519097506200032081620002b1565b95506200033060408901620002ca565b94506200034060608901620002ca565b93506200035060808901620002ca565b92506200036060a08901620002ca565b91506200037060c08901620002ca565b905092959891949750929550565b600063ffffffff80841680620003a457634e487b7160e01b600052601260045260246000fd5b92169190910692915050565b60805160a05160c05160e05161010051610120516101405161016051613f20620004476000396000611a640152600081816104c7015261271e015260006107590152600081816103d0015261254d0152600081816102fc01526125f90152600081816104a001526124fc0152600081816106b8015261227301526000818161065e0152818161232a01526124050152613f206000f3fe608060405234801561001057600080fd5b50600436106102ba5760003560e01c8063715018a611610182578063c46db606116100e9578063f2fde38b116100a2578063f96abf2e1161007c578063f96abf2e146107a9578063fabc1cbc146107bc578063fbf1e2c1146107cf578063fce36c7d146107e257600080fd5b8063f2fde38b1461077b578063f698da251461078e578063f8cd84481461079657600080fd5b8063c46db606146106da578063d4540a5514610708578063de02e5031461071b578063e221b2451461072e578063e810ce2114610741578063ea4d3c9b1461075457600080fd5b80639104c3191161013b5780639104c319146106365780639be3d4e4146106515780639d45c28114610659578063a0169ddd14610680578063bb7e451f14610693578063bf21a8aa146106b357600080fd5b8063715018a6146105c45780637b8f8b05146105cc578063863cb9a9146105d4578063865c6953146105e7578063886f1195146106125780638da5cb5b1461062557600080fd5b806337838ed01161022657806358baaa3e116101df57806358baaa3e1461053d578063595c6a67146105505780635ac86ab7146105585780635c975abb1461057b5780635e9d8348146105835780636d21117e1461059657600080fd5b806337838ed01461049b57806339b70e38146104c25780633a8c0786146104e95780633ccc861d146105005780633efe1db6146105135780634d18cc351461052657600080fd5b8063131433b411610278578063131433b4146103cb578063136439dd146103f2578063149bc8721461040557806322f19a64146104265780632b9f64a41461044757806336af41fa1461048857600080fd5b806218572c146102bf57806304a0c502146102f7578063092db007146103335780630e9a53cf1461035b5780630eb38345146103a357806310d67a2f146103b8575b600080fd5b6102e26102cd3660046135a9565b60d16020526000908152604090205460ff1681565b60405190151581526020015b60405180910390f35b61031e7f000000000000000000000000000000000000000000000000000000000000000081565b60405163ffffffff90911681526020016102ee565b60cb5461034890600160e01b900461ffff1681565b60405161ffff90911681526020016102ee565b6103636107f5565b604080518251815260208084015163ffffffff908116918301919091528383015116918101919091526060918201511515918101919091526080016102ee565b6103b66103b13660046135d4565b6108d4565b005b6103b66103c63660046135a9565b610956565b61031e7f000000000000000000000000000000000000000000000000000000000000000081565b6103b661040036600461360d565b610a12565b61041861041336600461363e565b610b51565b6040519081526020016102ee565b61034861043436600461365a565b505060cb54600160e01b900461ffff1690565b6104706104553660046135a9565b60cc602052600090815260409020546001600160a01b031681565b6040516001600160a01b0390911681526020016102ee565b6103b6610496366004613688565b610bc7565b61031e7f000000000000000000000000000000000000000000000000000000000000000081565b6104707f000000000000000000000000000000000000000000000000000000000000000081565b60cb5461031e90600160a01b900463ffffffff1681565b6103b661050e366004613710565b610e01565b6103b6610521366004613770565b6111c5565b60cb5461031e90600160c01b900463ffffffff1681565b6103b661054b36600461379c565b611496565b6103b66114a7565b6102e26105663660046137b7565b606654600160ff9092169190911b9081161490565b606654610418565b6102e26105913660046137da565b61156e565b6102e26105a436600461380f565b60cf60209081526000928352604080842090915290825290205460ff1681565b6103b66115fb565b60ca54610418565b6103b66105e23660046135a9565b61160f565b6104186105f536600461365a565b60cd60209081526000928352604080842090915290825290205481565b606554610470906001600160a01b031681565b6033546001600160a01b0316610470565b61047073beac0eeeeeeeeeeeeeeeeeeeeeeeeeeeeeebeac081565b610363611620565b61031e7f000000000000000000000000000000000000000000000000000000000000000081565b6103b661068e3660046135a9565b6116be565b6104186106a13660046135a9565b60ce6020526000908152604090205481565b61031e7f000000000000000000000000000000000000000000000000000000000000000081565b6102e26106e836600461380f565b60d060209081526000928352604080842090915290825290205460ff1681565b6103b6610716366004613858565b61171d565b61036361072936600461360d565b611865565b6103b661073c3660046138cb565b6118f7565b61031e61074f36600461360d565b611908565b6104707f000000000000000000000000000000000000000000000000000000000000000081565b6103b66107893660046135a9565b6119ea565b610418611a60565b6104186107a436600461363e565b611a9e565b6103b66107b736600461379c565b611aaf565b6103b66107ca36600461360d565b611ce5565b60cb54610470906001600160a01b031681565b6103b66107f0366004613688565b611e41565b60408051608081018252600080825260208201819052918101829052606081019190915260ca545b80156108d057600060ca6108326001846138fc565b8154811061084257610842613913565b600091825260209182902060408051608081018252600293909302909101805483526001015463ffffffff80821694840194909452600160201b810490931690820152600160401b90910460ff1615801560608301819052919250906108b25750806040015163ffffffff164210155b156108bd5792915050565b50806108c881613929565b91505061081d565b5090565b6108dc611fc0565b6001600160a01b038216600081815260d1602052604080822054905160ff9091169284151592841515927f4de6293e668df1398422e1def12118052c1539a03cbfedc145895d48d7685f1c9190a4506001600160a01b0391909116600090815260d160205260409020805460ff1916911515919091179055565b606560009054906101000a90046001600160a01b03166001600160a01b031663eab66d7a6040518163ffffffff1660e01b8152600401602060405180830381865afa1580156109a9573d6000803e3d6000fd5b505050506040513d601f19601f820116820180604052508101906109cd9190613940565b6001600160a01b0316336001600160a01b031614610a065760405162461bcd60e51b81526004016109fd9061395d565b60405180910390fd5b610a0f8161201a565b50565b60655460405163237dfb4760e11b81523360048201526001600160a01b03909116906346fbf68e90602401602060405180830381865afa158015610a5a573d6000803e3d6000fd5b505050506040513d601f19601f82011682018060405250810190610a7e91906139a7565b610a9a5760405162461bcd60e51b81526004016109fd906139c4565b60665481811614610b135760405162461bcd60e51b815260206004820152603860248201527f5061757361626c652e70617573653a20696e76616c696420617474656d70742060448201527f746f20756e70617573652066756e6374696f6e616c697479000000000000000060648201526084016109fd565b606681905560405181815233907fab40a374bc51de372200a8bc981af8c9ecdc08dfdaef0bb6e09f88f3c616ef3d906020015b60405180910390a250565b600080610b6160208401846135a9565b8360200135604051602001610baa9392919060f89390931b6001600160f81b031916835260609190911b6bffffffffffffffffffffffff19166001830152601582015260350190565b604051602081830303815290604052805190602001209050919050565b60665460019060029081161415610bf05760405162461bcd60e51b81526004016109fd90613a0c565b33600090815260d1602052604090205460ff16610c8f5760405162461bcd60e51b815260206004820152605160248201527f52657761726473436f6f7264696e61746f723a2063616c6c6572206973206e6f60448201527f7420612076616c69642063726561746552657761726473466f72416c6c53756260648201527036b4b9b9b4b7b71039bab136b4ba3a32b960791b608482015260a4016109fd565b60026097541415610cb25760405162461bcd60e51b81526004016109fd90613a43565b600260975560005b82811015610df65736848483818110610cd557610cd5613913565b9050602002810190610ce79190613a7a565b33600081815260ce60209081526040808320549051949550939192610d129290918591879101613bbf565b604051602081830303815290604052805190602001209050610d3383612111565b33600090815260d0602090815260408083208484529091529020805460ff19166001908117909155610d66908390613bef565b33600081815260ce602052604090819020929092559051829184917f51088b8c89628df3a8174002c2a034d0152fce6af8415d651b2a4734bf27048290610dae908890613c07565b60405180910390a4610de0333060408601803590610dcf90602089016135a9565b6001600160a01b03169291906128e9565b5050508080610dee90613c1a565b915050610cba565b505060016097555050565b60665460029060049081161415610e2a5760405162461bcd60e51b81526004016109fd90613a0c565b60026097541415610e4d5760405162461bcd60e51b81526004016109fd90613a43565b6002609755600060ca610e63602086018661379c565b63ffffffff1681548110610e7957610e79613913565b600091825260209182902060408051608081018252600293909302909101805483526001015463ffffffff80821694840194909452600160201b810490931690820152600160401b90910460ff16151560608201529050610eda848261295a565b6000610eec60808601606087016135a9565b6001600160a01b03808216600090815260cc60205260409020549192501680610f125750805b336001600160a01b03821614610f905760405162461bcd60e51b815260206004820152603c60248201527f52657761726473436f6f7264696e61746f722e70726f63657373436c61696d3a60448201527f2063616c6c6572206973206e6f742076616c696420636c61696d65720000000060648201526084016109fd565b60005b610fa060a0880188613c35565b90508110156111b75736610fb760e0890189613c86565b83818110610fc757610fc7613913565b6001600160a01b038716600090815260cd602090815260408083209302949094019450929091508290610ffc908501856135a9565b6001600160a01b03166001600160a01b03168152602001908152602001600020549050808260200135116110b65760405162461bcd60e51b815260206004820152605560248201527f52657761726473436f6f7264696e61746f722e70726f63657373436c61696d3a60448201527f2063756d756c61746976654561726e696e6773206d75737420626520677420746064820152741a185b8818dd5b5d5b185d1a5d9950db185a5b5959605a1b608482015260a4016109fd565b60006110c68260208501356138fc565b6001600160a01b038716600090815260cd602090815260408220929350850180359291906110f490876135a9565b6001600160a01b0316815260208082019290925260400160002091909155611136908a908390611126908701876135a9565b6001600160a01b03169190612c26565b86516001600160a01b03808b1691878216918916907f9543dbd55580842586a951f0386e24d68a5df99ae29e3b216588b45fd684ce319061117a60208901896135a9565b604080519283526001600160a01b039091166020830152810186905260600160405180910390a450505080806111af90613c1a565b915050610f93565b505060016097555050505050565b606654600390600890811614156111ee5760405162461bcd60e51b81526004016109fd90613a0c565b60cb546001600160a01b031633146112185760405162461bcd60e51b81526004016109fd90613cd0565b60cb5463ffffffff600160c01b9091048116908316116112b45760405162461bcd60e51b815260206004820152604b60248201527f52657761726473436f6f7264696e61746f722e7375626d6974526f6f743a206e60448201527f657720726f6f74206d75737420626520666f72206e657765722063616c63756c60648201526a185d1959081c195c9a5bd960aa1b608482015260a4016109fd565b428263ffffffff161061134d5760405162461bcd60e51b815260206004820152605560248201527f52657761726473436f6f7264696e61746f722e7375626d6974526f6f743a207260448201527f65776172647343616c63756c6174696f6e456e6454696d657374616d702063616064820152746e6e6f7420626520696e207468652066757475726560581b608482015260a4016109fd565b60ca5460cb5460009061136d90600160a01b900463ffffffff1642613d24565b6040805160808101825287815263ffffffff878116602080840182815286841685870181815260006060880181815260ca8054600181018255925297517f42d72674974f694b5f5159593243114d38a5c39c89d6b62fee061ff523240ee160029092029182015592517f42d72674974f694b5f5159593243114d38a5c39c89d6b62fee061ff523240ee290930180549151975193871667ffffffffffffffff1990921691909117600160201b978716979097029690961760ff60401b1916600160401b921515929092029190911790945560cb805463ffffffff60c01b1916600160c01b840217905593519283529394508892908616917fecd866c3c158fa00bf34d803d5f6023000b57080bcb48af004c2b4b46b3afd08910160405180910390a45050505050565b61149e611fc0565b610a0f81612c56565b60655460405163237dfb4760e11b81523360048201526001600160a01b03909116906346fbf68e90602401602060405180830381865afa1580156114ef573d6000803e3d6000fd5b505050506040513d601f19601f8201168201806040525081019061151391906139a7565b61152f5760405162461bcd60e51b81526004016109fd906139c4565b600019606681905560405190815233907fab40a374bc51de372200a8bc981af8c9ecdc08dfdaef0bb6e09f88f3c616ef3d9060200160405180910390a2565b60006115f38260ca611583602083018361379c565b63ffffffff168154811061159957611599613913565b600091825260209182902060408051608081018252600293909302909101805483526001015463ffffffff80821694840194909452600160201b810490931690820152600160401b90910460ff161515606082015261295a565b506001919050565b611603611fc0565b61160d6000612cc7565b565b611617611fc0565b610a0f81612d19565b60408051608081018252600080825260208201819052918101829052606081019190915260ca8054611654906001906138fc565b8154811061166457611664613913565b600091825260209182902060408051608081018252600293909302909101805483526001015463ffffffff80821694840194909452600160201b810490931690820152600160401b90910460ff1615156060820152919050565b33600081815260cc602052604080822080546001600160a01b031981166001600160a01b038781169182179093559251911692839185917fbab947934d42e0ad206f25c9cab18b5bb6ae144acfb00f40b4e3aa59590ca31291a4505050565b600054610100900460ff161580801561173d5750600054600160ff909116105b806117575750303b158015611757575060005460ff166001145b6117ba5760405162461bcd60e51b815260206004820152602e60248201527f496e697469616c697a61626c653a20636f6e747261637420697320616c72656160448201526d191e481a5b9a5d1a585b1a5e995960921b60648201526084016109fd565b6000805460ff1916600117905580156117dd576000805461ff0019166101001790555b6117e5612d75565b60c9556117f28686612e0c565b6117fb87612cc7565b61180484612d19565b61180d83612c56565b61181682612ef6565b801561185c576000805461ff0019169055604051600181527f7f26b83ff96e1f2b6a682f133852f6798a09c465da95921460cefb38474024989060200160405180910390a15b50505050505050565b60408051608081018252600080825260208201819052918101829052606081019190915260ca828154811061189c5761189c613913565b600091825260209182902060408051608081018252600293909302909101805483526001015463ffffffff80821694840194909452600160201b810490931690820152600160401b90910460ff161515606082015292915050565b6118ff611fc0565b610a0f81612ef6565b60ca546000905b63ffffffff81161561197b578260ca611929600184613d4c565b63ffffffff168154811061193f5761193f613913565b906000526020600020906002020160000154141561196957611962600182613d4c565b9392505050565b8061197381613d71565b91505061190f565b5060405162461bcd60e51b815260206004820152603760248201527f52657761726473436f6f7264696e61746f722e676574526f6f74496e6465784660448201527f726f6d486173683a20726f6f74206e6f7420666f756e6400000000000000000060648201526084016109fd565b6119f2611fc0565b6001600160a01b038116611a575760405162461bcd60e51b815260206004820152602660248201527f4f776e61626c653a206e6577206f776e657220697320746865207a65726f206160448201526564647265737360d01b60648201526084016109fd565b610a0f81612cc7565b60007f0000000000000000000000000000000000000000000000000000000000000000461415611a91575060c95490565b611a99612d75565b905090565b60006001610b6160208401846135a9565b60665460039060089081161415611ad85760405162461bcd60e51b81526004016109fd90613a0c565b60cb546001600160a01b03163314611b025760405162461bcd60e51b81526004016109fd90613cd0565b60ca5463ffffffff831610611b735760405162461bcd60e51b815260206004820152603160248201527f52657761726473436f6f7264696e61746f722e64697361626c65526f6f743a206044820152700d2dcecc2d8d2c840e4dedee892dcc8caf607b1b60648201526084016109fd565b600060ca8363ffffffff1681548110611b8e57611b8e613913565b906000526020600020906002020190508060010160089054906101000a900460ff1615611c1b5760405162461bcd60e51b815260206004820152603560248201527f52657761726473436f6f7264696e61746f722e64697361626c65526f6f743a206044820152741c9bdbdd08185b1c9958591e48191a5cd8589b1959605a1b60648201526084016109fd565b6001810154600160201b900463ffffffff164210611c9a5760405162461bcd60e51b815260206004820152603660248201527f52657761726473436f6f7264696e61746f722e64697361626c65526f6f743a206044820152751c9bdbdd08185b1c9958591e481858dd1a5d985d195960521b60648201526084016109fd565b60018101805460ff60401b1916600160401b17905560405163ffffffff8416907fd850e6e5dfa497b72661fa73df2923464eaed9dc2ff1d3cb82bccbfeabe5c41e90600090a2505050565b606560009054906101000a90046001600160a01b03166001600160a01b031663eab66d7a6040518163ffffffff1660e01b8152600401602060405180830381865afa158015611d38573d6000803e3d6000fd5b505050506040513d601f19601f82011682018060405250810190611d5c9190613940565b6001600160a01b0316336001600160a01b031614611d8c5760405162461bcd60e51b81526004016109fd9061395d565b606654198119606654191614611e0a5760405162461bcd60e51b815260206004820152603860248201527f5061757361626c652e756e70617573653a20696e76616c696420617474656d7060448201527f7420746f2070617573652066756e6374696f6e616c697479000000000000000060648201526084016109fd565b606681905560405181815233907f3582d1828e26bf56bd801502bc021ac0bc8afb57c826e4986b45593c8fad389c90602001610b46565b60665460009060019081161415611e6a5760405162461bcd60e51b81526004016109fd90613a0c565b60026097541415611e8d5760405162461bcd60e51b81526004016109fd90613a43565b600260975560005b82811015610df65736848483818110611eb057611eb0613913565b9050602002810190611ec29190613a7a565b33600081815260ce60209081526040808320549051949550939192611eed9290918591879101613bbf565b604051602081830303815290604052805190602001209050611f0e83612111565b33600090815260cf602090815260408083208484529091529020805460ff19166001908117909155611f41908390613bef565b33600081815260ce602052604090819020929092559051829184917f450a367a380c4e339e5ae7340c8464ef27af7781ad9945cfe8abd828f89e628190611f89908890613c07565b60405180910390a4611faa333060408601803590610dcf90602089016135a9565b5050508080611fb890613c1a565b915050611e95565b6033546001600160a01b0316331461160d5760405162461bcd60e51b815260206004820181905260248201527f4f776e61626c653a2063616c6c6572206973206e6f7420746865206f776e657260448201526064016109fd565b6001600160a01b0381166120a85760405162461bcd60e51b815260206004820152604960248201527f5061757361626c652e5f73657450617573657252656769737472793a206e657760448201527f50617573657252656769737472792063616e6e6f7420626520746865207a65726064820152686f206164647265737360b81b608482015260a4016109fd565b606554604080516001600160a01b03928316815291831660208301527f6e9fcd539896fca60e8b0f01dd580233e48a6b0f7df013b89ba7f565869acdb6910160405180910390a1606580546001600160a01b0319166001600160a01b0392909216919091179055565b600061211d8280613c86565b905011612182576040805162461bcd60e51b8152602060048201526024810191909152600080516020613ecb83398151915260448201527f7264735375626d697373696f6e3a206e6f20737472617465676965732073657460648201526084016109fd565b60008160400135116121f45760405162461bcd60e51b81526020600482015260416024820152600080516020613ecb83398151915260448201527f7264735375626d697373696f6e3a20616d6f756e742063616e6e6f74206265206064820152600360fc1b608482015260a4016109fd565b6f4b3b4ca85a86c47a098a223fffffffff8160400135111561226c5760405162461bcd60e51b815260206004820152603f6024820152600080516020613ecb83398151915260448201527f7264735375626d697373696f6e3a20616d6f756e7420746f6f206c617267650060648201526084016109fd565b63ffffffff7f0000000000000000000000000000000000000000000000000000000000000000166122a360a083016080840161379c565b63ffffffff1611156123285760405162461bcd60e51b81526020600482015260546024820152600080516020613ecb83398151915260448201527f7264735375626d697373696f6e3a206475726174696f6e20657863656564732060648201527326a0ac2fa922aba0a92229afa22aa920aa24a7a760611b608482015260a4016109fd565b7f000000000000000000000000000000000000000000000000000000000000000061235960a083016080840161379c565b6123639190613da7565b63ffffffff16156124035760405162461bcd60e51b815260206004820152606a6024820152600080516020613ecb83398151915260448201527f7264735375626d697373696f6e3a206475726174696f6e206d7573742062652060648201527f61206d756c7469706c65206f662043414c43554c4154494f4e5f494e54455256608482015269414c5f5345434f4e445360b01b60a482015260c4016109fd565b7f0000000000000000000000000000000000000000000000000000000000000000612434608083016060840161379c565b61243e9190613da7565b63ffffffff16156124e45760405162461bcd60e51b81526020600482015260706024820152600080516020613ecb83398151915260448201527f7264735375626d697373696f6e3a20737461727454696d657374616d70206d7560648201527f73742062652061206d756c7469706c65206f662043414c43554c4154494f4e5f60848201526f494e54455256414c5f5345434f4e445360801b60a482015260c4016109fd565b6124f4608082016060830161379c565b63ffffffff167f000000000000000000000000000000000000000000000000000000000000000063ffffffff164261252c91906138fc565b111580156125755750612545608082016060830161379c565b63ffffffff167f000000000000000000000000000000000000000000000000000000000000000063ffffffff1611155b6125ef5760405162461bcd60e51b81526020600482015260516024820152600080516020613ecb83398151915260448201527f7264735375626d697373696f6e3a20737461727454696d657374616d7020746f6064820152701bc819985c881a5b881d1a19481c185cdd607a1b608482015260a4016109fd565b61261f63ffffffff7f00000000000000000000000000000000000000000000000000000000000000001642613bef565b61262f608083016060840161379c565b63ffffffff1611156126b35760405162461bcd60e51b81526020600482015260536024820152600080516020613ecb83398151915260448201527f7264735375626d697373696f6e3a20737461727454696d657374616d7020746f6064820152726f2066617220696e207468652066757475726560681b608482015260a4016109fd565b6000805b6126c18380613c86565b90508110156128e45760006126d68480613c86565b838181106126e6576126e6613913565b6126fc92602060409092020190810191506135a9565b60405163198f077960e21b81526001600160a01b0380831660048301529192507f00000000000000000000000000000000000000000000000000000000000000009091169063663c1de490602401602060405180830381865afa158015612767573d6000803e3d6000fd5b505050506040513d601f19601f8201168201806040525081019061278b91906139a7565b806127b257506001600160a01b03811673beac0eeeeeeeeeeeeeeeeeeeeeeeeeeeeeebeac0145b6128255760405162461bcd60e51b815260206004820152604a6024820152600080516020613ecb83398151915260448201527f7264735375626d697373696f6e3a20696e76616c69642073747261746567792060648201526918dbdb9cda59195c995960b21b608482015260a4016109fd565b806001600160a01b0316836001600160a01b0316106128d25760405162461bcd60e51b81526020600482015260696024820152600080516020613ecb83398151915260448201527f7264735375626d697373696f6e3a2073747261746567696573206d757374206260648201527f6520696e20617363656e64696e67206f7264657220746f2068616e646c65206460848201526875706c69636174657360b81b60a482015260c4016109fd565b91506128dd81613c1a565b90506126b7565b505050565b6040516001600160a01b03808516602483015283166044820152606481018290526129549085906323b872dd60e01b906084015b60408051601f198184030181529190526020810180516001600160e01b03166001600160e01b031990931692909217909152612f61565b50505050565b8060600151156129b35760405162461bcd60e51b81526020600482015260306024820152600080516020613eab83398151915260448201526f1c9bdbdd081a5cc8191a5cd8589b195960821b60648201526084016109fd565b806040015163ffffffff16421015612a1a5760405162461bcd60e51b81526020600482015260366024820152600080516020613eab8339815191526044820152751c9bdbdd081b9bdd081858dd1a5d985d1959081e595d60521b60648201526084016109fd565b612a2760c0830183613c35565b9050612a3660a0840184613c35565b905014612aae5760405162461bcd60e51b815260206004820152604c6024820152600080516020613eab83398151915260448201527f746f6b656e496e646963657320616e6420746f6b656e50726f6f6673206c656e60648201526b0cee8d040dad2e6dac2e8c6d60a31b608482015260a4016109fd565b612abb60e0830183613c86565b9050612aca60c0840184613c35565b905014612b405760405162461bcd60e51b815260206004820152604a6024820152600080516020613eab83398151915260448201527f746f6b656e5472656550726f6f667320616e64206c6561766573206c656e67746064820152690d040dad2e6dac2e8c6d60b31b608482015260a4016109fd565b8051612b6c90612b56604085016020860161379c565b612b636040860186613dca565b86606001613033565b60005b612b7c60a0840184613c35565b90508110156128e457612c166080840135612b9a60a0860186613c35565b84818110612baa57612baa613913565b9050602002016020810190612bbf919061379c565b612bcc60c0870187613c35565b85818110612bdc57612bdc613913565b9050602002810190612bee9190613dca565b612bfb60e0890189613c86565b87818110612c0b57612c0b613913565b9050604002016131a7565b612c1f81613c1a565b9050612b6f565b6040516001600160a01b0383166024820152604481018290526128e490849063a9059cbb60e01b9060640161291d565b60cb546040805163ffffffff600160a01b9093048316815291831660208301527faf557c6c02c208794817a705609cfa935f827312a1adfdd26494b6b95dd2b4b3910160405180910390a160cb805463ffffffff909216600160a01b0263ffffffff60a01b19909216919091179055565b603380546001600160a01b038381166001600160a01b0319831681179093556040519116919082907f8be0079c531659141344cd1fd0a4f28419497f9722a3daafe3b4186f6b6457e090600090a35050565b60cb546040516001600160a01b038084169216907f237b82f438d75fc568ebab484b75b01d9287b9e98b490b7c23221623b6705dbb90600090a360cb80546001600160a01b0319166001600160a01b0392909216919091179055565b604080518082018252600a81526922b4b3b2b72630bcb2b960b11b60209182015281517f8cad95687ba82c2ce50e74f7b754645e5117c3a5bec8151c0726d5857980a866818301527f71b625cfad44bac63b13dba07f2e1d6084ee04b6f8752101ece6126d584ee6ea81840152466060820152306080808301919091528351808303909101815260a0909101909252815191012090565b6065546001600160a01b0316158015612e2d57506001600160a01b03821615155b612eaf5760405162461bcd60e51b815260206004820152604760248201527f5061757361626c652e5f696e697469616c697a655061757365723a205f696e6960448201527f7469616c697a6550617573657228292063616e206f6e6c792062652063616c6c6064820152666564206f6e636560c81b608482015260a4016109fd565b606681905560405181815233907fab40a374bc51de372200a8bc981af8c9ecdc08dfdaef0bb6e09f88f3c616ef3d9060200160405180910390a2612ef28261201a565b5050565b60cb546040805161ffff600160e01b9093048316815291831660208301527f8cdc428b0431b82d1619763f443a48197db344ba96905f3949643acd1c863a06910160405180910390a160cb805461ffff909216600160e01b0261ffff60e01b19909216919091179055565b6000612fb6826040518060400160405280602081526020017f5361666545524332303a206c6f772d6c6576656c2063616c6c206661696c6564815250856001600160a01b03166132f89092919063ffffffff16565b8051909150156128e45780806020019051810190612fd491906139a7565b6128e45760405162461bcd60e51b815260206004820152602a60248201527f5361666545524332303a204552433230206f7065726174696f6e20646964206e6044820152691bdd081cdd58d8d9595960b21b60648201526084016109fd565b61303e602083613e11565b6001901b8463ffffffff16106130c85760405162461bcd60e51b815260206004820152604360248201527f52657761726473436f6f7264696e61746f722e5f7665726966794561726e657260448201527f436c61696d50726f6f663a20696e76616c6964206561726e65724c656166496e6064820152620c8caf60eb1b608482015260a4016109fd565b60006130d382610b51565b905061311e84848080601f0160208091040260200160405190810160405280939291908181526020018383808284376000920191909152508a92508591505063ffffffff891661330f565b61319f5760405162461bcd60e51b815260206004820152604660248201527f52657761726473436f6f7264696e61746f722e5f7665726966794561726e657260448201527f436c61696d50726f6f663a20696e76616c6964206561726e657220636c61696d60648201526510383937b7b360d11b608482015260a4016109fd565b505050505050565b6131b2602083613e11565b6001901b8463ffffffff16106132305760405162461bcd60e51b815260206004820152603c60248201527f52657761726473436f6f7264696e61746f722e5f766572696679546f6b656e4360448201527f6c61696d3a20696e76616c696420746f6b656e4c656166496e6465780000000060648201526084016109fd565b600061323b82611a9e565b905061328684848080601f0160208091040260200160405190810160405280939291908181526020018383808284376000920191909152508a92508591505063ffffffff891661330f565b61319f5760405162461bcd60e51b815260206004820152603f60248201527f52657761726473436f6f7264696e61746f722e5f766572696679546f6b656e4360448201527f6c61696d3a20696e76616c696420746f6b656e20636c61696d2070726f6f660060648201526084016109fd565b60606133078484600085613327565b949350505050565b60008361331d868585613458565b1495945050505050565b6060824710156133885760405162461bcd60e51b815260206004820152602660248201527f416464726573733a20696e73756666696369656e742062616c616e636520666f6044820152651c8818d85b1b60d21b60648201526084016109fd565b6001600160a01b0385163b6133df5760405162461bcd60e51b815260206004820152601d60248201527f416464726573733a2063616c6c20746f206e6f6e2d636f6e747261637400000060448201526064016109fd565b600080866001600160a01b031685876040516133fb9190613e51565b60006040518083038185875af1925050503d8060008114613438576040519150601f19603f3d011682016040523d82523d6000602084013e61343d565b606091505b509150915061344d82828661355b565b979650505050505050565b6000602084516134689190613e63565b156134ef5760405162461bcd60e51b815260206004820152604b60248201527f4d65726b6c652e70726f63657373496e636c7573696f6e50726f6f664b65636360448201527f616b3a2070726f6f66206c656e6774682073686f756c642062652061206d756c60648201526a3a34b836329037b310199960a91b608482015260a4016109fd565b8260205b8551811161355257613506600285613e63565b61352757816000528086015160205260406000209150600284049350613540565b8086015160005281602052604060002091506002840493505b61354b602082613bef565b90506134f3565b50949350505050565b6060831561356a575081611962565b82511561357a5782518084602001fd5b8160405162461bcd60e51b81526004016109fd9190613e77565b6001600160a01b0381168114610a0f57600080fd5b6000602082840312156135bb57600080fd5b813561196281613594565b8015158114610a0f57600080fd5b600080604083850312156135e757600080fd5b82356135f281613594565b91506020830135613602816135c6565b809150509250929050565b60006020828403121561361f57600080fd5b5035919050565b60006040828403121561363857600080fd5b50919050565b60006040828403121561365057600080fd5b6119628383613626565b6000806040838503121561366d57600080fd5b823561367881613594565b9150602083013561360281613594565b6000806020838503121561369b57600080fd5b823567ffffffffffffffff808211156136b357600080fd5b818501915085601f8301126136c757600080fd5b8135818111156136d657600080fd5b8660208260051b85010111156136eb57600080fd5b60209290920196919550909350505050565b6000610100828403121561363857600080fd5b6000806040838503121561372357600080fd5b823567ffffffffffffffff81111561373a57600080fd5b613746858286016136fd565b925050602083013561360281613594565b803563ffffffff8116811461376b57600080fd5b919050565b6000806040838503121561378357600080fd5b8235915061379360208401613757565b90509250929050565b6000602082840312156137ae57600080fd5b61196282613757565b6000602082840312156137c957600080fd5b813560ff8116811461196257600080fd5b6000602082840312156137ec57600080fd5b813567ffffffffffffffff81111561380357600080fd5b613307848285016136fd565b6000806040838503121561382257600080fd5b823561382d81613594565b946020939093013593505050565b803561376b81613594565b803561ffff8116811461376b57600080fd5b60008060008060008060c0878903121561387157600080fd5b863561387c81613594565b9550602087013561388c81613594565b94506040870135935060608701356138a381613594565b92506138b160808801613757565b91506138bf60a08801613846565b90509295509295509295565b6000602082840312156138dd57600080fd5b61196282613846565b634e487b7160e01b600052601160045260246000fd5b60008282101561390e5761390e6138e6565b500390565b634e487b7160e01b600052603260045260246000fd5b600081613938576139386138e6565b506000190190565b60006020828403121561395257600080fd5b815161196281613594565b6020808252602a908201527f6d73672e73656e646572206973206e6f74207065726d697373696f6e6564206160408201526939903ab73830bab9b2b960b11b606082015260800190565b6000602082840312156139b957600080fd5b8151611962816135c6565b60208082526028908201527f6d73672e73656e646572206973206e6f74207065726d697373696f6e6564206160408201526739903830bab9b2b960c11b606082015260800190565b60208082526019908201527f5061757361626c653a20696e6465782069732070617573656400000000000000604082015260600190565b6020808252601f908201527f5265656e7472616e637947756172643a207265656e7472616e742063616c6c00604082015260600190565b60008235609e19833603018112613a9057600080fd5b9190910192915050565b818352600060208085019450826000805b86811015613aff578235613abe81613594565b6001600160a01b03168852828401356bffffffffffffffffffffffff8116808214613ae7578384fd5b89860152506040978801979290920191600101613aab565b50959695505050505050565b60008135601e19833603018112613b2157600080fd5b8201803567ffffffffffffffff811115613b3a57600080fd5b8060061b3603841315613b4c57600080fd5b60a08552613b6160a086018260208501613a9a565b915050613b706020840161383b565b6001600160a01b0316602085015260408381013590850152613b9460608401613757565b63ffffffff166060850152613bab60808401613757565b63ffffffff81166080860152509392505050565b60018060a01b0384168152826020820152606060408201526000613be66060830184613b0b565b95945050505050565b60008219821115613c0257613c026138e6565b500190565b6020815260006119626020830184613b0b565b6000600019821415613c2e57613c2e6138e6565b5060010190565b6000808335601e19843603018112613c4c57600080fd5b83018035915067ffffffffffffffff821115613c6757600080fd5b6020019150600581901b3603821315613c7f57600080fd5b9250929050565b6000808335601e19843603018112613c9d57600080fd5b83018035915067ffffffffffffffff821115613cb857600080fd5b6020019150600681901b3603821315613c7f57600080fd5b60208082526034908201527f52657761726473436f6f7264696e61746f723a2063616c6c6572206973206e6f6040820152733a103a3432903932bbb0b93239aab83230ba32b960611b606082015260800190565b600063ffffffff808316818516808303821115613d4357613d436138e6565b01949350505050565b600063ffffffff83811690831681811015613d6957613d696138e6565b039392505050565b600063ffffffff821680613d8757613d876138e6565b6000190192915050565b634e487b7160e01b600052601260045260246000fd5b600063ffffffff80841680613dbe57613dbe613d91565b92169190910692915050565b6000808335601e19843603018112613de157600080fd5b83018035915067ffffffffffffffff821115613dfc57600080fd5b602001915036819003821315613c7f57600080fd5b600082613e2057613e20613d91565b500490565b60005b83811015613e40578181015183820152602001613e28565b838111156129545750506000910152565b60008251613a90818460208701613e25565b600082613e7257613e72613d91565b500690565b6020815260008251806020840152613e96816040850160208701613e25565b601f01601f1916919091016040019291505056fe52657761726473436f6f7264696e61746f722e5f636865636b436c61696d3a2052657761726473436f6f7264696e61746f722e5f76616c696461746552657761a2646970667358221220e8390b8443a4c84fa9d5aa1c3e3ac48673af21267ce2d69214dfe7f2e762584164736f6c634300080c0033","linkReferences":{}},"methodIdentifiers":{"CALCULATION_INTERVAL_SECONDS()":"9d45c281","GENESIS_REWARDS_TIMESTAMP()":"131433b4","MAX_FUTURE_LENGTH()":"04a0c502","MAX_RETROACTIVE_LENGTH()":"37838ed0","MAX_REWARDS_DURATION()":"bf21a8aa","activationDelay()":"3a8c0786","beaconChainETHStrategy()":"9104c319","calculateEarnerLeafHash((address,bytes32))":"149bc872","calculateTokenLeafHash((address,uint256))":"f8cd8448","checkClaim((uint32,uint32,bytes,(address,bytes32),uint32[],bytes[],(address,uint256)[]))":"5e9d8348","claimerFor(address)":"2b9f64a4","createAVSRewardsSubmission(((address,uint96)[],address,uint256,uint32,uint32)[])":"fce36c7d","createRewardsForAllSubmission(((address,uint96)[],address,uint256,uint32,uint32)[])":"36af41fa","cumulativeClaimed(address,address)":"865c6953","currRewardsCalculationEndTimestamp()":"4d18cc35","delegationManager()":"ea4d3c9b","disableRoot(uint32)":"f96abf2e","domainSeparator()":"f698da25","getCurrentClaimableDistributionRoot()":"0e9a53cf","getCurrentDistributionRoot()":"9be3d4e4","getDistributionRootAtIndex(uint256)":"de02e503","getDistributionRootsLength()":"7b8f8b05","getRootIndexFromHash(bytes32)":"e810ce21","globalOperatorCommissionBips()":"092db007","initialize(address,address,uint256,address,uint32,uint16)":"d4540a55","isAVSRewardsSubmissionHash(address,bytes32)":"6d21117e","isRewardsForAllSubmitter(address)":"0018572c","isRewardsSubmissionForAllHash(address,bytes32)":"c46db606","operatorCommissionBips(address,address)":"22f19a64","owner()":"8da5cb5b","pause(uint256)":"136439dd","pauseAll()":"595c6a67","paused()":"5c975abb","paused(uint8)":"5ac86ab7","pauserRegistry()":"886f1195","processClaim((uint32,uint32,bytes,(address,bytes32),uint32[],bytes[],(address,uint256)[]),address)":"3ccc861d","renounceOwnership()":"715018a6","rewardsUpdater()":"fbf1e2c1","setActivationDelay(uint32)":"58baaa3e","setClaimerFor(address)":"a0169ddd","setGlobalOperatorCommission(uint16)":"e221b245","setPauserRegistry(address)":"10d67a2f","setRewardsForAllSubmitter(address,bool)":"0eb38345","setRewardsUpdater(address)":"863cb9a9","strategyManager()":"39b70e38","submissionNonce(address)":"bb7e451f","submitRoot(bytes32,uint32)":"3efe1db6","transferOwnership(address)":"f2fde38b","unpause(uint256)":"fabc1cbc"},"id":72}