{"abi":[{"type":"constructor","inputs":[{"name":"_registryCoordinator","type":"address","internalType":"contract IRegistryCoordinator"}],"stateMutability":"nonpayable"},{"type":"function","name":"OPERATOR_DOES_NOT_EXIST_ID","inputs":[],"outputs":[{"name":"","type":"bytes32","internalType":"bytes32"}],"stateMutability":"view"},{"type":"function","name":"currentOperatorIndex","inputs":[{"name":"","type":"uint8","internalType":"uint8"},{"name":"","type":"bytes32","internalType":"bytes32"}],"outputs":[{"name":"","type":"uint32","internalType":"uint32"}],"stateMutability":"view"},{"type":"function","name":"deregisterOperator","inputs":[{"name":"operatorId","type":"bytes32","internalType":"bytes32"},{"name":"quorumNumbers","type":"bytes","internalType":"bytes"}],"outputs":[],"stateMutability":"nonpayable"},{"type":"function","name":"getLatestOperatorUpdate","inputs":[{"name":"quorumNumber","type":"uint8","internalType":"uint8"},{"name":"operatorIndex","type":"uint32","internalType":"uint32"}],"outputs":[{"name":"","type":"tuple","internalType":"struct IIndexRegistry.OperatorUpdate","components":[{"name":"fromBlockNumber","type":"uint32","internalType":"uint32"},{"name":"operatorId","type":"bytes32","internalType":"bytes32"}]}],"stateMutability":"view"},{"type":"function","name":"getLatestQuorumUpdate","inputs":[{"name":"quorumNumber","type":"uint8","internalType":"uint8"}],"outputs":[{"name":"","type":"tuple","internalType":"struct IIndexRegistry.QuorumUpdate","components":[{"name":"fromBlockNumber","type":"uint32","internalType":"uint32"},{"name":"numOperators","type":"uint32","internalType":"uint32"}]}],"stateMutability":"view"},{"type":"function","name":"getOperatorListAtBlockNumber","inputs":[{"name":"quorumNumber","type":"uint8","internalType":"uint8"},{"name":"blockNumber","type":"uint32","internalType":"uint32"}],"outputs":[{"name":"","type":"bytes32[]","internalType":"bytes32[]"}],"stateMutability":"view"},{"type":"function","name":"getOperatorUpdateAtIndex","inputs":[{"name":"quorumNumber","type":"uint8","internalType":"uint8"},{"name":"operatorIndex","type":"uint32","internalType":"uint32"},{"name":"arrayIndex","type":"uint32","internalType":"uint32"}],"outputs":[{"name":"","type":"tuple","internalType":"struct IIndexRegistry.OperatorUpdate","components":[{"name":"fromBlockNumber","type":"uint32","internalType":"uint32"},{"name":"operatorId","type":"bytes32","internalType":"bytes32"}]}],"stateMutability":"view"},{"type":"function","name":"getQuorumUpdateAtIndex","inputs":[{"name":"quorumNumber","type":"uint8","internalType":"uint8"},{"name":"quorumIndex","type":"uint32","internalType":"uint32"}],"outputs":[{"name":"","type":"tuple","internalType":"struct IIndexRegistry.QuorumUpdate","components":[{"name":"fromBlockNumber","type":"uint32","internalType":"uint32"},{"name":"numOperators","type":"uint32","internalType":"uint32"}]}],"stateMutability":"view"},{"type":"function","name":"initializeQuorum","inputs":[{"name":"quorumNumber","type":"uint8","internalType":"uint8"}],"outputs":[],"stateMutability":"nonpayable"},{"type":"function","name":"registerOperator","inputs":[{"name":"operatorId","type":"bytes32","internalType":"bytes32"},{"name":"quorumNumbers","type":"bytes","internalType":"bytes"}],"outputs":[{"name":"","type":"uint32[]","internalType":"uint32[]"}],"stateMutability":"nonpayable"},{"type":"function","name":"registryCoordinator","inputs":[],"outputs":[{"name":"","type":"address","internalType":"address"}],"stateMutability":"view"},{"type":"function","name":"totalOperatorsForQuorum","inputs":[{"name":"quorumNumber","type":"uint8","internalType":"uint8"}],"outputs":[{"name":"","type":"uint32","internalType":"uint32"}],"stateMutability":"view"},{"type":"event","name":"Initialized","inputs":[{"name":"version","type":"uint8","indexed":false,"internalType":"uint8"}],"anonymous":false},{"type":"event","name":"QuorumIndexUpdate","inputs":[{"name":"operatorId","type":"bytes32","indexed":true,"internalType":"bytes32"},{"name":"quorumNumber","type":"uint8","indexed":false,"internalType":"uint8"},{"name":"newOperatorIndex","type":"uint32","indexed":false,"internalType":"uint32"}],"anonymous":false}],"bytecode":{"object":"0x60a060405234801561001057600080fd5b5060405161136138038061136183398101604081905261002f9161010c565b6001600160a01b0381166080528061004561004c565b505061013c565b600054610100900460ff16156100b85760405162461bcd60e51b815260206004820152602760248201527f496e697469616c697a61626c653a20636f6e747261637420697320696e697469604482015266616c697a696e6760c81b606482015260840160405180910390fd5b60005460ff908116101561010a576000805460ff191660ff9081179091556040519081527f7f26b83ff96e1f2b6a682f133852f6798a09c465da95921460cefb38474024989060200160405180910390a15b565b60006020828403121561011e57600080fd5b81516001600160a01b038116811461013557600080fd5b9392505050565b60805161120361015e60003960008181610142015261085a01526112036000f3fe608060405234801561001057600080fd5b50600436106100b35760003560e01c8063890262451161007157806389026245146101b3578063a48bb0ac146101d3578063bd29b8cd146101e6578063caa3cd76146101f9578063e2e685801461020f578063f34109221461025557600080fd5b8062bff04d146100b857806312d1d74d146100e157806326d941f2146101155780632ed583e51461012a5780636d14a9871461013d5780638121906f1461017c575b600080fd5b6100cb6100c6366004610ebd565b610268565b6040516100d89190610f39565b60405180910390f35b6100f46100ef366004610fad565b61038a565b60408051825163ffffffff16815260209283015192810192909252016100d8565b610128610123366004610fe0565b6103d0565b005b6100f4610138366004610ffb565b6104b4565b6101647f000000000000000000000000000000000000000000000000000000000000000081565b6040516001600160a01b0390911681526020016100d8565b61018f61018a366004610fe0565b61053a565b60408051825163ffffffff90811682526020938401511692810192909252016100d8565b6101c66101c1366004610fad565b610581565b6040516100d8919061103e565b61018f6101e1366004610fad565b6106eb565b6101286101f4366004610ebd565b610762565b610201600081565b6040519081526020016100d8565b61024061021d366004611076565b600160209081526000928352604080842090915290825290205463ffffffff1681565b60405163ffffffff90911681526020016100d8565b610240610263366004610fe0565b610830565b606061027261084f565b60008267ffffffffffffffff81111561028d5761028d6110a0565b6040519080825280602002602001820160405280156102b6578160200160208202803683370190505b50905060005b8381101561037f5760008585838181106102d8576102d86110b6565b919091013560f81c60008181526003602052604090205490925090508061031a5760405162461bcd60e51b8152600401610311906110cc565b60405180910390fd5b600061032583610905565b905061033c8984610337600185611137565b6109fe565b8085858151811061034f5761034f6110b6565b602002602001019063ffffffff16908163ffffffff168152505050505080806103779061115c565b9150506102bc565b5090505b9392505050565b60408051808201909152600080825260208201526103a88383610a88565b60408051808201909152815463ffffffff168152600190910154602082015290505b92915050565b6103d861084f565b60ff8116600090815260036020526040902054156104525760405162461bcd60e51b815260206004820152603160248201527f496e64657852656769737472792e63726561746551756f72756d3a2071756f72604482015270756d20616c72656164792065786973747360781b6064820152608401610311565b60ff166000908152600360209081526040808320815180830190925263ffffffff438116835282840185815282546001810184559286529390942091519101805492518416600160201b0267ffffffffffffffff199093169190931617179055565b604080518082019091526000808252602082015260ff8416600090815260026020908152604080832063ffffffff80881685529252909120805490918416908110610501576105016110b6565b600091825260209182902060408051808201909152600290920201805463ffffffff168252600101549181019190915290509392505050565b604080518082019091526000808252602082015261055782610ae0565b60408051808201909152905463ffffffff8082168352600160201b90910416602082015292915050565b6060600061058f8484610b22565b905060008163ffffffff1667ffffffffffffffff8111156105b2576105b26110a0565b6040519080825280602002602001820160405280156105db578160200160208202803683370190505b50905060005b8263ffffffff168110156106e2576105fa868287610c57565b82828151811061060c5761060c6110b6565b6020026020010181815250506000801b82828151811061062e5761062e6110b6565b602002602001015114156106d05760405162461bcd60e51b815260206004820152605d60248201527f496e64657852656769737472792e6765744f70657261746f724c69737441744260448201527f6c6f636b4e756d6265723a206f70657261746f7220646f6573206e6f7420657860648201527f6973742061742074686520676976656e20626c6f636b206e756d626572000000608482015260a401610311565b806106da8161115c565b9150506105e1565b50949350505050565b604080518082019091526000808252602082015260ff83166000908152600360205260409020805463ffffffff8416908110610729576107296110b6565b60009182526020918290206040805180820190915291015463ffffffff8082168352600160201b90910416918101919091529392505050565b61076a61084f565b60005b8181101561082a576000838383818110610789576107896110b6565b919091013560f81c6000818152600360205260409020549092509050806107c25760405162461bcd60e51b8152600401610311906110cc565b60ff8216600090815260016020908152604080832089845290915281205463ffffffff16906107f084610d2e565b905060006107fe8583610d68565b9050808914610812576108128186856109fe565b505050505080806108229061115c565b91505061076d565b50505050565b600061083b82610ae0565b54600160201b900463ffffffff1692915050565b336001600160a01b037f000000000000000000000000000000000000000000000000000000000000000016146109035760405162461bcd60e51b815260206004820152604d60248201527f496e64657852656769737472792e6f6e6c795265676973747279436f6f72646960448201527f6e61746f723a2063616c6c6572206973206e6f7420746865207265676973747260648201526c3c9031b7b7b93234b730ba37b960991b608482015260a401610311565b565b60008061091183610ae0565b805490915060009061093190600160201b900463ffffffff166001611177565b905061093e848383610d92565b60ff841660009081526002602052604081209061095c600184611137565b63ffffffff1681526020810191909152604001600020546103835760ff8416600090815260026020526040812090610995600184611137565b63ffffffff908116825260208083019390935260409182016000908120835180850190945243831684528385018281528154600180820184559284529590922093516002909502909301805463ffffffff19169490921693909317815591519101559392505050565b6000610a0a8383610a88565b9050610a1883838387610e32565b60ff83166000818152600160209081526040808320888452825291829020805463ffffffff191663ffffffff871690811790915582519384529083015285917f6ee1e4f4075f3d067176140d34e87874244dd273294c05b2218133e49a2ba6f6910160405180910390a250505050565b60ff8216600090815260026020908152604080832063ffffffff851684529091528120805490610ab960018361119f565b81548110610ac957610ac96110b6565b906000526020600020906002020191505092915050565b60ff81166000908152600360205260408120805490610b0060018361119f565b81548110610b1057610b106110b6565b90600052602060002001915050919050565b60ff8216600090815260036020526040812054805b8015610bca5760ff85166000908152600360205260408120610b5a60018461119f565b81548110610b6a57610b6a6110b6565b60009182526020918290206040805180820190915291015463ffffffff808216808452600160201b90920481169383019390935290925090861610610bb7576020015192506103ca915050565b5080610bc2816111b6565b915050610b37565b5060405162461bcd60e51b815260206004820152605560248201527f496e64657852656769737472792e5f6f70657261746f72436f756e744174426c60448201527f6f636b4e756d6265723a2071756f72756d20646964206e6f742065786973742060648201527430ba1033b4bb32b710313637b1b590373ab6b132b960591b608482015260a401610311565b60ff8316600090815260026020908152604080832063ffffffff86168452909152812054805b8015610d225760ff8616600090815260026020908152604080832063ffffffff891684529091528120610cb160018461119f565b81548110610cc157610cc16110b6565b600091825260209182902060408051808201909152600290920201805463ffffffff9081168084526001909201549383019390935290925090861610610d0f57602001519250610383915050565b5080610d1a816111b6565b915050610c7d565b50600095945050505050565b600080610d3a83610ae0565b8054909150600090610d5b90600190600160201b900463ffffffff16611137565b9050610383848383610d92565b600080610d758484610a88565b6001810154909150610d8a8585846000610e32565b949350505050565b81544363ffffffff90811691161415610dc957815463ffffffff8216600160201b0267ffffffff0000000019909116178255505050565b60ff83166000908152600360209081526040808320815180830190925263ffffffff438116835285811683850190815282546001810184559286529390942091519101805492518416600160201b0267ffffffffffffffff199093169190931617179055505050565b81544363ffffffff90811691161415610e51576001820181905561082a565b60ff93909316600090815260026020818152604080842063ffffffff968716855282528084208151808301909252438716825281830197885280546001808201835591865292909420905191909202909101805463ffffffff1916919094161783559251919092015550565b600080600060408486031215610ed257600080fd5b83359250602084013567ffffffffffffffff80821115610ef157600080fd5b818601915086601f830112610f0557600080fd5b813581811115610f1457600080fd5b876020828501011115610f2657600080fd5b6020830194508093505050509250925092565b6020808252825182820181905260009190848201906040850190845b81811015610f7757835163ffffffff1683529284019291840191600101610f55565b50909695505050505050565b803560ff81168114610f9457600080fd5b919050565b803563ffffffff81168114610f9457600080fd5b60008060408385031215610fc057600080fd5b610fc983610f83565b9150610fd760208401610f99565b90509250929050565b600060208284031215610ff257600080fd5b61038382610f83565b60008060006060848603121561101057600080fd5b61101984610f83565b925061102760208501610f99565b915061103560408501610f99565b90509250925092565b6020808252825182820181905260009190848201906040850190845b81811015610f775783518352928401929184019160010161105a565b6000806040838503121561108957600080fd5b61109283610f83565b946020939093013593505050565b634e487b7160e01b600052604160045260246000fd5b634e487b7160e01b600052603260045260246000fd5b60208082526035908201527f496e64657852656769737472792e72656769737465724f70657261746f723a206040820152741c5d5bdc9d5b48191bd95cc81b9bdd08195e1a5cdd605a1b606082015260800190565b634e487b7160e01b600052601160045260246000fd5b600063ffffffff8381169083168181101561115457611154611121565b039392505050565b600060001982141561117057611170611121565b5060010190565b600063ffffffff80831681851680830382111561119657611196611121565b01949350505050565b6000828210156111b1576111b1611121565b500390565b6000816111c5576111c5611121565b50600019019056fea2646970667358221220f3348f039a5d45129c8465419c44778fbf823bebf144878efb46d56b1d0ed34c64736f6c634300080c0033","linkReferences":{}},"methodIdentifiers":{"OPERATOR_DOES_NOT_EXIST_ID()":"caa3cd76","currentOperatorIndex(uint8,bytes32)":"e2e68580","deregisterOperator(bytes32,bytes)":"bd29b8cd","getLatestOperatorUpdate(uint8,uint32)":"12d1d74d","getLatestQuorumUpdate(uint8)":"8121906f","getOperatorListAtBlockNumber(uint8,uint32)":"89026245","getOperatorUpdateAtIndex(uint8,uint32,uint32)":"2ed583e5","getQuorumUpdateAtIndex(uint8,uint32)":"a48bb0ac","initializeQuorum(uint8)":"26d941f2","registerOperator(bytes32,bytes)":"00bff04d","registryCoordinator()":"6d14a987","totalOperatorsForQuorum(uint8)":"f3410922"},"id":111}