{"abi":[{"type":"function","name":"foo","inputs":[],"outputs":[{"name":"","type":"uint256","internalType":"uint256"}],"stateMutability":"pure"}],"bytecode":{"object":"0x6080604052348015600f57600080fd5b50607780601d6000396000f3fe6080604052348015600f57600080fd5b506004361060285760003560e01c8063c298557814602d575b600080fd5b600060405190815260200160405180910390f3fea2646970667358221220d96ade4714ddbbd3678b2b7dee6ed77af0603aaccd6b3216d9c7d4911f87eee664736f6c634300080c0033","linkReferences":{}},"methodIdentifiers":{"foo()":"c2985578"},"id":107}