{"abi":[{"type":"constructor","inputs":[{"name":"_strategyManager","type":"address","internalType":"contract IStrategyManager"}],"stateMutability":"nonpayable"},{"type":"function","name":"deposit","inputs":[{"name":"token","type":"address","internalType":"contract IERC20"},{"name":"amount","type":"uint256","internalType":"uint256"}],"outputs":[{"name":"newShares","type":"uint256","internalType":"uint256"}],"stateMutability":"nonpayable"},{"type":"function","name":"explanation","inputs":[],"outputs":[{"name":"","type":"string","internalType":"string"}],"stateMutability":"pure"},{"type":"function","name":"initialize","inputs":[{"name":"_underlyingToken","type":"address","internalType":"contract IERC20"},{"name":"_pauserRegistry","type":"address","internalType":"contract IPauserRegistry"}],"outputs":[],"stateMutability":"nonpayable"},{"type":"function","name":"pause","inputs":[{"name":"newPausedStatus","type":"uint256","internalType":"uint256"}],"outputs":[],"stateMutability":"nonpayable"},{"type":"function","name":"pauseAll","inputs":[],"outputs":[],"stateMutability":"nonpayable"},{"type":"function","name":"paused","inputs":[{"name":"index","type":"uint8","internalType":"uint8"}],"outputs":[{"name":"","type":"bool","internalType":"bool"}],"stateMutability":"view"},{"type":"function","name":"paused","inputs":[],"outputs":[{"name":"","type":"uint256","internalType":"uint256"}],"stateMutability":"view"},{"type":"function","name":"pauserRegistry","inputs":[],"outputs":[{"name":"","type":"address","internalType":"contract IPauserRegistry"}],"stateMutability":"view"},{"type":"function","name":"setPauserRegistry","inputs":[{"name":"newPauserRegistry","type":"address","internalType":"contract IPauserRegistry"}],"outputs":[],"stateMutability":"nonpayable"},{"type":"function","name":"shares","inputs":[{"name":"user","type":"address","internalType":"address"}],"outputs":[{"name":"","type":"uint256","internalType":"uint256"}],"stateMutability":"view"},{"type":"function","name":"sharesToUnderlying","inputs":[{"name":"amountShares","type":"uint256","internalType":"uint256"}],"outputs":[{"name":"","type":"uint256","internalType":"uint256"}],"stateMutability":"view"},{"type":"function","name":"sharesToUnderlyingView","inputs":[{"name":"amountShares","type":"uint256","internalType":"uint256"}],"outputs":[{"name":"","type":"uint256","internalType":"uint256"}],"stateMutability":"view"},{"type":"function","name":"strategyManager","inputs":[],"outputs":[{"name":"","type":"address","internalType":"contract IStrategyManager"}],"stateMutability":"view"},{"type":"function","name":"totalShares","inputs":[],"outputs":[{"name":"","type":"uint256","internalType":"uint256"}],"stateMutability":"view"},{"type":"function","name":"underlyingToShares","inputs":[{"name":"amountUnderlying","type":"uint256","internalType":"uint256"}],"outputs":[{"name":"","type":"uint256","internalType":"uint256"}],"stateMutability":"view"},{"type":"function","name":"underlyingToSharesView","inputs":[{"name":"amountUnderlying","type":"uint256","internalType":"uint256"}],"outputs":[{"name":"","type":"uint256","internalType":"uint256"}],"stateMutability":"view"},{"type":"function","name":"underlyingToken","inputs":[],"outputs":[{"name":"","type":"address","internalType":"contract IERC20"}],"stateMutability":"view"},{"type":"function","name":"unpause","inputs":[{"name":"newPausedStatus","type":"uint256","internalType":"uint256"}],"outputs":[],"stateMutability":"nonpayable"},{"type":"function","name":"userUnderlying","inputs":[{"name":"user","type":"address","internalType":"address"}],"outputs":[{"name":"","type":"uint256","internalType":"uint256"}],"stateMutability":"nonpayable"},{"type":"function","name":"userUnderlyingView","inputs":[{"name":"user","type":"address","internalType":"address"}],"outputs":[{"name":"","type":"uint256","internalType":"uint256"}],"stateMutability":"view"},{"type":"function","name":"withdraw","inputs":[{"name":"recipient","type":"address","internalType":"address"},{"name":"token","type":"address","internalType":"contract IERC20"},{"name":"amountShares","type":"uint256","internalType":"uint256"}],"outputs":[],"stateMutability":"nonpayable"},{"type":"event","name":"Initialized","inputs":[{"name":"version","type":"uint8","indexed":false,"internalType":"uint8"}],"anonymous":false},{"type":"event","name":"Paused","inputs":[{"name":"account","type":"address","indexed":true,"internalType":"address"},{"name":"newPausedStatus","type":"uint256","indexed":false,"internalType":"uint256"}],"anonymous":false},{"type":"event","name":"PauserRegistrySet","inputs":[{"name":"pauserRegistry","type":"address","indexed":false,"internalType":"contract IPauserRegistry"},{"name":"newPauserRegistry","type":"address","indexed":false,"internalType":"contract IPauserRegistry"}],"anonymous":false},{"type":"event","name":"Unpaused","inputs":[{"name":"account","type":"address","indexed":true,"internalType":"address"},{"name":"newPausedStatus","type":"uint256","indexed":false,"internalType":"uint256"}],"anonymous":false}],"bytecode":{"object":"0x60a060405234801561001057600080fd5b50604051620018b9380380620018b98339810160408190526100319161010c565b6001600160a01b03811660805261004661004c565b5061013c565b600054610100900460ff16156100b85760405162461bcd60e51b815260206004820152602760248201527f496e697469616c697a61626c653a20636f6e747261637420697320696e697469604482015266616c697a696e6760c81b606482015260840160405180910390fd5b60005460ff908116101561010a576000805460ff191660ff9081179091556040519081527f7f26b83ff96e1f2b6a682f133852f6798a09c465da95921460cefb38474024989060200160405180910390a15b565b60006020828403121561011e57600080fd5b81516001600160a01b038116811461013557600080fd5b9392505050565b60805161174c6200016d6000396000818161019901528181610570015281816109550152610a20015261174c6000f3fe608060405234801561001057600080fd5b50600436106101375760003560e01c80635c975abb116100b8578063ab5921e11161007c578063ab5921e11461029c578063ce7c2ac2146102b1578063d9caed12146102c4578063e3dae51c146102d7578063f3e73875146102ea578063fabc1cbc146102fd57600080fd5b80635c975abb146102425780637a8b26371461024a578063886f11951461025d5780638c871019146102765780638f6a62401461028957600080fd5b806347e7ef24116100ff57806347e7ef24146101d2578063485cc955146101e5578063553ca5f8146101f8578063595c6a671461020b5780635ac86ab71461021357600080fd5b806310d67a2f1461013c578063136439dd146101515780632495a5991461016457806339b70e38146101945780633a98ef39146101bb575b600080fd5b61014f61014a3660046113db565b610310565b005b61014f61015f3660046113f8565b6103cc565b603254610177906001600160a01b031681565b6040516001600160a01b0390911681526020015b60405180910390f35b6101777f000000000000000000000000000000000000000000000000000000000000000081565b6101c460335481565b60405190815260200161018b565b6101c46101e0366004611411565b610510565b61014f6101f336600461143d565b6106b4565b6101c46102063660046113db565b6107c9565b61014f6107dd565b610232610221366004611476565b6001805460ff9092161b9081161490565b604051901515815260200161018b565b6001546101c4565b6101c46102583660046113f8565b6108a9565b600054610177906201000090046001600160a01b031681565b6101c46102843660046113f8565b6108f4565b6101c46102973660046113db565b6108ff565b6102a461090d565b60405161018b91906114c9565b6101c46102bf3660046113db565b61092d565b61014f6102d23660046114fc565b6109c2565b6101c46102e53660046113f8565b610b8b565b6101c46102f83660046113f8565b610bc4565b61014f61030b3660046113f8565b610bcf565b600060029054906101000a90046001600160a01b03166001600160a01b031663eab66d7a6040518163ffffffff1660e01b8152600401602060405180830381865afa158015610363573d6000803e3d6000fd5b505050506040513d601f19601f82011682018060405250810190610387919061153d565b6001600160a01b0316336001600160a01b0316146103c05760405162461bcd60e51b81526004016103b79061155a565b60405180910390fd5b6103c981610d2b565b50565b60005460405163237dfb4760e11b8152336004820152620100009091046001600160a01b0316906346fbf68e90602401602060405180830381865afa158015610419573d6000803e3d6000fd5b505050506040513d601f19601f8201168201806040525081019061043d91906115a4565b6104595760405162461bcd60e51b81526004016103b7906115c6565b600154818116146104d25760405162461bcd60e51b815260206004820152603860248201527f5061757361626c652e70617573653a20696e76616c696420617474656d70742060448201527f746f20756e70617573652066756e6374696f6e616c697479000000000000000060648201526084016103b7565b600181905560405181815233907fab40a374bc51de372200a8bc981af8c9ecdc08dfdaef0bb6e09f88f3c616ef3d906020015b60405180910390a250565b600180546000918291811614156105655760405162461bcd60e51b815260206004820152601960248201527814185d5cd8589b194e881a5b99195e081a5cc81c185d5cd959603a1b60448201526064016103b7565b336001600160a01b037f000000000000000000000000000000000000000000000000000000000000000016146105dd5760405162461bcd60e51b815260206004820181905260248201527f5374726174656779426173652e6f6e6c7953747261746567794d616e6167657260448201526064016103b7565b6105e78484610e30565b60335460006105f86103e883611624565b905060006103e8610607610eb0565b6106119190611624565b9050600061061f878361163c565b90508061062c8489611653565b6106369190611672565b95508561069c5760405162461bcd60e51b815260206004820152602e60248201527f5374726174656779426173652e6465706f7369743a206e65775368617265732060448201526d63616e6e6f74206265207a65726f60901b60648201526084016103b7565b6106a68685611624565b603355505050505092915050565b600054610100900460ff16158080156106d45750600054600160ff909116105b806106ee5750303b1580156106ee575060005460ff166001145b6107515760405162461bcd60e51b815260206004820152602e60248201527f496e697469616c697a61626c653a20636f6e747261637420697320616c72656160448201526d191e481a5b9a5d1a585b1a5e995960921b60648201526084016103b7565b6000805460ff191660011790558015610774576000805461ff0019166101001790555b61077e8383610f22565b80156107c4576000805461ff0019169055604051600181527f7f26b83ff96e1f2b6a682f133852f6798a09c465da95921460cefb38474024989060200160405180910390a15b505050565b60006107d76102588361092d565b92915050565b60005460405163237dfb4760e11b8152336004820152620100009091046001600160a01b0316906346fbf68e90602401602060405180830381865afa15801561082a573d6000803e3d6000fd5b505050506040513d601f19601f8201168201806040525081019061084e91906115a4565b61086a5760405162461bcd60e51b81526004016103b7906115c6565b600019600181905560405190815233907fab40a374bc51de372200a8bc981af8c9ecdc08dfdaef0bb6e09f88f3c616ef3d9060200160405180910390a2565b6000806103e86033546108bc9190611624565b905060006103e86108cb610eb0565b6108d59190611624565b9050816108e28583611653565b6108ec9190611672565b949350505050565b60006107d782610b8b565b60006107d76102f88361092d565b60606040518060800160405280604d81526020016116ca604d9139905090565b604051633d3f06c960e11b81526001600160a01b0382811660048301523060248301526000917f000000000000000000000000000000000000000000000000000000000000000090911690637a7e0d9290604401602060405180830381865afa15801561099e573d6000803e3d6000fd5b505050506040513d601f19601f820116820180604052508101906107d79190611694565b6001805460029081161415610a155760405162461bcd60e51b815260206004820152601960248201527814185d5cd8589b194e881a5b99195e081a5cc81c185d5cd959603a1b60448201526064016103b7565b336001600160a01b037f00000000000000000000000000000000000000000000000000000000000000001614610a8d5760405162461bcd60e51b815260206004820181905260248201527f5374726174656779426173652e6f6e6c7953747261746567794d616e6167657260448201526064016103b7565b610a98848484610fb3565b60335480831115610b275760405162461bcd60e51b815260206004820152604d60248201527f5374726174656779426173652e77697468647261773a20616d6f756e7453686160448201527f726573206d757374206265206c657373207468616e206f7220657175616c207460648201526c6f20746f74616c53686172657360981b608482015260a4016103b7565b6000610b356103e883611624565b905060006103e8610b44610eb0565b610b4e9190611624565b9050600082610b5d8784611653565b610b679190611672565b9050610b73868561163c565b603355610b81888883611036565b5050505050505050565b6000806103e8603354610b9e9190611624565b905060006103e8610bad610eb0565b610bb79190611624565b9050806108e28386611653565b60006107d7826108a9565b600060029054906101000a90046001600160a01b03166001600160a01b031663eab66d7a6040518163ffffffff1660e01b8152600401602060405180830381865afa158015610c22573d6000803e3d6000fd5b505050506040513d601f19601f82011682018060405250810190610c46919061153d565b6001600160a01b0316336001600160a01b031614610c765760405162461bcd60e51b81526004016103b79061155a565b600154198119600154191614610cf45760405162461bcd60e51b815260206004820152603860248201527f5061757361626c652e756e70617573653a20696e76616c696420617474656d7060448201527f7420746f2070617573652066756e6374696f6e616c697479000000000000000060648201526084016103b7565b600181905560405181815233907f3582d1828e26bf56bd801502bc021ac0bc8afb57c826e4986b45593c8fad389c90602001610505565b6001600160a01b038116610db95760405162461bcd60e51b815260206004820152604960248201527f5061757361626c652e5f73657450617573657252656769737472793a206e657760448201527f50617573657252656769737472792063616e6e6f7420626520746865207a65726064820152686f206164647265737360b81b608482015260a4016103b7565b600054604080516001600160a01b03620100009093048316815291831660208301527f6e9fcd539896fca60e8b0f01dd580233e48a6b0f7df013b89ba7f565869acdb6910160405180910390a1600080546001600160a01b03909216620100000262010000600160b01b0319909216919091179055565b6032546001600160a01b03838116911614610eac5760405162461bcd60e51b815260206004820152603660248201527f5374726174656779426173652e6465706f7369743a2043616e206f6e6c79206460448201527532b837b9b4ba103ab73232b9363cb4b733aa37b5b2b760511b60648201526084016103b7565b5050565b6032546040516370a0823160e01b81523060048201526000916001600160a01b0316906370a0823190602401602060405180830381865afa158015610ef9573d6000803e3d6000fd5b505050506040513d601f19601f82011682018060405250810190610f1d9190611694565b905090565b600054610100900460ff16610f8d5760405162461bcd60e51b815260206004820152602b60248201527f496e697469616c697a61626c653a20636f6e7472616374206973206e6f74206960448201526a6e697469616c697a696e6760a81b60648201526084016103b7565b603280546001600160a01b0319166001600160a01b038416179055610eac81600061104a565b6032546001600160a01b038381169116146107c45760405162461bcd60e51b815260206004820152603b60248201527f5374726174656779426173652e77697468647261773a2043616e206f6e6c792060448201527f77697468647261772074686520737472617465677920746f6b656e000000000060648201526084016103b7565b6107c46001600160a01b0383168483611136565b6000546201000090046001600160a01b031615801561107157506001600160a01b03821615155b6110f35760405162461bcd60e51b815260206004820152604760248201527f5061757361626c652e5f696e697469616c697a655061757365723a205f696e6960448201527f7469616c697a6550617573657228292063616e206f6e6c792062652063616c6c6064820152666564206f6e636560c81b608482015260a4016103b7565b600181905560405181815233907fab40a374bc51de372200a8bc981af8c9ecdc08dfdaef0bb6e09f88f3c616ef3d9060200160405180910390a2610eac82610d2b565b604080516001600160a01b03848116602483015260448083018590528351808403909101815260649092018352602080830180516001600160e01b031663a9059cbb60e01b17905283518085019094528084527f5361666545524332303a206c6f772d6c6576656c2063616c6c206661696c6564908401526107c4928692916000916111c6918516908490611243565b8051909150156107c457808060200190518101906111e491906115a4565b6107c45760405162461bcd60e51b815260206004820152602a60248201527f5361666545524332303a204552433230206f7065726174696f6e20646964206e6044820152691bdd081cdd58d8d9595960b21b60648201526084016103b7565b6060611252848460008561125c565b90505b9392505050565b6060824710156112bd5760405162461bcd60e51b815260206004820152602660248201527f416464726573733a20696e73756666696369656e742062616c616e636520666f6044820152651c8818d85b1b60d21b60648201526084016103b7565b6001600160a01b0385163b6113145760405162461bcd60e51b815260206004820152601d60248201527f416464726573733a2063616c6c20746f206e6f6e2d636f6e747261637400000060448201526064016103b7565b600080866001600160a01b0316858760405161133091906116ad565b60006040518083038185875af1925050503d806000811461136d576040519150601f19603f3d011682016040523d82523d6000602084013e611372565b606091505b509150915061138282828661138d565b979650505050505050565b6060831561139c575081611255565b8251156113ac5782518084602001fd5b8160405162461bcd60e51b81526004016103b791906114c9565b6001600160a01b03811681146103c957600080fd5b6000602082840312156113ed57600080fd5b8135611255816113c6565b60006020828403121561140a57600080fd5b5035919050565b6000806040838503121561142457600080fd5b823561142f816113c6565b946020939093013593505050565b6000806040838503121561145057600080fd5b823561145b816113c6565b9150602083013561146b816113c6565b809150509250929050565b60006020828403121561148857600080fd5b813560ff8116811461125557600080fd5b60005b838110156114b457818101518382015260200161149c565b838111156114c3576000848401525b50505050565b60208152600082518060208401526114e8816040850160208701611499565b601f01601f19169190910160400192915050565b60008060006060848603121561151157600080fd5b833561151c816113c6565b9250602084013561152c816113c6565b929592945050506040919091013590565b60006020828403121561154f57600080fd5b8151611255816113c6565b6020808252602a908201527f6d73672e73656e646572206973206e6f74207065726d697373696f6e6564206160408201526939903ab73830bab9b2b960b11b606082015260800190565b6000602082840312156115b657600080fd5b8151801515811461125557600080fd5b60208082526028908201527f6d73672e73656e646572206973206e6f74207065726d697373696f6e6564206160408201526739903830bab9b2b960c11b606082015260800190565b634e487b7160e01b600052601160045260246000fd5b600082198211156116375761163761160e565b500190565b60008282101561164e5761164e61160e565b500390565b600081600019048311821515161561166d5761166d61160e565b500290565b60008261168f57634e487b7160e01b600052601260045260246000fd5b500490565b6000602082840312156116a657600080fd5b5051919050565b600082516116bf818460208701611499565b919091019291505056fe4261736520537472617465677920696d706c656d656e746174696f6e20746f20696e68657269742066726f6d20666f72206d6f726520636f6d706c657820696d706c656d656e746174696f6e73a2646970667358221220f3bd4788e019ba06b2f62b6a398cc7c5a2c3997e0abae08a35d1bc1d2d3e764464736f6c634300080c0033","linkReferences":{}},"methodIdentifiers":{"deposit(address,uint256)":"47e7ef24","explanation()":"ab5921e1","initialize(address,address)":"485cc955","pause(uint256)":"136439dd","pauseAll()":"595c6a67","paused()":"5c975abb","paused(uint8)":"5ac86ab7","pauserRegistry()":"886f1195","setPauserRegistry(address)":"10d67a2f","shares(address)":"ce7c2ac2","sharesToUnderlying(uint256)":"f3e73875","sharesToUnderlyingView(uint256)":"7a8b2637","strategyManager()":"39b70e38","totalShares()":"3a98ef39","underlyingToShares(uint256)":"8c871019","underlyingToSharesView(uint256)":"e3dae51c","underlyingToken()":"2495a599","unpause(uint256)":"fabc1cbc","userUnderlying(address)":"8f6a6240","userUnderlyingView(address)":"553ca5f8","withdraw(address,address,uint256)":"d9caed12"},"id":35}