{"abi":[{"type":"constructor","inputs":[{"name":"_minter","type":"address","internalType":"address"}],"stateMutability":"nonpayable"},{"type":"function","name":"allowance","inputs":[{"name":"owner","type":"address","internalType":"address"},{"name":"spender","type":"address","internalType":"address"}],"outputs":[{"name":"","type":"uint256","internalType":"uint256"}],"stateMutability":"view"},{"type":"function","name":"approve","inputs":[{"name":"","type":"address","internalType":"address"},{"name":"","type":"uint256","internalType":"uint256"}],"outputs":[{"name":"","type":"bool","internalType":"bool"}],"stateMutability":"nonpayable"},{"type":"function","name":"balanceOf","inputs":[{"name":"account","type":"address","internalType":"address"}],"outputs":[{"name":"","type":"uint256","internalType":"uint256"}],"stateMutability":"view"},{"type":"function","name":"mint","inputs":[{"name":"account","type":"address","internalType":"address"},{"name":"amount","type":"uint256","internalType":"uint256"}],"outputs":[],"stateMutability":"nonpayable"},{"type":"function","name":"minter","inputs":[],"outputs":[{"name":"","type":"address","internalType":"address"}],"stateMutability":"view"},{"type":"function","name":"totalSupply","inputs":[],"outputs":[{"name":"","type":"uint256","internalType":"uint256"}],"stateMutability":"view"},{"type":"function","name":"transfer","inputs":[{"name":"to","type":"address","internalType":"address"},{"name":"amount","type":"uint256","internalType":"uint256"}],"outputs":[{"name":"","type":"bool","internalType":"bool"}],"stateMutability":"nonpayable"},{"type":"function","name":"transferFrom","inputs":[{"name":"from","type":"address","internalType":"address"},{"name":"to","type":"address","internalType":"address"},{"name":"amount","type":"uint256","internalType":"uint256"}],"outputs":[{"name":"","type":"bool","internalType":"bool"}],"stateMutability":"nonpayable"},{"type":"event","name":"Approval","inputs":[{"name":"owner","type":"address","indexed":true,"internalType":"address"},{"name":"spender","type":"address","indexed":true,"internalType":"address"},{"name":"value","type":"uint256","indexed":false,"internalType":"uint256"}],"anonymous":false},{"type":"event","name":"Transfer","inputs":[{"name":"from","type":"address","indexed":true,"internalType":"address"},{"name":"to","type":"address","indexed":true,"internalType":"address"},{"name":"value","type":"uint256","indexed":false,"internalType":"uint256"}],"anonymous":false}],"bytecode":{"object":"0x608060405234801561001057600080fd5b5060405161065238038061065283398101604081905261002f91610054565b600280546001600160a01b0319166001600160a01b0392909216919091179055610084565b60006020828403121561006657600080fd5b81516001600160a01b038116811461007d57600080fd5b9392505050565b6105bf806100936000396000f3fe608060405234801561001057600080fd5b50600436106100885760003560e01c806340c10f191161005b57806340c10f191461010857806370a082311461011d578063a9059cbb14610146578063dd62ed3e1461015957600080fd5b8063075461721461008d578063095ea7b3146100bd57806318160ddd146100e357806323b872dd146100f5575b600080fd5b6002546100a0906001600160a01b031681565b6040516001600160a01b0390911681526020015b60405180910390f35b6100d36100cb3660046104a8565b600192915050565b60405190151581526020016100b4565b6003545b6040519081526020016100b4565b6100d36101033660046104d2565b610192565b61011b6101163660046104a8565b6101a9565b005b6100e761012b36600461050e565b6001600160a01b031660009081526020819052604090205490565b6100d36101543660046104a8565b61021e565b6100e7610167366004610530565b6001600160a01b03918216600090815260016020908152604080832093909416825291909152205490565b600061019f848484610228565b5060019392505050565b6002546001600160a01b031615610210576002546001600160a01b031633146102105760405162461bcd60e51b815260206004820152601460248201527313db9b1e481b5a5b9d195c8818d85b881b5a5b9d60621b60448201526064015b60405180910390fd5b61021a82826103cd565b5050565b60003361019f8185855b6001600160a01b03831661028c5760405162461bcd60e51b815260206004820152602560248201527f45524332303a207472616e736665722066726f6d20746865207a65726f206164604482015264647265737360d81b6064820152608401610207565b6001600160a01b0382166102ee5760405162461bcd60e51b815260206004820152602360248201527f45524332303a207472616e7366657220746f20746865207a65726f206164647260448201526265737360e81b6064820152608401610207565b6001600160a01b0383166000908152602081905260409020548111156103655760405162461bcd60e51b815260206004820152602660248201527f45524332303a207472616e7366657220616d6f756e7420657863656564732062604482015265616c616e636560d01b6064820152608401610207565b6001600160a01b038381166000818152602081815260408083208054879003905593861680835291849020805486019055925184815290927fddf252ad1be2c89b69c2b068fc378daa952ba7f163c4a11628f55a4df523b3ef910160405180910390a3505050565b6001600160a01b0382166104235760405162461bcd60e51b815260206004820152601f60248201527f45524332303a206d696e7420746f20746865207a65726f2061646472657373006044820152606401610207565b80600360008282546104359190610563565b90915550506001600160a01b038216600081815260208181526040808320805486019055518481527fddf252ad1be2c89b69c2b068fc378daa952ba7f163c4a11628f55a4df523b3ef910160405180910390a35050565b80356001600160a01b03811681146104a357600080fd5b919050565b600080604083850312156104bb57600080fd5b6104c48361048c565b946020939093013593505050565b6000806000606084860312156104e757600080fd5b6104f08461048c565b92506104fe6020850161048c565b9150604084013590509250925092565b60006020828403121561052057600080fd5b6105298261048c565b9392505050565b6000806040838503121561054357600080fd5b61054c8361048c565b915061055a6020840161048c565b90509250929050565b6000821982111561058457634e487b7160e01b600052601160045260246000fd5b50019056fea26469706673582212201fbcb10169f3b1550c0ffdda922d125eaa0ec9322a0e8071713cfabb46f814cb64736f6c634300080c0033","linkReferences":{}},"methodIdentifiers":{"allowance(address,address)":"dd62ed3e","approve(address,uint256)":"095ea7b3","balanceOf(address)":"70a08231","mint(address,uint256)":"40c10f19","minter()":"07546172","totalSupply()":"18160ddd","transfer(address,uint256)":"a9059cbb","transferFrom(address,address,uint256)":"23b872dd"},"id":157}