{"abi":[{"type":"constructor","inputs":[{"name":"_strategyManager","type":"address","internalType":"contract IStrategyManager"},{"name":"_slasher","type":"address","internalType":"contract ISlasher"},{"name":"_eigenPodManager","type":"address","internalType":"contract IEigenPodManager"}],"stateMutability":"nonpayable"},{"type":"function","name":"DELEGATION_APPROVAL_TYPEHASH","inputs":[],"outputs":[{"name":"","type":"bytes32","internalType":"bytes32"}],"stateMutability":"view"},{"type":"function","name":"DOMAIN_TYPEHASH","inputs":[],"outputs":[{"name":"","type":"bytes32","internalType":"bytes32"}],"stateMutability":"view"},{"type":"function","name":"MAX_STAKER_OPT_OUT_WINDOW_BLOCKS","inputs":[],"outputs":[{"name":"","type":"uint256","internalType":"uint256"}],"stateMutability":"view"},{"type":"function","name":"MAX_WITHDRAWAL_DELAY_BLOCKS","inputs":[],"outputs":[{"name":"","type":"uint256","internalType":"uint256"}],"stateMutability":"view"},{"type":"function","name":"STAKER_DELEGATION_TYPEHASH","inputs":[],"outputs":[{"name":"","type":"bytes32","internalType":"bytes32"}],"stateMutability":"view"},{"type":"function","name":"beaconChainETHStrategy","inputs":[],"outputs":[{"name":"","type":"address","internalType":"contract IStrategy"}],"stateMutability":"view"},{"type":"function","name":"calculateCurrentStakerDelegationDigestHash","inputs":[{"name":"staker","type":"address","internalType":"address"},{"name":"operator","type":"address","internalType":"address"},{"name":"expiry","type":"uint256","internalType":"uint256"}],"outputs":[{"name":"","type":"bytes32","internalType":"bytes32"}],"stateMutability":"view"},{"type":"function","name":"calculateDelegationApprovalDigestHash","inputs":[{"name":"staker","type":"address","internalType":"address"},{"name":"operator","type":"address","internalType":"address"},{"name":"_delegationApprover","type":"address","internalType":"address"},{"name":"approverSalt","type":"bytes32","internalType":"bytes32"},{"name":"expiry","type":"uint256","internalType":"uint256"}],"outputs":[{"name":"","type":"bytes32","internalType":"bytes32"}],"stateMutability":"view"},{"type":"function","name":"calculateStakerDelegationDigestHash","inputs":[{"name":"staker","type":"address","internalType":"address"},{"name":"_stakerNonce","type":"uint256","internalType":"uint256"},{"name":"operator","type":"address","internalType":"address"},{"name":"expiry","type":"uint256","internalType":"uint256"}],"outputs":[{"name":"","type":"bytes32","internalType":"bytes32"}],"stateMutability":"view"},{"type":"function","name":"calculateWithdrawalRoot","inputs":[{"name":"withdrawal","type":"tuple","internalType":"struct IDelegationManager.Withdrawal","components":[{"name":"staker","type":"address","internalType":"address"},{"name":"delegatedTo","type":"address","internalType":"address"},{"name":"withdrawer","type":"address","internalType":"address"},{"name":"nonce","type":"uint256","internalType":"uint256"},{"name":"startBlock","type":"uint32","internalType":"uint32"},{"name":"strategies","type":"address[]","internalType":"contract IStrategy[]"},{"name":"shares","type":"uint256[]","internalType":"uint256[]"}]}],"outputs":[{"name":"","type":"bytes32","internalType":"bytes32"}],"stateMutability":"pure"},{"type":"function","name":"completeQueuedWithdrawal","inputs":[{"name":"withdrawal","type":"tuple","internalType":"struct IDelegationManager.Withdrawal","components":[{"name":"staker","type":"address","internalType":"address"},{"name":"delegatedTo","type":"address","internalType":"address"},{"name":"withdrawer","type":"address","internalType":"address"},{"name":"nonce","type":"uint256","internalType":"uint256"},{"name":"startBlock","type":"uint32","internalType":"uint32"},{"name":"strategies","type":"address[]","internalType":"contract IStrategy[]"},{"name":"shares","type":"uint256[]","internalType":"uint256[]"}]},{"name":"tokens","type":"address[]","internalType":"contract IERC20[]"},{"name":"middlewareTimesIndex","type":"uint256","internalType":"uint256"},{"name":"receiveAsTokens","type":"bool","internalType":"bool"}],"outputs":[],"stateMutability":"nonpayable"},{"type":"function","name":"completeQueuedWithdrawals","inputs":[{"name":"withdrawals","type":"tuple[]","internalType":"struct IDelegationManager.Withdrawal[]","components":[{"name":"staker","type":"address","internalType":"address"},{"name":"delegatedTo","type":"address","internalType":"address"},{"name":"withdrawer","type":"address","internalType":"address"},{"name":"nonce","type":"uint256","internalType":"uint256"},{"name":"startBlock","type":"uint32","internalType":"uint32"},{"name":"strategies","type":"address[]","internalType":"contract IStrategy[]"},{"name":"shares","type":"uint256[]","internalType":"uint256[]"}]},{"name":"tokens","type":"address[][]","internalType":"contract IERC20[][]"},{"name":"middlewareTimesIndexes","type":"uint256[]","internalType":"uint256[]"},{"name":"receiveAsTokens","type":"bool[]","internalType":"bool[]"}],"outputs":[],"stateMutability":"nonpayable"},{"type":"function","name":"cumulativeWithdrawalsQueued","inputs":[{"name":"","type":"address","internalType":"address"}],"outputs":[{"name":"","type":"uint256","internalType":"uint256"}],"stateMutability":"view"},{"type":"function","name":"decreaseDelegatedShares","inputs":[{"name":"staker","type":"address","internalType":"address"},{"name":"strategy","type":"address","internalType":"contract IStrategy"},{"name":"shares","type":"uint256","internalType":"uint256"}],"outputs":[],"stateMutability":"nonpayable"},{"type":"function","name":"delegateTo","inputs":[{"name":"operator","type":"address","internalType":"address"},{"name":"approverSignatureAndExpiry","type":"tuple","internalType":"struct ISignatureUtils.SignatureWithExpiry","components":[{"name":"signature","type":"bytes","internalType":"bytes"},{"name":"expiry","type":"uint256","internalType":"uint256"}]},{"name":"approverSalt","type":"bytes32","internalType":"bytes32"}],"outputs":[],"stateMutability":"nonpayable"},{"type":"function","name":"delegateToBySignature","inputs":[{"name":"staker","type":"address","internalType":"address"},{"name":"operator","type":"address","internalType":"address"},{"name":"stakerSignatureAndExpiry","type":"tuple","internalType":"struct ISignatureUtils.SignatureWithExpiry","components":[{"name":"signature","type":"bytes","internalType":"bytes"},{"name":"expiry","type":"uint256","internalType":"uint256"}]},{"name":"approverSignatureAndExpiry","type":"tuple","internalType":"struct ISignatureUtils.SignatureWithExpiry","components":[{"name":"signature","type":"bytes","internalType":"bytes"},{"name":"expiry","type":"uint256","internalType":"uint256"}]},{"name":"approverSalt","type":"bytes32","internalType":"bytes32"}],"outputs":[],"stateMutability":"nonpayable"},{"type":"function","name":"delegatedTo","inputs":[{"name":"","type":"address","internalType":"address"}],"outputs":[{"name":"","type":"address","internalType":"address"}],"stateMutability":"view"},{"type":"function","name":"delegationApprover","inputs":[{"name":"operator","type":"address","internalType":"address"}],"outputs":[{"name":"","type":"address","internalType":"address"}],"stateMutability":"view"},{"type":"function","name":"delegationApproverSaltIsSpent","inputs":[{"name":"","type":"address","internalType":"address"},{"name":"","type":"bytes32","internalType":"bytes32"}],"outputs":[{"name":"","type":"bool","internalType":"bool"}],"stateMutability":"view"},{"type":"function","name":"domainSeparator","inputs":[],"outputs":[{"name":"","type":"bytes32","internalType":"bytes32"}],"stateMutability":"view"},{"type":"function","name":"eigenPodManager","inputs":[],"outputs":[{"name":"","type":"address","internalType":"contract IEigenPodManager"}],"stateMutability":"view"},{"type":"function","name":"getDelegatableShares","inputs":[{"name":"staker","type":"address","internalType":"address"}],"outputs":[{"name":"","type":"address[]","internalType":"contract IStrategy[]"},{"name":"","type":"uint256[]","internalType":"uint256[]"}],"stateMutability":"view"},{"type":"function","name":"getOperatorShares","inputs":[{"name":"operator","type":"address","internalType":"address"},{"name":"strategies","type":"address[]","internalType":"contract IStrategy[]"}],"outputs":[{"name":"","type":"uint256[]","internalType":"uint256[]"}],"stateMutability":"view"},{"type":"function","name":"getWithdrawalDelay","inputs":[{"name":"strategies","type":"address[]","internalType":"contract IStrategy[]"}],"outputs":[{"name":"","type":"uint256","internalType":"uint256"}],"stateMutability":"view"},{"type":"function","name":"increaseDelegatedShares","inputs":[{"name":"staker","type":"address","internalType":"address"},{"name":"strategy","type":"address","internalType":"contract IStrategy"},{"name":"shares","type":"uint256","internalType":"uint256"}],"outputs":[],"stateMutability":"nonpayable"},{"type":"function","name":"initialize","inputs":[{"name":"initialOwner","type":"address","internalType":"address"},{"name":"_pauserRegistry","type":"address","internalType":"contract IPauserRegistry"},{"name":"initialPausedStatus","type":"uint256","internalType":"uint256"},{"name":"_minWithdrawalDelayBlocks","type":"uint256","internalType":"uint256"},{"name":"_strategies","type":"address[]","internalType":"contract IStrategy[]"},{"name":"_withdrawalDelayBlocks","type":"uint256[]","internalType":"uint256[]"}],"outputs":[],"stateMutability":"nonpayable"},{"type":"function","name":"isDelegated","inputs":[{"name":"staker","type":"address","internalType":"address"}],"outputs":[{"name":"","type":"bool","internalType":"bool"}],"stateMutability":"view"},{"type":"function","name":"isOperator","inputs":[{"name":"operator","type":"address","internalType":"address"}],"outputs":[{"name":"","type":"bool","internalType":"bool"}],"stateMutability":"view"},{"type":"function","name":"minWithdrawalDelayBlocks","inputs":[],"outputs":[{"name":"","type":"uint256","internalType":"uint256"}],"stateMutability":"view"},{"type":"function","name":"modifyOperatorDetails","inputs":[{"name":"newOperatorDetails","type":"tuple","internalType":"struct IDelegationManager.OperatorDetails","components":[{"name":"__deprecated_earningsReceiver","type":"address","internalType":"address"},{"name":"delegationApprover","type":"address","internalType":"address"},{"name":"stakerOptOutWindowBlocks","type":"uint32","internalType":"uint32"}]}],"outputs":[],"stateMutability":"nonpayable"},{"type":"function","name":"operatorDetails","inputs":[{"name":"operator","type":"address","internalType":"address"}],"outputs":[{"name":"","type":"tuple","internalType":"struct IDelegationManager.OperatorDetails","components":[{"name":"__deprecated_earningsReceiver","type":"address","internalType":"address"},{"name":"delegationApprover","type":"address","internalType":"address"},{"name":"stakerOptOutWindowBlocks","type":"uint32","internalType":"uint32"}]}],"stateMutability":"view"},{"type":"function","name":"operatorShares","inputs":[{"name":"","type":"address","internalType":"address"},{"name":"","type":"address","internalType":"contract IStrategy"}],"outputs":[{"name":"","type":"uint256","internalType":"uint256"}],"stateMutability":"view"},{"type":"function","name":"owner","inputs":[],"outputs":[{"name":"","type":"address","internalType":"address"}],"stateMutability":"view"},{"type":"function","name":"pause","inputs":[{"name":"newPausedStatus","type":"uint256","internalType":"uint256"}],"outputs":[],"stateMutability":"nonpayable"},{"type":"function","name":"pauseAll","inputs":[],"outputs":[],"stateMutability":"nonpayable"},{"type":"function","name":"paused","inputs":[{"name":"index","type":"uint8","internalType":"uint8"}],"outputs":[{"name":"","type":"bool","internalType":"bool"}],"stateMutability":"view"},{"type":"function","name":"paused","inputs":[],"outputs":[{"name":"","type":"uint256","internalType":"uint256"}],"stateMutability":"view"},{"type":"function","name":"pauserRegistry","inputs":[],"outputs":[{"name":"","type":"address","internalType":"contract IPauserRegistry"}],"stateMutability":"view"},{"type":"function","name":"pendingWithdrawals","inputs":[{"name":"","type":"bytes32","internalType":"bytes32"}],"outputs":[{"name":"","type":"bool","internalType":"bool"}],"stateMutability":"view"},{"type":"function","name":"queueWithdrawals","inputs":[{"name":"queuedWithdrawalParams","type":"tuple[]","internalType":"struct IDelegationManager.QueuedWithdrawalParams[]","components":[{"name":"strategies","type":"address[]","internalType":"contract IStrategy[]"},{"name":"shares","type":"uint256[]","internalType":"uint256[]"},{"name":"withdrawer","type":"address","internalType":"address"}]}],"outputs":[{"name":"","type":"bytes32[]","internalType":"bytes32[]"}],"stateMutability":"nonpayable"},{"type":"function","name":"registerAsOperator","inputs":[{"name":"registeringOperatorDetails","type":"tuple","internalType":"struct IDelegationManager.OperatorDetails","components":[{"name":"__deprecated_earningsReceiver","type":"address","internalType":"address"},{"name":"delegationApprover","type":"address","internalType":"address"},{"name":"stakerOptOutWindowBlocks","type":"uint32","internalType":"uint32"}]},{"name":"metadataURI","type":"string","internalType":"string"}],"outputs":[],"stateMutability":"nonpayable"},{"type":"function","name":"renounceOwnership","inputs":[],"outputs":[],"stateMutability":"nonpayable"},{"type":"function","name":"setMinWithdrawalDelayBlocks","inputs":[{"name":"newMinWithdrawalDelayBlocks","type":"uint256","internalType":"uint256"}],"outputs":[],"stateMutability":"nonpayable"},{"type":"function","name":"setPauserRegistry","inputs":[{"name":"newPauserRegistry","type":"address","internalType":"contract IPauserRegistry"}],"outputs":[],"stateMutability":"nonpayable"},{"type":"function","name":"setStrategyWithdrawalDelayBlocks","inputs":[{"name":"strategies","type":"address[]","internalType":"contract IStrategy[]"},{"name":"withdrawalDelayBlocks","type":"uint256[]","internalType":"uint256[]"}],"outputs":[],"stateMutability":"nonpayable"},{"type":"function","name":"slasher","inputs":[],"outputs":[{"name":"","type":"address","internalType":"contract ISlasher"}],"stateMutability":"view"},{"type":"function","name":"stakerNonce","inputs":[{"name":"","type":"address","internalType":"address"}],"outputs":[{"name":"","type":"uint256","internalType":"uint256"}],"stateMutability":"view"},{"type":"function","name":"stakerOptOutWindowBlocks","inputs":[{"name":"operator","type":"address","internalType":"address"}],"outputs":[{"name":"","type":"uint256","internalType":"uint256"}],"stateMutability":"view"},{"type":"function","name":"strategyManager","inputs":[],"outputs":[{"name":"","type":"address","internalType":"contract IStrategyManager"}],"stateMutability":"view"},{"type":"function","name":"strategyWithdrawalDelayBlocks","inputs":[{"name":"","type":"address","internalType":"contract IStrategy"}],"outputs":[{"name":"","type":"uint256","internalType":"uint256"}],"stateMutability":"view"},{"type":"function","name":"transferOwnership","inputs":[{"name":"newOwner","type":"address","internalType":"address"}],"outputs":[],"stateMutability":"nonpayable"},{"type":"function","name":"undelegate","inputs":[{"name":"staker","type":"address","internalType":"address"}],"outputs":[{"name":"withdrawalRoots","type":"bytes32[]","internalType":"bytes32[]"}],"stateMutability":"nonpayable"},{"type":"function","name":"unpause","inputs":[{"name":"newPausedStatus","type":"uint256","internalType":"uint256"}],"outputs":[],"stateMutability":"nonpayable"},{"type":"function","name":"updateOperatorMetadataURI","inputs":[{"name":"metadataURI","type":"string","internalType":"string"}],"outputs":[],"stateMutability":"nonpayable"},{"type":"event","name":"Initialized","inputs":[{"name":"version","type":"uint8","indexed":false,"internalType":"uint8"}],"anonymous":false},{"type":"event","name":"MinWithdrawalDelayBlocksSet","inputs":[{"name":"previousValue","type":"uint256","indexed":false,"internalType":"uint256"},{"name":"newValue","type":"uint256","indexed":false,"internalType":"uint256"}],"anonymous":false},{"type":"event","name":"OperatorDetailsModified","inputs":[{"name":"operator","type":"address","indexed":true,"internalType":"address"},{"name":"newOperatorDetails","type":"tuple","indexed":false,"internalType":"struct IDelegationManager.OperatorDetails","components":[{"name":"__deprecated_earningsReceiver","type":"address","internalType":"address"},{"name":"delegationApprover","type":"address","internalType":"address"},{"name":"stakerOptOutWindowBlocks","type":"uint32","internalType":"uint32"}]}],"anonymous":false},{"type":"event","name":"OperatorMetadataURIUpdated","inputs":[{"name":"operator","type":"address","indexed":true,"internalType":"address"},{"name":"metadataURI","type":"string","indexed":false,"internalType":"string"}],"anonymous":false},{"type":"event","name":"OperatorRegistered","inputs":[{"name":"operator","type":"address","indexed":true,"internalType":"address"},{"name":"operatorDetails","type":"tuple","indexed":false,"internalType":"struct IDelegationManager.OperatorDetails","components":[{"name":"__deprecated_earningsReceiver","type":"address","internalType":"address"},{"name":"delegationApprover","type":"address","internalType":"address"},{"name":"stakerOptOutWindowBlocks","type":"uint32","internalType":"uint32"}]}],"anonymous":false},{"type":"event","name":"OperatorSharesDecreased","inputs":[{"name":"operator","type":"address","indexed":true,"internalType":"address"},{"name":"staker","type":"address","indexed":false,"internalType":"address"},{"name":"strategy","type":"address","indexed":false,"internalType":"contract IStrategy"},{"name":"shares","type":"uint256","indexed":false,"internalType":"uint256"}],"anonymous":false},{"type":"event","name":"OperatorSharesIncreased","inputs":[{"name":"operator","type":"address","indexed":true,"internalType":"address"},{"name":"staker","type":"address","indexed":false,"internalType":"address"},{"name":"strategy","type":"address","indexed":false,"internalType":"contract IStrategy"},{"name":"shares","type":"uint256","indexed":false,"internalType":"uint256"}],"anonymous":false},{"type":"event","name":"OwnershipTransferred","inputs":[{"name":"previousOwner","type":"address","indexed":true,"internalType":"address"},{"name":"newOwner","type":"address","indexed":true,"internalType":"address"}],"anonymous":false},{"type":"event","name":"Paused","inputs":[{"name":"account","type":"address","indexed":true,"internalType":"address"},{"name":"newPausedStatus","type":"uint256","indexed":false,"internalType":"uint256"}],"anonymous":false},{"type":"event","name":"PauserRegistrySet","inputs":[{"name":"pauserRegistry","type":"address","indexed":false,"internalType":"contract IPauserRegistry"},{"name":"newPauserRegistry","type":"address","indexed":false,"internalType":"contract IPauserRegistry"}],"anonymous":false},{"type":"event","name":"StakerDelegated","inputs":[{"name":"staker","type":"address","indexed":true,"internalType":"address"},{"name":"operator","type":"address","indexed":true,"internalType":"address"}],"anonymous":false},{"type":"event","name":"StakerForceUndelegated","inputs":[{"name":"staker","type":"address","indexed":true,"internalType":"address"},{"name":"operator","type":"address","indexed":true,"internalType":"address"}],"anonymous":false},{"type":"event","name":"StakerUndelegated","inputs":[{"name":"staker","type":"address","indexed":true,"internalType":"address"},{"name":"operator","type":"address","indexed":true,"internalType":"address"}],"anonymous":false},{"type":"event","name":"StrategyWithdrawalDelayBlocksSet","inputs":[{"name":"strategy","type":"address","indexed":false,"internalType":"contract IStrategy"},{"name":"previousValue","type":"uint256","indexed":false,"internalType":"uint256"},{"name":"newValue","type":"uint256","indexed":false,"internalType":"uint256"}],"anonymous":false},{"type":"event","name":"Unpaused","inputs":[{"name":"account","type":"address","indexed":true,"internalType":"address"},{"name":"newPausedStatus","type":"uint256","indexed":false,"internalType":"uint256"}],"anonymous":false},{"type":"event","name":"WithdrawalCompleted","inputs":[{"name":"withdrawalRoot","type":"bytes32","indexed":false,"internalType":"bytes32"}],"anonymous":false},{"type":"event","name":"WithdrawalQueued","inputs":[{"name":"withdrawalRoot","type":"bytes32","indexed":false,"internalType":"bytes32"},{"name":"withdrawal","type":"tuple","indexed":false,"internalType":"struct IDelegationManager.Withdrawal","components":[{"name":"staker","type":"address","internalType":"address"},{"name":"delegatedTo","type":"address","internalType":"address"},{"name":"withdrawer","type":"address","internalType":"address"},{"name":"nonce","type":"uint256","internalType":"uint256"},{"name":"startBlock","type":"uint32","internalType":"uint32"},{"name":"strategies","type":"address[]","internalType":"contract IStrategy[]"},{"name":"shares","type":"uint256[]","internalType":"uint256[]"}]}],"anonymous":false}],"bytecode":{"object":"0x6101006040523480156200001257600080fd5b5060405162005c3338038062005c33833981016040819052620000359162000140565b6001600160a01b0380841660805280821660c052821660a0526200005862000065565b50504660e0525062000194565b600054610100900460ff1615620000d25760405162461bcd60e51b815260206004820152602760248201527f496e697469616c697a61626c653a20636f6e747261637420697320696e697469604482015266616c697a696e6760c81b606482015260840160405180910390fd5b60005460ff908116101562000125576000805460ff191660ff9081179091556040519081527f7f26b83ff96e1f2b6a682f133852f6798a09c465da95921460cefb38474024989060200160405180910390a15b565b6001600160a01b03811681146200013d57600080fd5b50565b6000806000606084860312156200015657600080fd5b8351620001638162000127565b6020850151909350620001768162000127565b6040850151909250620001898162000127565b809150509250925092565b60805160a05160c05160e051615a0a6200022960003960006126870152600081816105b10152818161102e015281816113aa01528181611c0a015281816129e001528181613e93015261437f015260006107620152600081816104f901528181610ffc0152818161137801528181611c9e01528181612aad01528181612c3001528181613fb901526144250152615a0a6000f3fe608060405234801561001057600080fd5b50600436106103425760003560e01c8063635bbd10116101b8578063b7f06ebe11610104578063cf80873e116100a2578063f16172b01161007c578063f16172b014610908578063f2fde38b1461091b578063f698da251461092e578063fabc1cbc1461093657600080fd5b8063cf80873e146108c1578063da8be864146108e2578063eea9064b146108f557600080fd5b8063c488375a116100de578063c488375a146107de578063c5e480db146107fe578063c94b5111146108a4578063ca661c04146108b757600080fd5b8063b7f06ebe14610784578063bb45fef2146107a7578063c448feb8146107d557600080fd5b8063886f1195116101715780639104c3191161014b5780639104c3191461070f57806399be81c81461072a578063a17884841461073d578063b13442711461075d57600080fd5b8063886f1195146106cb5780638da5cb5b146106de57806390041347146106ef57600080fd5b8063635bbd101461063657806365da1264146106495780636d70f7ae14610672578063715018a614610685578063778e55f31461068d5780637f548071146106b857600080fd5b806328a573ae116102925780634665bcda11610230578063597b36da1161020a578063597b36da146105e55780635ac86ab7146105f85780635c975abb1461061b57806360d7faed1461062357600080fd5b80634665bcda146105ac5780634fc40b61146105d3578063595c6a67146105dd57600080fd5b806339b70e381161026c57806339b70e38146104f45780633cdeb5e0146105335780633e28391d14610562578063433773821461058557600080fd5b806328a573ae146104ae57806329c77d4f146104c157806333404396146104e157600080fd5b8063132d4967116102ff57806316928365116102d957806316928365146104285780631bbce0911461046157806320606b701461047457806322bf40e41461049b57600080fd5b8063132d4967146103ef578063136439dd146104025780631522bf021461041557600080fd5b80630449ca391461034757806304a4f9791461036d5780630b9f487a146103945780630dd8dd02146103a75780630f589e59146103c757806310d67a2f146103dc575b600080fd5b61035a610355366004614835565b610949565b6040519081526020015b60405180910390f35b61035a7f14bde674c9f64b2ad00eaaee4a8bed1fabef35c7507e3c5b9cfc9436909a2dad81565b61035a6103a236600461489b565b6109ce565b6103ba6103b5366004614835565b610a90565b60405161036491906148f6565b6103da6103d5366004614993565b610df9565b005b6103da6103ea3660046149e6565b610f3e565b6103da6103fd366004614a0a565b610ff1565b6103da610410366004614a4b565b6110a8565b6103da610423366004614a64565b6111e7565b61035a6104363660046149e6565b6001600160a01b0316600090815260996020526040902060010154600160a01b900463ffffffff1690565b61035a61046f366004614a0a565b6111fb565b61035a7f8cad95687ba82c2ce50e74f7b754645e5117c3a5bec8151c0726d5857980a86681565b6103da6104a9366004614acf565b611229565b6103da6104bc366004614a0a565b61136d565b61035a6104cf3660046149e6565b609b6020526000908152604090205481565b6103da6104ef366004614b76565b61141d565b61051b7f000000000000000000000000000000000000000000000000000000000000000081565b6040516001600160a01b039091168152602001610364565b61051b6105413660046149e6565b6001600160a01b039081166000908152609960205260409020600101541690565b6105756105703660046149e6565b61155a565b6040519015158152602001610364565b61035a7f39111bc4a4d688e1f685123d7497d4615370152a8ee4a0593e647bd06ad8bb0b81565b61051b7f000000000000000000000000000000000000000000000000000000000000000081565b61035a6213c68081565b6103da61157a565b61035a6105f3366004614e73565b611641565b610575610606366004614eaf565b606654600160ff9092169190911b9081161490565b60665461035a565b6103da610631366004614ee0565b611671565b6103da610644366004614a4b565b61170c565b61051b6106573660046149e6565b609a602052600090815260409020546001600160a01b031681565b6105756106803660046149e6565b61171d565b6103da61173e565b61035a61069b366004614f6f565b609860209081526000928352604080842090915290825290205481565b6103da6106c6366004615050565b611752565b60655461051b906001600160a01b031681565b6033546001600160a01b031661051b565b6107026106fd3660046150e0565b61197e565b604051610364919061516a565b61051b73beac0eeeeeeeeeeeeeeeeeeeeeeeeeeeeeebeac081565b6103da61073836600461517d565b611a58565b61035a61074b3660046149e6565b609f6020526000908152604090205481565b61051b7f000000000000000000000000000000000000000000000000000000000000000081565b610575610792366004614a4b565b609e6020526000908152604090205460ff1681565b6105756107b53660046151b2565b609c60209081526000928352604080842090915290825290205460ff1681565b61035a609d5481565b61035a6107ec3660046149e6565b60a16020526000908152604090205481565b61086e61080c3660046149e6565b6040805160608082018352600080835260208084018290529284018190526001600160a01b03948516815260998352839020835191820184528054851682526001015493841691810191909152600160a01b90920463ffffffff169082015290565b6040805182516001600160a01b039081168252602080850151909116908201529181015163ffffffff1690820152606001610364565b61035a6108b23660046151de565b611b2a565b61035a62034bc081565b6108d46108cf3660046149e6565b611be3565b60405161036492919061525f565b6103ba6108f03660046149e6565b611f9b565b6103da610903366004615284565b61245f565b6103da6109163660046152dc565b61257c565b6103da6109293660046149e6565b61260d565b61035a612683565b6103da610944366004614a4b565b6126c1565b609d54600090815b838110156109c657600060a16000878785818110610971576109716152f8565b905060200201602081019061098691906149e6565b6001600160a01b03166001600160a01b03168152602001908152602001600020549050828111156109b5578092505b506109bf81615324565b9050610951565b509392505050565b604080517f14bde674c9f64b2ad00eaaee4a8bed1fabef35c7507e3c5b9cfc9436909a2dad6020808301919091526001600160a01b038681168385015288811660608401528716608083015260a0820185905260c08083018590528351808403909101815260e0909201909252805191012060009081610a4c612683565b60405161190160f01b602082015260228101919091526042810183905260620160408051808303601f19018152919052805160209091012098975050505050505050565b60665460609060019060029081161415610ac55760405162461bcd60e51b8152600401610abc9061533f565b60405180910390fd5b6000836001600160401b03811115610adf57610adf614c18565b604051908082528060200260200182016040528015610b08578160200160208202803683370190505b50336000908152609a60205260408120549192506001600160a01b03909116905b85811015610dee57868682818110610b4357610b436152f8565b9050602002810190610b559190615376565b610b63906020810190615396565b9050878783818110610b7757610b776152f8565b9050602002810190610b899190615376565b610b939080615396565b905014610c085760405162461bcd60e51b815260206004820152603860248201527f44656c65676174696f6e4d616e616765722e717565756557697468647261776160448201527f6c3a20696e707574206c656e677468206d69736d6174636800000000000000006064820152608401610abc565b33878783818110610c1b57610c1b6152f8565b9050602002810190610c2d9190615376565b610c3e9060608101906040016149e6565b6001600160a01b031614610cba5760405162461bcd60e51b815260206004820152603c60248201527f44656c65676174696f6e4d616e616765722e717565756557697468647261776160448201527f6c3a2077697468647261776572206d757374206265207374616b6572000000006064820152608401610abc565b610dbf3383898985818110610cd157610cd16152f8565b9050602002810190610ce39190615376565b610cf49060608101906040016149e6565b8a8a86818110610d0657610d066152f8565b9050602002810190610d189190615376565b610d229080615396565b808060200260200160405190810160405280939291908181526020018383602002808284376000920191909152508e92508d9150889050818110610d6857610d686152f8565b9050602002810190610d7a9190615376565b610d88906020810190615396565b8080602002602001604051908101604052809392919081815260200183836020028082843760009201919091525061281d92505050565b838281518110610dd157610dd16152f8565b602090810291909101015280610de681615324565b915050610b29565b509095945050505050565b610e023361155a565b15610e885760405162461bcd60e51b815260206004820152604a60248201527f44656c65676174696f6e4d616e616765722e726567697374657241734f70657260448201527f61746f723a2063616c6c657220697320616c7265616479206163746976656c796064820152690819195b1959d85d195960b21b608482015260a401610abc565b610e923384612ddd565b604080518082019091526060815260006020820152610eb43380836000612fd0565b336001600160a01b03167f8e8485583a2310d41f7c82b9427d0bd49bad74bb9cff9d3402a29d8f9b28a0e285604051610eed91906153df565b60405180910390a2336001600160a01b03167f02a919ed0e2acad1dd90f17ef2fa4ae5462ee1339170034a8531cca4b67080908484604051610f30929190615431565b60405180910390a250505050565b606560009054906101000a90046001600160a01b03166001600160a01b031663eab66d7a6040518163ffffffff1660e01b8152600401602060405180830381865afa158015610f91573d6000803e3d6000fd5b505050506040513d601f19601f82011682018060405250810190610fb59190615460565b6001600160a01b0316336001600160a01b031614610fe55760405162461bcd60e51b8152600401610abc9061547d565b610fee81613266565b50565b336001600160a01b037f00000000000000000000000000000000000000000000000000000000000000001614806110505750336001600160a01b037f000000000000000000000000000000000000000000000000000000000000000016145b61106c5760405162461bcd60e51b8152600401610abc906154c7565b6110758361155a565b156110a3576001600160a01b038084166000908152609a6020526040902054166110a18185858561335d565b505b505050565b60655460405163237dfb4760e11b81523360048201526001600160a01b03909116906346fbf68e90602401602060405180830381865afa1580156110f0573d6000803e3d6000fd5b505050506040513d601f19601f820116820180604052508101906111149190615524565b6111305760405162461bcd60e51b8152600401610abc90615541565b606654818116146111a95760405162461bcd60e51b815260206004820152603860248201527f5061757361626c652e70617573653a20696e76616c696420617474656d70742060448201527f746f20756e70617573652066756e6374696f6e616c69747900000000000000006064820152608401610abc565b606681905560405181815233907fab40a374bc51de372200a8bc981af8c9ecdc08dfdaef0bb6e09f88f3c616ef3d906020015b60405180910390a250565b6111ef6133d8565b6110a184848484613432565b6001600160a01b0383166000908152609b602052604081205461122085828686611b2a565b95945050505050565b600054610100900460ff16158080156112495750600054600160ff909116105b806112635750303b158015611263575060005460ff166001145b6112c65760405162461bcd60e51b815260206004820152602e60248201527f496e697469616c697a61626c653a20636f6e747261637420697320616c72656160448201526d191e481a5b9a5d1a585b1a5e995960921b6064820152608401610abc565b6000805460ff1916600117905580156112e9576000805461ff0019166101001790555b6112f38888613658565b6112fb613742565b609755611307896137d9565b6113108661382b565b61131c85858585613432565b8015611362576000805461ff0019169055604051600181527f7f26b83ff96e1f2b6a682f133852f6798a09c465da95921460cefb38474024989060200160405180910390a15b505050505050505050565b336001600160a01b037f00000000000000000000000000000000000000000000000000000000000000001614806113cc5750336001600160a01b037f000000000000000000000000000000000000000000000000000000000000000016145b6113e85760405162461bcd60e51b8152600401610abc906154c7565b6113f18361155a565b156110a3576001600160a01b038084166000908152609a6020526040902054166110a181858585613925565b606654600290600490811614156114465760405162461bcd60e51b8152600401610abc9061533f565b600260c95414156114995760405162461bcd60e51b815260206004820152601f60248201527f5265656e7472616e637947756172643a207265656e7472616e742063616c6c006044820152606401610abc565b600260c95560005b88811015611549576115398a8a838181106114be576114be6152f8565b90506020028101906114d09190615589565b8989848181106114e2576114e26152f8565b90506020028101906114f49190615396565b898986818110611506576115066152f8565b9050602002013588888781811061151f5761151f6152f8565b9050602002016020810190611534919061559f565b6139a0565b61154281615324565b90506114a1565b5050600160c9555050505050505050565b6001600160a01b039081166000908152609a602052604090205416151590565b60655460405163237dfb4760e11b81523360048201526001600160a01b03909116906346fbf68e90602401602060405180830381865afa1580156115c2573d6000803e3d6000fd5b505050506040513d601f19601f820116820180604052508101906115e69190615524565b6116025760405162461bcd60e51b8152600401610abc90615541565b600019606681905560405190815233907fab40a374bc51de372200a8bc981af8c9ecdc08dfdaef0bb6e09f88f3c616ef3d9060200160405180910390a2565b6000816040516020016116549190615630565b604051602081830303815290604052805190602001209050919050565b6066546002906004908116141561169a5760405162461bcd60e51b8152600401610abc9061533f565b600260c95414156116ed5760405162461bcd60e51b815260206004820152601f60248201527f5265656e7472616e637947756172643a207265656e7472616e742063616c6c006044820152606401610abc565b600260c9556116ff86868686866139a0565b5050600160c95550505050565b6117146133d8565b610fee8161382b565b6001600160a01b039081166000818152609a60205260409020549091161490565b6117466133d8565b61175060006137d9565b565b42836020015110156117d65760405162461bcd60e51b815260206004820152604160248201527f44656c65676174696f6e4d616e616765722e64656c6567617465546f4279536960448201527f676e61747572653a207374616b6572207369676e6174757265206578706972656064820152601960fa1b608482015260a401610abc565b6117df8561155a565b156118685760405162461bcd60e51b815260206004820152604d60248201527f44656c65676174696f6e4d616e616765722e64656c6567617465546f4279536960448201527f676e61747572653a207374616b657220697320616c726561647920616374697660648201526c195b1e4819195b1959d85d1959609a1b608482015260a401610abc565b6118718461171d565b6118fd5760405162461bcd60e51b815260206004820152605160248201527f44656c65676174696f6e4d616e616765722e64656c6567617465546f4279536960448201527f676e61747572653a206f70657261746f72206973206e6f7420726567697374656064820152703932b21034b71022b4b3b2b72630bcb2b960791b608482015260a401610abc565b6000609b6000876001600160a01b03166001600160a01b0316815260200190815260200160002054905060006119398783888860200151611b2a565b6001600160a01b0388166000908152609b602052604090206001840190558551909150611969908890839061418a565b61197587878686612fd0565b50505050505050565b6060600082516001600160401b0381111561199b5761199b614c18565b6040519080825280602002602001820160405280156119c4578160200160208202803683370190505b50905060005b83518110156109c6576001600160a01b03851660009081526098602052604081208551909190869084908110611a0257611a026152f8565b60200260200101516001600160a01b03166001600160a01b0316815260200190815260200160002054828281518110611a3d57611a3d6152f8565b6020908102919091010152611a5181615324565b90506119ca565b611a613361171d565b611ae35760405162461bcd60e51b815260206004820152604760248201527f44656c65676174696f6e4d616e616765722e7570646174654f70657261746f7260448201527f4d657461646174615552493a2063616c6c6572206d75737420626520616e206f6064820152663832b930ba37b960c91b608482015260a401610abc565b336001600160a01b03167f02a919ed0e2acad1dd90f17ef2fa4ae5462ee1339170034a8531cca4b67080908383604051611b1e929190615431565b60405180910390a25050565b604080517f39111bc4a4d688e1f685123d7497d4615370152a8ee4a0593e647bd06ad8bb0b6020808301919091526001600160a01b0387811683850152851660608301526080820186905260a08083018590528351808403909101815260c0909201909252805191012060009081611ba0612683565b60405161190160f01b602082015260228101919091526042810183905260620160408051808303601f190181529190528051602090910120979650505050505050565b6040516360f4062b60e01b81526001600160a01b03828116600483015260609182916000917f0000000000000000000000000000000000000000000000000000000000000000909116906360f4062b90602401602060405180830381865afa158015611c53573d6000803e3d6000fd5b505050506040513d601f19601f82011682018060405250810190611c779190615643565b6040516394f649dd60e01b81526001600160a01b03868116600483015291925060009182917f0000000000000000000000000000000000000000000000000000000000000000909116906394f649dd90602401600060405180830381865afa158015611ce7573d6000803e3d6000fd5b505050506040513d6000823e601f3d908101601f19168201604052611d0f91908101906156b7565b9150915060008313611d2657909590945092505050565b606080835160001415611de0576040805160018082528183019092529060208083019080368337505060408051600180825281830190925292945090506020808301908036833701905050905073beac0eeeeeeeeeeeeeeeeeeeeeeeeeeeeeebeac082600081518110611d9b57611d9b6152f8565b60200260200101906001600160a01b031690816001600160a01b0316815250508481600081518110611dcf57611dcf6152f8565b602002602001018181525050611f8e565b8351611ded906001615771565b6001600160401b03811115611e0457611e04614c18565b604051908082528060200260200182016040528015611e2d578160200160208202803683370190505b50915081516001600160401b03811115611e4957611e49614c18565b604051908082528060200260200182016040528015611e72578160200160208202803683370190505b50905060005b8451811015611f0c57848181518110611e9357611e936152f8565b6020026020010151838281518110611ead57611ead6152f8565b60200260200101906001600160a01b031690816001600160a01b031681525050838181518110611edf57611edf6152f8565b6020026020010151828281518110611ef957611ef96152f8565b6020908102919091010152600101611e78565b5073beac0eeeeeeeeeeeeeeeeeeeeeeeeeeeeeebeac08260018451611f319190615789565b81518110611f4157611f416152f8565b60200260200101906001600160a01b031690816001600160a01b031681525050848160018451611f719190615789565b81518110611f8157611f816152f8565b6020026020010181815250505b9097909650945050505050565b60665460609060019060029081161415611fc75760405162461bcd60e51b8152600401610abc9061533f565b611fd08361155a565b6120505760405162461bcd60e51b8152602060048201526044602482018190527f44656c65676174696f6e4d616e616765722e756e64656c65676174653a207374908201527f616b6572206d7573742062652064656c65676174656420746f20756e64656c656064820152636761746560e01b608482015260a401610abc565b6120598361171d565b156120cc5760405162461bcd60e51b815260206004820152603d60248201527f44656c65676174696f6e4d616e616765722e756e64656c65676174653a206f7060448201527f657261746f72732063616e6e6f7420626520756e64656c6567617465640000006064820152608401610abc565b6001600160a01b0383166121485760405162461bcd60e51b815260206004820152603c60248201527f44656c65676174696f6e4d616e616765722e756e64656c65676174653a20636160448201527f6e6e6f7420756e64656c6567617465207a65726f2061646472657373000000006064820152608401610abc565b6001600160a01b038084166000818152609a60205260409020549091169033148061217b5750336001600160a01b038216145b806121a257506001600160a01b038181166000908152609960205260409020600101541633145b6122145760405162461bcd60e51b815260206004820152603d60248201527f44656c65676174696f6e4d616e616765722e756e64656c65676174653a20636160448201527f6c6c65722063616e6e6f7420756e64656c6567617465207374616b65720000006064820152608401610abc565b60008061222086611be3565b9092509050336001600160a01b0387161461227657826001600160a01b0316866001600160a01b03167ff0eddf07e6ea14f388b47e1e94a0f464ecbd9eed4171130e0fc0e99fb4030a8a60405160405180910390a35b826001600160a01b0316866001600160a01b03167ffee30966a256b71e14bc0ebfc94315e28ef4a97a7131a9e2b7a310a73af4467660405160405180910390a36001600160a01b0386166000908152609a6020526040902080546001600160a01b031916905581516122f8576040805160008152602081019091529450612456565b81516001600160401b0381111561231157612311614c18565b60405190808252806020026020018201604052801561233a578160200160208202803683370190505b50945060005b8251811015612454576040805160018082528183019092526000916020808301908036833750506040805160018082528183019092529293506000929150602080830190803683370190505090508483815181106123a0576123a06152f8565b6020026020010151826000815181106123bb576123bb6152f8565b60200260200101906001600160a01b031690816001600160a01b0316815250508383815181106123ed576123ed6152f8565b602002602001015181600081518110612408576124086152f8565b60200260200101818152505061242189878b858561281d565b888481518110612433576124336152f8565b6020026020010181815250505050808061244c90615324565b915050612340565b505b50505050919050565b6124683361155a565b156124e65760405162461bcd60e51b815260206004820152604260248201527f44656c65676174696f6e4d616e616765722e64656c6567617465546f3a20737460448201527f616b657220697320616c7265616479206163746976656c792064656c65676174606482015261195960f21b608482015260a401610abc565b6124ef8361171d565b6125705760405162461bcd60e51b815260206004820152604660248201527f44656c65676174696f6e4d616e616765722e64656c6567617465546f3a206f7060448201527f657261746f72206973206e6f74207265676973746572656420696e2045696765606482015265372630bcb2b960d11b608482015260a401610abc565b6110a333848484612fd0565b6125853361171d565b6126035760405162461bcd60e51b815260206004820152604360248201527f44656c65676174696f6e4d616e616765722e6d6f646966794f70657261746f7260448201527f44657461696c733a2063616c6c6572206d75737420626520616e206f706572616064820152623a37b960e91b608482015260a401610abc565b610fee3382612ddd565b6126156133d8565b6001600160a01b03811661267a5760405162461bcd60e51b815260206004820152602660248201527f4f776e61626c653a206e6577206f776e657220697320746865207a65726f206160448201526564647265737360d01b6064820152608401610abc565b610fee816137d9565b60007f00000000000000000000000000000000000000000000000000000000000000004614156126b4575060975490565b6126bc613742565b905090565b606560009054906101000a90046001600160a01b03166001600160a01b031663eab66d7a6040518163ffffffff1660e01b8152600401602060405180830381865afa158015612714573d6000803e3d6000fd5b505050506040513d601f19601f820116820180604052508101906127389190615460565b6001600160a01b0316336001600160a01b0316146127685760405162461bcd60e51b8152600401610abc9061547d565b6066541981196066541916146127e65760405162461bcd60e51b815260206004820152603860248201527f5061757361626c652e756e70617573653a20696e76616c696420617474656d7060448201527f7420746f2070617573652066756e6374696f6e616c69747900000000000000006064820152608401610abc565b606681905560405181815233907f3582d1828e26bf56bd801502bc021ac0bc8afb57c826e4986b45593c8fad389c906020016111dc565b60006001600160a01b0386166128b45760405162461bcd60e51b815260206004820152605060248201527f44656c65676174696f6e4d616e616765722e5f72656d6f76655368617265734160448201527f6e6451756575655769746864726177616c3a207374616b65722063616e6e6f7460648201526f206265207a65726f206164647265737360801b608482015260a401610abc565b825161293e5760405162461bcd60e51b815260206004820152604d60248201527f44656c65676174696f6e4d616e616765722e5f72656d6f76655368617265734160448201527f6e6451756575655769746864726177616c3a207374726174656769657320636160648201526c6e6e6f7420626520656d70747960981b608482015260a401610abc565b60005b8351811015612ceb576001600160a01b03861615612997576129978688868481518110612970576129706152f8565b602002602001015186858151811061298a5761298a6152f8565b602002602001015161335d565b73beac0eeeeeeeeeeeeeeeeeeeeeeeeeeeeeebeac06001600160a01b03168482815181106129c7576129c76152f8565b60200260200101516001600160a01b03161415612a90577f00000000000000000000000000000000000000000000000000000000000000006001600160a01b031663beffbb8988858481518110612a2057612a206152f8565b60200260200101516040518363ffffffff1660e01b8152600401612a599291906001600160a01b03929092168252602082015260400190565b600060405180830381600087803b158015612a7357600080fd5b505af1158015612a87573d6000803e3d6000fd5b50505050612ce3565b846001600160a01b0316876001600160a01b03161480612b6257507f00000000000000000000000000000000000000000000000000000000000000006001600160a01b0316639b4da03d858381518110612aec57612aec6152f8565b60200260200101516040518263ffffffff1660e01b8152600401612b1f91906001600160a01b0391909116815260200190565b602060405180830381865afa158015612b3c573d6000803e3d6000fd5b505050506040513d601f19601f82011682018060405250810190612b609190615524565b155b612c2e5760405162461bcd60e51b8152602060048201526084602482018190527f44656c65676174696f6e4d616e616765722e5f72656d6f76655368617265734160448301527f6e6451756575655769746864726177616c3a2077697468647261776572206d7560648301527f73742062652073616d652061646472657373206173207374616b657220696620908201527f746869726450617274795472616e7366657273466f7262696464656e2061726560a482015263081cd95d60e21b60c482015260e401610abc565b7f00000000000000000000000000000000000000000000000000000000000000006001600160a01b0316638c80d4e588868481518110612c7057612c706152f8565b6020026020010151868581518110612c8a57612c8a6152f8565b60200260200101516040518463ffffffff1660e01b8152600401612cb0939291906157a0565b600060405180830381600087803b158015612cca57600080fd5b505af1158015612cde573d6000803e3d6000fd5b505050505b600101612941565b506001600160a01b0386166000908152609f60205260408120805491829190612d1383615324565b919050555060006040518060e00160405280896001600160a01b03168152602001886001600160a01b03168152602001876001600160a01b031681526020018381526020014363ffffffff1681526020018681526020018581525090506000612d7b82611641565b6000818152609e602052604090819020805460ff19166001179055519091507f9009ab153e8014fbfb02f2217f5cde7aa7f9ad734ae85ca3ee3f4ca2fdd499f990612dc990839085906157c4565b60405180910390a198975050505050505050565b6213c680612df160608301604084016157dd565b63ffffffff161115612ea65760405162461bcd60e51b815260206004820152606c60248201527f44656c65676174696f6e4d616e616765722e5f7365744f70657261746f72446560448201527f7461696c733a207374616b65724f70744f757457696e646f77426c6f636b732060648201527f63616e6e6f74206265203e204d41585f5354414b45525f4f50545f4f55545f5760848201526b494e444f575f424c4f434b5360a01b60a482015260c401610abc565b6001600160a01b0382166000908152609960205260409081902060010154600160a01b900463ffffffff1690612ee290606084019084016157dd565b63ffffffff161015612f785760405162461bcd60e51b815260206004820152605360248201527f44656c65676174696f6e4d616e616765722e5f7365744f70657261746f72446560448201527f7461696c733a207374616b65724f70744f757457696e646f77426c6f636b732060648201527218d85b9b9bdd08189948191958dc99585cd959606a1b608482015260a401610abc565b6001600160a01b03821660009081526099602052604090208190612f9c828261581a565b505060405133907ffebe5cd24b2cbc7b065b9d0fdeb904461e4afcff57dd57acda1e7832031ba7ac90611b1e9084906153df565b60665460009060019081161415612ff95760405162461bcd60e51b8152600401610abc9061533f565b6001600160a01b0380851660009081526099602052604090206001015416801580159061302f5750336001600160a01b03821614155b80156130445750336001600160a01b03861614155b156131b15742846020015110156130c35760405162461bcd60e51b815260206004820152603760248201527f44656c65676174696f6e4d616e616765722e5f64656c65676174653a2061707060448201527f726f766572207369676e617475726520657870697265640000000000000000006064820152608401610abc565b6001600160a01b0381166000908152609c6020908152604080832086845290915290205460ff161561315d5760405162461bcd60e51b815260206004820152603760248201527f44656c65676174696f6e4d616e616765722e5f64656c65676174653a2061707060448201527f726f76657253616c7420616c7265616479207370656e740000000000000000006064820152608401610abc565b6001600160a01b0381166000908152609c6020908152604080832086845282528220805460ff1916600117905585015161319e9088908890859088906109ce565b90506131af8282876000015161418a565b505b6001600160a01b038681166000818152609a602052604080822080546001600160a01b031916948a169485179055517fc3ee9f2e5fda98e8066a1f745b2df9285f416fe98cf2559cd21484b3d87433049190a360008061321088611be3565b9150915060005b82518110156113625761325e888a858481518110613237576132376152f8565b6020026020010151858581518110613251576132516152f8565b6020026020010151613925565b600101613217565b6001600160a01b0381166132f45760405162461bcd60e51b815260206004820152604960248201527f5061757361626c652e5f73657450617573657252656769737472793a206e657760448201527f50617573657252656769737472792063616e6e6f7420626520746865207a65726064820152686f206164647265737360b81b608482015260a401610abc565b606554604080516001600160a01b03928316815291831660208301527f6e9fcd539896fca60e8b0f01dd580233e48a6b0f7df013b89ba7f565869acdb6910160405180910390a1606580546001600160a01b0319166001600160a01b0392909216919091179055565b6001600160a01b03808516600090815260986020908152604080832093861683529290529081208054839290613394908490615789565b92505081905550836001600160a01b03167f6909600037b75d7b4733aedd815442b5ec018a827751c832aaff64eba5d6d2dd848484604051610f30939291906157a0565b6033546001600160a01b031633146117505760405162461bcd60e51b815260206004820181905260248201527f4f776e61626c653a2063616c6c6572206973206e6f7420746865206f776e65726044820152606401610abc565b8281146134ba5760405162461bcd60e51b815260206004820152604a60248201527f44656c65676174696f6e4d616e616765722e5f7365745374726174656779576960448201527f746864726177616c44656c6179426c6f636b733a20696e707574206c656e67746064820152690d040dad2e6dac2e8c6d60b31b608482015260a401610abc565b8260005b818110156136505760008686838181106134da576134da6152f8565b90506020020160208101906134ef91906149e6565b6001600160a01b038116600090815260a1602052604081205491925086868581811061351d5761351d6152f8565b90506020020135905062034bc08111156135e15760405162461bcd60e51b815260206004820152607360248201527f44656c65676174696f6e4d616e616765722e5f7365745374726174656779576960448201527f746864726177616c44656c6179426c6f636b733a205f7769746864726177616c60648201527f44656c6179426c6f636b732063616e6e6f74206265203e204d41585f5749544860848201527244524157414c5f44454c41595f424c4f434b5360681b60a482015260c401610abc565b6001600160a01b038316600081815260a160209081526040918290208490558151928352820184905281018290527f0e7efa738e8b0ce6376a0c1af471655540d2e9a81647d7b09ed823018426576d9060600160405180910390a15050508061364990615324565b90506134be565b505050505050565b6065546001600160a01b031615801561367957506001600160a01b03821615155b6136fb5760405162461bcd60e51b815260206004820152604760248201527f5061757361626c652e5f696e697469616c697a655061757365723a205f696e6960448201527f7469616c697a6550617573657228292063616e206f6e6c792062652063616c6c6064820152666564206f6e636560c81b608482015260a401610abc565b606681905560405181815233907fab40a374bc51de372200a8bc981af8c9ecdc08dfdaef0bb6e09f88f3c616ef3d9060200160405180910390a261373e82613266565b5050565b604080518082018252600a81526922b4b3b2b72630bcb2b960b11b60209182015281517f8cad95687ba82c2ce50e74f7b754645e5117c3a5bec8151c0726d5857980a866818301527f71b625cfad44bac63b13dba07f2e1d6084ee04b6f8752101ece6126d584ee6ea81840152466060820152306080808301919091528351808303909101815260a0909101909252815191012090565b603380546001600160a01b038381166001600160a01b0319831681179093556040519116919082907f8be0079c531659141344cd1fd0a4f28419497f9722a3daafe3b4186f6b6457e090600090a35050565b62034bc08111156138e45760405162461bcd60e51b815260206004820152607160248201527f44656c65676174696f6e4d616e616765722e5f7365744d696e5769746864726160448201527f77616c44656c6179426c6f636b733a205f6d696e5769746864726177616c446560648201527f6c6179426c6f636b732063616e6e6f74206265203e204d41585f5749544844526084820152704157414c5f44454c41595f424c4f434b5360781b60a482015260c401610abc565b609d5460408051918252602082018390527fafa003cd76f87ff9d62b35beea889920f33c0c42b8d45b74954d61d50f4b6b69910160405180910390a1609d55565b6001600160a01b0380851660009081526098602090815260408083209386168352929052908120805483929061395c908490615771565b92505081905550836001600160a01b03167f1ec042c965e2edd7107b51188ee0f383e22e76179041ab3a9d18ff151405166c848484604051610f30939291906157a0565b60006139ae6105f38761587d565b6000818152609e602052604090205490915060ff16613a2f5760405162461bcd60e51b815260206004820152604360248201526000805160206159b583398151915260448201527f645769746864726177616c3a20616374696f6e206973206e6f7420696e20717560648201526265756560e81b608482015260a401610abc565b609d544390613a4460a0890160808a016157dd565b63ffffffff16613a549190615771565b1115613adc5760405162461bcd60e51b815260206004820152605f60248201526000805160206159b583398151915260448201527f645769746864726177616c3a206d696e5769746864726177616c44656c61794260648201527f6c6f636b7320706572696f6420686173206e6f74207965742070617373656400608482015260a401610abc565b613aec60608701604088016149e6565b6001600160a01b0316336001600160a01b031614613b795760405162461bcd60e51b815260206004820152605060248201526000805160206159b583398151915260448201527f645769746864726177616c3a206f6e6c7920776974686472617765722063616e60648201526f1031b7b6b83632ba329030b1ba34b7b760811b608482015260a401610abc565b8115613bfb57613b8c60a0870187615396565b85149050613bfb5760405162461bcd60e51b815260206004820152604260248201526000805160206159b583398151915260448201527f645769746864726177616c3a20696e707574206c656e677468206d69736d61746064820152610c6d60f31b608482015260a401610abc565b6000818152609e60205260409020805460ff191690558115613d605760005b613c2760a0880188615396565b9050811015613d5a574360a16000613c4260a08b018b615396565b85818110613c5257613c526152f8565b9050602002016020810190613c6791906149e6565b6001600160a01b03168152602081019190915260400160002054613c9160a08a0160808b016157dd565b63ffffffff16613ca19190615771565b1115613cbf5760405162461bcd60e51b8152600401610abc9061588f565b613d52613ccf60208901896149e6565b33613cdd60a08b018b615396565b85818110613ced57613ced6152f8565b9050602002016020810190613d0291906149e6565b613d0f60c08c018c615396565b86818110613d1f57613d1f6152f8565b905060200201358a8a87818110613d3857613d386152f8565b9050602002016020810190613d4d91906149e6565b614344565b600101613c1a565b5061414f565b336000908152609a60205260408120546001600160a01b0316905b613d8860a0890189615396565b905081101561414c574360a16000613da360a08c018c615396565b85818110613db357613db36152f8565b9050602002016020810190613dc891906149e6565b6001600160a01b03168152602081019190915260400160002054613df260a08b0160808c016157dd565b63ffffffff16613e029190615771565b1115613e205760405162461bcd60e51b8152600401610abc9061588f565b73beac0eeeeeeeeeeeeeeeeeeeeeeeeeeeeeebeac0613e4260a08a018a615396565b83818110613e5257613e526152f8565b9050602002016020810190613e6791906149e6565b6001600160a01b03161415613fb7576000613e8560208a018a6149e6565b905060006001600160a01b037f000000000000000000000000000000000000000000000000000000000000000016630e81073c83613ec660c08e018e615396565b87818110613ed657613ed66152f8565b6040516001600160e01b031960e087901b1681526001600160a01b03909416600485015260200291909101356024830152506044016020604051808303816000875af1158015613f2a573d6000803e3d6000fd5b505050506040513d601f19601f82011682018060405250810190613f4e9190615643565b6001600160a01b038084166000908152609a6020526040902054919250168015613faf57613faf8184613f8460a08f018f615396565b88818110613f9457613f946152f8565b9050602002016020810190613fa991906149e6565b85613925565b505050614144565b7f00000000000000000000000000000000000000000000000000000000000000006001600160a01b031663c4623ea133898985818110613ff957613ff96152f8565b905060200201602081019061400e91906149e6565b61401b60a08d018d615396565b8681811061402b5761402b6152f8565b905060200201602081019061404091906149e6565b61404d60c08e018e615396565b8781811061405d5761405d6152f8565b60405160e088901b6001600160e01b03191681526001600160a01b03968716600482015294861660248601529290941660448401526020909102013560648201526084019050600060405180830381600087803b1580156140bd57600080fd5b505af11580156140d1573d6000803e3d6000fd5b505050506001600160a01b038216156141445761414482336140f660a08c018c615396565b85818110614106576141066152f8565b905060200201602081019061411b91906149e6565b61412860c08d018d615396565b86818110614138576141386152f8565b90506020020135613925565b600101613d7b565b50505b6040518181527fc97098c2f658800b4df29001527f7324bcdffcf6e8751a699ab920a1eced5b1d9060200160405180910390a1505050505050565b6001600160a01b0383163b156142a457604051630b135d3f60e11b808252906001600160a01b03851690631626ba7e906141ca9086908690600401615917565b602060405180830381865afa1580156141e7573d6000803e3d6000fd5b505050506040513d601f19601f8201168201806040525081019061420b9190615974565b6001600160e01b031916146110a35760405162461bcd60e51b815260206004820152605360248201527f454950313237315369676e61747572655574696c732e636865636b5369676e6160448201527f747572655f454950313237313a2045524331323731207369676e6174757265206064820152721d995c9a599a58d85d1a5bdb8819985a5b1959606a1b608482015260a401610abc565b826001600160a01b03166142b88383614484565b6001600160a01b0316146110a35760405162461bcd60e51b815260206004820152604760248201527f454950313237315369676e61747572655574696c732e636865636b5369676e6160448201527f747572655f454950313237313a207369676e6174757265206e6f742066726f6d6064820152661039b4b3b732b960c91b608482015260a401610abc565b6001600160a01b03831673beac0eeeeeeeeeeeeeeeeeeeeeeeeeeeeeebeac014156143ef5760405162387b1360e81b81526001600160a01b037f0000000000000000000000000000000000000000000000000000000000000000169063387b1300906143b8908890889087906004016157a0565b600060405180830381600087803b1580156143d257600080fd5b505af11580156143e6573d6000803e3d6000fd5b5050505061447d565b60405163c608c7f360e01b81526001600160a01b03858116600483015284811660248301526044820184905282811660648301527f0000000000000000000000000000000000000000000000000000000000000000169063c608c7f390608401600060405180830381600087803b15801561446957600080fd5b505af1158015611362573d6000803e3d6000fd5b5050505050565b600080600061449385856144a0565b915091506109c681614510565b6000808251604114156144d75760208301516040840151606085015160001a6144cb878285856146cb565b94509450505050614509565b82516040141561450157602083015160408401516144f68683836147b8565b935093505050614509565b506000905060025b9250929050565b60008160048111156145245761452461599e565b141561452d5750565b60018160048111156145415761454161599e565b141561458f5760405162461bcd60e51b815260206004820152601860248201527f45434453413a20696e76616c6964207369676e617475726500000000000000006044820152606401610abc565b60028160048111156145a3576145a361599e565b14156145f15760405162461bcd60e51b815260206004820152601f60248201527f45434453413a20696e76616c6964207369676e6174757265206c656e677468006044820152606401610abc565b60038160048111156146055761460561599e565b141561465e5760405162461bcd60e51b815260206004820152602260248201527f45434453413a20696e76616c6964207369676e6174757265202773272076616c604482015261756560f01b6064820152608401610abc565b60048160048111156146725761467261599e565b1415610fee5760405162461bcd60e51b815260206004820152602260248201527f45434453413a20696e76616c6964207369676e6174757265202776272076616c604482015261756560f01b6064820152608401610abc565b6000807f7fffffffffffffffffffffffffffffff5d576e7357a4501ddfe92f46681b20a083111561470257506000905060036147af565b8460ff16601b1415801561471a57508460ff16601c14155b1561472b57506000905060046147af565b6040805160008082526020820180845289905260ff881692820192909252606081018690526080810185905260019060a0016020604051602081039080840390855afa15801561477f573d6000803e3d6000fd5b5050604051601f1901519150506001600160a01b0381166147a8576000600192509250506147af565b9150600090505b94509492505050565b6000806001600160ff1b038316816147d560ff86901c601b615771565b90506147e3878288856146cb565b935093505050935093915050565b60008083601f84011261480357600080fd5b5081356001600160401b0381111561481a57600080fd5b6020830191508360208260051b850101111561450957600080fd5b6000806020838503121561484857600080fd5b82356001600160401b0381111561485e57600080fd5b61486a858286016147f1565b90969095509350505050565b6001600160a01b0381168114610fee57600080fd5b803561489681614876565b919050565b600080600080600060a086880312156148b357600080fd5b85356148be81614876565b945060208601356148ce81614876565b935060408601356148de81614876565b94979396509394606081013594506080013592915050565b6020808252825182820181905260009190848201906040850190845b8181101561492e57835183529284019291840191600101614912565b50909695505050505050565b60006060828403121561494c57600080fd5b50919050565b60008083601f84011261496457600080fd5b5081356001600160401b0381111561497b57600080fd5b60208301915083602082850101111561450957600080fd5b6000806000608084860312156149a857600080fd5b6149b2858561493a565b925060608401356001600160401b038111156149cd57600080fd5b6149d986828701614952565b9497909650939450505050565b6000602082840312156149f857600080fd5b8135614a0381614876565b9392505050565b600080600060608486031215614a1f57600080fd5b8335614a2a81614876565b92506020840135614a3a81614876565b929592945050506040919091013590565b600060208284031215614a5d57600080fd5b5035919050565b60008060008060408587031215614a7a57600080fd5b84356001600160401b0380821115614a9157600080fd5b614a9d888389016147f1565b90965094506020870135915080821115614ab657600080fd5b50614ac3878288016147f1565b95989497509550505050565b60008060008060008060008060c0898b031215614aeb57600080fd5b8835614af681614876565b97506020890135614b0681614876565b9650604089013595506060890135945060808901356001600160401b0380821115614b3057600080fd5b614b3c8c838d016147f1565b909650945060a08b0135915080821115614b5557600080fd5b50614b628b828c016147f1565b999c989b5096995094979396929594505050565b6000806000806000806000806080898b031215614b9257600080fd5b88356001600160401b0380821115614ba957600080fd5b614bb58c838d016147f1565b909a50985060208b0135915080821115614bce57600080fd5b614bda8c838d016147f1565b909850965060408b0135915080821115614bf357600080fd5b614bff8c838d016147f1565b909650945060608b0135915080821115614b5557600080fd5b634e487b7160e01b600052604160045260246000fd5b60405160e081016001600160401b0381118282101715614c5057614c50614c18565b60405290565b604080519081016001600160401b0381118282101715614c5057614c50614c18565b604051601f8201601f191681016001600160401b0381118282101715614ca057614ca0614c18565b604052919050565b63ffffffff81168114610fee57600080fd5b803561489681614ca8565b60006001600160401b03821115614cde57614cde614c18565b5060051b60200190565b600082601f830112614cf957600080fd5b81356020614d0e614d0983614cc5565b614c78565b82815260059290921b84018101918181019086841115614d2d57600080fd5b8286015b84811015614d51578035614d4481614876565b8352918301918301614d31565b509695505050505050565b600082601f830112614d6d57600080fd5b81356020614d7d614d0983614cc5565b82815260059290921b84018101918181019086841115614d9c57600080fd5b8286015b84811015614d515780358352918301918301614da0565b600060e08284031215614dc957600080fd5b614dd1614c2e565b9050614ddc8261488b565b8152614dea6020830161488b565b6020820152614dfb6040830161488b565b604082015260608201356060820152614e1660808301614cba565b608082015260a08201356001600160401b0380821115614e3557600080fd5b614e4185838601614ce8565b60a084015260c0840135915080821115614e5a57600080fd5b50614e6784828501614d5c565b60c08301525092915050565b600060208284031215614e8557600080fd5b81356001600160401b03811115614e9b57600080fd5b614ea784828501614db7565b949350505050565b600060208284031215614ec157600080fd5b813560ff81168114614a0357600080fd5b8015158114610fee57600080fd5b600080600080600060808688031215614ef857600080fd5b85356001600160401b0380821115614f0f57600080fd5b9087019060e0828a031215614f2357600080fd5b90955060208701359080821115614f3957600080fd5b50614f46888289016147f1565b909550935050604086013591506060860135614f6181614ed2565b809150509295509295909350565b60008060408385031215614f8257600080fd5b8235614f8d81614876565b91506020830135614f9d81614876565b809150509250929050565b600060408284031215614fba57600080fd5b614fc2614c56565b905081356001600160401b0380821115614fdb57600080fd5b818401915084601f830112614fef57600080fd5b813560208282111561500357615003614c18565b615015601f8301601f19168201614c78565b9250818352868183860101111561502b57600080fd5b8181850182850137600081838501015282855280860135818601525050505092915050565b600080600080600060a0868803121561506857600080fd5b853561507381614876565b9450602086013561508381614876565b935060408601356001600160401b038082111561509f57600080fd5b6150ab89838a01614fa8565b945060608801359150808211156150c157600080fd5b506150ce88828901614fa8565b95989497509295608001359392505050565b600080604083850312156150f357600080fd5b82356150fe81614876565b915060208301356001600160401b0381111561511957600080fd5b61512585828601614ce8565b9150509250929050565b600081518084526020808501945080840160005b8381101561515f57815187529582019590820190600101615143565b509495945050505050565b602081526000614a03602083018461512f565b6000806020838503121561519057600080fd5b82356001600160401b038111156151a657600080fd5b61486a85828601614952565b600080604083850312156151c557600080fd5b82356151d081614876565b946020939093013593505050565b600080600080608085870312156151f457600080fd5b84356151ff81614876565b935060208501359250604085013561521681614876565b9396929550929360600135925050565b600081518084526020808501945080840160005b8381101561515f5781516001600160a01b03168752958201959082019060010161523a565b6040815260006152726040830185615226565b8281036020840152611220818561512f565b60008060006060848603121561529957600080fd5b83356152a481614876565b925060208401356001600160401b038111156152bf57600080fd5b6152cb86828701614fa8565b925050604084013590509250925092565b6000606082840312156152ee57600080fd5b614a03838361493a565b634e487b7160e01b600052603260045260246000fd5b634e487b7160e01b600052601160045260246000fd5b60006000198214156153385761533861530e565b5060010190565b60208082526019908201527f5061757361626c653a20696e6465782069732070617573656400000000000000604082015260600190565b60008235605e1983360301811261538c57600080fd5b9190910192915050565b6000808335601e198436030181126153ad57600080fd5b8301803591506001600160401b038211156153c757600080fd5b6020019150600581901b360382131561450957600080fd5b6060810182356153ee81614876565b6001600160a01b03908116835260208401359061540a82614876565b166020830152604083013561541e81614ca8565b63ffffffff811660408401525092915050565b60208152816020820152818360408301376000818301604090810191909152601f909201601f19160101919050565b60006020828403121561547257600080fd5b8151614a0381614876565b6020808252602a908201527f6d73672e73656e646572206973206e6f74207065726d697373696f6e6564206160408201526939903ab73830bab9b2b960b11b606082015260800190565b60208082526037908201527f44656c65676174696f6e4d616e616765723a206f6e6c7953747261746567794d60408201527f616e616765724f72456967656e506f644d616e61676572000000000000000000606082015260800190565b60006020828403121561553657600080fd5b8151614a0381614ed2565b60208082526028908201527f6d73672e73656e646572206973206e6f74207065726d697373696f6e6564206160408201526739903830bab9b2b960c11b606082015260800190565b6000823560de1983360301811261538c57600080fd5b6000602082840312156155b157600080fd5b8135614a0381614ed2565b600060018060a01b03808351168452806020840151166020850152806040840151166040850152506060820151606084015263ffffffff608083015116608084015260a082015160e060a085015261561760e0850182615226565b905060c083015184820360c0860152611220828261512f565b602081526000614a0360208301846155bc565b60006020828403121561565557600080fd5b5051919050565b600082601f83011261566d57600080fd5b8151602061567d614d0983614cc5565b82815260059290921b8401810191818101908684111561569c57600080fd5b8286015b84811015614d5157805183529183019183016156a0565b600080604083850312156156ca57600080fd5b82516001600160401b03808211156156e157600080fd5b818501915085601f8301126156f557600080fd5b81516020615705614d0983614cc5565b82815260059290921b8401810191818101908984111561572457600080fd5b948201945b8386101561574b57855161573c81614876565b82529482019490820190615729565b9188015191965090935050508082111561576457600080fd5b506151258582860161565c565b600082198211156157845761578461530e565b500190565b60008282101561579b5761579b61530e565b500390565b6001600160a01b039384168152919092166020820152604081019190915260600190565b828152604060208201526000614ea760408301846155bc565b6000602082840312156157ef57600080fd5b8135614a0381614ca8565b80546001600160a01b0319166001600160a01b0392909216919091179055565b813561582581614876565b61582f81836157fa565b5060018101602083013561584281614876565b61584c81836157fa565b50604083013561585b81614ca8565b815463ffffffff60a01b191660a09190911b63ffffffff60a01b161790555050565b60006158893683614db7565b92915050565b6020808252606e908201526000805160206159b583398151915260408201527f645769746864726177616c3a207769746864726177616c44656c6179426c6f6360608201527f6b7320706572696f6420686173206e6f74207965742070617373656420666f7260808201526d207468697320737472617465677960901b60a082015260c00190565b82815260006020604081840152835180604085015260005b8181101561594b5785810183015185820160600152820161592f565b8181111561595d576000606083870101525b50601f01601f191692909201606001949350505050565b60006020828403121561598657600080fd5b81516001600160e01b031981168114614a0357600080fd5b634e487b7160e01b600052602160045260246000fdfe44656c65676174696f6e4d616e616765722e5f636f6d706c6574655175657565a264697066735822122044be945a10e100440c39a58b9524f83ae50bf4766534d26eb85b4c79448f3e2c64736f6c634300080c0033","linkReferences":{}},"methodIdentifiers":{"DELEGATION_APPROVAL_TYPEHASH()":"04a4f979","DOMAIN_TYPEHASH()":"20606b70","MAX_STAKER_OPT_OUT_WINDOW_BLOCKS()":"4fc40b61","MAX_WITHDRAWAL_DELAY_BLOCKS()":"ca661c04","STAKER_DELEGATION_TYPEHASH()":"43377382","beaconChainETHStrategy()":"9104c319","calculateCurrentStakerDelegationDigestHash(address,address,uint256)":"1bbce091","calculateDelegationApprovalDigestHash(address,address,address,bytes32,uint256)":"0b9f487a","calculateStakerDelegationDigestHash(address,uint256,address,uint256)":"c94b5111","calculateWithdrawalRoot((address,address,address,uint256,uint32,address[],uint256[]))":"597b36da","completeQueuedWithdrawal((address,address,address,uint256,uint32,address[],uint256[]),address[],uint256,bool)":"60d7faed","completeQueuedWithdrawals((address,address,address,uint256,uint32,address[],uint256[])[],address[][],uint256[],bool[])":"33404396","cumulativeWithdrawalsQueued(address)":"a1788484","decreaseDelegatedShares(address,address,uint256)":"132d4967","delegateTo(address,(bytes,uint256),bytes32)":"eea9064b","delegateToBySignature(address,address,(bytes,uint256),(bytes,uint256),bytes32)":"7f548071","delegatedTo(address)":"65da1264","delegationApprover(address)":"3cdeb5e0","delegationApproverSaltIsSpent(address,bytes32)":"bb45fef2","domainSeparator()":"f698da25","eigenPodManager()":"4665bcda","getDelegatableShares(address)":"cf80873e","getOperatorShares(address,address[])":"90041347","getWithdrawalDelay(address[])":"0449ca39","increaseDelegatedShares(address,address,uint256)":"28a573ae","initialize(address,address,uint256,uint256,address[],uint256[])":"22bf40e4","isDelegated(address)":"3e28391d","isOperator(address)":"6d70f7ae","minWithdrawalDelayBlocks()":"c448feb8","modifyOperatorDetails((address,address,uint32))":"f16172b0","operatorDetails(address)":"c5e480db","operatorShares(address,address)":"778e55f3","owner()":"8da5cb5b","pause(uint256)":"136439dd","pauseAll()":"595c6a67","paused()":"5c975abb","paused(uint8)":"5ac86ab7","pauserRegistry()":"886f1195","pendingWithdrawals(bytes32)":"b7f06ebe","queueWithdrawals((address[],uint256[],address)[])":"0dd8dd02","registerAsOperator((address,address,uint32),string)":"0f589e59","renounceOwnership()":"715018a6","setMinWithdrawalDelayBlocks(uint256)":"635bbd10","setPauserRegistry(address)":"10d67a2f","setStrategyWithdrawalDelayBlocks(address[],uint256[])":"1522bf02","slasher()":"b1344271","stakerNonce(address)":"29c77d4f","stakerOptOutWindowBlocks(address)":"16928365","strategyManager()":"39b70e38","strategyWithdrawalDelayBlocks(address)":"c488375a","transferOwnership(address)":"f2fde38b","undelegate(address)":"da8be864","unpause(uint256)":"fabc1cbc","updateOperatorMetadataURI(string)":"99be81c8"},"id":70}