{"abi":[{"type":"constructor","inputs":[{"name":"_ethPOS","type":"address","internalType":"contract IETHPOSDeposit"},{"name":"_delayedWithdrawalRouter","type":"address","internalType":"contract IDelayedWithdrawalRouter"},{"name":"_eigenPodManager","type":"address","internalType":"contract IEigenPodManager"},{"name":"_MAX_RESTAKED_BALANCE_GWEI_PER_VALIDATOR","type":"uint64","internalType":"uint64"},{"name":"_GENESIS_TIME","type":"uint64","internalType":"uint64"}],"stateMutability":"nonpayable"},{"type":"receive","stateMutability":"payable"},{"type":"function","name":"GENESIS_TIME","inputs":[],"outputs":[{"name":"","type":"uint64","internalType":"uint64"}],"stateMutability":"view"},{"type":"function","name":"MAX_RESTAKED_BALANCE_GWEI_PER_VALIDATOR","inputs":[],"outputs":[{"name":"","type":"uint64","internalType":"uint64"}],"stateMutability":"view"},{"type":"function","name":"activateRestaking","inputs":[],"outputs":[],"stateMutability":"nonpayable"},{"type":"function","name":"delayedWithdrawalRouter","inputs":[],"outputs":[{"name":"","type":"address","internalType":"contract IDelayedWithdrawalRouter"}],"stateMutability":"view"},{"type":"function","name":"eigenPodManager","inputs":[],"outputs":[{"name":"","type":"address","internalType":"contract IEigenPodManager"}],"stateMutability":"view"},{"type":"function","name":"ethPOS","inputs":[],"outputs":[{"name":"","type":"address","internalType":"contract IETHPOSDeposit"}],"stateMutability":"view"},{"type":"function","name":"hasRestaked","inputs":[],"outputs":[{"name":"","type":"bool","internalType":"bool"}],"stateMutability":"view"},{"type":"function","name":"initialize","inputs":[{"name":"_podOwner","type":"address","internalType":"address"}],"outputs":[],"stateMutability":"nonpayable"},{"type":"function","name":"mostRecentWithdrawalTimestamp","inputs":[],"outputs":[{"name":"","type":"uint64","internalType":"uint64"}],"stateMutability":"view"},{"type":"function","name":"nonBeaconChainETHBalanceWei","inputs":[],"outputs":[{"name":"","type":"uint256","internalType":"uint256"}],"stateMutability":"view"},{"type":"function","name":"podOwner","inputs":[],"outputs":[{"name":"","type":"address","internalType":"address"}],"stateMutability":"view"},{"type":"function","name":"provenWithdrawal","inputs":[{"name":"","type":"bytes32","internalType":"bytes32"},{"name":"","type":"uint64","internalType":"uint64"}],"outputs":[{"name":"","type":"bool","internalType":"bool"}],"stateMutability":"view"},{"type":"function","name":"recoverTokens","inputs":[{"name":"tokenList","type":"address[]","internalType":"contract IERC20[]"},{"name":"amountsToWithdraw","type":"uint256[]","internalType":"uint256[]"},{"name":"recipient","type":"address","internalType":"address"}],"outputs":[],"stateMutability":"nonpayable"},{"type":"function","name":"stake","inputs":[{"name":"pubkey","type":"bytes","internalType":"bytes"},{"name":"signature","type":"bytes","internalType":"bytes"},{"name":"depositDataRoot","type":"bytes32","internalType":"bytes32"}],"outputs":[],"stateMutability":"payable"},{"type":"function","name":"sumOfPartialWithdrawalsClaimedGwei","inputs":[],"outputs":[{"name":"","type":"uint64","internalType":"uint64"}],"stateMutability":"view"},{"type":"function","name":"validatorPubkeyHashToInfo","inputs":[{"name":"validatorPubkeyHash","type":"bytes32","internalType":"bytes32"}],"outputs":[{"name":"","type":"tuple","internalType":"struct IEigenPod.ValidatorInfo","components":[{"name":"validatorIndex","type":"uint64","internalType":"uint64"},{"name":"restakedBalanceGwei","type":"uint64","internalType":"uint64"},{"name":"mostRecentBalanceUpdateTimestamp","type":"uint64","internalType":"uint64"},{"name":"status","type":"uint8","internalType":"enum IEigenPod.VALIDATOR_STATUS"}]}],"stateMutability":"view"},{"type":"function","name":"validatorPubkeyToInfo","inputs":[{"name":"validatorPubkey","type":"bytes","internalType":"bytes"}],"outputs":[{"name":"","type":"tuple","internalType":"struct IEigenPod.ValidatorInfo","components":[{"name":"validatorIndex","type":"uint64","internalType":"uint64"},{"name":"restakedBalanceGwei","type":"uint64","internalType":"uint64"},{"name":"mostRecentBalanceUpdateTimestamp","type":"uint64","internalType":"uint64"},{"name":"status","type":"uint8","internalType":"enum IEigenPod.VALIDATOR_STATUS"}]}],"stateMutability":"view"},{"type":"function","name":"validatorStatus","inputs":[{"name":"validatorPubkey","type":"bytes","internalType":"bytes"}],"outputs":[{"name":"","type":"uint8","internalType":"enum IEigenPod.VALIDATOR_STATUS"}],"stateMutability":"view"},{"type":"function","name":"validatorStatus","inputs":[{"name":"pubkeyHash","type":"bytes32","internalType":"bytes32"}],"outputs":[{"name":"","type":"uint8","internalType":"enum IEigenPod.VALIDATOR_STATUS"}],"stateMutability":"view"},{"type":"function","name":"verifyAndProcessWithdrawals","inputs":[{"name":"oracleTimestamp","type":"uint64","internalType":"uint64"},{"name":"stateRootProof","type":"tuple","internalType":"struct BeaconChainProofs.StateRootProof","components":[{"name":"beaconStateRoot","type":"bytes32","internalType":"bytes32"},{"name":"proof","type":"bytes","internalType":"bytes"}]},{"name":"withdrawalProofs","type":"tuple[]","internalType":"struct BeaconChainProofs.WithdrawalProof[]","components":[{"name":"withdrawalProof","type":"bytes","internalType":"bytes"},{"name":"slotProof","type":"bytes","internalType":"bytes"},{"name":"executionPayloadProof","type":"bytes","internalType":"bytes"},{"name":"timestampProof","type":"bytes","internalType":"bytes"},{"name":"historicalSummaryBlockRootProof","type":"bytes","internalType":"bytes"},{"name":"blockRootIndex","type":"uint64","internalType":"uint64"},{"name":"historicalSummaryIndex","type":"uint64","internalType":"uint64"},{"name":"withdrawalIndex","type":"uint64","internalType":"uint64"},{"name":"blockRoot","type":"bytes32","internalType":"bytes32"},{"name":"slotRoot","type":"bytes32","internalType":"bytes32"},{"name":"timestampRoot","type":"bytes32","internalType":"bytes32"},{"name":"executionPayloadRoot","type":"bytes32","internalType":"bytes32"}]},{"name":"validatorFieldsProofs","type":"bytes[]","internalType":"bytes[]"},{"name":"validatorFields","type":"bytes32[][]","internalType":"bytes32[][]"},{"name":"withdrawalFields","type":"bytes32[][]","internalType":"bytes32[][]"}],"outputs":[],"stateMutability":"nonpayable"},{"type":"function","name":"verifyBalanceUpdates","inputs":[{"name":"oracleTimestamp","type":"uint64","internalType":"uint64"},{"name":"validatorIndices","type":"uint40[]","internalType":"uint40[]"},{"name":"stateRootProof","type":"tuple","internalType":"struct BeaconChainProofs.StateRootProof","components":[{"name":"beaconStateRoot","type":"bytes32","internalType":"bytes32"},{"name":"proof","type":"bytes","internalType":"bytes"}]},{"name":"validatorFieldsProofs","type":"bytes[]","internalType":"bytes[]"},{"name":"validatorFields","type":"bytes32[][]","internalType":"bytes32[][]"}],"outputs":[],"stateMutability":"nonpayable"},{"type":"function","name":"verifyWithdrawalCredentials","inputs":[{"name":"oracleTimestamp","type":"uint64","internalType":"uint64"},{"name":"stateRootProof","type":"tuple","internalType":"struct BeaconChainProofs.StateRootProof","components":[{"name":"beaconStateRoot","type":"bytes32","internalType":"bytes32"},{"name":"proof","type":"bytes","internalType":"bytes"}]},{"name":"validatorIndices","type":"uint40[]","internalType":"uint40[]"},{"name":"validatorFieldsProofs","type":"bytes[]","internalType":"bytes[]"},{"name":"validatorFields","type":"bytes32[][]","internalType":"bytes32[][]"}],"outputs":[],"stateMutability":"nonpayable"},{"type":"function","name":"withdrawBeforeRestaking","inputs":[],"outputs":[],"stateMutability":"nonpayable"},{"type":"function","name":"withdrawNonBeaconChainETHBalanceWei","inputs":[{"name":"recipient","type":"address","internalType":"address"},{"name":"amountToWithdraw","type":"uint256","internalType":"uint256"}],"outputs":[],"stateMutability":"nonpayable"},{"type":"function","name":"withdrawRestakedBeaconChainETH","inputs":[{"name":"recipient","type":"address","internalType":"address"},{"name":"amountWei","type":"uint256","internalType":"uint256"}],"outputs":[],"stateMutability":"nonpayable"},{"type":"function","name":"withdrawableRestakedExecutionLayerGwei","inputs":[],"outputs":[{"name":"","type":"uint64","internalType":"uint64"}],"stateMutability":"view"},{"type":"event","name":"EigenPodStaked","inputs":[{"name":"pubkey","type":"bytes","indexed":false,"internalType":"bytes"}],"anonymous":false},{"type":"event","name":"FullWithdrawalRedeemed","inputs":[{"name":"validatorIndex","type":"uint40","indexed":false,"internalType":"uint40"},{"name":"withdrawalTimestamp","type":"uint64","indexed":false,"internalType":"uint64"},{"name":"recipient","type":"address","indexed":true,"internalType":"address"},{"name":"withdrawalAmountGwei","type":"uint64","indexed":false,"internalType":"uint64"}],"anonymous":false},{"type":"event","name":"Initialized","inputs":[{"name":"version","type":"uint8","indexed":false,"internalType":"uint8"}],"anonymous":false},{"type":"event","name":"NonBeaconChainETHReceived","inputs":[{"name":"amountReceived","type":"uint256","indexed":false,"internalType":"uint256"}],"anonymous":false},{"type":"event","name":"NonBeaconChainETHWithdrawn","inputs":[{"name":"recipient","type":"address","indexed":true,"internalType":"address"},{"name":"amountWithdrawn","type":"uint256","indexed":false,"internalType":"uint256"}],"anonymous":false},{"type":"event","name":"PartialWithdrawalRedeemed","inputs":[{"name":"validatorIndex","type":"uint40","indexed":false,"internalType":"uint40"},{"name":"withdrawalTimestamp","type":"uint64","indexed":false,"internalType":"uint64"},{"name":"recipient","type":"address","indexed":true,"internalType":"address"},{"name":"partialWithdrawalAmountGwei","type":"uint64","indexed":false,"internalType":"uint64"}],"anonymous":false},{"type":"event","name":"RestakedBeaconChainETHWithdrawn","inputs":[{"name":"recipient","type":"address","indexed":true,"internalType":"address"},{"name":"amount","type":"uint256","indexed":false,"internalType":"uint256"}],"anonymous":false},{"type":"event","name":"RestakingActivated","inputs":[{"name":"podOwner","type":"address","indexed":true,"internalType":"address"}],"anonymous":false},{"type":"event","name":"ValidatorBalanceUpdated","inputs":[{"name":"validatorIndex","type":"uint40","indexed":false,"internalType":"uint40"},{"name":"balanceTimestamp","type":"uint64","indexed":false,"internalType":"uint64"},{"name":"newValidatorBalanceGwei","type":"uint64","indexed":false,"internalType":"uint64"}],"anonymous":false},{"type":"event","name":"ValidatorRestaked","inputs":[{"name":"validatorIndex","type":"uint40","indexed":false,"internalType":"uint40"}],"anonymous":false}],"bytecode":{"object":"0x6101206040523480156200001257600080fd5b5060405162005fc038038062005fc083398101604081905262000035916200016f565b6001600160a01b0380861660805284811660a052831660c0526001600160401b0380831660e0528116610100526200006c62000077565b5050505050620001e7565b600054610100900460ff1615620000e45760405162461bcd60e51b815260206004820152602760248201527f496e697469616c697a61626c653a20636f6e747261637420697320696e697469604482015266616c697a696e6760c81b606482015260840160405180910390fd5b60005460ff908116101562000137576000805460ff191660ff9081179091556040519081527f7f26b83ff96e1f2b6a682f133852f6798a09c465da95921460cefb38474024989060200160405180910390a15b565b6001600160a01b03811681146200014f57600080fd5b50565b80516001600160401b03811681146200016a57600080fd5b919050565b600080600080600060a086880312156200018857600080fd5b8551620001958162000139565b6020870151909550620001a88162000139565b6040870151909450620001bb8162000139565b9250620001cb6060870162000152565b9150620001db6080870162000152565b90509295509295909350565b60805160a05160c05160e05161010051615cde620002e2600039600081816105b501528181612030015281816120e7015261213f015260008181610275015281816125d00152818161260401528181612c3001528181612c5d015281816143a401526143df01526000818161036d01528181610614015281816107a701528181610aef01528181610c4401528181610dcc01528181610f87015281816111680152818161129c0152818161146d015281816118ba01528181611a6201528181611ba101528181611d6e01528181611e58015261315401526000818161024101526133c60152600081816104520152610e970152615cde6000f3fe6080604052600436106101855760003560e01c806374cdd798116100d1578063c49074421161008a578063e251ef5211610064578063e251ef5214610563578063e2c8344514610583578063f2882461146105a3578063fe80b087146105d757600080fd5b8063c490744214610503578063c4d66de814610523578063dda3346c1461054357600080fd5b806374cdd7981461044057806387e0d289146104745780639b4e46341461049b578063a50600f4146104ae578063b522538a146104ce578063baa7145a146104ee57600080fd5b806334bea20a1161013e57806358eaee791161011857806358eaee791461038f5780635d3f65b6146103bc5780636fcd0e53146103dc5780637439841f1461040957600080fd5b806334bea20a146103005780633f65cf191461033b5780634665bcda1461035b57600080fd5b80630b18ff66146101db5780630cd4649e146102185780631a5057be1461022f5780631d905d5c146102635780633106ab53146102af5780633474aa16146102e057600080fd5b366101d657346037600082825461019c9190614c9f565b90915550506040513481527f6fdd3dbdb173299608c0aa9f368735857c8842b581f8389238bf05bd04b3bf499060200160405180910390a1005b600080fd5b3480156101e757600080fd5b506033546101fb906001600160a01b031681565b6040516001600160a01b0390911681526020015b60405180910390f35b34801561022457600080fd5b5061022d6105fb565b005b34801561023b57600080fd5b506101fb7f000000000000000000000000000000000000000000000000000000000000000081565b34801561026f57600080fd5b506102977f000000000000000000000000000000000000000000000000000000000000000081565b6040516001600160401b03909116815260200161020f565b3480156102bb57600080fd5b506034546102d090600160401b900460ff1681565b604051901515815260200161020f565b3480156102ec57600080fd5b50603454610297906001600160401b031681565b34801561030c57600080fd5b506102d061031b366004614cdc565b603560209081526000928352604080842090915290825290205460ff1681565b34801561034757600080fd5b5061022d610356366004614d6f565b610764565b34801561036757600080fd5b506101fb7f000000000000000000000000000000000000000000000000000000000000000081565b34801561039b57600080fd5b506103af6103aa366004614e80565b610caf565b60405161020f9190614ef9565b3480156103c857600080fd5b50603854610297906001600160401b031681565b3480156103e857600080fd5b506103fc6103f7366004614f07565b610d14565b60405161020f9190614f20565b34801561041557600080fd5b506103af610424366004614f07565b600090815260366020526040902054600160c01b900460ff1690565b34801561044c57600080fd5b506101fb7f000000000000000000000000000000000000000000000000000000000000000081565b34801561048057600080fd5b5060335461029790600160a01b90046001600160401b031681565b61022d6104a9366004614f68565b610dc1565b3480156104ba57600080fd5b5061022d6104c9366004614fdb565b610f6e565b3480156104da57600080fd5b506103fc6104e9366004614e80565b611304565b3480156104fa57600080fd5b5061022d6113f7565b34801561050f57600080fd5b5061022d61051e366004615085565b611462565b34801561052f57600080fd5b5061022d61053e3660046150b1565b61169f565b34801561054f57600080fd5b5061022d61055e3660046151cb565b611877565b34801561056f57600080fd5b5061022d61057e36600461529c565b611a4a565b34801561058f57600080fd5b5061022d61059e366004615085565b611e15565b3480156105af57600080fd5b506102977f000000000000000000000000000000000000000000000000000000000000000081565b3480156105e357600080fd5b506105ed60375481565b60405190815260200161020f565b604051635ac86ab760e01b8152600260048201819052907f00000000000000000000000000000000000000000000000000000000000000006001600160a01b031690635ac86ab790602401602060405180830381865afa158015610663573d6000803e3d6000fd5b505050506040513d601f19601f820116820180604052508101906106879190615397565b156106ad5760405162461bcd60e51b81526004016106a4906153b9565b60405180910390fd5b6033546001600160a01b031633146106d75760405162461bcd60e51b81526004016106a490615416565b603454600160401b900460ff16156107015760405162461bcd60e51b81526004016106a49061545e565b6034805460ff60401b1916600160401b179055603354610729906001600160a01b0316611ff8565b6033546040516001600160a01b03909116907fca8dfc8c5e0a67a74501c072a3325f685259bebbae7cfd230ab85198a78b70cd90600090a250565b6033546001600160a01b0316331461078e5760405162461bcd60e51b81526004016106a490615416565b604051635ac86ab760e01b8152600260048201819052907f00000000000000000000000000000000000000000000000000000000000000006001600160a01b031690635ac86ab790602401602060405180830381865afa1580156107f6573d6000803e3d6000fd5b505050506040513d601f19601f8201168201806040525081019061081a9190615397565b156108375760405162461bcd60e51b81526004016106a4906153b9565b603454600160401b900460ff166108af5760405162461bcd60e51b815260206004820152603660248201527f456967656e506f642e686173456e61626c656452657374616b696e673a2072656044820152751cdd185ada5b99c81a5cc81b9bdd08195b98589b195960521b60648201526084016106a4565b85841480156108bd57508382145b61094d5760405162461bcd60e51b815260206004820152605560248201527f456967656e506f642e7665726966795769746864726177616c43726564656e7460448201527f69616c733a2076616c696461746f72496e646963657320616e642070726f6f666064820152740e640daeae6e840c4ca40e6c2daca40d8cadccee8d605b1b608482015260a4016106a4565b603354600160a01b90046001600160401b031615806109a2575060335461098c9061098790600160a01b90046001600160401b031661202c565b612116565b6001600160401b0316896001600160401b031610155b610a2e5760405162461bcd60e51b815260206004820152605160248201527f456967656e506f642e7665726966795769746864726177616c43726564656e7460448201527f69616c733a2070726f6f66206d75737420626520696e207468652065706f63686064820152701030b33a32b91030b1ba34bb30ba34b7b760791b608482015260a4016106a4565b42610a44613f486001600160401b038c16614c9f565b1015610acd5760405162461bcd60e51b815260206004820152604c60248201527f456967656e506f642e7665726966795769746864726177616c43726564656e7460448201527f69616c733a207370656369666965642074696d657374616d7020697320746f6f60648201526b0819985c881a5b881c185cdd60a21b608482015260a4016106a4565b60405163d1c64cc960e01b81526001600160401b038a166004820152610b76907f00000000000000000000000000000000000000000000000000000000000000006001600160a01b03169063d1c64cc990602401602060405180830381865afa158015610b3e573d6000803e3d6000fd5b505050506040513d601f19601f82011682018060405250810190610b6291906154ad565b8935610b7160208c018c6154c6565b612163565b6000805b87811015610c1a57610bfc8b8b358b8b85818110610b9a57610b9a61550c565b9050602002016020810190610baf9190615522565b8a8a86818110610bc157610bc161550c565b9050602002810190610bd391906154c6565b8a8a88818110610be557610be561550c565b9050602002810190610bf79190615549565b6122f1565b610c069083614c9f565b915080610c1281615592565b915050610b7a565b5060335460405163030b147160e61b81526001600160a01b039182166004820152602481018390527f00000000000000000000000000000000000000000000000000000000000000009091169063c2c51c40906044015b600060405180830381600087803b158015610c8b57600080fd5b505af1158015610c9f573d6000803e3d6000fd5b5050505050505050505050505050565b600080610cf184848080601f0160208091040260200160405190810160405280939291908181526020018383808284376000920191909152506127ab92505050565b600090815260366020526040902054600160c01b900460ff169150505b92915050565b610d3c6040805160808101825260008082526020820181905291810182905290606082015290565b600082815260366020908152604091829020825160808101845281546001600160401b038082168352600160401b8204811694830194909452600160801b810490931693810193909352906060830190600160c01b900460ff166002811115610da757610da7614ec1565b6002811115610db857610db8614ec1565b90525092915050565b336001600160a01b037f00000000000000000000000000000000000000000000000000000000000000001614610e095760405162461bcd60e51b81526004016106a4906155ad565b346801bc16d674ec80000014610e955760405162461bcd60e51b8152602060048201526044602482018190527f456967656e506f642e7374616b653a206d75737420696e697469616c6c792073908201527f74616b6520666f7220616e792076616c696461746f72207769746820333220656064820152633a3432b960e11b608482015260a4016106a4565b7f00000000000000000000000000000000000000000000000000000000000000006001600160a01b031663228951186801bc16d674ec8000008787610ed86128a5565b8888886040518863ffffffff1660e01b8152600401610efc9695949392919061567f565b6000604051808303818588803b158015610f1557600080fd5b505af1158015610f29573d6000803e3d6000fd5b50505050507f606865b7934a25d4aed43f6cdb426403353fa4b3009c4d228407474581b01e238585604051610f5f9291906156ce565b60405180910390a15050505050565b604051635ac86ab760e01b8152600360048201819052907f00000000000000000000000000000000000000000000000000000000000000006001600160a01b031690635ac86ab790602401602060405180830381865afa158015610fd6573d6000803e3d6000fd5b505050506040513d601f19601f82011682018060405250810190610ffa9190615397565b156110175760405162461bcd60e51b81526004016106a4906153b9565b868414801561102557508382145b6110ae5760405162461bcd60e51b815260206004820152604e60248201527f456967656e506f642e76657269667942616c616e6365557064617465733a207660448201527f616c696461746f72496e646963657320616e642070726f6f6673206d7573742060648201526d0c4ca40e6c2daca40d8cadccee8d60931b608482015260a4016106a4565b426110c4613f486001600160401b038c16614c9f565b10156111465760405162461bcd60e51b815260206004820152604560248201527f456967656e506f642e76657269667942616c616e6365557064617465733a207360448201527f70656369666965642074696d657374616d7020697320746f6f2066617220696e606482015264081c185cdd60da1b608482015260a4016106a4565b60405163d1c64cc960e01b81526001600160401b038a1660048201526111ea907f00000000000000000000000000000000000000000000000000000000000000006001600160a01b03169063d1c64cc990602401602060405180830381865afa1580156111b7573d6000803e3d6000fd5b505050506040513d601f19601f820116820180604052508101906111db91906154ad565b8735610b7160208a018a6154c6565b6000805b8881101561128e576112708b8b8b8481811061120c5761120c61550c565b90506020020160208101906112219190615522565b8a358a8a868181106112355761123561550c565b905060200281019061124791906154c6565b8a8a888181106112595761125961550c565b905060200281019061126b9190615549565b6128ea565b61127a90836156e2565b91508061128681615592565b9150506111ee565b506033546001600160a01b037f000000000000000000000000000000000000000000000000000000000000000081169163c2c51c4091166112d3633b9aca0085615723565b6040516001600160e01b031960e085901b1681526001600160a01b0390921660048301526024820152604401610c71565b61132c6040805160808101825260008082526020820181905291810182905290606082015290565b6036600061136f85858080601f0160208091040260200160405190810160405280939291908181526020018383808284376000920191909152506127ab92505050565b81526020808201929092526040908101600020815160808101835281546001600160401b038082168352600160401b8204811695830195909552600160801b81049094169281019290925290916060830190600160c01b900460ff1660028111156113dc576113dc614ec1565b60028111156113ed576113ed614ec1565b9052509392505050565b6033546001600160a01b031633146114215760405162461bcd60e51b81526004016106a490615416565b603454600160401b900460ff161561144b5760405162461bcd60e51b81526004016106a49061545e565b603354611460906001600160a01b0316611ff8565b565b336001600160a01b037f000000000000000000000000000000000000000000000000000000000000000016146114aa5760405162461bcd60e51b81526004016106a4906155ad565b6114b8633b9aca00826157be565b156115425760405162461bcd60e51b815260206004820152604e60248201527f456967656e506f642e776974686472617752657374616b6564426561636f6e4360448201527f6861696e4554483a20616d6f756e74576569206d75737420626520612077686f60648201526d1b194811ddd95a48185b5bdd5b9d60921b608482015260a4016106a4565b6000611552633b9aca00836157d2565b6034549091506001600160401b03908116908216111561160b5760405162461bcd60e51b815260206004820152606260248201527f456967656e506f642e776974686472617752657374616b6564426561636f6e4360448201527f6861696e4554483a20616d6f756e74477765692065786365656473207769746860648201527f6472617761626c6552657374616b6564457865637574696f6e4c617965724777608482015261656960f01b60a482015260c4016106a4565b603480548291906000906116299084906001600160401b03166157e6565b92506101000a8154816001600160401b0302191690836001600160401b03160217905550826001600160a01b03167f8947fd2ce07ef9cc302c4e8f0461015615d91ce851564839e91cc804c2f49d8e8360405161168891815260200190565b60405180910390a261169a8383612dc8565b505050565b600054610100900460ff16158080156116bf5750600054600160ff909116105b806116d95750303b1580156116d9575060005460ff166001145b61173c5760405162461bcd60e51b815260206004820152602e60248201527f496e697469616c697a61626c653a20636f6e747261637420697320616c72656160448201526d191e481a5b9a5d1a585b1a5e995960921b60648201526084016106a4565b6000805460ff19166001179055801561175f576000805461ff0019166101001790555b6001600160a01b0382166117d25760405162461bcd60e51b815260206004820152603460248201527f456967656e506f642e696e697469616c697a653a20706f644f776e65722063616044820152736e6e6f74206265207a65726f206164647265737360601b60648201526084016106a4565b603380546001600160a01b0384166001600160a01b031990911681179091556034805460ff60401b1916600160401b1790556040517fca8dfc8c5e0a67a74501c072a3325f685259bebbae7cfd230ab85198a78b70cd90600090a28015611873576000805461ff0019169055604051600181527f7f26b83ff96e1f2b6a682f133852f6798a09c465da95921460cefb38474024989060200160405180910390a15b5050565b6033546001600160a01b031633146118a15760405162461bcd60e51b81526004016106a490615416565b604051635ac86ab760e01b8152600560048201819052907f00000000000000000000000000000000000000000000000000000000000000006001600160a01b031690635ac86ab790602401602060405180830381865afa158015611909573d6000803e3d6000fd5b505050506040513d601f19601f8201168201806040525081019061192d9190615397565b1561194a5760405162461bcd60e51b81526004016106a4906153b9565b82518451146119d55760405162461bcd60e51b815260206004820152604b60248201527f456967656e506f642e7265636f766572546f6b656e733a20746f6b656e4c697360448201527f7420616e6420616d6f756e7473546f5769746864726177206d7573742062652060648201526a0e6c2daca40d8cadccee8d60ab1b608482015260a4016106a4565b60005b8451811015611a4357611a31838583815181106119f7576119f761550c565b6020026020010151878481518110611a1157611a1161550c565b60200260200101516001600160a01b0316612dd29092919063ffffffff16565b80611a3b81615592565b9150506119d8565b5050505050565b604051635ac86ab760e01b81526004808201819052907f00000000000000000000000000000000000000000000000000000000000000006001600160a01b031690635ac86ab790602401602060405180830381865afa158015611ab1573d6000803e3d6000fd5b505050506040513d601f19601f82011682018060405250810190611ad59190615397565b15611af25760405162461bcd60e51b81526004016106a4906153b9565b8386148015611b0057508588145b8015611b0b57508782145b611b7f576040805162461bcd60e51b81526020600482015260248101919091527f456967656e506f642e766572696679416e6450726f636573735769746864726160448201527f77616c733a20696e70757473206d7573742062652073616d65206c656e67746860648201526084016106a4565b60405163d1c64cc960e01b81526001600160401b038c166004820152611c23907f00000000000000000000000000000000000000000000000000000000000000006001600160a01b03169063d1c64cc990602401602060405180830381865afa158015611bf0573d6000803e3d6000fd5b505050506040513d601f19601f82011682018060405250810190611c1491906154ad565b8b35610b7160208e018e6154c6565b604080518082019091526000808252602082015260005b83811015611d23576000611cde8d358d8d85818110611c5b57611c5b61550c565b9050602002810190611c6d919061580e565b8c8c86818110611c7f57611c7f61550c565b9050602002810190611c9191906154c6565b8c8c88818110611ca357611ca361550c565b9050602002810190611cb59190615549565b8c8c8a818110611cc757611cc761550c565b9050602002810190611cd99190615549565b612e24565b80518451919250908490611cf3908390614c9f565b9052506020808201519084018051611d0c9083906156e2565b905250819050611d1b81615592565b915050611c3a565b50805115611d52576033548151611d52916001600160a01b031690611d4d90633b9aca009061582f565b61339c565b602081015115611e075760335460208201516001600160a01b037f000000000000000000000000000000000000000000000000000000000000000081169263c2c51c4092911690611da890633b9aca0090615723565b6040516001600160e01b031960e085901b1681526001600160a01b0390921660048301526024820152604401600060405180830381600087803b158015611dee57600080fd5b505af1158015611e02573d6000803e3d6000fd5b505050505b505050505050505050505050565b6033546001600160a01b03163314611e3f5760405162461bcd60e51b81526004016106a490615416565b604051635ac86ab760e01b8152600560048201819052907f00000000000000000000000000000000000000000000000000000000000000006001600160a01b031690635ac86ab790602401602060405180830381865afa158015611ea7573d6000803e3d6000fd5b505050506040513d601f19601f82011682018060405250810190611ecb9190615397565b15611ee85760405162461bcd60e51b81526004016106a4906153b9565b603754821115611f995760405162461bcd60e51b815260206004820152606a60248201527f456967656e506f642e77697468647261776e6f6e426561636f6e436861696e4560448201527f544842616c616e63655765693a20616d6f756e74546f5769746864726177206960648201527f732067726561746572207468616e206e6f6e426561636f6e436861696e45544860848201526942616c616e636557656960b01b60a482015260c4016106a4565b8160376000828254611fab919061584e565b90915550506040518281526001600160a01b038416907f30420aacd028abb3c1fd03aba253ae725d6ddd52d16c9ac4cb5742cd43f530969060200160405180910390a261169a838361339c565b6033805467ffffffffffffffff60a01b19164263ffffffff16600160a01b021790556000603755612029814761339c565b50565b60007f00000000000000000000000000000000000000000000000000000000000000006001600160401b0316826001600160401b031610156120d65760405162461bcd60e51b815260206004820152603760248201527f456967656e506f642e5f74696d657374616d70546f45706f63683a2074696d6560448201527f7374616d70206973206265666f72652067656e6573697300000000000000000060648201526084016106a4565b6120e2600c6020615865565b61210c7f0000000000000000000000000000000000000000000000000000000000000000846157e6565b610d0e9190615894565b6000612124600c6020615865565b61212f8360016158ba565b6121399190615865565b610d0e907f00000000000000000000000000000000000000000000000000000000000000006158ba565b61216f6003602061582f565b81146121ff5760405162461bcd60e51b815260206004820152605360248201527f426561636f6e436861696e50726f6f66732e7665726966795374617465526f6f60448201527f74416761696e73744c6174657374426c6f636b526f6f743a2050726f6f6620686064820152720c2e640d2dcc6dee4e4cac6e840d8cadccee8d606b1b608482015260a4016106a4565b61224482828080601f0160208091040260200160405190810160405280939291908181526020018383808284376000920191909152508892508791506003905061342a565b6122eb5760405162461bcd60e51b815260206004820152606660248201527f426561636f6e436861696e50726f6f66732e7665726966795374617465526f6f60448201527f74416761696e73744c6174657374426c6f636b526f6f743a20496e76616c696460648201527f206c617465737420626c6f636b2068656164657220726f6f74206d65726b6c6560848201526510383937b7b360d11b60a482015260c4016106a4565b50505050565b60008061233084848080602002602001604051908101604052809392919081815260200183836020028082843760009201919091525061344292505050565b6000818152603660209081526040808320815160808101835281546001600160401b038082168352600160401b8204811695830195909552600160801b8104909416928101929092529394509192906060830190600160c01b900460ff16600281111561239f5761239f614ec1565b60028111156123b0576123b0614ec1565b90525090506000816060015160028111156123cd576123cd614ec1565b146124765760405162461bcd60e51b815260206004820152606760248201527f456967656e506f642e766572696679436f72726563745769746864726177616c60448201527f43726564656e7469616c733a2056616c696461746f72206d757374206265206960648201527f6e61637469766520746f2070726f7665207769746864726177616c2063726564608482015266656e7469616c7360c81b60a482015260c4016106a4565b61247e6128a5565b612487906158e5565b6124c386868080602002602001604051908101604052809392919081815260200183836020028082843760009201919091525061346692505050565b1461254a5760405162461bcd60e51b815260206004820152604b60248201527f456967656e506f642e766572696679436f72726563745769746864726177616c60448201527f43726564656e7469616c733a2050726f6f66206973206e6f7420666f7220746860648201526a1a5cc8115a59d95b941bd960aa1b608482015260a4016106a4565b600061258886868080602002602001604051908101604052809392919081815260200183836020028082843760009201919091525061347b92505050565b90506125988a87878b8b8e6134a0565b603980549060006125a883615592565b90915550506001606083015264ffffffffff891682526001600160401b038b811660408401527f00000000000000000000000000000000000000000000000000000000000000008116908216111561262e576001600160401b037f000000000000000000000000000000000000000000000000000000000000000016602083015261263e565b6001600160401b03811660208301525b6000838152603660209081526040918290208451815492860151938601516001600160401b03908116600160801b0267ffffffffffffffff60801b19958216600160401b026001600160801b0319909516919092161792909217928316821781556060850151859391929091839160ff60c01b191668ffffffffffffffffff60801b1990911617600160c01b8360028111156126dc576126dc614ec1565b02179055505060405164ffffffffff8b1681527f2d0800bbc377ea54a08c5db6a87aafff5e3e9c8fead0eda110e40e0c10441449915060200160405180910390a17f0e5fac175b83177cc047381e030d8fb3b42b37bd1c025e22c280facad62c32df898c84602001516040516127779392919064ffffffffff9390931683526001600160401b03918216602084015216604082015260600190565b60405180910390a1633b9aca0082602001516001600160401b031661279c919061582f565b9b9a5050505050505050505050565b600081516030146128345760405162461bcd60e51b815260206004820152604760248201527f456967656e506f642e5f63616c63756c61746556616c696461746f725075626b60448201527f657948617368206d75737420626520612034382d6279746520424c53207075626064820152666c6963206b657960c81b608482015260a4016106a4565b60405160029061284b908490600090602001615909565b60408051601f198184030181529082905261286591615938565b602060405180830381855afa158015612882573d6000803e3d6000fd5b5050506040513d601f19601f82011682018060405250810190610d0e91906154ad565b60408051600160f81b60208201526000602182015230606090811b6bffffffffffffffffffffffff1916602c8301529101604051602081830303815290604052905090565b60008061292984848080602002602001604051908101604052809392919081815260200183836020028082843760009201919091525061347b92505050565b9050600061296985858080602002602001604051908101604052809392919081815260200183836020028082843760009201919091525061344292505050565b6000818152603660209081526040808320815160808101835281546001600160401b038082168352600160401b8204811695830195909552600160801b8104909416928101929092529394509192906060830190600160c01b900460ff1660028111156129d8576129d8614ec1565b60028111156129e9576129e9614ec1565b8152505090508a6001600160401b031681604001516001600160401b031610612aa05760405162461bcd60e51b815260206004820152605c60248201527f456967656e506f642e76657269667942616c616e63655570646174653a20566160448201527f6c696461746f72732062616c616e63652068617320616c72656164792062656560648201527f6e207570646174656420666f7220746869732074696d657374616d7000000000608482015260a4016106a4565b600181606001516002811115612ab857612ab8614ec1565b14612b205760405162461bcd60e51b815260206004820152603260248201527f456967656e506f642e76657269667942616c616e63655570646174653a2056616044820152716c696461746f72206e6f742061637469766560701b60648201526084016106a4565b612b298b61202c565b6001600160401b0316612b6e8787808060200260200160405190810160405280939291908181526020018383602002808284376000920191909152506136f792505050565b6001600160401b031611612c11576000836001600160401b031611612c115760405162461bcd60e51b815260206004820152604d60248201527f456967656e506f642e76657269667942616c616e63655570646174653a20766160448201527f6c696461746f7220697320776974686472617761626c6520627574206861732060648201526c3737ba103bb4ba34323930bbb760991b608482015260a4016106a4565b612c1f8987878b8b8f6134a0565b602081015160006001600160401b037f000000000000000000000000000000000000000000000000000000000000000081169086161115612c8157507f0000000000000000000000000000000000000000000000000000000000000000612c84565b50835b6001600160401b0380821660208086019182528f831660408088019182526000898152603690935290912086518154935192518516600160801b0267ffffffffffffffff60801b19938616600160401b026001600160801b031990951691909516179290921790811683178255606086015186939091839160ff60c01b191668ffffffffffffffffff60801b1990911617600160c01b836002811115612d2c57612d2c614ec1565b0217905550905050816001600160401b0316816001600160401b031614612db8577f0e5fac175b83177cc047381e030d8fb3b42b37bd1c025e22c280facad62c32df8c8e83604051612da39392919064ffffffffff9390931683526001600160401b03918216602084015216604082015260600190565b60405180910390a1612db5818361370f565b95505b5050505050979650505050505050565b611873828261372e565b604080516001600160a01b038416602482015260448082018490528251808303909101815260649091019091526020810180516001600160e01b031663a9059cbb60e01b17905261169a908490613847565b6040805180820190915260008082526020820152612e49612e44896159b9565b613919565b6033546001600160401b03600160a01b90910481169082161015612f0b5760405162461bcd60e51b815260206004820152606760248201527f456967656e506f642e70726f6f664973466f7256616c696454696d657374616d60448201527f703a20626561636f6e20636861696e2070726f6f66206d75737420626520617460648201527f206f72206166746572206d6f7374526563656e745769746864726177616c546960848201526606d657374616d760cc1b60a482015260c4016106a4565b6000612f19612e448b6159b9565b90506000612f5988888080602002602001604051908101604052809392919081815260200183836020028082843760009201919091525061344292505050565b905060008082815260366020526040902054600160c01b900460ff166002811115612f8657612f86614ec1565b141561303d5760405162461bcd60e51b815260206004820152607460248201527f456967656e506f642e5f766572696679416e6450726f6365737357697468647260448201527f6177616c3a2056616c696461746f72206e657665722070726f76656e20746f2060648201527f68617665207769746864726177616c2063726564656e7469616c7320706f696e6084820152731d1959081d1bc81d1a1a5cc818dbdb9d1c9858dd60621b60a482015260c4016106a4565b60008181526035602090815260408083206001600160401b038616845290915290205460ff16156130fc5760405162461bcd60e51b815260206004820152605b60248201527f456967656e506f642e5f766572696679416e6450726f6365737357697468647260448201527f6177616c3a207769746864726177616c2068617320616c72656164792062656560648201527f6e2070726f76656e20666f7220746869732074696d657374616d700000000000608482015260a4016106a4565b6001603560008381526020019081526020016000206000846001600160401b03166001600160401b0316815260200190815260200160002060006101000a81548160ff0219169083151502179055506131d98c87878e7f00000000000000000000000000000000000000000000000000000000000000006001600160a01b03166344e71c806040518163ffffffff1660e01b8152600401602060405180830381865afa1580156131b0573d6000803e3d6000fd5b505050506040513d601f19601f820116820180604052508101906131d49190615af5565b613929565b600061321787878080602002602001604051908101604052809392919081815260200183836020028082843760009201919091525061434a92505050565b90506132278d8a8a8e8e866134a0565b600061326588888080602002602001604051908101604052809392919081815260200183836020028082843760009201919091525061436292505050565b90506132a38a8a808060200260200160405190810160405280939291908181526020018383602002808284376000920191909152506136f792505050565b6001600160401b03166132bd6132b88f6159b9565b61437a565b6001600160401b03161061337557603354600084815260366020908152604091829020825160808101845281546001600160401b038082168352600160401b8204811694830194909452600160801b81049093169381019390935261336a93869388938a936001600160a01b03909316928892916060830190600160c01b900460ff16600281111561335157613351614ec1565b600281111561336257613362614ec1565b90525061438c565b95505050505061338f565b60335461336a90839086906001600160a01b0316846145ca565b5098975050505050505050565b603354604051633036cd5360e21b81526001600160a01b03918216600482015283821660248201527f00000000000000000000000000000000000000000000000000000000000000009091169063c0db354c9083906044016000604051808303818588803b15801561340d57600080fd5b505af1158015613421573d6000803e3d6000fd5b50505050505050565b6000836134388685856146a8565b1495945050505050565b6000816000815181106134575761345761550c565b60200260200101519050919050565b6000816001815181106134575761345761550c565b6000610d0e826002815181106134935761349361550c565b60200260200101516147f4565b6134ac60036002615bf6565b84146135375760405162461bcd60e51b815260206004820152604e60248201527f426561636f6e436861696e50726f6f66732e76657269667956616c696461746f60448201527f724669656c64733a2056616c696461746f72206669656c64732068617320696e60648201526d0c6dee4e4cac6e840d8cadccee8d60931b608482015260a4016106a4565b600561354560286001614c9f565b61354f9190614c9f565b61355a90602061582f565b82146135da5760405162461bcd60e51b815260206004820152604360248201527f426561636f6e436861696e50726f6f66732e76657269667956616c696461746f60448201527f724669656c64733a2050726f6f662068617320696e636f7272656374206c656e6064820152620cee8d60eb1b608482015260a4016106a4565b600064ffffffffff82166135f060286001614c9f565b600b901b179050600061363587878080602002602001604051908101604052809392919081815260200183836020028082843760009201919091525061485b92505050565b905061367b85858080601f0160208091040260200160405190810160405280939291908181526020018383808284376000920191909152508c925085915086905061342a565b6136ed5760405162461bcd60e51b815260206004820152603d60248201527f426561636f6e436861696e50726f6f66732e76657269667956616c696461746f60448201527f724669656c64733a20496e76616c6964206d65726b6c652070726f6f6600000060648201526084016106a4565b5050505050505050565b6000610d0e826007815181106134935761349361550c565b60006137276001600160401b03808416908516615c02565b9392505050565b8047101561377e5760405162461bcd60e51b815260206004820152601d60248201527f416464726573733a20696e73756666696369656e742062616c616e636500000060448201526064016106a4565b6000826001600160a01b03168260405160006040518083038185875af1925050503d80600081146137cb576040519150601f19603f3d011682016040523d82523d6000602084013e6137d0565b606091505b505090508061169a5760405162461bcd60e51b815260206004820152603a60248201527f416464726573733a20756e61626c6520746f2073656e642076616c75652c207260448201527f6563697069656e74206d6179206861766520726576657274656400000000000060648201526084016106a4565b600061389c826040518060400160405280602081526020017f5361666545524332303a206c6f772d6c6576656c2063616c6c206661696c6564815250856001600160a01b0316614b089092919063ffffffff16565b80519091501561169a57808060200190518101906138ba9190615397565b61169a5760405162461bcd60e51b815260206004820152602a60248201527f5361666545524332303a204552433230206f7065726174696f6e20646964206e6044820152691bdd081cdd58d8d9595960b21b60648201526084016106a4565b6000610d0e8261014001516147f4565b613934600280615bf6565b83146139a85760405162461bcd60e51b81526020600482015260496024820152600080516020615c8983398151915260448201527f616c3a207769746864726177616c4669656c64732068617320696e636f7272656064820152680c6e840d8cadccee8d60bb1b608482015260a4016106a4565b6139b4600d6002615bf6565b6139c460c0840160a08501615c41565b6001600160401b031610613a2e5760405162461bcd60e51b815260206004820152603f6024820152600080516020615c8983398151915260448201527f616c3a20626c6f636b526f6f74496e64657820697320746f6f206c617267650060648201526084016106a4565b613a3a60046002615bf6565b613a4b610100840160e08501615c41565b6001600160401b031610613ab7576040805162461bcd60e51b8152602060048201526024810191909152600080516020615c8983398151915260448201527f616c3a207769746864726177616c496e64657820697320746f6f206c6172676560648201526084016106a4565b613ac360186002615bf6565b613ad360e0840160c08501615c41565b6001600160401b031610613b4d5760405162461bcd60e51b81526020600482015260476024820152600080516020615c8983398151915260448201527f616c3a20686973746f726963616c53756d6d617279496e64657820697320746f6064820152666f206c6172676560c81b608482015260a4016106a4565b60006001600160401b038216613b65612e44856159b9565b6001600160401b031610613b7a576005613b7d565b60045b9050613b8a600482614c9f565b613b95906001614c9f565b613ba090602061582f565b613baa84806154c6565b905014613c1e5760405162461bcd60e51b81526020600482015260486024820152600080516020615c8983398151915260448201527f616c3a207769746864726177616c50726f6f662068617320696e636f727265636064820152670e840d8cadccee8d60c31b608482015260a4016106a4565b613c2a60046003614c9f565b613c3590602061582f565b613c4260408501856154c6565b905014613cbc5760405162461bcd60e51b815260206004820152604e6024820152600080516020615c8983398151915260448201527f616c3a20657865637574696f6e5061796c6f616450726f6f662068617320696e60648201526d0c6dee4e4cac6e840d8cadccee8d60931b608482015260a4016106a4565b613cc86003602061582f565b613cd560208501856154c6565b905014613d435760405162461bcd60e51b81526020600482015260426024820152600080516020615c8983398151915260448201527f616c3a20736c6f7450726f6f662068617320696e636f7272656374206c656e676064820152610e8d60f31b608482015260a4016106a4565b613d4e81602061582f565b613d5b60608501856154c6565b905014613dce5760405162461bcd60e51b81526020600482015260476024820152600080516020615c8983398151915260448201527f616c3a2074696d657374616d7050726f6f662068617320696e636f7272656374606482015266040d8cadccee8d60cb1b608482015260a4016106a4565b600d613ddc60186001614c9f565b613de7906005614c9f565b613df2906001614c9f565b613dfc9190614c9f565b613e0790602061582f565b613e1460808501856154c6565b905014613e9d5760405162461bcd60e51b81526020600482015260586024820152600080516020615c8983398151915260448201527f616c3a20686973746f726963616c53756d6d617279426c6f636b526f6f74507260648201527f6f6f662068617320696e636f7272656374206c656e6774680000000000000000608482015260a4016106a4565b6000613eaf60c0850160a08601615c41565b6001600160401b03166000613ec6600d6001614c9f565b613ed660e0880160c08901615c41565b6001600160401b0316901b600d613eef60186001614c9f565b613efa906001614c9f565b613f049190614c9f565b601b901b1717179050613f5f613f1d60808601866154c6565b8080601f0160208091040260200160405190810160405280939291908181526020018383808284376000920191909152508b925050506101008701358461342a565b613fd25760405162461bcd60e51b815260206004820152604a6024820152600080516020615c8983398151915260448201527f616c3a20496e76616c696420686973746f726963616c73756d6d617279206d656064820152693935b63290383937b7b360b11b608482015260a4016106a4565b614029613fe260208601866154c6565b8080601f01602080910402602001604051908101604052809392919081815260200183838082843760009201829052506101008a013593506101208a01359250905061342a565b6140895760405162461bcd60e51b815260206004820152603d6024820152600080516020615c8983398151915260448201527f616c3a20496e76616c696420736c6f74206d65726b6c652070726f6f6600000060648201526084016106a4565b60496140e161409b60408701876154c6565b8080601f0160208091040260200160405190810160405280939291908181526020018383808284376000920191909152505050506101008701356101608801358461342a565b6141535760405162461bcd60e51b81526020600482015260496024820152600080516020615c8983398151915260448201527f616c3a20496e76616c696420657865637574696f6e5061796c6f6164206d657260648201526835b63290383937b7b360b91b608482015260a4016106a4565b506141ab61416460608601866154c6565b8080601f016020809104026020016040519081016040528093929190818152602001838380828437600092019190915250505050610160860135610140870135600961342a565b6142165760405162461bcd60e51b81526020600482015260426024820152600080516020615c8983398151915260448201527f616c3a20496e76616c69642074696d657374616d70206d65726b6c652070726f60648201526137b360f11b608482015260a4016106a4565b6000614229610100860160e08701615c41565b6001600160401b031661423e60046001614c9f565b600e901b179050600061428388888080602002602001604051908101604052809392919081815260200183836020028082843760009201919091525061485b92505050565b90506142d361429287806154c6565b8080601f016020809104026020016040519081016040528093929190818152602001838380828437600092019190915250505050610160880135838561342a565b61433f5760405162461bcd60e51b81526020600482015260436024820152600080516020615c8983398151915260448201527f616c3a20496e76616c6964207769746864726177616c206d65726b6c6520707260648201526237b7b360e91b608482015260a4016106a4565b505050505050505050565b6000610d0e826001815181106134935761349361550c565b6000610d0e826003815181106134935761349361550c565b6000602061210c8361012001516147f4565b604080518082019091526000808252602082015260007f00000000000000000000000000000000000000000000000000000000000000006001600160401b0316846001600160401b0316111561440357507f0000000000000000000000000000000000000000000000000000000000000000614406565b50825b604080518082019091526000808252602082015261442482866157e6565b6001600160401b039081168252603480548492600091614446918591166158ba565b92506101000a8154816001600160401b0302191690836001600160401b0316021790555061447882856020015161370f565b602082015260028460600151600281111561449557614495614ec1565b146144b757603980549060006144aa83615c5e565b9091555050600260608501525b600060208086018281528a83526036909152604091829020865181549251938801516001600160401b03908116600160801b0267ffffffffffffffff60801b19958216600160401b026001600160801b0319909516929091169190911792909217928316821781556060870151879391929091839160ff60c01b191668ffffffffffffffffff60801b1990911617600160c01b83600281111561455c5761455c614ec1565b0217905550506040805164ffffffffff8c1681526001600160401b038a8116602083015288168183015290516001600160a01b03891692507fb76a93bb649ece524688f1a01d184e0bbebcda58eae80c28a898bec3fb5a09639181900360600190a298975050505050505050565b60408051808201909152600080825260208201526040805164ffffffffff871681526001600160401b0380871660208301528416918101919091526001600160a01b038416907f8a7335714231dbd551aaba6314f4a97a14c201e53a3e25e1140325cdf67d7a4e9060600160405180910390a26038805483919060009061465b9084906001600160401b03166158ba565b92506101000a8154816001600160401b0302191690836001600160401b031602179055506040518060400160405280836001600160401b0316815260200160008152509050949350505050565b600083516000141580156146c75750602084516146c591906157be565b155b6147565760405162461bcd60e51b815260206004820152605460248201527f4d65726b6c652e70726f63657373496e636c7573696f6e50726f6f665368613260448201527f35363a2070726f6f66206c656e6774682073686f756c642062652061206e6f6e60648201527316bd32b9379036bab63a34b836329037b310199960611b608482015260a4016106a4565b604080516020808201909252848152905b855181116147ea5761477a6002856157be565b6147ad578151600052808601516020526020826040600060026107d05a03fa6147a257600080fd5b6002840493506147d8565b8086015160005281516020526020826040600060026107d05a03fa6147d157600080fd5b6002840493505b6147e3602082614c9f565b9050614767565b5051949350505050565b60f881901c60e882901c61ff00161760d882901c62ff0000161760c882901c63ff000000161764ff0000000060b883901c161765ff000000000060a883901c161766ff000000000000609883901c161767ff0000000000000060889290921c919091161790565b6000806002835161486c91906157d2565b90506000816001600160401b03811115614888576148886150ce565b6040519080825280602002602001820160405280156148b1578160200160208202803683370190505b50905060005b828110156149b8576002856148cc838361582f565b815181106148dc576148dc61550c565b6020026020010151868360026148f2919061582f565b6148fd906001614c9f565b8151811061490d5761490d61550c565b602002602001015160405160200161492f929190918252602082015260400190565b60408051601f198184030181529082905261494991615938565b602060405180830381855afa158015614966573d6000803e3d6000fd5b5050506040513d601f19601f8201168201806040525081019061498991906154ad565b82828151811061499b5761499b61550c565b6020908102919091010152806149b081615592565b9150506148b7565b506149c46002836157d2565b91505b8115614ae45760005b82811015614ad1576002826149e5838361582f565b815181106149f5576149f561550c565b602002602001015183836002614a0b919061582f565b614a16906001614c9f565b81518110614a2657614a2661550c565b6020026020010151604051602001614a48929190918252602082015260400190565b60408051601f1981840301815290829052614a6291615938565b602060405180830381855afa158015614a7f573d6000803e3d6000fd5b5050506040513d601f19601f82011682018060405250810190614aa291906154ad565b828281518110614ab457614ab461550c565b602090810291909101015280614ac981615592565b9150506149d0565b50614add6002836157d2565b91506149c7565b80600081518110614af757614af761550c565b602002602001015192505050919050565b6060614b178484600085614b1f565b949350505050565b606082471015614b805760405162461bcd60e51b815260206004820152602660248201527f416464726573733a20696e73756666696369656e742062616c616e636520666f6044820152651c8818d85b1b60d21b60648201526084016106a4565b6001600160a01b0385163b614bd75760405162461bcd60e51b815260206004820152601d60248201527f416464726573733a2063616c6c20746f206e6f6e2d636f6e747261637400000060448201526064016106a4565b600080866001600160a01b03168587604051614bf39190615938565b60006040518083038185875af1925050503d8060008114614c30576040519150601f19603f3d011682016040523d82523d6000602084013e614c35565b606091505b5091509150614c45828286614c50565b979650505050505050565b60608315614c5f575081613727565b825115614c6f5782518084602001fd5b8160405162461bcd60e51b81526004016106a49190615c75565b634e487b7160e01b600052601160045260246000fd5b60008219821115614cb257614cb2614c89565b500190565b6001600160401b038116811461202957600080fd5b8035614cd781614cb7565b919050565b60008060408385031215614cef57600080fd5b823591506020830135614d0181614cb7565b809150509250929050565b600060408284031215614d1e57600080fd5b50919050565b60008083601f840112614d3657600080fd5b5081356001600160401b03811115614d4d57600080fd5b6020830191508360208260051b8501011115614d6857600080fd5b9250929050565b60008060008060008060008060a0898b031215614d8b57600080fd5b8835614d9681614cb7565b975060208901356001600160401b0380821115614db257600080fd5b614dbe8c838d01614d0c565b985060408b0135915080821115614dd457600080fd5b614de08c838d01614d24565b909850965060608b0135915080821115614df957600080fd5b614e058c838d01614d24565b909650945060808b0135915080821115614e1e57600080fd5b50614e2b8b828c01614d24565b999c989b5096995094979396929594505050565b60008083601f840112614e5157600080fd5b5081356001600160401b03811115614e6857600080fd5b602083019150836020828501011115614d6857600080fd5b60008060208385031215614e9357600080fd5b82356001600160401b03811115614ea957600080fd5b614eb585828601614e3f565b90969095509350505050565b634e487b7160e01b600052602160045260246000fd5b60038110614ef557634e487b7160e01b600052602160045260246000fd5b9052565b60208101610d0e8284614ed7565b600060208284031215614f1957600080fd5b5035919050565b60006080820190506001600160401b03808451168352806020850151166020840152806040850151166040840152506060830151614f616060840182614ed7565b5092915050565b600080600080600060608688031215614f8057600080fd5b85356001600160401b0380821115614f9757600080fd5b614fa389838a01614e3f565b90975095506020880135915080821115614fbc57600080fd5b50614fc988828901614e3f565b96999598509660400135949350505050565b60008060008060008060008060a0898b031215614ff757600080fd5b883561500281614cb7565b975060208901356001600160401b038082111561501e57600080fd5b61502a8c838d01614d24565b909950975060408b013591508082111561504357600080fd5b61504f8c838d01614d0c565b965060608b0135915080821115614df957600080fd5b6001600160a01b038116811461202957600080fd5b8035614cd781615065565b6000806040838503121561509857600080fd5b82356150a381615065565b946020939093013593505050565b6000602082840312156150c357600080fd5b813561372781615065565b634e487b7160e01b600052604160045260246000fd5b60405161018081016001600160401b0381118282101715615107576151076150ce565b60405290565b604051601f8201601f191681016001600160401b0381118282101715615135576151356150ce565b604052919050565b60006001600160401b03821115615156576151566150ce565b5060051b60200190565b600082601f83011261517157600080fd5b813560206151866151818361513d565b61510d565b82815260059290921b840181019181810190868411156151a557600080fd5b8286015b848110156151c057803583529183019183016151a9565b509695505050505050565b6000806000606084860312156151e057600080fd5b83356001600160401b03808211156151f757600080fd5b818601915086601f83011261520b57600080fd5b8135602061521b6151818361513d565b82815260059290921b8401810191818101908a84111561523a57600080fd5b948201945b8386101561526157853561525281615065565b8252948201949082019061523f565b9750508701359250508082111561527757600080fd5b5061528486828701615160565b9250506152936040850161507a565b90509250925092565b60008060008060008060008060008060c08b8d0312156152bb57600080fd5b6152c48b614ccc565b995060208b01356001600160401b03808211156152e057600080fd5b6152ec8e838f01614d0c565b9a5060408d013591508082111561530257600080fd5b61530e8e838f01614d24565b909a50985060608d013591508082111561532757600080fd5b6153338e838f01614d24565b909850965060808d013591508082111561534c57600080fd5b6153588e838f01614d24565b909650945060a08d013591508082111561537157600080fd5b5061537e8d828e01614d24565b915080935050809150509295989b9194979a5092959850565b6000602082840312156153a957600080fd5b8151801515811461372757600080fd5b6020808252603e908201527f456967656e506f642e6f6e6c795768656e4e6f745061757365643a20696e646560408201527f782069732070617573656420696e20456967656e506f644d616e616765720000606082015260800190565b60208082526028908201527f456967656e506f642e6f6e6c79456967656e506f644f776e65723a206e6f74206040820152673837b227bbb732b960c11b606082015260800190565b6020808252602f908201527f456967656e506f642e6861734e6576657252657374616b65643a20726573746160408201526e1ada5b99c81a5cc8195b98589b1959608a1b606082015260800190565b6000602082840312156154bf57600080fd5b5051919050565b6000808335601e198436030181126154dd57600080fd5b8301803591506001600160401b038211156154f757600080fd5b602001915036819003821315614d6857600080fd5b634e487b7160e01b600052603260045260246000fd5b60006020828403121561553457600080fd5b813564ffffffffff8116811461372757600080fd5b6000808335601e1984360301811261556057600080fd5b8301803591506001600160401b0382111561557a57600080fd5b6020019150600581901b3603821315614d6857600080fd5b60006000198214156155a6576155a6614c89565b5060010190565b60208082526031908201527f456967656e506f642e6f6e6c79456967656e506f644d616e616765723a206e6f6040820152703a1032b4b3b2b72837b226b0b730b3b2b960791b606082015260800190565b81835281816020850137506000828201602090810191909152601f909101601f19169091010190565b60005b8381101561564257818101518382015260200161562a565b838111156122eb5750506000910152565b6000815180845261566b816020860160208601615627565b601f01601f19169290920160200192915050565b60808152600061569360808301888a6155fe565b82810360208401526156a58188615653565b905082810360408401526156ba8186886155fe565b915050826060830152979650505050505050565b602081526000614b176020830184866155fe565b600080821280156001600160ff1b038490038513161561570457615704614c89565b600160ff1b839003841281161561571d5761571d614c89565b50500190565b60006001600160ff1b038184138284138082168684048611161561574957615749614c89565b600160ff1b600087128281168783058912161561576857615768614c89565b6000871292508782058712848416161561578457615784614c89565b8785058712818416161561579a5761579a614c89565b505050929093029392505050565b634e487b7160e01b600052601260045260246000fd5b6000826157cd576157cd6157a8565b500690565b6000826157e1576157e16157a8565b500490565b60006001600160401b038381169083168181101561580657615806614c89565b039392505050565b6000823561017e1983360301811261582557600080fd5b9190910192915050565b600081600019048311821515161561584957615849614c89565b500290565b60008282101561586057615860614c89565b500390565b60006001600160401b038083168185168183048111821515161561588b5761588b614c89565b02949350505050565b60006001600160401b03808416806158ae576158ae6157a8565b92169190910492915050565b60006001600160401b038083168185168083038211156158dc576158dc614c89565b01949350505050565b80516020808301519190811015614d1e5760001960209190910360031b1b16919050565b6000835161591b818460208801615627565b6001600160801b0319939093169190920190815260100192915050565b60008251615825818460208701615627565b600082601f83011261595b57600080fd5b81356001600160401b03811115615974576159746150ce565b615987601f8201601f191660200161510d565b81815284602083860101111561599c57600080fd5b816020850160208301376000918101602001919091529392505050565b600061018082360312156159cc57600080fd5b6159d46150e4565b82356001600160401b03808211156159eb57600080fd5b6159f73683870161594a565b83526020850135915080821115615a0d57600080fd5b615a193683870161594a565b60208401526040850135915080821115615a3257600080fd5b615a3e3683870161594a565b60408401526060850135915080821115615a5757600080fd5b615a633683870161594a565b60608401526080850135915080821115615a7c57600080fd5b50615a893682860161594a565b608083015250615a9b60a08401614ccc565b60a0820152615aac60c08401614ccc565b60c0820152615abd60e08401614ccc565b60e082015261010083810135908201526101208084013590820152610140808401359082015261016092830135928101929092525090565b600060208284031215615b0757600080fd5b815161372781614cb7565b600181815b80851115615b4d578160001904821115615b3357615b33614c89565b80851615615b4057918102915b93841c9390800290615b17565b509250929050565b600082615b6457506001610d0e565b81615b7157506000610d0e565b8160018114615b875760028114615b9157615bad565b6001915050610d0e565b60ff841115615ba257615ba2614c89565b50506001821b610d0e565b5060208310610133831016604e8410600b8410161715615bd0575081810a610d0e565b615bda8383615b12565b8060001904821115615bee57615bee614c89565b029392505050565b60006137278383615b55565b60008083128015600160ff1b850184121615615c2057615c20614c89565b6001600160ff1b0384018313811615615c3b57615c3b614c89565b50500390565b600060208284031215615c5357600080fd5b813561372781614cb7565b600081615c6d57615c6d614c89565b506000190190565b602081526000613727602083018461565356fe426561636f6e436861696e50726f6f66732e7665726966795769746864726177a26469706673582212204c6d6447c3983ce20ca297bba2a80b97e63c9b6c3e5cc93c9c2399b544df955864736f6c634300080c0033","linkReferences":{}},"methodIdentifiers":{"GENESIS_TIME()":"f2882461","MAX_RESTAKED_BALANCE_GWEI_PER_VALIDATOR()":"1d905d5c","activateRestaking()":"0cd4649e","delayedWithdrawalRouter()":"1a5057be","eigenPodManager()":"4665bcda","ethPOS()":"74cdd798","hasRestaked()":"3106ab53","initialize(address)":"c4d66de8","mostRecentWithdrawalTimestamp()":"87e0d289","nonBeaconChainETHBalanceWei()":"fe80b087","podOwner()":"0b18ff66","provenWithdrawal(bytes32,uint64)":"34bea20a","recoverTokens(address[],uint256[],address)":"dda3346c","stake(bytes,bytes,bytes32)":"9b4e4634","sumOfPartialWithdrawalsClaimedGwei()":"5d3f65b6","validatorPubkeyHashToInfo(bytes32)":"6fcd0e53","validatorPubkeyToInfo(bytes)":"b522538a","validatorStatus(bytes)":"58eaee79","validatorStatus(bytes32)":"7439841f","verifyAndProcessWithdrawals(uint64,(bytes32,bytes),(bytes,bytes,bytes,bytes,bytes,uint64,uint64,uint64,bytes32,bytes32,bytes32,bytes32)[],bytes[],bytes32[][],bytes32[][])":"e251ef52","verifyBalanceUpdates(uint64,uint40[],(bytes32,bytes),bytes[],bytes32[][])":"a50600f4","verifyWithdrawalCredentials(uint64,(bytes32,bytes),uint40[],bytes[],bytes32[][])":"3f65cf19","withdrawBeforeRestaking()":"baa7145a","withdrawNonBeaconChainETHBalanceWei(address,uint256)":"e2c83445","withdrawRestakedBeaconChainETH(address,uint256)":"c4907442","withdrawableRestakedExecutionLayerGwei()":"3474aa16"},"id":100}